{
  "abi": [
    {
      "constant": true,
      "inputs": [
        {
          "name": "addr",
          "type": "address"
        }
      ],
      "name": "is_address_exist",
      "outputs": [
        {
          "name": "",
          "type": "bool"
        }
      ],
      "payable": false,
      "stateMutability": "view",
      "type": "function"
    },
    {
      "constant": true,
      "inputs": [],
      "name": "get_all_addresses",
      "outputs": [
        {
          "name": "",
          "type": "address[]"
        }
      ],
      "payable": false,
      "stateMutability": "view",
      "type": "function"
    },
    {
      "constant": true,
      "inputs": [
        {
          "name": "i",
          "type": "uint256"
        }
      ],
      "name": "get_address",
      "outputs": [
        {
          "name": "",
          "type": "address"
        }
      ],
      "payable": false,
      "stateMutability": "view",
      "type": "function"
    },
    {
      "constant": true,
      "inputs": [],
      "name": "get_address_num",
      "outputs": [
        {
          "name": "",
          "type": "uint256"
        }
      ],
      "payable": false,
      "stateMutability": "view",
      "type": "function"
    },
    {
      "constant": true,
      "inputs": [
        {
          "name": "",
          "type": "uint256"
        }
      ],
      "name": "addresses",
      "outputs": [
        {
          "name": "",
          "type": "address"
        }
      ],
      "payable": false,
      "stateMutability": "view",
      "type": "function"
    },
    {
      "inputs": [],
      "payable": false,
      "stateMutability": "nonpayable",
      "type": "constructor"
    }
  ],
  "bytecode": "608060405234801561001057600080fd5b506102d0806100206000396000f3fe608060405234801561001057600080fd5b50600436106100575760003560e01c806313bc26351461005c578063395dbfae14610096578063493f4f74146100ee578063aebf208514610127578063edf26d9b14610141575b600080fd5b6100826004803603602081101561007257600080fd5b50356001600160a01b031661015e565b604080519115158252519081900360200190f35b61009e61017c565b60408051602080825283518183015283519192839290830191858101910280838360005b838110156100da5781810151838201526020016100c2565b505050509050019250505060405180910390f35b61010b6004803603602081101561010457600080fd5b50356101de565b604080516001600160a01b039092168252519081900360200190f35b61012f610249565b60408051918252519081900360200190f35b61010b6004803603602081101561015757600080fd5b503561024f565b6001600160a01b031660009081526020819052604090205460ff1690565b606060018054806020026020016040519081016040528092919081815260200182805480156101d457602002820191906000526020600020905b81546001600160a01b031681526001909101906020018083116101b6575b5050505050905090565b60015460009082106102215760405162461bcd60e51b81526004018080602001828103825260258152602001806102776025913960400191505060405180910390fd5b6001828154811061022e57fe5b6000918252602090912001546001600160a01b031692915050565b60015490565b6001818154811061025c57fe5b6000918252602090912001546001600160a01b031690508156fe416464726573734c6973743a6765745f616464726573732c206f7574206f662072616e6765a265627a7a72305820db5ae5e540499adbf0dff176358434c5ed6ebebb2aa24cb68abe480bafdb5e3264736f6c634300050a0032",
  "bytecodeSha1": "0587ab4510992dc33a53ef0b010b320e079541b8",
  "compiler": {
    "evm_version": "petersburg",
    "optimizer": {
      "enabled": true,
      "runs": 200
    },
    "version": "0.5.10+commit.5a6ea5b1"
  },
  "contractName": "AddressList",
  "language": "Solidity",
  "natspec": {
    "methods": {}
  },
  "opcodes": "PUSH1 0x80 PUSH1 0x40 MSTORE CALLVALUE DUP1 ISZERO PUSH2 0x10 JUMPI PUSH1 0x0 DUP1 REVERT JUMPDEST POP PUSH1 0x4 CALLDATASIZE LT PUSH2 0x57 JUMPI PUSH1 0x0 CALLDATALOAD PUSH1 0xE0 SHR DUP1 PUSH4 0x13BC2635 EQ PUSH2 0x5C JUMPI DUP1 PUSH4 0x395DBFAE EQ PUSH2 0x96 JUMPI DUP1 PUSH4 0x493F4F74 EQ PUSH2 0xEE JUMPI DUP1 PUSH4 0xAEBF2085 EQ PUSH2 0x127 JUMPI DUP1 PUSH4 0xEDF26D9B EQ PUSH2 0x141 JUMPI JUMPDEST PUSH1 0x0 DUP1 REVERT JUMPDEST PUSH2 0x82 PUSH1 0x4 DUP1 CALLDATASIZE SUB PUSH1 0x20 DUP2 LT ISZERO PUSH2 0x72 JUMPI PUSH1 0x0 DUP1 REVERT JUMPDEST POP CALLDATALOAD PUSH1 0x1 PUSH1 0x1 PUSH1 0xA0 SHL SUB AND PUSH2 0x15E JUMP JUMPDEST PUSH1 0x40 DUP1 MLOAD SWAP2 ISZERO ISZERO DUP3 MSTORE MLOAD SWAP1 DUP2 SWAP1 SUB PUSH1 0x20 ADD SWAP1 RETURN JUMPDEST PUSH2 0x9E PUSH2 0x17C JUMP JUMPDEST PUSH1 0x40 DUP1 MLOAD PUSH1 0x20 DUP1 DUP3 MSTORE DUP4 MLOAD DUP2 DUP4 ADD MSTORE DUP4 MLOAD SWAP2 SWAP3 DUP4 SWAP3 SWAP1 DUP4 ADD SWAP2 DUP6 DUP2 ADD SWAP2 MUL DUP1 DUP4 DUP4 PUSH1 0x0 JUMPDEST DUP4 DUP2 LT ISZERO PUSH2 0xDA JUMPI DUP2 DUP2 ADD MLOAD DUP4 DUP3 ADD MSTORE PUSH1 0x20 ADD PUSH2 0xC2 JUMP JUMPDEST POP POP POP POP SWAP1 POP ADD SWAP3 POP POP POP PUSH1 0x40 MLOAD DUP1 SWAP2 SUB SWAP1 RETURN JUMPDEST PUSH2 0x10B PUSH1 0x4 DUP1 CALLDATASIZE SUB PUSH1 0x20 DUP2 LT ISZERO PUSH2 0x104 JUMPI PUSH1 0x0 DUP1 REVERT JUMPDEST POP CALLDATALOAD PUSH2 0x1DE JUMP JUMPDEST PUSH1 0x40 DUP1 MLOAD PUSH1 0x1 PUSH1 0x1 PUSH1 0xA0 SHL SUB SWAP1 SWAP3 AND DUP3 MSTORE MLOAD SWAP1 DUP2 SWAP1 SUB PUSH1 0x20 ADD SWAP1 RETURN JUMPDEST PUSH2 0x12F PUSH2 0x249 JUMP JUMPDEST PUSH1 0x40 DUP1 MLOAD SWAP2 DUP3 MSTORE MLOAD SWAP1 DUP2 SWAP1 SUB PUSH1 0x20 ADD SWAP1 RETURN JUMPDEST PUSH2 0x10B PUSH1 0x4 DUP1 CALLDATASIZE SUB PUSH1 0x20 DUP2 LT ISZERO PUSH2 0x157 JUMPI PUSH1 0x0 DUP1 REVERT JUMPDEST POP CALLDATALOAD PUSH2 0x24F JUMP JUMPDEST PUSH1 0x1 PUSH1 0x1 PUSH1 0xA0 SHL SUB AND PUSH1 0x0 SWAP1 DUP2 MSTORE PUSH1 0x20 DUP2 SWAP1 MSTORE PUSH1 0x40 SWAP1 KECCAK256 SLOAD PUSH1 0xFF AND SWAP1 JUMP JUMPDEST PUSH1 0x60 PUSH1 0x1 DUP1 SLOAD DUP1 PUSH1 0x20 MUL PUSH1 0x20 ADD PUSH1 0x40 MLOAD SWAP1 DUP2 ADD PUSH1 0x40 MSTORE DUP1 SWAP3 SWAP2 SWAP1 DUP2 DUP2 MSTORE PUSH1 0x20 ADD DUP3 DUP1 SLOAD DUP1 ISZERO PUSH2 0x1D4 JUMPI PUSH1 0x20 MUL DUP3 ADD SWAP2 SWAP1 PUSH1 0x0 MSTORE PUSH1 0x20 PUSH1 0x0 KECCAK256 SWAP1 JUMPDEST DUP2 SLOAD PUSH1 0x1 PUSH1 0x1 PUSH1 0xA0 SHL SUB AND DUP2 MSTORE PUSH1 0x1 SWAP1 SWAP2 ADD SWAP1 PUSH1 0x20 ADD DUP1 DUP4 GT PUSH2 0x1B6 JUMPI JUMPDEST POP POP POP POP POP SWAP1 POP SWAP1 JUMP JUMPDEST PUSH1 0x1 SLOAD PUSH1 0x0 SWAP1 DUP3 LT PUSH2 0x221 JUMPI PUSH1 0x40 MLOAD PUSH3 0x461BCD PUSH1 0xE5 SHL DUP2 MSTORE PUSH1 0x4 ADD DUP1 DUP1 PUSH1 0x20 ADD DUP3 DUP2 SUB DUP3 MSTORE PUSH1 0x25 DUP2 MSTORE PUSH1 0x20 ADD DUP1 PUSH2 0x277 PUSH1 0x25 SWAP2 CODECOPY PUSH1 0x40 ADD SWAP2 POP POP PUSH1 0x40 MLOAD DUP1 SWAP2 SUB SWAP1 REVERT JUMPDEST PUSH1 0x1 DUP3 DUP2 SLOAD DUP2 LT PUSH2 0x22E JUMPI INVALID JUMPDEST PUSH1 0x0 SWAP2 DUP3 MSTORE PUSH1 0x20 SWAP1 SWAP2 KECCAK256 ADD SLOAD PUSH1 0x1 PUSH1 0x1 PUSH1 0xA0 SHL SUB AND SWAP3 SWAP2 POP POP JUMP JUMPDEST PUSH1 0x1 SLOAD SWAP1 JUMP JUMPDEST PUSH1 0x1 DUP2 DUP2 SLOAD DUP2 LT PUSH2 0x25C JUMPI INVALID JUMPDEST PUSH1 0x0 SWAP2 DUP3 MSTORE PUSH1 0x20 SWAP1 SWAP2 KECCAK256 ADD SLOAD PUSH1 0x1 PUSH1 0x1 PUSH1 0xA0 SHL SUB AND SWAP1 POP DUP2 JUMP INVALID COINBASE PUSH5 0x6472657373 0x4c PUSH10 0x73743A6765745F616464 PUSH19 0x6573732C206F7574206F662072616E6765A265 PUSH3 0x7A7A72 ADDRESS PC KECCAK256 0xdb GAS 0xe5 0xe5 BLOCKHASH 0x49 SWAP11 0xdb CREATE 0xdf CALL PUSH23 0x358434C5ED6EBEBB2AA24CB68ABE480BAFDB5E3264736F PUSH13 0x634300050A0032000000000000 ",
  "sha1": "47fea0b94c8c2c07507a02663fb64c5ab374ae48",
  "source": "pragma solidity >=0.4.21 <0.6.0;\n\nimport \"./utils/AddressArray.sol\";\n\ncontract AddressList{\n  using AddressArray for address[];\n  mapping(address => bool) private address_status;\n  address[] public addresses;\n\n  constructor() public{}\n\n  function get_all_addresses() public view returns(address[] memory){\n    return addresses;\n  }\n\n  function get_address(uint i) public view returns(address){\n    require(i < addresses.length, \"AddressList:get_address, out of range\");\n    return addresses[i];\n  }\n\n  function get_address_num() public view returns(uint){\n    return addresses.length;\n  }\n\n  function is_address_exist(address addr) public view returns(bool){\n    return address_status[addr];\n  }\n\n  function _add_address(address addr) internal{\n    if(address_status[addr]) return;\n    address_status[addr] = true;\n    addresses.push(addr);\n  }\n\n  function _remove_address(address addr) internal{\n    if(!address_status[addr]) return;\n    address_status[addr] = false;\n    addresses.remove(addr);\n  }\n\n  function _reset() internal{\n    for(uint i = 0; i < addresses.length; i++){\n      address_status[addresses[i]] = false;\n    }\n    delete addresses;\n  }\n}\n\n",
  "sourcePath": "contracts/AddressList.sol",
  "type": "contract"
}