{
  "abi": [
    {
      "constant": false,
      "inputs": [
        {
          "name": "_target_token",
          "type": "address"
        }
      ],
      "name": "createHEnv",
      "outputs": [
        {
          "name": "",
          "type": "address"
        }
      ],
      "payable": false,
      "stateMutability": "nonpayable",
      "type": "function"
    },
    {
      "anonymous": false,
      "inputs": [
        {
          "indexed": false,
          "name": "addr",
          "type": "address"
        }
      ],
      "name": "NewHEnv",
      "type": "event"
    }
  ],
  "bytecode": "608060405234801561001057600080fd5b50610724806100206000396000f3fe608060405234801561001057600080fd5b506004361061002b5760003560e01c80633171c2f214610030575b600080fd5b6100566004803603602081101561004657600080fd5b50356001600160a01b0316610072565b604080516001600160a01b039092168252519081900360200190f35b6000808260405161008290610156565b6001600160a01b03909116815260405190819003602001906000f0801580156100af573d6000803e3d6000fd5b506040805163f2fde38b60e01b815233600482015290519192506001600160a01b0383169163f2fde38b9160248082019260009290919082900301818387803b1580156100fb57600080fd5b505af115801561010f573d6000803e3d6000fd5b5050604080516001600160a01b038516815290517ff8db8e01fe5f9a756df91f3196760df202053c47216e3f8d325a2d75bebb9ba69350908190036020019150a192915050565b61058c806101648339019056fe608060405234801561001057600080fd5b5060405161058c38038061058c8339818101604052602081101561003357600080fd5b5051600080546001600160a01b031916339081178255604051909182917f8be0079c531659141344cd1fd0a4f28419497f9722a3daafe3b4186f6b6457e0908290a350600180546001600160a01b0319166001600160a01b03929092169190911790556305f5e1006003556104df806100ad6000396000f3fe608060405234801561001057600080fd5b506004361061009e5760003560e01c80638b56b77a116100665780638b56b77a146101105780638da5cb5b14610118578063f2fde38b14610120578063f5985b1814610146578063f9646b89146101635761009e565b80630321e051146100a35780630e775274146100c257806346cc0e0d146100dc5780636d6ca17e1461010057806370f9e52f14610108575b600080fd5b6100c0600480360360208110156100b957600080fd5b5035610189565b005b6100ca610223565b60408051918252519081900360200190f35b6100e4610229565b604080516001600160a01b039092168252519081900360200190f35b6100ca610238565b6100ca61023e565b6100e4610244565b6100e4610253565b6100c06004803603602081101561013657600080fd5b50356001600160a01b0316610262565b6100c06004803603602081101561015c57600080fd5b50356102bb565b6100c06004803603602081101561017957600080fd5b50356001600160a01b0316610355565b6000546001600160a01b031633146101d6576040805162461bcd60e51b8152602060048201819052602482015260008051602061048b833981519152604482015290519081900360640190fd5b600354811061021e576040805162461bcd60e51b815260206004820152600f60248201526e726174696f20746f6f206c6172676560881b604482015290519081900360640190fd5b600555565b60035481565b6002546001600160a01b031681565b60055481565b60045481565b6001546001600160a01b031681565b6000546001600160a01b031690565b6000546001600160a01b031633146102af576040805162461bcd60e51b8152602060048201819052602482015260008051602061048b833981519152604482015290519081900360640190fd5b6102b8816103c4565b50565b6000546001600160a01b03163314610308576040805162461bcd60e51b8152602060048201819052602482015260008051602061048b833981519152604482015290519081900360640190fd5b6003548110610350576040805162461bcd60e51b815260206004820152600f60248201526e726174696f20746f6f206c6172676560881b604482015290519081900360640190fd5b600455565b6000546001600160a01b031633146103a2576040805162461bcd60e51b8152602060048201819052602482015260008051602061048b833981519152604482015290519081900360640190fd5b600280546001600160a01b0319166001600160a01b0392909216919091179055565b6001600160a01b0381166104095760405162461bcd60e51b81526004018080602001828103825260268152602001806104656026913960400191505060405180910390fd5b600080546040516001600160a01b03808516939216917f8be0079c531659141344cd1fd0a4f28419497f9722a3daafe3b4186f6b6457e091a3600080546001600160a01b0319166001600160a01b039290921691909117905556fe4f776e61626c653a206e6577206f776e657220697320746865207a65726f20616464726573734f776e61626c653a2063616c6c6572206973206e6f7420746865206f776e6572a265627a7a72305820129544ae7e2b8443798652dde9bdbfd2c1a386b9c229aafde32cfa54ee4ae92e64736f6c634300050a0032a265627a7a723058201d69ecb585afe74b56301fed073b7e8b643c3fc5f1ec35e690385b8d1d7da85964736f6c634300050a0032",
  "bytecodeSha1": "63ac7ac320b847a28c923b2f1db15963212d4954",
  "compiler": {
    "evm_version": "petersburg",
    "optimizer": {
      "enabled": true,
      "runs": 200
    },
    "version": "0.5.10+commit.5a6ea5b1"
  },
  "contractName": "HEnvFactory",
  "language": "Solidity",
  "natspec": {
    "methods": {}
  },
  "opcodes": "PUSH1 0x80 PUSH1 0x40 MSTORE CALLVALUE DUP1 ISZERO PUSH2 0x10 JUMPI PUSH1 0x0 DUP1 REVERT JUMPDEST POP PUSH1 0x4 CALLDATASIZE LT PUSH2 0x2B JUMPI PUSH1 0x0 CALLDATALOAD PUSH1 0xE0 SHR DUP1 PUSH4 0x3171C2F2 EQ PUSH2 0x30 JUMPI JUMPDEST PUSH1 0x0 DUP1 REVERT JUMPDEST PUSH2 0x56 PUSH1 0x4 DUP1 CALLDATASIZE SUB PUSH1 0x20 DUP2 LT ISZERO PUSH2 0x46 JUMPI PUSH1 0x0 DUP1 REVERT JUMPDEST POP CALLDATALOAD PUSH1 0x1 PUSH1 0x1 PUSH1 0xA0 SHL SUB AND PUSH2 0x72 JUMP JUMPDEST PUSH1 0x40 DUP1 MLOAD PUSH1 0x1 PUSH1 0x1 PUSH1 0xA0 SHL SUB SWAP1 SWAP3 AND DUP3 MSTORE MLOAD SWAP1 DUP2 SWAP1 SUB PUSH1 0x20 ADD SWAP1 RETURN JUMPDEST PUSH1 0x0 DUP1 DUP3 PUSH1 0x40 MLOAD PUSH2 0x82 SWAP1 PUSH2 0x156 JUMP JUMPDEST PUSH1 0x1 PUSH1 0x1 PUSH1 0xA0 SHL SUB SWAP1 SWAP2 AND DUP2 MSTORE PUSH1 0x40 MLOAD SWAP1 DUP2 SWAP1 SUB PUSH1 0x20 ADD SWAP1 PUSH1 0x0 CREATE DUP1 ISZERO DUP1 ISZERO PUSH2 0xAF JUMPI RETURNDATASIZE PUSH1 0x0 DUP1 RETURNDATACOPY RETURNDATASIZE PUSH1 0x0 REVERT JUMPDEST POP PUSH1 0x40 DUP1 MLOAD PUSH4 0xF2FDE38B PUSH1 0xE0 SHL DUP2 MSTORE CALLER PUSH1 0x4 DUP3 ADD MSTORE SWAP1 MLOAD SWAP2 SWAP3 POP PUSH1 0x1 PUSH1 0x1 PUSH1 0xA0 SHL SUB DUP4 AND SWAP2 PUSH4 0xF2FDE38B SWAP2 PUSH1 0x24 DUP1 DUP3 ADD SWAP3 PUSH1 0x0 SWAP3 SWAP1 SWAP2 SWAP1 DUP3 SWAP1 SUB ADD DUP2 DUP4 DUP8 DUP1 EXTCODESIZE ISZERO DUP1 ISZERO PUSH2 0xFB JUMPI PUSH1 0x0 DUP1 REVERT JUMPDEST POP GAS CALL ISZERO DUP1 ISZERO PUSH2 0x10F JUMPI RETURNDATASIZE PUSH1 0x0 DUP1 RETURNDATACOPY RETURNDATASIZE PUSH1 0x0 REVERT JUMPDEST POP POP PUSH1 0x40 DUP1 MLOAD PUSH1 0x1 PUSH1 0x1 PUSH1 0xA0 SHL SUB DUP6 AND DUP2 MSTORE SWAP1 MLOAD PUSH32 0xF8DB8E01FE5F9A756DF91F3196760DF202053C47216E3F8D325A2D75BEBB9BA6 SWAP4 POP SWAP1 DUP2 SWAP1 SUB PUSH1 0x20 ADD SWAP2 POP LOG1 SWAP3 SWAP2 POP POP JUMP JUMPDEST PUSH2 0x58C DUP1 PUSH2 0x164 DUP4 CODECOPY ADD SWAP1 JUMP INVALID PUSH1 0x80 PUSH1 0x40 MSTORE CALLVALUE DUP1 ISZERO PUSH2 0x10 JUMPI PUSH1 0x0 DUP1 REVERT JUMPDEST POP PUSH1 0x40 MLOAD PUSH2 0x58C CODESIZE SUB DUP1 PUSH2 0x58C DUP4 CODECOPY DUP2 DUP2 ADD PUSH1 0x40 MSTORE PUSH1 0x20 DUP2 LT ISZERO PUSH2 0x33 JUMPI PUSH1 0x0 DUP1 REVERT JUMPDEST POP MLOAD PUSH1 0x0 DUP1 SLOAD PUSH1 0x1 PUSH1 0x1 PUSH1 0xA0 SHL SUB NOT AND CALLER SWAP1 DUP2 OR DUP3 SSTORE PUSH1 0x40 MLOAD SWAP1 SWAP2 DUP3 SWAP2 PUSH32 0x8BE0079C531659141344CD1FD0A4F28419497F9722A3DAAFE3B4186F6B6457E0 SWAP1 DUP3 SWAP1 LOG3 POP PUSH1 0x1 DUP1 SLOAD PUSH1 0x1 PUSH1 0x1 PUSH1 0xA0 SHL SUB NOT AND PUSH1 0x1 PUSH1 0x1 PUSH1 0xA0 SHL SUB SWAP3 SWAP1 SWAP3 AND SWAP2 SWAP1 SWAP2 OR SWAP1 SSTORE PUSH4 0x5F5E100 PUSH1 0x3 SSTORE PUSH2 0x4DF DUP1 PUSH2 0xAD PUSH1 0x0 CODECOPY PUSH1 0x0 RETURN INVALID PUSH1 0x80 PUSH1 0x40 MSTORE CALLVALUE DUP1 ISZERO PUSH2 0x10 JUMPI PUSH1 0x0 DUP1 REVERT JUMPDEST POP PUSH1 0x4 CALLDATASIZE LT PUSH2 0x9E JUMPI PUSH1 0x0 CALLDATALOAD PUSH1 0xE0 SHR DUP1 PUSH4 0x8B56B77A GT PUSH2 0x66 JUMPI DUP1 PUSH4 0x8B56B77A EQ PUSH2 0x110 JUMPI DUP1 PUSH4 0x8DA5CB5B EQ PUSH2 0x118 JUMPI DUP1 PUSH4 0xF2FDE38B EQ PUSH2 0x120 JUMPI DUP1 PUSH4 0xF5985B18 EQ PUSH2 0x146 JUMPI DUP1 PUSH4 0xF9646B89 EQ PUSH2 0x163 JUMPI PUSH2 0x9E JUMP JUMPDEST DUP1 PUSH4 0x321E051 EQ PUSH2 0xA3 JUMPI DUP1 PUSH4 0xE775274 EQ PUSH2 0xC2 JUMPI DUP1 PUSH4 0x46CC0E0D EQ PUSH2 0xDC JUMPI DUP1 PUSH4 0x6D6CA17E EQ PUSH2 0x100 JUMPI DUP1 PUSH4 0x70F9E52F EQ PUSH2 0x108 JUMPI JUMPDEST PUSH1 0x0 DUP1 REVERT JUMPDEST PUSH2 0xC0 PUSH1 0x4 DUP1 CALLDATASIZE SUB PUSH1 0x20 DUP2 LT ISZERO PUSH2 0xB9 JUMPI PUSH1 0x0 DUP1 REVERT JUMPDEST POP CALLDATALOAD PUSH2 0x189 JUMP JUMPDEST STOP JUMPDEST PUSH2 0xCA PUSH2 0x223 JUMP JUMPDEST PUSH1 0x40 DUP1 MLOAD SWAP2 DUP3 MSTORE MLOAD SWAP1 DUP2 SWAP1 SUB PUSH1 0x20 ADD SWAP1 RETURN JUMPDEST PUSH2 0xE4 PUSH2 0x229 JUMP JUMPDEST PUSH1 0x40 DUP1 MLOAD PUSH1 0x1 PUSH1 0x1 PUSH1 0xA0 SHL SUB SWAP1 SWAP3 AND DUP3 MSTORE MLOAD SWAP1 DUP2 SWAP1 SUB PUSH1 0x20 ADD SWAP1 RETURN JUMPDEST PUSH2 0xCA PUSH2 0x238 JUMP JUMPDEST PUSH2 0xCA PUSH2 0x23E JUMP JUMPDEST PUSH2 0xE4 PUSH2 0x244 JUMP JUMPDEST PUSH2 0xE4 PUSH2 0x253 JUMP JUMPDEST PUSH2 0xC0 PUSH1 0x4 DUP1 CALLDATASIZE SUB PUSH1 0x20 DUP2 LT ISZERO PUSH2 0x136 JUMPI PUSH1 0x0 DUP1 REVERT JUMPDEST POP CALLDATALOAD PUSH1 0x1 PUSH1 0x1 PUSH1 0xA0 SHL SUB AND PUSH2 0x262 JUMP JUMPDEST PUSH2 0xC0 PUSH1 0x4 DUP1 CALLDATASIZE SUB PUSH1 0x20 DUP2 LT ISZERO PUSH2 0x15C JUMPI PUSH1 0x0 DUP1 REVERT JUMPDEST POP CALLDATALOAD PUSH2 0x2BB JUMP JUMPDEST PUSH2 0xC0 PUSH1 0x4 DUP1 CALLDATASIZE SUB PUSH1 0x20 DUP2 LT ISZERO PUSH2 0x179 JUMPI PUSH1 0x0 DUP1 REVERT JUMPDEST POP CALLDATALOAD PUSH1 0x1 PUSH1 0x1 PUSH1 0xA0 SHL SUB AND PUSH2 0x355 JUMP JUMPDEST PUSH1 0x0 SLOAD PUSH1 0x1 PUSH1 0x1 PUSH1 0xA0 SHL SUB AND CALLER EQ PUSH2 0x1D6 JUMPI PUSH1 0x40 DUP1 MLOAD PUSH3 0x461BCD PUSH1 0xE5 SHL DUP2 MSTORE PUSH1 0x20 PUSH1 0x4 DUP3 ADD DUP2 SWAP1 MSTORE PUSH1 0x24 DUP3 ADD MSTORE PUSH1 0x0 DUP1 MLOAD PUSH1 0x20 PUSH2 0x48B DUP4 CODECOPY DUP2 MLOAD SWAP2 MSTORE PUSH1 0x44 DUP3 ADD MSTORE SWAP1 MLOAD SWAP1 DUP2 SWAP1 SUB PUSH1 0x64 ADD SWAP1 REVERT JUMPDEST PUSH1 0x3 SLOAD DUP2 LT PUSH2 0x21E JUMPI PUSH1 0x40 DUP1 MLOAD PUSH3 0x461BCD PUSH1 0xE5 SHL DUP2 MSTORE PUSH1 0x20 PUSH1 0x4 DUP3 ADD MSTORE PUSH1 0xF PUSH1 0x24 DUP3 ADD MSTORE PUSH15 0x726174696F20746F6F206C61726765 PUSH1 0x88 SHL PUSH1 0x44 DUP3 ADD MSTORE SWAP1 MLOAD SWAP1 DUP2 SWAP1 SUB PUSH1 0x64 ADD SWAP1 REVERT JUMPDEST PUSH1 0x5 SSTORE JUMP JUMPDEST PUSH1 0x3 SLOAD DUP2 JUMP JUMPDEST PUSH1 0x2 SLOAD PUSH1 0x1 PUSH1 0x1 PUSH1 0xA0 SHL SUB AND DUP2 JUMP JUMPDEST PUSH1 0x5 SLOAD DUP2 JUMP JUMPDEST PUSH1 0x4 SLOAD DUP2 JUMP JUMPDEST PUSH1 0x1 SLOAD PUSH1 0x1 PUSH1 0x1 PUSH1 0xA0 SHL SUB AND DUP2 JUMP JUMPDEST PUSH1 0x0 SLOAD PUSH1 0x1 PUSH1 0x1 PUSH1 0xA0 SHL SUB AND SWAP1 JUMP JUMPDEST PUSH1 0x0 SLOAD PUSH1 0x1 PUSH1 0x1 PUSH1 0xA0 SHL SUB AND CALLER EQ PUSH2 0x2AF JUMPI PUSH1 0x40 DUP1 MLOAD PUSH3 0x461BCD PUSH1 0xE5 SHL DUP2 MSTORE PUSH1 0x20 PUSH1 0x4 DUP3 ADD DUP2 SWAP1 MSTORE PUSH1 0x24 DUP3 ADD MSTORE PUSH1 0x0 DUP1 MLOAD PUSH1 0x20 PUSH2 0x48B DUP4 CODECOPY DUP2 MLOAD SWAP2 MSTORE PUSH1 0x44 DUP3 ADD MSTORE SWAP1 MLOAD SWAP1 DUP2 SWAP1 SUB PUSH1 0x64 ADD SWAP1 REVERT JUMPDEST PUSH2 0x2B8 DUP2 PUSH2 0x3C4 JUMP JUMPDEST POP JUMP JUMPDEST PUSH1 0x0 SLOAD PUSH1 0x1 PUSH1 0x1 PUSH1 0xA0 SHL SUB AND CALLER EQ PUSH2 0x308 JUMPI PUSH1 0x40 DUP1 MLOAD PUSH3 0x461BCD PUSH1 0xE5 SHL DUP2 MSTORE PUSH1 0x20 PUSH1 0x4 DUP3 ADD DUP2 SWAP1 MSTORE PUSH1 0x24 DUP3 ADD MSTORE PUSH1 0x0 DUP1 MLOAD PUSH1 0x20 PUSH2 0x48B DUP4 CODECOPY DUP2 MLOAD SWAP2 MSTORE PUSH1 0x44 DUP3 ADD MSTORE SWAP1 MLOAD SWAP1 DUP2 SWAP1 SUB PUSH1 0x64 ADD SWAP1 REVERT JUMPDEST PUSH1 0x3 SLOAD DUP2 LT PUSH2 0x350 JUMPI PUSH1 0x40 DUP1 MLOAD PUSH3 0x461BCD PUSH1 0xE5 SHL DUP2 MSTORE PUSH1 0x20 PUSH1 0x4 DUP3 ADD MSTORE PUSH1 0xF PUSH1 0x24 DUP3 ADD MSTORE PUSH15 0x726174696F20746F6F206C61726765 PUSH1 0x88 SHL PUSH1 0x44 DUP3 ADD MSTORE SWAP1 MLOAD SWAP1 DUP2 SWAP1 SUB PUSH1 0x64 ADD SWAP1 REVERT JUMPDEST PUSH1 0x4 SSTORE JUMP JUMPDEST PUSH1 0x0 SLOAD PUSH1 0x1 PUSH1 0x1 PUSH1 0xA0 SHL SUB AND CALLER EQ PUSH2 0x3A2 JUMPI PUSH1 0x40 DUP1 MLOAD PUSH3 0x461BCD PUSH1 0xE5 SHL DUP2 MSTORE PUSH1 0x20 PUSH1 0x4 DUP3 ADD DUP2 SWAP1 MSTORE PUSH1 0x24 DUP3 ADD MSTORE PUSH1 0x0 DUP1 MLOAD PUSH1 0x20 PUSH2 0x48B DUP4 CODECOPY DUP2 MLOAD SWAP2 MSTORE PUSH1 0x44 DUP3 ADD MSTORE SWAP1 MLOAD SWAP1 DUP2 SWAP1 SUB PUSH1 0x64 ADD SWAP1 REVERT JUMPDEST PUSH1 0x2 DUP1 SLOAD PUSH1 0x1 PUSH1 0x1 PUSH1 0xA0 SHL SUB NOT AND PUSH1 0x1 PUSH1 0x1 PUSH1 0xA0 SHL SUB SWAP3 SWAP1 SWAP3 AND SWAP2 SWAP1 SWAP2 OR SWAP1 SSTORE JUMP JUMPDEST PUSH1 0x1 PUSH1 0x1 PUSH1 0xA0 SHL SUB DUP2 AND PUSH2 0x409 JUMPI PUSH1 0x40 MLOAD PUSH3 0x461BCD PUSH1 0xE5 SHL DUP2 MSTORE PUSH1 0x4 ADD DUP1 DUP1 PUSH1 0x20 ADD DUP3 DUP2 SUB DUP3 MSTORE PUSH1 0x26 DUP2 MSTORE PUSH1 0x20 ADD DUP1 PUSH2 0x465 PUSH1 0x26 SWAP2 CODECOPY PUSH1 0x40 ADD SWAP2 POP POP PUSH1 0x40 MLOAD DUP1 SWAP2 SUB SWAP1 REVERT JUMPDEST PUSH1 0x0 DUP1 SLOAD PUSH1 0x40 MLOAD PUSH1 0x1 PUSH1 0x1 PUSH1 0xA0 SHL SUB DUP1 DUP6 AND SWAP4 SWAP3 AND SWAP2 PUSH32 0x8BE0079C531659141344CD1FD0A4F28419497F9722A3DAAFE3B4186F6B6457E0 SWAP2 LOG3 PUSH1 0x0 DUP1 SLOAD PUSH1 0x1 PUSH1 0x1 PUSH1 0xA0 SHL SUB NOT AND PUSH1 0x1 PUSH1 0x1 PUSH1 0xA0 SHL SUB SWAP3 SWAP1 SWAP3 AND SWAP2 SWAP1 SWAP2 OR SWAP1 SSTORE JUMP INVALID 0x4f PUSH24 0x6E61626C653A206E6577206F776E65722069732074686520 PUSH27 0x65726F20616464726573734F776E61626C653A2063616C6C657220 PUSH10 0x73206E6F742074686520 PUSH16 0x776E6572A265627A7A72305820129544 0xae PUSH31 0x2B8443798652DDE9BDBFD2C1A386B9C229AAFDE32CFA54EE4AE92E64736F6C PUSH4 0x4300050A STOP ORIGIN LOG2 PUSH6 0x627A7A723058 KECCAK256 SAR PUSH10 0xECB585AFE74B56301FED SMOD EXTCODESIZE PUSH31 0x8B643C3FC5F1EC35E690385B8D1D7DA85964736F6C634300050A0032000000 ",
  "sha1": "b7b37d5fb2071b11ca7cbcae15a6fe984ac9ffe3",
  "source": "pragma solidity >=0.4.21 <0.6.0;\n\nimport \"../utils/Ownable.sol\";\nimport \"../utils/SafeMath.sol\";\ncontract HEnv is Ownable{\n\n  address public token_addr;\n\n  address public fee_pool_addr;\n\n  uint256 public ratio_base;\n  uint256 public withdraw_fee_ratio;\n  uint256 public cancel_fee_ratio;\n\n  constructor(address _target_token) public{\n    token_addr = _target_token;\n    ratio_base = 100000000;\n  }\n\n  function changeFeePoolAddr(address _new) public onlyOwner{\n    fee_pool_addr = _new;\n  }\n\n  function changeWithdrawFeeRatio(uint256 _ratio) public onlyOwner{\n    require(_ratio < ratio_base, \"ratio too large\");\n    withdraw_fee_ratio = _ratio;\n  }\n\n  function changeCancelFeeRatio(uint256 _ratio) public onlyOwner{\n    require(_ratio < ratio_base, \"ratio too large\");\n    cancel_fee_ratio = _ratio;\n  }\n}\n\n\ncontract HEnvFactory{\n  event NewHEnv(address addr);\n  function createHEnv(address _target_token) public returns (address){\n    HEnv env = new HEnv(_target_token);\n    env.transferOwnership(msg.sender);\n    emit NewHEnv(address(env));\n    return address(env);\n  }\n}\n",
  "sourcePath": "contracts/core/HEnv.sol",
  "type": "contract"
}