{
  "abi": [
    {
      "constant": true,
      "inputs": [
        {
          "name": "a",
          "type": "uint256"
        },
        {
          "name": "b",
          "type": "uint256"
        }
      ],
      "name": "_abs_check",
      "outputs": [],
      "payable": false,
      "stateMutability": "pure",
      "type": "function"
    },
    {
      "anonymous": false,
      "inputs": [
        {
          "indexed": false,
          "name": "gatekeeper",
          "type": "address"
        },
        {
          "indexed": false,
          "name": "round",
          "type": "uint256"
        },
        {
          "indexed": false,
          "name": "ratio",
          "type": "uint256"
        }
      ],
      "name": "ThrowError",
      "type": "event"
    }
  ],
  "bytecode": "6125fd610026600b82828239805160001a60731461001957fe5b30600052607381538281f3fe73000000000000000000000000000000000000000030146080604052600436106100405760003560e01c8063889ee2e814610045578063fefd87e01461006a575b600080fd5b6100686004803603604081101561005b57600080fd5b50803590602001356100b2565b005b81801561007657600080fd5b506100a06004803603606081101561008d57600080fd5b508035906020810135906040013561026e565b60408051918252519081900360200190f35b8082106101945769021e19e0c9bab24000008273__SafeMath______________________________63a293d1e89091846040518363ffffffff1660e01b8152600401808381526020018281526020019250505060206040518083038186803b15801561011d57600080fd5b505af4158015610131573d6000803e3d6000fd5b505050506040513d602081101561014757600080fd5b5051111561018f576040805162461bcd60e51b815260206004820152601060248201526f474b3a20646f75626c6520636865636b60801b604482015290519081900360640190fd5b61026a565b69021e19e0c9bab24000008173__SafeMath______________________________63a293d1e89091856040518363ffffffff1660e01b8152600401808381526020018281526020019250505060206040518083038186803b1580156101f857600080fd5b505af415801561020c573d6000803e3d6000fd5b505050506040513d602081101561022257600080fd5b5051111561026a576040805162461bcd60e51b815260206004820152601060248201526f474b3a20646f75626c6520636865636b60801b604482015290519081900360640190fd5b5050565b600083600b015460001415610371576001840154600285015460408051638b6ea7bb60e01b81526001600160a01b03928316600482015290519190921691638b6ea7bb916024808301926020929190829003018186803b1580156102d157600080fd5b505afa1580156102e5573d6000803e3d6000fd5b505050506040513d60208110156102fb57600080fd5b50516040805163712d52fd60e11b815290516001600160a01b039092169163e25aa5fa91600480820192602092909190829003018186803b15801561033f57600080fd5b505afa158015610353573d6000803e3d6000fd5b505050506040513d602081101561036957600080fd5b5051600b8501555b83600c015473__SafeMath______________________________63d05c78da909186600b015473__SafeMath______________________________63a293d1e8909189600a01546040518363ffffffff1660e01b8152600401808381526020018281526020019250505060206040518083038186803b1580156103f357600080fd5b505af4158015610407573d6000803e3d6000fd5b505050506040513d602081101561041d57600080fd5b5051604080516001600160e01b031960e086901b16815260048101939093526024830191909152516044808301926020929190829003018186803b15801561046457600080fd5b505af4158015610478573d6000803e3d6000fd5b505050506040513d602081101561048e57600080fd5b5051600e85015560038401546001600160a01b0316156106a4576003840154600c850154855460408051602080820193909352600081830181905282518083038401815260608301808552815191860191909120825289855290839020546314527a3d60e31b90915260648201949094526084810193909352516001600160a01b039093169263ccebb54c9273__SafeMath______________________________9263a293d1e89260a480840193829003018186803b15801561055057600080fd5b505af4158015610564573d6000803e3d6000fd5b505050506040513d602081101561057a57600080fd5b5051865460408051602081810184905260008284018190528351808403850181526060840180865281519184019190912082528b8352908490205460048d015463516b3ca360e01b909252606484019590955292516001600160a01b039093169263516b3ca3926084808201939291829003018186803b1580156105fd57600080fd5b505afa158015610611573d6000803e3d6000fd5b505050506040513d602081101561062757600080fd5b5051600a890154600b8a0154604080516001600160e01b031960e089901b168152600481019690965260248601949094526044850192909252606484015260848301525160a480830192600092919082900301818387803b15801561068b57600080fd5b505af115801561069f573d6000803e3d6000fd5b505050505b6000805b600686015481101561074c5773__SafeMath______________________________63e6cb9013836106db89898987610a9c565b6040518363ffffffff1660e01b8152600401808381526020018281526020019250505060206040518083038186803b15801561071657600080fd5b505af415801561072a573d6000803e3d6000fd5b505050506040513d602081101561074057600080fd5b505191506001016106a8565b508073__SafeMath______________________________63e6cb901390916107fe8888888b600c015473__SafeMath______________________________63a293d1e890918a6040518363ffffffff1660e01b8152600401808381526020018281526020019250505060206040518083038186803b1580156107cd57600080fd5b505af41580156107e1573d6000803e3d6000fd5b505050506040513d60208110156107f757600080fd5b505161130f565b6040518363ffffffff1660e01b8152600401808381526020018281526020019250505060206040518083038186803b15801561083957600080fd5b505af415801561084d573d6000803e3d6000fd5b505050506040513d602081101561086357600080fd5b5051600c860154909150811015610a925784600c015473__SafeMath______________________________63a293d1e89091836040518363ffffffff1660e01b8152600401808381526020018281526020019250505060206040518083038186803b1580156108d157600080fd5b505af41580156108e5573d6000803e3d6000fd5b505050506040513d60208110156108fb57600080fd5b505160098601549091506001600160a01b031661095f576040805162461bcd60e51b815260206004820152601b60248201527f696e76616c6964207969656c6420696e74657265737420706f6f6c0000000000604482015290519081900360640190fd5b6002850154604080516370a0823160e01b8152306004820152905183926001600160a01b0316916370a08231916024808301926020929190829003018186803b1580156109ab57600080fd5b505afa1580156109bf573d6000803e3d6000fd5b505050506040513d60208110156109d557600080fd5b505110610a035760098501546002860154610a03916001600160a01b0391821691168363ffffffff61169e16565b84600d015473__SafeMath______________________________63a293d1e89091836040518363ffffffff1660e01b8152600401808381526020018281526020019250505060206040518083038186803b158015610a6057600080fd5b505af4158015610a74573d6000803e3d6000fd5b505050506040513d6020811015610a8a57600080fd5b5051600d8601555b5050915492915050565b6000808560000154866006018481548110610ab357fe5b6000918252602080832090910154604080518084019590955284810191909152805180850382018152606085018083528151918401919091208085528a845282852054600a8d015463682e3c6d60e11b90935260648701819052608487019290925291519195509373__SafeMath______________________________9263d05c78da9260a480840193829003018186803b158015610b5157600080fd5b505af4158015610b65573d6000803e3d6000fd5b505050506040513d6020811015610b7b57600080fd5b505160068901805473__SafeMath______________________________9263d05c78da92909189908110610bab57fe5b90600052602060002001546040518363ffffffff1660e01b8152600401808381526020018281526020019250505060206040518083038186803b158015610bf157600080fd5b505af4158015610c05573d6000803e3d6000fd5b505050506040513d6020811015610c1b57600080fd5b5051600789015460408051632d64c7df60e21b8152600481019390935260248301919091525173__SafeMath______________________________9163b5931f7c916044808301926020929190829003018186803b158015610c7c57600080fd5b505af4158015610c90573d6000803e3d6000fd5b505050506040513d6020811015610ca657600080fd5b5051600e890154909150811115610cbe5750600e8701545b87600e015473__SafeMath______________________________63a293d1e89091836040518363ffffffff1660e01b8152600401808381526020018281526020019250505060206040518083038186803b158015610d1b57600080fd5b505af4158015610d2f573d6000803e3d6000fd5b505050506040513d6020811015610d4557600080fd5b5051600e890155600a8801546040805163682e3c6d60e11b81526004810185905260248101929092525173__SafeMath______________________________9163d05c78da916044808301926020929190829003018186803b158015610daa57600080fd5b505af4158015610dbe573d6000803e3d6000fd5b505050506040513d6020811015610dd457600080fd5b50516040805163e6cb901360e01b81526004810192909252602482018390525173__SafeMath______________________________9163e6cb9013916044808301926020929190829003018186803b158015610e2f57600080fd5b505af4158015610e43573d6000803e3d6000fd5b505050506040513d6020811015610e5957600080fd5b5051600b89015460408051632d64c7df60e21b8152600481019390935260248301919091525173__SafeMath______________________________9163b5931f7c916044808301926020929190829003018186803b158015610eba57600080fd5b505af4158015610ece573d6000803e3d6000fd5b505050506040513d6020811015610ee457600080fd5b505160008481526020889052604081205491935090610f0c5750670de0b6b3a76400006110b1565b6040805163682e3c6d60e11b815260048101859052670de0b6b3a76400006024820152905173__SafeMath______________________________9163d05c78da916044808301926020929190829003018186803b158015610f6c57600080fd5b505af4158015610f80573d6000803e3d6000fd5b505050506040513d6020811015610f9657600080fd5b505160008581526020898152604091829020548251632d64c7df60e21b815260048101949094526024840152905173__SafeMath______________________________9263b5931f7c926044808301939192829003018186803b158015610ffc57600080fd5b505af4158015611010573d6000803e3d6000fd5b505050506040513d602081101561102657600080fd5b50519050806110b157670de0b6b3a764000090507f655a93b92471c33e1bcc9b2d4c1fd42a1a37ad536aa79a7b50e6ca3f32deba67308a600001548b600601898154811061107057fe5b906000526020600020015460405180846001600160a01b03166001600160a01b03168152602001838152602001828152602001935050505060405180910390a15b8294508860050160009054906101000a90046001600160a01b03166001600160a01b031663d16827c63060008c6006018a815481106110ec57fe5b906000526020600020015460036040518563ffffffff1660e01b815260040180856001600160a01b03166001600160a01b0316815260200184815260200183815260200182815260200194505050505060206040518083038186803b15801561115457600080fd5b505afa158015611168573d6000803e3d6000fd5b505050506040513d602081101561117e57600080fd5b505160038a01549093506001600160a01b0316156112dd57600389015460068a0180546001600160a01b0390921691638d89b16a9190899081106111be57fe5b9060005260206000200154856ec097ce7bc90715b34b9f100000000073__SafeMath______________________________63b5931f7c9091876040518363ffffffff1660e01b8152600401808381526020018281526020019250505060206040518083038186803b15801561123257600080fd5b505af4158015611246573d6000803e3d6000fd5b505050506040513d602081101561125c57600080fd5b5051600089815260208d905260408082205481516001600160e01b031960e089901b1681526004810196909652602486019490945260448501929092526064840192909252608483018790525160a48084019382900301818387803b1580156112c457600080fd5b505af11580156112d8573d6000803e3d6000fd5b505050505b611303898989848d6006018b815481106112f357fe5b90600052602060002001546116f5565b50505050949350505050565b835460408051602080820193909352600081830181905282518083038401815260609092018352815191840191909120808252928590529081205490919082906113625750670de0b6b3a76400006114d7565b6040805163682e3c6d60e11b815260048101869052670de0b6b3a76400006024820152905173__SafeMath______________________________9163d05c78da916044808301926020929190829003018186803b1580156113c257600080fd5b505af41580156113d6573d6000803e3d6000fd5b505050506040513d60208110156113ec57600080fd5b505160008381526020878152604091829020548251632d64c7df60e21b815260048101949094526024840152905173__SafeMath______________________________9263b5931f7c926044808301939192829003018186803b15801561145257600080fd5b505af4158015611466573d6000803e3d6000fd5b505050506040513d602081101561147c57600080fd5b50518493509050806114d75750855460408051308152602081019290925260008282015251670de0b6b3a7640000917f655a93b92471c33e1bcc9b2d4c1fd42a1a37ad536aa79a7b50e6ca3f32deba67919081900360600190a15b60038701546001600160a01b03161561168657600387015460088801546040805163039ffdcb60e61b815290516001600160a01b0393841693638d89b16a9360009391169163e7ff72c091600480820192602092909190829003018186803b15801561154257600080fd5b505afa158015611556573d6000803e3d6000fd5b505050506040513d602081101561156c57600080fd5b505160408051632d64c7df60e21b81526ec097ce7bc90715b34b9f1000000000600482015260248101879052905173__SafeMath______________________________9163b5931f7c916044808301926020929190829003018186803b1580156115d557600080fd5b505af41580156115e9573d6000803e3d6000fd5b505050506040513d60208110156115ff57600080fd5b5051600087815260208b9052604080822054600e8f015482516001600160e01b031960e08a901b168152600481019790975260248701959095526044860193909352606485019290925260848401929092525160a48084019382900301818387803b15801561166d57600080fd5b505af1158015611681573d6000803e3d6000fd5b505050505b6116948787878460006116f5565b5050949350505050565b604080516001600160a01b038416602482015260448082018490528251808303909101815260649091019091526020810180516001600160e01b031663a9059cbb60e01b1790526116f09084906123a4565b505050565b84546040805160208082018490528183018590528251808303840181526060830184528051908201206001909401608083015260a08083018690528351808403909101815260c09092019092528051910120600091829182918291866117c15760088b015460408051630dbfe0d760e01b8152600481018b905290516001600160a01b0390921691630dbfe0d79160248082019260009290919082900301818387803b1580156117a457600080fd5b505af11580156117b8573d6000803e3d6000fd5b50505050611843565b60058b015460408051630d53f0e160e01b8152306004820152600060248201819052604482018b905260036064830152608482018c905291516001600160a01b0390931692630d53f0e19260a48084019391929182900301818387803b15801561182a57600080fd5b505af115801561183e573d6000803e3d6000fd5b505050505b60408051632d64c7df60e21b81526ec097ce7bc90715b34b9f10000000006004820152602481018a9052905173__SafeMath______________________________9163b5931f7c916044808301926020929190829003018186803b1580156118aa57600080fd5b505af41580156118be573d6000803e3d6000fd5b505050506040513d60208110156118d457600080fd5b505160058c01548c5460408051630d53f0e160e01b815230600482015260019283016024820152604481018c9052606481019290925260848201849052519298506001600160a01b0390911691630d53f0e19160a48082019260009290919082900301818387803b15801561194857600080fd5b505af115801561195c573d6000803e3d6000fd5b50505060058c01548c5460408051635b6ad57b60e11b815230600482015260019283016024820152604481018c90526064810192909252516001600160a01b03909216925063b6d5aaf6916084808301926020929190829003018186803b1580156119c657600080fd5b505afa1580156119da573d6000803e3d6000fd5b505050506040513d60208110156119f057600080fd5b50516040805163682e3c6d60e11b815260048101839052670de0b6b3a76400006024820152905191975073__SafeMath______________________________9163d05c78da91604480820192602092909190829003018186803b158015611a5657600080fd5b505af4158015611a6a573d6000803e3d6000fd5b505050506040513d6020811015611a8057600080fd5b505160408051632d64c7df60e21b81526004810192909252602482018a90525173__SafeMath______________________________9163b5931f7c916044808301926020929190829003018186803b158015611adb57600080fd5b505af4158015611aef573d6000803e3d6000fd5b505050506040513d6020811015611b0557600080fd5b505160058c01548c5460408051630d53f0e160e01b815230600482015260019092016024830152604482018b905260026064830152608482018c9052519296506001600160a01b0390911691630d53f0e19160a48082019260009290919082900301818387803b158015611b7857600080fd5b505af1158015611b8c573d6000803e3d6000fd5b50505060058c01548c5460408051635b6ad57b60e11b81523060048201526001929092016024830152604482018b905260026064830152516001600160a01b03909216925063b6d5aaf6916084808301926020929190829003018186803b158015611bf657600080fd5b505afa158015611c0a573d6000803e3d6000fd5b505050506040513d6020811015611c2057600080fd5b50516040805163682e3c6d60e11b81526004810192909252602482018a90525173__SafeMath______________________________9163d05c78da916044808301926020929190829003018186803b158015611c7b57600080fd5b505af4158015611c8f573d6000803e3d6000fd5b505050506040513d6020811015611ca557600080fd5b505160408051632d64c7df60e21b81526004810192909252670de0b6b3a764000060248301525173__SafeMath______________________________9163b5931f7c916044808301926020929190829003018186803b158015611d0757600080fd5b505af4158015611d1b573d6000803e3d6000fd5b505050506040513d6020811015611d3157600080fd5b505160058c01548c5460408051635b6ad57b60e11b815230600482015260019092016024830152604482018b905260026064830152519297506001600160a01b039091169163b6d5aaf691608480820192602092909190829003018186803b158015611d9c57600080fd5b505afa158015611db0573d6000803e3d6000fd5b505050506040513d6020811015611dc657600080fd5b5051600083815260208b815260409182902054825163682e3c6d60e11b81526004810191909152602481018c9052915192955073__SafeMath______________________________9263d05c78da926044808201939291829003018186803b158015611e3157600080fd5b505af4158015611e45573d6000803e3d6000fd5b505050506040513d6020811015611e5b57600080fd5b505160408051632d64c7df60e21b81526004810192909252670de0b6b3a764000060248301525173__SafeMath______________________________9163b5931f7c916044808301926020929190829003018186803b158015611ebd57600080fd5b505af4158015611ed1573d6000803e3d6000fd5b505050506040513d6020811015611ee757600080fd5b50516040805163e6cb901360e01b81526004810192909252602482018890525173__SafeMath______________________________9163e6cb9013916044808301926020929190829003018186803b158015611f4257600080fd5b505af4158015611f56573d6000803e3d6000fd5b505050506040513d6020811015611f6c57600080fd5b5051604080516314527a3d60e31b81526004810192909252602482018790525173__SafeMath______________________________9163a293d1e8916044808301926020929190829003018186803b158015611fc757600080fd5b505af4158015611fdb573d6000803e3d6000fd5b505050506040513d6020811015611ff157600080fd5b5051600082815260208c9052604081209190915560068c01805490919061201457fe5b906000526020600020015487141561203157600c8b0154600d8c01555b8a600d015473__SafeMath______________________________63e6cb90139091886040518363ffffffff1660e01b8152600401808381526020018281526020019250505060206040518083038186803b15801561208e57600080fd5b505af41580156120a2573d6000803e3d6000fd5b505050506040513d60208110156120b857600080fd5b5051604080516314527a3d60e31b81526004810192909252602482018790525173__SafeMath______________________________9163a293d1e8916044808301926020929190829003018186803b15801561211357600080fd5b505af4158015612127573d6000803e3d6000fd5b505050506040513d602081101561213d57600080fd5b5051600d8c0155600082815260208a815260409182902054825163e6cb901360e01b8152600481019190915260248101879052915173__SafeMath______________________________9263e6cb9013926044808301939192829003018186803b1580156121aa57600080fd5b505af41580156121be573d6000803e3d6000fd5b505050506040513d60208110156121d457600080fd5b5051604080516314527a3d60e31b81526004810192909252602482018590525173__SafeMath______________________________9163a293d1e8916044808301926020929190829003018186803b15801561222f57600080fd5b505af4158015612243573d6000803e3d6000fd5b505050506040513d602081101561225957600080fd5b5051600082815260208b81526040808320939093558c81529082902054825163682e3c6d60e11b81526004810191909152670de0b6b3a7640000602482015291516123979273__SafeMath______________________________9263d05c78da92604480840193829003018186803b1580156122d457600080fd5b505af41580156122e8573d6000803e3d6000fd5b505050506040513d60208110156122fe57600080fd5b5051600083815260208c815260409182902054825163682e3c6d60e11b81526004810191909152602481018d9052915173__SafeMath______________________________9263d05c78da926044808301939192829003018186803b15801561236657600080fd5b505af415801561237a573d6000803e3d6000fd5b505050506040513d602081101561239057600080fd5b50516100b2565b5050505050505050505050565b6123b6826001600160a01b0316612562565b612407576040805162461bcd60e51b815260206004820152601f60248201527f5361666545524332303a2063616c6c20746f206e6f6e2d636f6e747261637400604482015290519081900360640190fd5b60006060836001600160a01b0316836040518082805190602001908083835b602083106124455780518252601f199092019160209182019101612426565b6001836020036101000a0380198251168184511680821785525050505050509050019150506000604051808303816000865af19150503d80600081146124a7576040519150601f19603f3d011682016040523d82523d6000602084013e6124ac565b606091505b509150915081612503576040805162461bcd60e51b815260206004820181905260248201527f5361666545524332303a206c6f772d6c6576656c2063616c6c206661696c6564604482015290519081900360640190fd5b80511561255c5780806020019051602081101561251f57600080fd5b505161255c5760405162461bcd60e51b815260040180806020018281038252602a81526020018061259f602a913960400191505060405180910390fd5b50505050565b6000813f7fc5d2460186f7233c927e7db2dcc703c0e500b653ca82273b7bfad8045d85a47081158015906125965750808214155b94935050505056fe5361666545524332303a204552433230206f7065726174696f6e20646964206e6f742073756363656564a265627a7a72305820926356c9d4156e8c501b396a885033f48aeafa37a9901e7bb0551a29df76048f64736f6c634300050a0032",
  "bytecodeSha1": "33c966d810283d40efeb51f4f6b5d1ccfe19e710",
  "compiler": {
    "evm_version": "petersburg",
    "optimizer": {
      "enabled": true,
      "runs": 200
    },
    "version": "0.5.10+commit.5a6ea5b1"
  },
  "contractName": "HGateKeeperHelper",
  "deployedBytecode": "73000000000000000000000000000000000000000030146080604052600436106100405760003560e01c8063889ee2e814610045578063fefd87e01461006a575b600080fd5b6100686004803603604081101561005b57600080fd5b50803590602001356100b2565b005b81801561007657600080fd5b506100a06004803603606081101561008d57600080fd5b508035906020810135906040013561026e565b60408051918252519081900360200190f35b8082106101945769021e19e0c9bab24000008273__$453ca7436f2e4c673c26da82379bd674f3$__63a293d1e89091846040518363ffffffff1660e01b8152600401808381526020018281526020019250505060206040518083038186803b15801561011d57600080fd5b505af4158015610131573d6000803e3d6000fd5b505050506040513d602081101561014757600080fd5b5051111561018f576040805162461bcd60e51b815260206004820152601060248201526f474b3a20646f75626c6520636865636b60801b604482015290519081900360640190fd5b61026a565b69021e19e0c9bab24000008173__$453ca7436f2e4c673c26da82379bd674f3$__63a293d1e89091856040518363ffffffff1660e01b8152600401808381526020018281526020019250505060206040518083038186803b1580156101f857600080fd5b505af415801561020c573d6000803e3d6000fd5b505050506040513d602081101561022257600080fd5b5051111561026a576040805162461bcd60e51b815260206004820152601060248201526f474b3a20646f75626c6520636865636b60801b604482015290519081900360640190fd5b5050565b600083600b015460001415610371576001840154600285015460408051638b6ea7bb60e01b81526001600160a01b03928316600482015290519190921691638b6ea7bb916024808301926020929190829003018186803b1580156102d157600080fd5b505afa1580156102e5573d6000803e3d6000fd5b505050506040513d60208110156102fb57600080fd5b50516040805163712d52fd60e11b815290516001600160a01b039092169163e25aa5fa91600480820192602092909190829003018186803b15801561033f57600080fd5b505afa158015610353573d6000803e3d6000fd5b505050506040513d602081101561036957600080fd5b5051600b8501555b83600c015473__$453ca7436f2e4c673c26da82379bd674f3$__63d05c78da909186600b015473__$453ca7436f2e4c673c26da82379bd674f3$__63a293d1e8909189600a01546040518363ffffffff1660e01b8152600401808381526020018281526020019250505060206040518083038186803b1580156103f357600080fd5b505af4158015610407573d6000803e3d6000fd5b505050506040513d602081101561041d57600080fd5b5051604080516001600160e01b031960e086901b16815260048101939093526024830191909152516044808301926020929190829003018186803b15801561046457600080fd5b505af4158015610478573d6000803e3d6000fd5b505050506040513d602081101561048e57600080fd5b5051600e85015560038401546001600160a01b0316156106a4576003840154600c850154855460408051602080820193909352600081830181905282518083038401815260608301808552815191860191909120825289855290839020546314527a3d60e31b90915260648201949094526084810193909352516001600160a01b039093169263ccebb54c9273__$453ca7436f2e4c673c26da82379bd674f3$__9263a293d1e89260a480840193829003018186803b15801561055057600080fd5b505af4158015610564573d6000803e3d6000fd5b505050506040513d602081101561057a57600080fd5b5051865460408051602081810184905260008284018190528351808403850181526060840180865281519184019190912082528b8352908490205460048d015463516b3ca360e01b909252606484019590955292516001600160a01b039093169263516b3ca3926084808201939291829003018186803b1580156105fd57600080fd5b505afa158015610611573d6000803e3d6000fd5b505050506040513d602081101561062757600080fd5b5051600a890154600b8a0154604080516001600160e01b031960e089901b168152600481019690965260248601949094526044850192909252606484015260848301525160a480830192600092919082900301818387803b15801561068b57600080fd5b505af115801561069f573d6000803e3d6000fd5b505050505b6000805b600686015481101561074c5773__$453ca7436f2e4c673c26da82379bd674f3$__63e6cb9013836106db89898987610a9c565b6040518363ffffffff1660e01b8152600401808381526020018281526020019250505060206040518083038186803b15801561071657600080fd5b505af415801561072a573d6000803e3d6000fd5b505050506040513d602081101561074057600080fd5b505191506001016106a8565b508073__$453ca7436f2e4c673c26da82379bd674f3$__63e6cb901390916107fe8888888b600c015473__$453ca7436f2e4c673c26da82379bd674f3$__63a293d1e890918a6040518363ffffffff1660e01b8152600401808381526020018281526020019250505060206040518083038186803b1580156107cd57600080fd5b505af41580156107e1573d6000803e3d6000fd5b505050506040513d60208110156107f757600080fd5b505161130f565b6040518363ffffffff1660e01b8152600401808381526020018281526020019250505060206040518083038186803b15801561083957600080fd5b505af415801561084d573d6000803e3d6000fd5b505050506040513d602081101561086357600080fd5b5051600c860154909150811015610a925784600c015473__$453ca7436f2e4c673c26da82379bd674f3$__63a293d1e89091836040518363ffffffff1660e01b8152600401808381526020018281526020019250505060206040518083038186803b1580156108d157600080fd5b505af41580156108e5573d6000803e3d6000fd5b505050506040513d60208110156108fb57600080fd5b505160098601549091506001600160a01b031661095f576040805162461bcd60e51b815260206004820152601b60248201527f696e76616c6964207969656c6420696e74657265737420706f6f6c0000000000604482015290519081900360640190fd5b6002850154604080516370a0823160e01b8152306004820152905183926001600160a01b0316916370a08231916024808301926020929190829003018186803b1580156109ab57600080fd5b505afa1580156109bf573d6000803e3d6000fd5b505050506040513d60208110156109d557600080fd5b505110610a035760098501546002860154610a03916001600160a01b0391821691168363ffffffff61169e16565b84600d015473__$453ca7436f2e4c673c26da82379bd674f3$__63a293d1e89091836040518363ffffffff1660e01b8152600401808381526020018281526020019250505060206040518083038186803b158015610a6057600080fd5b505af4158015610a74573d6000803e3d6000fd5b505050506040513d6020811015610a8a57600080fd5b5051600d8601555b5050915492915050565b6000808560000154866006018481548110610ab357fe5b6000918252602080832090910154604080518084019590955284810191909152805180850382018152606085018083528151918401919091208085528a845282852054600a8d015463682e3c6d60e11b90935260648701819052608487019290925291519195509373__$453ca7436f2e4c673c26da82379bd674f3$__9263d05c78da9260a480840193829003018186803b158015610b5157600080fd5b505af4158015610b65573d6000803e3d6000fd5b505050506040513d6020811015610b7b57600080fd5b505160068901805473__$453ca7436f2e4c673c26da82379bd674f3$__9263d05c78da92909189908110610bab57fe5b90600052602060002001546040518363ffffffff1660e01b8152600401808381526020018281526020019250505060206040518083038186803b158015610bf157600080fd5b505af4158015610c05573d6000803e3d6000fd5b505050506040513d6020811015610c1b57600080fd5b5051600789015460408051632d64c7df60e21b8152600481019390935260248301919091525173__$453ca7436f2e4c673c26da82379bd674f3$__9163b5931f7c916044808301926020929190829003018186803b158015610c7c57600080fd5b505af4158015610c90573d6000803e3d6000fd5b505050506040513d6020811015610ca657600080fd5b5051600e890154909150811115610cbe5750600e8701545b87600e015473__$453ca7436f2e4c673c26da82379bd674f3$__63a293d1e89091836040518363ffffffff1660e01b8152600401808381526020018281526020019250505060206040518083038186803b158015610d1b57600080fd5b505af4158015610d2f573d6000803e3d6000fd5b505050506040513d6020811015610d4557600080fd5b5051600e890155600a8801546040805163682e3c6d60e11b81526004810185905260248101929092525173__$453ca7436f2e4c673c26da82379bd674f3$__9163d05c78da916044808301926020929190829003018186803b158015610daa57600080fd5b505af4158015610dbe573d6000803e3d6000fd5b505050506040513d6020811015610dd457600080fd5b50516040805163e6cb901360e01b81526004810192909252602482018390525173__$453ca7436f2e4c673c26da82379bd674f3$__9163e6cb9013916044808301926020929190829003018186803b158015610e2f57600080fd5b505af4158015610e43573d6000803e3d6000fd5b505050506040513d6020811015610e5957600080fd5b5051600b89015460408051632d64c7df60e21b8152600481019390935260248301919091525173__$453ca7436f2e4c673c26da82379bd674f3$__9163b5931f7c916044808301926020929190829003018186803b158015610eba57600080fd5b505af4158015610ece573d6000803e3d6000fd5b505050506040513d6020811015610ee457600080fd5b505160008481526020889052604081205491935090610f0c5750670de0b6b3a76400006110b1565b6040805163682e3c6d60e11b815260048101859052670de0b6b3a76400006024820152905173__$453ca7436f2e4c673c26da82379bd674f3$__9163d05c78da916044808301926020929190829003018186803b158015610f6c57600080fd5b505af4158015610f80573d6000803e3d6000fd5b505050506040513d6020811015610f9657600080fd5b505160008581526020898152604091829020548251632d64c7df60e21b815260048101949094526024840152905173__$453ca7436f2e4c673c26da82379bd674f3$__9263b5931f7c926044808301939192829003018186803b158015610ffc57600080fd5b505af4158015611010573d6000803e3d6000fd5b505050506040513d602081101561102657600080fd5b50519050806110b157670de0b6b3a764000090507f655a93b92471c33e1bcc9b2d4c1fd42a1a37ad536aa79a7b50e6ca3f32deba67308a600001548b600601898154811061107057fe5b906000526020600020015460405180846001600160a01b03166001600160a01b03168152602001838152602001828152602001935050505060405180910390a15b8294508860050160009054906101000a90046001600160a01b03166001600160a01b031663d16827c63060008c6006018a815481106110ec57fe5b906000526020600020015460036040518563ffffffff1660e01b815260040180856001600160a01b03166001600160a01b0316815260200184815260200183815260200182815260200194505050505060206040518083038186803b15801561115457600080fd5b505afa158015611168573d6000803e3d6000fd5b505050506040513d602081101561117e57600080fd5b505160038a01549093506001600160a01b0316156112dd57600389015460068a0180546001600160a01b0390921691638d89b16a9190899081106111be57fe5b9060005260206000200154856ec097ce7bc90715b34b9f100000000073__$453ca7436f2e4c673c26da82379bd674f3$__63b5931f7c9091876040518363ffffffff1660e01b8152600401808381526020018281526020019250505060206040518083038186803b15801561123257600080fd5b505af4158015611246573d6000803e3d6000fd5b505050506040513d602081101561125c57600080fd5b5051600089815260208d905260408082205481516001600160e01b031960e089901b1681526004810196909652602486019490945260448501929092526064840192909252608483018790525160a48084019382900301818387803b1580156112c457600080fd5b505af11580156112d8573d6000803e3d6000fd5b505050505b611303898989848d6006018b815481106112f357fe5b90600052602060002001546116f5565b50505050949350505050565b835460408051602080820193909352600081830181905282518083038401815260609092018352815191840191909120808252928590529081205490919082906113625750670de0b6b3a76400006114d7565b6040805163682e3c6d60e11b815260048101869052670de0b6b3a76400006024820152905173__$453ca7436f2e4c673c26da82379bd674f3$__9163d05c78da916044808301926020929190829003018186803b1580156113c257600080fd5b505af41580156113d6573d6000803e3d6000fd5b505050506040513d60208110156113ec57600080fd5b505160008381526020878152604091829020548251632d64c7df60e21b815260048101949094526024840152905173__$453ca7436f2e4c673c26da82379bd674f3$__9263b5931f7c926044808301939192829003018186803b15801561145257600080fd5b505af4158015611466573d6000803e3d6000fd5b505050506040513d602081101561147c57600080fd5b50518493509050806114d75750855460408051308152602081019290925260008282015251670de0b6b3a7640000917f655a93b92471c33e1bcc9b2d4c1fd42a1a37ad536aa79a7b50e6ca3f32deba67919081900360600190a15b60038701546001600160a01b03161561168657600387015460088801546040805163039ffdcb60e61b815290516001600160a01b0393841693638d89b16a9360009391169163e7ff72c091600480820192602092909190829003018186803b15801561154257600080fd5b505afa158015611556573d6000803e3d6000fd5b505050506040513d602081101561156c57600080fd5b505160408051632d64c7df60e21b81526ec097ce7bc90715b34b9f1000000000600482015260248101879052905173__$453ca7436f2e4c673c26da82379bd674f3$__9163b5931f7c916044808301926020929190829003018186803b1580156115d557600080fd5b505af41580156115e9573d6000803e3d6000fd5b505050506040513d60208110156115ff57600080fd5b5051600087815260208b9052604080822054600e8f015482516001600160e01b031960e08a901b168152600481019790975260248701959095526044860193909352606485019290925260848401929092525160a48084019382900301818387803b15801561166d57600080fd5b505af1158015611681573d6000803e3d6000fd5b505050505b6116948787878460006116f5565b5050949350505050565b604080516001600160a01b038416602482015260448082018490528251808303909101815260649091019091526020810180516001600160e01b031663a9059cbb60e01b1790526116f09084906123a4565b505050565b84546040805160208082018490528183018590528251808303840181526060830184528051908201206001909401608083015260a08083018690528351808403909101815260c09092019092528051910120600091829182918291866117c15760088b015460408051630dbfe0d760e01b8152600481018b905290516001600160a01b0390921691630dbfe0d79160248082019260009290919082900301818387803b1580156117a457600080fd5b505af11580156117b8573d6000803e3d6000fd5b50505050611843565b60058b015460408051630d53f0e160e01b8152306004820152600060248201819052604482018b905260036064830152608482018c905291516001600160a01b0390931692630d53f0e19260a48084019391929182900301818387803b15801561182a57600080fd5b505af115801561183e573d6000803e3d6000fd5b505050505b60408051632d64c7df60e21b81526ec097ce7bc90715b34b9f10000000006004820152602481018a9052905173__$453ca7436f2e4c673c26da82379bd674f3$__9163b5931f7c916044808301926020929190829003018186803b1580156118aa57600080fd5b505af41580156118be573d6000803e3d6000fd5b505050506040513d60208110156118d457600080fd5b505160058c01548c5460408051630d53f0e160e01b815230600482015260019283016024820152604481018c9052606481019290925260848201849052519298506001600160a01b0390911691630d53f0e19160a48082019260009290919082900301818387803b15801561194857600080fd5b505af115801561195c573d6000803e3d6000fd5b50505060058c01548c5460408051635b6ad57b60e11b815230600482015260019283016024820152604481018c90526064810192909252516001600160a01b03909216925063b6d5aaf6916084808301926020929190829003018186803b1580156119c657600080fd5b505afa1580156119da573d6000803e3d6000fd5b505050506040513d60208110156119f057600080fd5b50516040805163682e3c6d60e11b815260048101839052670de0b6b3a76400006024820152905191975073__$453ca7436f2e4c673c26da82379bd674f3$__9163d05c78da91604480820192602092909190829003018186803b158015611a5657600080fd5b505af4158015611a6a573d6000803e3d6000fd5b505050506040513d6020811015611a8057600080fd5b505160408051632d64c7df60e21b81526004810192909252602482018a90525173__$453ca7436f2e4c673c26da82379bd674f3$__9163b5931f7c916044808301926020929190829003018186803b158015611adb57600080fd5b505af4158015611aef573d6000803e3d6000fd5b505050506040513d6020811015611b0557600080fd5b505160058c01548c5460408051630d53f0e160e01b815230600482015260019092016024830152604482018b905260026064830152608482018c9052519296506001600160a01b0390911691630d53f0e19160a48082019260009290919082900301818387803b158015611b7857600080fd5b505af1158015611b8c573d6000803e3d6000fd5b50505060058c01548c5460408051635b6ad57b60e11b81523060048201526001929092016024830152604482018b905260026064830152516001600160a01b03909216925063b6d5aaf6916084808301926020929190829003018186803b158015611bf657600080fd5b505afa158015611c0a573d6000803e3d6000fd5b505050506040513d6020811015611c2057600080fd5b50516040805163682e3c6d60e11b81526004810192909252602482018a90525173__$453ca7436f2e4c673c26da82379bd674f3$__9163d05c78da916044808301926020929190829003018186803b158015611c7b57600080fd5b505af4158015611c8f573d6000803e3d6000fd5b505050506040513d6020811015611ca557600080fd5b505160408051632d64c7df60e21b81526004810192909252670de0b6b3a764000060248301525173__$453ca7436f2e4c673c26da82379bd674f3$__9163b5931f7c916044808301926020929190829003018186803b158015611d0757600080fd5b505af4158015611d1b573d6000803e3d6000fd5b505050506040513d6020811015611d3157600080fd5b505160058c01548c5460408051635b6ad57b60e11b815230600482015260019092016024830152604482018b905260026064830152519297506001600160a01b039091169163b6d5aaf691608480820192602092909190829003018186803b158015611d9c57600080fd5b505afa158015611db0573d6000803e3d6000fd5b505050506040513d6020811015611dc657600080fd5b5051600083815260208b815260409182902054825163682e3c6d60e11b81526004810191909152602481018c9052915192955073__$453ca7436f2e4c673c26da82379bd674f3$__9263d05c78da926044808201939291829003018186803b158015611e3157600080fd5b505af4158015611e45573d6000803e3d6000fd5b505050506040513d6020811015611e5b57600080fd5b505160408051632d64c7df60e21b81526004810192909252670de0b6b3a764000060248301525173__$453ca7436f2e4c673c26da82379bd674f3$__9163b5931f7c916044808301926020929190829003018186803b158015611ebd57600080fd5b505af4158015611ed1573d6000803e3d6000fd5b505050506040513d6020811015611ee757600080fd5b50516040805163e6cb901360e01b81526004810192909252602482018890525173__$453ca7436f2e4c673c26da82379bd674f3$__9163e6cb9013916044808301926020929190829003018186803b158015611f4257600080fd5b505af4158015611f56573d6000803e3d6000fd5b505050506040513d6020811015611f6c57600080fd5b5051604080516314527a3d60e31b81526004810192909252602482018790525173__$453ca7436f2e4c673c26da82379bd674f3$__9163a293d1e8916044808301926020929190829003018186803b158015611fc757600080fd5b505af4158015611fdb573d6000803e3d6000fd5b505050506040513d6020811015611ff157600080fd5b5051600082815260208c9052604081209190915560068c01805490919061201457fe5b906000526020600020015487141561203157600c8b0154600d8c01555b8a600d015473__$453ca7436f2e4c673c26da82379bd674f3$__63e6cb90139091886040518363ffffffff1660e01b8152600401808381526020018281526020019250505060206040518083038186803b15801561208e57600080fd5b505af41580156120a2573d6000803e3d6000fd5b505050506040513d60208110156120b857600080fd5b5051604080516314527a3d60e31b81526004810192909252602482018790525173__$453ca7436f2e4c673c26da82379bd674f3$__9163a293d1e8916044808301926020929190829003018186803b15801561211357600080fd5b505af4158015612127573d6000803e3d6000fd5b505050506040513d602081101561213d57600080fd5b5051600d8c0155600082815260208a815260409182902054825163e6cb901360e01b8152600481019190915260248101879052915173__$453ca7436f2e4c673c26da82379bd674f3$__9263e6cb9013926044808301939192829003018186803b1580156121aa57600080fd5b505af41580156121be573d6000803e3d6000fd5b505050506040513d60208110156121d457600080fd5b5051604080516314527a3d60e31b81526004810192909252602482018590525173__$453ca7436f2e4c673c26da82379bd674f3$__9163a293d1e8916044808301926020929190829003018186803b15801561222f57600080fd5b505af4158015612243573d6000803e3d6000fd5b505050506040513d602081101561225957600080fd5b5051600082815260208b81526040808320939093558c81529082902054825163682e3c6d60e11b81526004810191909152670de0b6b3a7640000602482015291516123979273__$453ca7436f2e4c673c26da82379bd674f3$__9263d05c78da92604480840193829003018186803b1580156122d457600080fd5b505af41580156122e8573d6000803e3d6000fd5b505050506040513d60208110156122fe57600080fd5b5051600083815260208c815260409182902054825163682e3c6d60e11b81526004810191909152602481018d9052915173__$453ca7436f2e4c673c26da82379bd674f3$__9263d05c78da926044808301939192829003018186803b15801561236657600080fd5b505af415801561237a573d6000803e3d6000fd5b505050506040513d602081101561239057600080fd5b50516100b2565b5050505050505050505050565b6123b6826001600160a01b0316612562565b612407576040805162461bcd60e51b815260206004820152601f60248201527f5361666545524332303a2063616c6c20746f206e6f6e2d636f6e747261637400604482015290519081900360640190fd5b60006060836001600160a01b0316836040518082805190602001908083835b602083106124455780518252601f199092019160209182019101612426565b6001836020036101000a0380198251168184511680821785525050505050509050019150506000604051808303816000865af19150503d80600081146124a7576040519150601f19603f3d011682016040523d82523d6000602084013e6124ac565b606091505b509150915081612503576040805162461bcd60e51b815260206004820181905260248201527f5361666545524332303a206c6f772d6c6576656c2063616c6c206661696c6564604482015290519081900360640190fd5b80511561255c5780806020019051602081101561251f57600080fd5b505161255c5760405162461bcd60e51b815260040180806020018281038252602a81526020018061259f602a913960400191505060405180910390fd5b50505050565b6000813f7fc5d2460186f7233c927e7db2dcc703c0e500b653ca82273b7bfad8045d85a47081158015906125965750808214155b94935050505056fe5361666545524332303a204552433230206f7065726174696f6e20646964206e6f742073756363656564a265627a7a72305820926356c9d4156e8c501b396a885033f48aeafa37a9901e7bb0551a29df76048f64736f6c634300050a0032",
  "language": "Solidity",
  "natspec": {
    "methods": {
      "settle_round(HGateKeeperParam.settle_round_param_info storage,mapping(bytes32 => uint256) storage,mapping(bytes32 => uint256) storage)": {
        "details": "This function is executed when the round (indexed by _round) is end. It does the settlement for current round with respect to the following things: 1.\tIt updates the value of all longterm tokens in target token, according to the price from yield stream in current round. It also sets the value of intokens and outtokens in the next round. 2.\tIt maintains the amount of longterm tokens (including unexchanged intokens) and target tokens in the next round."
      }
    }
  },
  "opcodes": "PUSH20 0x0 ADDRESS EQ PUSH1 0x80 PUSH1 0x40 MSTORE PUSH1 0x4 CALLDATASIZE LT PUSH2 0x40 JUMPI PUSH1 0x0 CALLDATALOAD PUSH1 0xE0 SHR DUP1 PUSH4 0x889EE2E8 EQ PUSH2 0x45 JUMPI DUP1 PUSH4 0xFEFD87E0 EQ PUSH2 0x6A JUMPI JUMPDEST PUSH1 0x0 DUP1 REVERT JUMPDEST PUSH2 0x68 PUSH1 0x4 DUP1 CALLDATASIZE SUB PUSH1 0x40 DUP2 LT ISZERO PUSH2 0x5B JUMPI PUSH1 0x0 DUP1 REVERT JUMPDEST POP DUP1 CALLDATALOAD SWAP1 PUSH1 0x20 ADD CALLDATALOAD PUSH2 0xB2 JUMP JUMPDEST STOP JUMPDEST DUP2 DUP1 ISZERO PUSH2 0x76 JUMPI PUSH1 0x0 DUP1 REVERT JUMPDEST POP PUSH2 0xA0 PUSH1 0x4 DUP1 CALLDATASIZE SUB PUSH1 0x60 DUP2 LT ISZERO PUSH2 0x8D JUMPI PUSH1 0x0 DUP1 REVERT JUMPDEST POP DUP1 CALLDATALOAD SWAP1 PUSH1 0x20 DUP2 ADD CALLDATALOAD SWAP1 PUSH1 0x40 ADD CALLDATALOAD PUSH2 0x26E JUMP JUMPDEST PUSH1 0x40 DUP1 MLOAD SWAP2 DUP3 MSTORE MLOAD SWAP1 DUP2 SWAP1 SUB PUSH1 0x20 ADD SWAP1 RETURN JUMPDEST DUP1 DUP3 LT PUSH2 0x194 JUMPI PUSH10 0x21E19E0C9BAB2400000 DUP3 PUSH20 0x0 PUSH4 0xA293D1E8 SWAP1 SWAP2 DUP5 PUSH1 0x40 MLOAD DUP4 PUSH4 0xFFFFFFFF AND PUSH1 0xE0 SHL DUP2 MSTORE PUSH1 0x4 ADD DUP1 DUP4 DUP2 MSTORE PUSH1 0x20 ADD DUP3 DUP2 MSTORE PUSH1 0x20 ADD SWAP3 POP POP POP PUSH1 0x20 PUSH1 0x40 MLOAD DUP1 DUP4 SUB DUP2 DUP7 DUP1 EXTCODESIZE ISZERO DUP1 ISZERO PUSH2 0x11D JUMPI PUSH1 0x0 DUP1 REVERT JUMPDEST POP GAS DELEGATECALL ISZERO DUP1 ISZERO PUSH2 0x131 JUMPI RETURNDATASIZE PUSH1 0x0 DUP1 RETURNDATACOPY RETURNDATASIZE PUSH1 0x0 REVERT JUMPDEST POP POP POP POP PUSH1 0x40 MLOAD RETURNDATASIZE PUSH1 0x20 DUP2 LT ISZERO PUSH2 0x147 JUMPI PUSH1 0x0 DUP1 REVERT JUMPDEST POP MLOAD GT ISZERO PUSH2 0x18F JUMPI PUSH1 0x40 DUP1 MLOAD PUSH3 0x461BCD PUSH1 0xE5 SHL DUP2 MSTORE PUSH1 0x20 PUSH1 0x4 DUP3 ADD MSTORE PUSH1 0x10 PUSH1 0x24 DUP3 ADD MSTORE PUSH16 0x474B3A20646F75626C6520636865636B PUSH1 0x80 SHL PUSH1 0x44 DUP3 ADD MSTORE SWAP1 MLOAD SWAP1 DUP2 SWAP1 SUB PUSH1 0x64 ADD SWAP1 REVERT JUMPDEST PUSH2 0x26A JUMP JUMPDEST PUSH10 0x21E19E0C9BAB2400000 DUP2 PUSH20 0x0 PUSH4 0xA293D1E8 SWAP1 SWAP2 DUP6 PUSH1 0x40 MLOAD DUP4 PUSH4 0xFFFFFFFF AND PUSH1 0xE0 SHL DUP2 MSTORE PUSH1 0x4 ADD DUP1 DUP4 DUP2 MSTORE PUSH1 0x20 ADD DUP3 DUP2 MSTORE PUSH1 0x20 ADD SWAP3 POP POP POP PUSH1 0x20 PUSH1 0x40 MLOAD DUP1 DUP4 SUB DUP2 DUP7 DUP1 EXTCODESIZE ISZERO DUP1 ISZERO PUSH2 0x1F8 JUMPI PUSH1 0x0 DUP1 REVERT JUMPDEST POP GAS DELEGATECALL ISZERO DUP1 ISZERO PUSH2 0x20C JUMPI RETURNDATASIZE PUSH1 0x0 DUP1 RETURNDATACOPY RETURNDATASIZE PUSH1 0x0 REVERT JUMPDEST POP POP POP POP PUSH1 0x40 MLOAD RETURNDATASIZE PUSH1 0x20 DUP2 LT ISZERO PUSH2 0x222 JUMPI PUSH1 0x0 DUP1 REVERT JUMPDEST POP MLOAD GT ISZERO PUSH2 0x26A JUMPI PUSH1 0x40 DUP1 MLOAD PUSH3 0x461BCD PUSH1 0xE5 SHL DUP2 MSTORE PUSH1 0x20 PUSH1 0x4 DUP3 ADD MSTORE PUSH1 0x10 PUSH1 0x24 DUP3 ADD MSTORE PUSH16 0x474B3A20646F75626C6520636865636B PUSH1 0x80 SHL PUSH1 0x44 DUP3 ADD MSTORE SWAP1 MLOAD SWAP1 DUP2 SWAP1 SUB PUSH1 0x64 ADD SWAP1 REVERT JUMPDEST POP POP JUMP JUMPDEST PUSH1 0x0 DUP4 PUSH1 0xB ADD SLOAD PUSH1 0x0 EQ ISZERO PUSH2 0x371 JUMPI PUSH1 0x1 DUP5 ADD SLOAD PUSH1 0x2 DUP6 ADD SLOAD PUSH1 0x40 DUP1 MLOAD PUSH4 0x8B6EA7BB PUSH1 0xE0 SHL DUP2 MSTORE PUSH1 0x1 PUSH1 0x1 PUSH1 0xA0 SHL SUB SWAP3 DUP4 AND PUSH1 0x4 DUP3 ADD MSTORE SWAP1 MLOAD SWAP2 SWAP1 SWAP3 AND SWAP2 PUSH4 0x8B6EA7BB SWAP2 PUSH1 0x24 DUP1 DUP4 ADD SWAP3 PUSH1 0x20 SWAP3 SWAP2 SWAP1 DUP3 SWAP1 SUB ADD DUP2 DUP7 DUP1 EXTCODESIZE ISZERO DUP1 ISZERO PUSH2 0x2D1 JUMPI PUSH1 0x0 DUP1 REVERT JUMPDEST POP GAS STATICCALL ISZERO DUP1 ISZERO PUSH2 0x2E5 JUMPI RETURNDATASIZE PUSH1 0x0 DUP1 RETURNDATACOPY RETURNDATASIZE PUSH1 0x0 REVERT JUMPDEST POP POP POP POP PUSH1 0x40 MLOAD RETURNDATASIZE PUSH1 0x20 DUP2 LT ISZERO PUSH2 0x2FB JUMPI PUSH1 0x0 DUP1 REVERT JUMPDEST POP MLOAD PUSH1 0x40 DUP1 MLOAD PUSH4 0x712D52FD PUSH1 0xE1 SHL DUP2 MSTORE SWAP1 MLOAD PUSH1 0x1 PUSH1 0x1 PUSH1 0xA0 SHL SUB SWAP1 SWAP3 AND SWAP2 PUSH4 0xE25AA5FA SWAP2 PUSH1 0x4 DUP1 DUP3 ADD SWAP3 PUSH1 0x20 SWAP3 SWAP1 SWAP2 SWAP1 DUP3 SWAP1 SUB ADD DUP2 DUP7 DUP1 EXTCODESIZE ISZERO DUP1 ISZERO PUSH2 0x33F JUMPI PUSH1 0x0 DUP1 REVERT JUMPDEST POP GAS STATICCALL ISZERO DUP1 ISZERO PUSH2 0x353 JUMPI RETURNDATASIZE PUSH1 0x0 DUP1 RETURNDATACOPY RETURNDATASIZE PUSH1 0x0 REVERT JUMPDEST POP POP POP POP PUSH1 0x40 MLOAD RETURNDATASIZE PUSH1 0x20 DUP2 LT ISZERO PUSH2 0x369 JUMPI PUSH1 0x0 DUP1 REVERT JUMPDEST POP MLOAD PUSH1 0xB DUP6 ADD SSTORE JUMPDEST DUP4 PUSH1 0xC ADD SLOAD PUSH20 0x0 PUSH4 0xD05C78DA SWAP1 SWAP2 DUP7 PUSH1 0xB ADD SLOAD PUSH20 0x0 PUSH4 0xA293D1E8 SWAP1 SWAP2 DUP10 PUSH1 0xA ADD SLOAD PUSH1 0x40 MLOAD DUP4 PUSH4 0xFFFFFFFF AND PUSH1 0xE0 SHL DUP2 MSTORE PUSH1 0x4 ADD DUP1 DUP4 DUP2 MSTORE PUSH1 0x20 ADD DUP3 DUP2 MSTORE PUSH1 0x20 ADD SWAP3 POP POP POP PUSH1 0x20 PUSH1 0x40 MLOAD DUP1 DUP4 SUB DUP2 DUP7 DUP1 EXTCODESIZE ISZERO DUP1 ISZERO PUSH2 0x3F3 JUMPI PUSH1 0x0 DUP1 REVERT JUMPDEST POP GAS DELEGATECALL ISZERO DUP1 ISZERO PUSH2 0x407 JUMPI RETURNDATASIZE PUSH1 0x0 DUP1 RETURNDATACOPY RETURNDATASIZE PUSH1 0x0 REVERT JUMPDEST POP POP POP POP PUSH1 0x40 MLOAD RETURNDATASIZE PUSH1 0x20 DUP2 LT ISZERO PUSH2 0x41D JUMPI PUSH1 0x0 DUP1 REVERT JUMPDEST POP MLOAD PUSH1 0x40 DUP1 MLOAD PUSH1 0x1 PUSH1 0x1 PUSH1 0xE0 SHL SUB NOT PUSH1 0xE0 DUP7 SWAP1 SHL AND DUP2 MSTORE PUSH1 0x4 DUP2 ADD SWAP4 SWAP1 SWAP4 MSTORE PUSH1 0x24 DUP4 ADD SWAP2 SWAP1 SWAP2 MSTORE MLOAD PUSH1 0x44 DUP1 DUP4 ADD SWAP3 PUSH1 0x20 SWAP3 SWAP2 SWAP1 DUP3 SWAP1 SUB ADD DUP2 DUP7 DUP1 EXTCODESIZE ISZERO DUP1 ISZERO PUSH2 0x464 JUMPI PUSH1 0x0 DUP1 REVERT JUMPDEST POP GAS DELEGATECALL ISZERO DUP1 ISZERO PUSH2 0x478 JUMPI RETURNDATASIZE PUSH1 0x0 DUP1 RETURNDATACOPY RETURNDATASIZE PUSH1 0x0 REVERT JUMPDEST POP POP POP POP PUSH1 0x40 MLOAD RETURNDATASIZE PUSH1 0x20 DUP2 LT ISZERO PUSH2 0x48E JUMPI PUSH1 0x0 DUP1 REVERT JUMPDEST POP MLOAD PUSH1 0xE DUP6 ADD SSTORE PUSH1 0x3 DUP5 ADD SLOAD PUSH1 0x1 PUSH1 0x1 PUSH1 0xA0 SHL SUB AND ISZERO PUSH2 0x6A4 JUMPI PUSH1 0x3 DUP5 ADD SLOAD PUSH1 0xC DUP6 ADD SLOAD DUP6 SLOAD PUSH1 0x40 DUP1 MLOAD PUSH1 0x20 DUP1 DUP3 ADD SWAP4 SWAP1 SWAP4 MSTORE PUSH1 0x0 DUP2 DUP4 ADD DUP2 SWAP1 MSTORE DUP3 MLOAD DUP1 DUP4 SUB DUP5 ADD DUP2 MSTORE PUSH1 0x60 DUP4 ADD DUP1 DUP6 MSTORE DUP2 MLOAD SWAP2 DUP7 ADD SWAP2 SWAP1 SWAP2 KECCAK256 DUP3 MSTORE DUP10 DUP6 MSTORE SWAP1 DUP4 SWAP1 KECCAK256 SLOAD PUSH4 0x14527A3D PUSH1 0xE3 SHL SWAP1 SWAP2 MSTORE PUSH1 0x64 DUP3 ADD SWAP5 SWAP1 SWAP5 MSTORE PUSH1 0x84 DUP2 ADD SWAP4 SWAP1 SWAP4 MSTORE MLOAD PUSH1 0x1 PUSH1 0x1 PUSH1 0xA0 SHL SUB SWAP1 SWAP4 AND SWAP3 PUSH4 0xCCEBB54C SWAP3 PUSH20 0x0 SWAP3 PUSH4 0xA293D1E8 SWAP3 PUSH1 0xA4 DUP1 DUP5 ADD SWAP4 DUP3 SWAP1 SUB ADD DUP2 DUP7 DUP1 EXTCODESIZE ISZERO DUP1 ISZERO PUSH2 0x550 JUMPI PUSH1 0x0 DUP1 REVERT JUMPDEST POP GAS DELEGATECALL ISZERO DUP1 ISZERO PUSH2 0x564 JUMPI RETURNDATASIZE PUSH1 0x0 DUP1 RETURNDATACOPY RETURNDATASIZE PUSH1 0x0 REVERT JUMPDEST POP POP POP POP PUSH1 0x40 MLOAD RETURNDATASIZE PUSH1 0x20 DUP2 LT ISZERO PUSH2 0x57A JUMPI PUSH1 0x0 DUP1 REVERT JUMPDEST POP MLOAD DUP7 SLOAD PUSH1 0x40 DUP1 MLOAD PUSH1 0x20 DUP2 DUP2 ADD DUP5 SWAP1 MSTORE PUSH1 0x0 DUP3 DUP5 ADD DUP2 SWAP1 MSTORE DUP4 MLOAD DUP1 DUP5 SUB DUP6 ADD DUP2 MSTORE PUSH1 0x60 DUP5 ADD DUP1 DUP7 MSTORE DUP2 MLOAD SWAP2 DUP5 ADD SWAP2 SWAP1 SWAP2 KECCAK256 DUP3 MSTORE DUP12 DUP4 MSTORE SWAP1 DUP5 SWAP1 KECCAK256 SLOAD PUSH1 0x4 DUP14 ADD SLOAD PUSH4 0x516B3CA3 PUSH1 0xE0 SHL SWAP1 SWAP3 MSTORE PUSH1 0x64 DUP5 ADD SWAP6 SWAP1 SWAP6 MSTORE SWAP3 MLOAD PUSH1 0x1 PUSH1 0x1 PUSH1 0xA0 SHL SUB SWAP1 SWAP4 AND SWAP3 PUSH4 0x516B3CA3 SWAP3 PUSH1 0x84 DUP1 DUP3 ADD SWAP4 SWAP3 SWAP2 DUP3 SWAP1 SUB ADD DUP2 DUP7 DUP1 EXTCODESIZE ISZERO DUP1 ISZERO PUSH2 0x5FD JUMPI PUSH1 0x0 DUP1 REVERT JUMPDEST POP GAS STATICCALL ISZERO DUP1 ISZERO PUSH2 0x611 JUMPI RETURNDATASIZE PUSH1 0x0 DUP1 RETURNDATACOPY RETURNDATASIZE PUSH1 0x0 REVERT JUMPDEST POP POP POP POP PUSH1 0x40 MLOAD RETURNDATASIZE PUSH1 0x20 DUP2 LT ISZERO PUSH2 0x627 JUMPI PUSH1 0x0 DUP1 REVERT JUMPDEST POP MLOAD PUSH1 0xA DUP10 ADD SLOAD PUSH1 0xB DUP11 ADD SLOAD PUSH1 0x40 DUP1 MLOAD PUSH1 0x1 PUSH1 0x1 PUSH1 0xE0 SHL SUB NOT PUSH1 0xE0 DUP10 SWAP1 SHL AND DUP2 MSTORE PUSH1 0x4 DUP2 ADD SWAP7 SWAP1 SWAP7 MSTORE PUSH1 0x24 DUP7 ADD SWAP5 SWAP1 SWAP5 MSTORE PUSH1 0x44 DUP6 ADD SWAP3 SWAP1 SWAP3 MSTORE PUSH1 0x64 DUP5 ADD MSTORE PUSH1 0x84 DUP4 ADD MSTORE MLOAD PUSH1 0xA4 DUP1 DUP4 ADD SWAP3 PUSH1 0x0 SWAP3 SWAP2 SWAP1 DUP3 SWAP1 SUB ADD DUP2 DUP4 DUP8 DUP1 EXTCODESIZE ISZERO DUP1 ISZERO PUSH2 0x68B JUMPI PUSH1 0x0 DUP1 REVERT JUMPDEST POP GAS CALL ISZERO DUP1 ISZERO PUSH2 0x69F JUMPI RETURNDATASIZE PUSH1 0x0 DUP1 RETURNDATACOPY RETURNDATASIZE PUSH1 0x0 REVERT JUMPDEST POP POP POP POP JUMPDEST PUSH1 0x0 DUP1 JUMPDEST PUSH1 0x6 DUP7 ADD SLOAD DUP2 LT ISZERO PUSH2 0x74C JUMPI PUSH20 0x0 PUSH4 0xE6CB9013 DUP4 PUSH2 0x6DB DUP10 DUP10 DUP10 DUP8 PUSH2 0xA9C JUMP JUMPDEST PUSH1 0x40 MLOAD DUP4 PUSH4 0xFFFFFFFF AND PUSH1 0xE0 SHL DUP2 MSTORE PUSH1 0x4 ADD DUP1 DUP4 DUP2 MSTORE PUSH1 0x20 ADD DUP3 DUP2 MSTORE PUSH1 0x20 ADD SWAP3 POP POP POP PUSH1 0x20 PUSH1 0x40 MLOAD DUP1 DUP4 SUB DUP2 DUP7 DUP1 EXTCODESIZE ISZERO DUP1 ISZERO PUSH2 0x716 JUMPI PUSH1 0x0 DUP1 REVERT JUMPDEST POP GAS DELEGATECALL ISZERO DUP1 ISZERO PUSH2 0x72A JUMPI RETURNDATASIZE PUSH1 0x0 DUP1 RETURNDATACOPY RETURNDATASIZE PUSH1 0x0 REVERT JUMPDEST POP POP POP POP PUSH1 0x40 MLOAD RETURNDATASIZE PUSH1 0x20 DUP2 LT ISZERO PUSH2 0x740 JUMPI PUSH1 0x0 DUP1 REVERT JUMPDEST POP MLOAD SWAP2 POP PUSH1 0x1 ADD PUSH2 0x6A8 JUMP JUMPDEST POP DUP1 PUSH20 0x0 PUSH4 0xE6CB9013 SWAP1 SWAP2 PUSH2 0x7FE DUP9 DUP9 DUP9 DUP12 PUSH1 0xC ADD SLOAD PUSH20 0x0 PUSH4 0xA293D1E8 SWAP1 SWAP2 DUP11 PUSH1 0x40 MLOAD DUP4 PUSH4 0xFFFFFFFF AND PUSH1 0xE0 SHL DUP2 MSTORE PUSH1 0x4 ADD DUP1 DUP4 DUP2 MSTORE PUSH1 0x20 ADD DUP3 DUP2 MSTORE PUSH1 0x20 ADD SWAP3 POP POP POP PUSH1 0x20 PUSH1 0x40 MLOAD DUP1 DUP4 SUB DUP2 DUP7 DUP1 EXTCODESIZE ISZERO DUP1 ISZERO PUSH2 0x7CD JUMPI PUSH1 0x0 DUP1 REVERT JUMPDEST POP GAS DELEGATECALL ISZERO DUP1 ISZERO PUSH2 0x7E1 JUMPI RETURNDATASIZE PUSH1 0x0 DUP1 RETURNDATACOPY RETURNDATASIZE PUSH1 0x0 REVERT JUMPDEST POP POP POP POP PUSH1 0x40 MLOAD RETURNDATASIZE PUSH1 0x20 DUP2 LT ISZERO PUSH2 0x7F7 JUMPI PUSH1 0x0 DUP1 REVERT JUMPDEST POP MLOAD PUSH2 0x130F JUMP JUMPDEST PUSH1 0x40 MLOAD DUP4 PUSH4 0xFFFFFFFF AND PUSH1 0xE0 SHL DUP2 MSTORE PUSH1 0x4 ADD DUP1 DUP4 DUP2 MSTORE PUSH1 0x20 ADD DUP3 DUP2 MSTORE PUSH1 0x20 ADD SWAP3 POP POP POP PUSH1 0x20 PUSH1 0x40 MLOAD DUP1 DUP4 SUB DUP2 DUP7 DUP1 EXTCODESIZE ISZERO DUP1 ISZERO PUSH2 0x839 JUMPI PUSH1 0x0 DUP1 REVERT JUMPDEST POP GAS DELEGATECALL ISZERO DUP1 ISZERO PUSH2 0x84D JUMPI RETURNDATASIZE PUSH1 0x0 DUP1 RETURNDATACOPY RETURNDATASIZE PUSH1 0x0 REVERT JUMPDEST POP POP POP POP PUSH1 0x40 MLOAD RETURNDATASIZE PUSH1 0x20 DUP2 LT ISZERO PUSH2 0x863 JUMPI PUSH1 0x0 DUP1 REVERT JUMPDEST POP MLOAD PUSH1 0xC DUP7 ADD SLOAD SWAP1 SWAP2 POP DUP2 LT ISZERO PUSH2 0xA92 JUMPI DUP5 PUSH1 0xC ADD SLOAD PUSH20 0x0 PUSH4 0xA293D1E8 SWAP1 SWAP2 DUP4 PUSH1 0x40 MLOAD DUP4 PUSH4 0xFFFFFFFF AND PUSH1 0xE0 SHL DUP2 MSTORE PUSH1 0x4 ADD DUP1 DUP4 DUP2 MSTORE PUSH1 0x20 ADD DUP3 DUP2 MSTORE PUSH1 0x20 ADD SWAP3 POP POP POP PUSH1 0x20 PUSH1 0x40 MLOAD DUP1 DUP4 SUB DUP2 DUP7 DUP1 EXTCODESIZE ISZERO DUP1 ISZERO PUSH2 0x8D1 JUMPI PUSH1 0x0 DUP1 REVERT JUMPDEST POP GAS DELEGATECALL ISZERO DUP1 ISZERO PUSH2 0x8E5 JUMPI RETURNDATASIZE PUSH1 0x0 DUP1 RETURNDATACOPY RETURNDATASIZE PUSH1 0x0 REVERT JUMPDEST POP POP POP POP PUSH1 0x40 MLOAD RETURNDATASIZE PUSH1 0x20 DUP2 LT ISZERO PUSH2 0x8FB JUMPI PUSH1 0x0 DUP1 REVERT JUMPDEST POP MLOAD PUSH1 0x9 DUP7 ADD SLOAD SWAP1 SWAP2 POP PUSH1 0x1 PUSH1 0x1 PUSH1 0xA0 SHL SUB AND PUSH2 0x95F JUMPI PUSH1 0x40 DUP1 MLOAD PUSH3 0x461BCD PUSH1 0xE5 SHL DUP2 MSTORE PUSH1 0x20 PUSH1 0x4 DUP3 ADD MSTORE PUSH1 0x1B PUSH1 0x24 DUP3 ADD MSTORE PUSH32 0x696E76616C6964207969656C6420696E74657265737420706F6F6C0000000000 PUSH1 0x44 DUP3 ADD MSTORE SWAP1 MLOAD SWAP1 DUP2 SWAP1 SUB PUSH1 0x64 ADD SWAP1 REVERT JUMPDEST PUSH1 0x2 DUP6 ADD SLOAD PUSH1 0x40 DUP1 MLOAD PUSH4 0x70A08231 PUSH1 0xE0 SHL DUP2 MSTORE ADDRESS PUSH1 0x4 DUP3 ADD MSTORE SWAP1 MLOAD DUP4 SWAP3 PUSH1 0x1 PUSH1 0x1 PUSH1 0xA0 SHL SUB AND SWAP2 PUSH4 0x70A08231 SWAP2 PUSH1 0x24 DUP1 DUP4 ADD SWAP3 PUSH1 0x20 SWAP3 SWAP2 SWAP1 DUP3 SWAP1 SUB ADD DUP2 DUP7 DUP1 EXTCODESIZE ISZERO DUP1 ISZERO PUSH2 0x9AB JUMPI PUSH1 0x0 DUP1 REVERT JUMPDEST POP GAS STATICCALL ISZERO DUP1 ISZERO PUSH2 0x9BF JUMPI RETURNDATASIZE PUSH1 0x0 DUP1 RETURNDATACOPY RETURNDATASIZE PUSH1 0x0 REVERT JUMPDEST POP POP POP POP PUSH1 0x40 MLOAD RETURNDATASIZE PUSH1 0x20 DUP2 LT ISZERO PUSH2 0x9D5 JUMPI PUSH1 0x0 DUP1 REVERT JUMPDEST POP MLOAD LT PUSH2 0xA03 JUMPI PUSH1 0x9 DUP6 ADD SLOAD PUSH1 0x2 DUP7 ADD SLOAD PUSH2 0xA03 SWAP2 PUSH1 0x1 PUSH1 0x1 PUSH1 0xA0 SHL SUB SWAP2 DUP3 AND SWAP2 AND DUP4 PUSH4 0xFFFFFFFF PUSH2 0x169E AND JUMP JUMPDEST DUP5 PUSH1 0xD ADD SLOAD PUSH20 0x0 PUSH4 0xA293D1E8 SWAP1 SWAP2 DUP4 PUSH1 0x40 MLOAD DUP4 PUSH4 0xFFFFFFFF AND PUSH1 0xE0 SHL DUP2 MSTORE PUSH1 0x4 ADD DUP1 DUP4 DUP2 MSTORE PUSH1 0x20 ADD DUP3 DUP2 MSTORE PUSH1 0x20 ADD SWAP3 POP POP POP PUSH1 0x20 PUSH1 0x40 MLOAD DUP1 DUP4 SUB DUP2 DUP7 DUP1 EXTCODESIZE ISZERO DUP1 ISZERO PUSH2 0xA60 JUMPI PUSH1 0x0 DUP1 REVERT JUMPDEST POP GAS DELEGATECALL ISZERO DUP1 ISZERO PUSH2 0xA74 JUMPI RETURNDATASIZE PUSH1 0x0 DUP1 RETURNDATACOPY RETURNDATASIZE PUSH1 0x0 REVERT JUMPDEST POP POP POP POP PUSH1 0x40 MLOAD RETURNDATASIZE PUSH1 0x20 DUP2 LT ISZERO PUSH2 0xA8A JUMPI PUSH1 0x0 DUP1 REVERT JUMPDEST POP MLOAD PUSH1 0xD DUP7 ADD SSTORE JUMPDEST POP POP SWAP2 SLOAD SWAP3 SWAP2 POP POP JUMP JUMPDEST PUSH1 0x0 DUP1 DUP6 PUSH1 0x0 ADD SLOAD DUP7 PUSH1 0x6 ADD DUP5 DUP2 SLOAD DUP2 LT PUSH2 0xAB3 JUMPI INVALID JUMPDEST PUSH1 0x0 SWAP2 DUP3 MSTORE PUSH1 0x20 DUP1 DUP4 KECCAK256 SWAP1 SWAP2 ADD SLOAD PUSH1 0x40 DUP1 MLOAD DUP1 DUP5 ADD SWAP6 SWAP1 SWAP6 MSTORE DUP5 DUP2 ADD SWAP2 SWAP1 SWAP2 MSTORE DUP1 MLOAD DUP1 DUP6 SUB DUP3 ADD DUP2 MSTORE PUSH1 0x60 DUP6 ADD DUP1 DUP4 MSTORE DUP2 MLOAD SWAP2 DUP5 ADD SWAP2 SWAP1 SWAP2 KECCAK256 DUP1 DUP6 MSTORE DUP11 DUP5 MSTORE DUP3 DUP6 KECCAK256 SLOAD PUSH1 0xA DUP14 ADD SLOAD PUSH4 0x682E3C6D PUSH1 0xE1 SHL SWAP1 SWAP4 MSTORE PUSH1 0x64 DUP8 ADD DUP2 SWAP1 MSTORE PUSH1 0x84 DUP8 ADD SWAP3 SWAP1 SWAP3 MSTORE SWAP2 MLOAD SWAP2 SWAP6 POP SWAP4 PUSH20 0x0 SWAP3 PUSH4 0xD05C78DA SWAP3 PUSH1 0xA4 DUP1 DUP5 ADD SWAP4 DUP3 SWAP1 SUB ADD DUP2 DUP7 DUP1 EXTCODESIZE ISZERO DUP1 ISZERO PUSH2 0xB51 JUMPI PUSH1 0x0 DUP1 REVERT JUMPDEST POP GAS DELEGATECALL ISZERO DUP1 ISZERO PUSH2 0xB65 JUMPI RETURNDATASIZE PUSH1 0x0 DUP1 RETURNDATACOPY RETURNDATASIZE PUSH1 0x0 REVERT JUMPDEST POP POP POP POP PUSH1 0x40 MLOAD RETURNDATASIZE PUSH1 0x20 DUP2 LT ISZERO PUSH2 0xB7B JUMPI PUSH1 0x0 DUP1 REVERT JUMPDEST POP MLOAD PUSH1 0x6 DUP10 ADD DUP1 SLOAD PUSH20 0x0 SWAP3 PUSH4 0xD05C78DA SWAP3 SWAP1 SWAP2 DUP10 SWAP1 DUP2 LT PUSH2 0xBAB JUMPI INVALID JUMPDEST SWAP1 PUSH1 0x0 MSTORE PUSH1 0x20 PUSH1 0x0 KECCAK256 ADD SLOAD PUSH1 0x40 MLOAD DUP4 PUSH4 0xFFFFFFFF AND PUSH1 0xE0 SHL DUP2 MSTORE PUSH1 0x4 ADD DUP1 DUP4 DUP2 MSTORE PUSH1 0x20 ADD DUP3 DUP2 MSTORE PUSH1 0x20 ADD SWAP3 POP POP POP PUSH1 0x20 PUSH1 0x40 MLOAD DUP1 DUP4 SUB DUP2 DUP7 DUP1 EXTCODESIZE ISZERO DUP1 ISZERO PUSH2 0xBF1 JUMPI PUSH1 0x0 DUP1 REVERT JUMPDEST POP GAS DELEGATECALL ISZERO DUP1 ISZERO PUSH2 0xC05 JUMPI RETURNDATASIZE PUSH1 0x0 DUP1 RETURNDATACOPY RETURNDATASIZE PUSH1 0x0 REVERT JUMPDEST POP POP POP POP PUSH1 0x40 MLOAD RETURNDATASIZE PUSH1 0x20 DUP2 LT ISZERO PUSH2 0xC1B JUMPI PUSH1 0x0 DUP1 REVERT JUMPDEST POP MLOAD PUSH1 0x7 DUP10 ADD SLOAD PUSH1 0x40 DUP1 MLOAD PUSH4 0x2D64C7DF PUSH1 0xE2 SHL DUP2 MSTORE PUSH1 0x4 DUP2 ADD SWAP4 SWAP1 SWAP4 MSTORE PUSH1 0x24 DUP4 ADD SWAP2 SWAP1 SWAP2 MSTORE MLOAD PUSH20 0x0 SWAP2 PUSH4 0xB5931F7C SWAP2 PUSH1 0x44 DUP1 DUP4 ADD SWAP3 PUSH1 0x20 SWAP3 SWAP2 SWAP1 DUP3 SWAP1 SUB ADD DUP2 DUP7 DUP1 EXTCODESIZE ISZERO DUP1 ISZERO PUSH2 0xC7C JUMPI PUSH1 0x0 DUP1 REVERT JUMPDEST POP GAS DELEGATECALL ISZERO DUP1 ISZERO PUSH2 0xC90 JUMPI RETURNDATASIZE PUSH1 0x0 DUP1 RETURNDATACOPY RETURNDATASIZE PUSH1 0x0 REVERT JUMPDEST POP POP POP POP PUSH1 0x40 MLOAD RETURNDATASIZE PUSH1 0x20 DUP2 LT ISZERO PUSH2 0xCA6 JUMPI PUSH1 0x0 DUP1 REVERT JUMPDEST POP MLOAD PUSH1 0xE DUP10 ADD SLOAD SWAP1 SWAP2 POP DUP2 GT ISZERO PUSH2 0xCBE JUMPI POP PUSH1 0xE DUP8 ADD SLOAD JUMPDEST DUP8 PUSH1 0xE ADD SLOAD PUSH20 0x0 PUSH4 0xA293D1E8 SWAP1 SWAP2 DUP4 PUSH1 0x40 MLOAD DUP4 PUSH4 0xFFFFFFFF AND PUSH1 0xE0 SHL DUP2 MSTORE PUSH1 0x4 ADD DUP1 DUP4 DUP2 MSTORE PUSH1 0x20 ADD DUP3 DUP2 MSTORE PUSH1 0x20 ADD SWAP3 POP POP POP PUSH1 0x20 PUSH1 0x40 MLOAD DUP1 DUP4 SUB DUP2 DUP7 DUP1 EXTCODESIZE ISZERO DUP1 ISZERO PUSH2 0xD1B JUMPI PUSH1 0x0 DUP1 REVERT JUMPDEST POP GAS DELEGATECALL ISZERO DUP1 ISZERO PUSH2 0xD2F JUMPI RETURNDATASIZE PUSH1 0x0 DUP1 RETURNDATACOPY RETURNDATASIZE PUSH1 0x0 REVERT JUMPDEST POP POP POP POP PUSH1 0x40 MLOAD RETURNDATASIZE PUSH1 0x20 DUP2 LT ISZERO PUSH2 0xD45 JUMPI PUSH1 0x0 DUP1 REVERT JUMPDEST POP MLOAD PUSH1 0xE DUP10 ADD SSTORE PUSH1 0xA DUP9 ADD SLOAD PUSH1 0x40 DUP1 MLOAD PUSH4 0x682E3C6D PUSH1 0xE1 SHL DUP2 MSTORE PUSH1 0x4 DUP2 ADD DUP6 SWAP1 MSTORE PUSH1 0x24 DUP2 ADD SWAP3 SWAP1 SWAP3 MSTORE MLOAD PUSH20 0x0 SWAP2 PUSH4 0xD05C78DA SWAP2 PUSH1 0x44 DUP1 DUP4 ADD SWAP3 PUSH1 0x20 SWAP3 SWAP2 SWAP1 DUP3 SWAP1 SUB ADD DUP2 DUP7 DUP1 EXTCODESIZE ISZERO DUP1 ISZERO PUSH2 0xDAA JUMPI PUSH1 0x0 DUP1 REVERT JUMPDEST POP GAS DELEGATECALL ISZERO DUP1 ISZERO PUSH2 0xDBE JUMPI RETURNDATASIZE PUSH1 0x0 DUP1 RETURNDATACOPY RETURNDATASIZE PUSH1 0x0 REVERT JUMPDEST POP POP POP POP PUSH1 0x40 MLOAD RETURNDATASIZE PUSH1 0x20 DUP2 LT ISZERO PUSH2 0xDD4 JUMPI PUSH1 0x0 DUP1 REVERT JUMPDEST POP MLOAD PUSH1 0x40 DUP1 MLOAD PUSH4 0xE6CB9013 PUSH1 0xE0 SHL DUP2 MSTORE PUSH1 0x4 DUP2 ADD SWAP3 SWAP1 SWAP3 MSTORE PUSH1 0x24 DUP3 ADD DUP4 SWAP1 MSTORE MLOAD PUSH20 0x0 SWAP2 PUSH4 0xE6CB9013 SWAP2 PUSH1 0x44 DUP1 DUP4 ADD SWAP3 PUSH1 0x20 SWAP3 SWAP2 SWAP1 DUP3 SWAP1 SUB ADD DUP2 DUP7 DUP1 EXTCODESIZE ISZERO DUP1 ISZERO PUSH2 0xE2F JUMPI PUSH1 0x0 DUP1 REVERT JUMPDEST POP GAS DELEGATECALL ISZERO DUP1 ISZERO PUSH2 0xE43 JUMPI RETURNDATASIZE PUSH1 0x0 DUP1 RETURNDATACOPY RETURNDATASIZE PUSH1 0x0 REVERT JUMPDEST POP POP POP POP PUSH1 0x40 MLOAD RETURNDATASIZE PUSH1 0x20 DUP2 LT ISZERO PUSH2 0xE59 JUMPI PUSH1 0x0 DUP1 REVERT JUMPDEST POP MLOAD PUSH1 0xB DUP10 ADD SLOAD PUSH1 0x40 DUP1 MLOAD PUSH4 0x2D64C7DF PUSH1 0xE2 SHL DUP2 MSTORE PUSH1 0x4 DUP2 ADD SWAP4 SWAP1 SWAP4 MSTORE PUSH1 0x24 DUP4 ADD SWAP2 SWAP1 SWAP2 MSTORE MLOAD PUSH20 0x0 SWAP2 PUSH4 0xB5931F7C SWAP2 PUSH1 0x44 DUP1 DUP4 ADD SWAP3 PUSH1 0x20 SWAP3 SWAP2 SWAP1 DUP3 SWAP1 SUB ADD DUP2 DUP7 DUP1 EXTCODESIZE ISZERO DUP1 ISZERO PUSH2 0xEBA JUMPI PUSH1 0x0 DUP1 REVERT JUMPDEST POP GAS DELEGATECALL ISZERO DUP1 ISZERO PUSH2 0xECE JUMPI RETURNDATASIZE PUSH1 0x0 DUP1 RETURNDATACOPY RETURNDATASIZE PUSH1 0x0 REVERT JUMPDEST POP POP POP POP PUSH1 0x40 MLOAD RETURNDATASIZE PUSH1 0x20 DUP2 LT ISZERO PUSH2 0xEE4 JUMPI PUSH1 0x0 DUP1 REVERT JUMPDEST POP MLOAD PUSH1 0x0 DUP5 DUP2 MSTORE PUSH1 0x20 DUP9 SWAP1 MSTORE PUSH1 0x40 DUP2 KECCAK256 SLOAD SWAP2 SWAP4 POP SWAP1 PUSH2 0xF0C JUMPI POP PUSH8 0xDE0B6B3A7640000 PUSH2 0x10B1 JUMP JUMPDEST PUSH1 0x40 DUP1 MLOAD PUSH4 0x682E3C6D PUSH1 0xE1 SHL DUP2 MSTORE PUSH1 0x4 DUP2 ADD DUP6 SWAP1 MSTORE PUSH8 0xDE0B6B3A7640000 PUSH1 0x24 DUP3 ADD MSTORE SWAP1 MLOAD PUSH20 0x0 SWAP2 PUSH4 0xD05C78DA SWAP2 PUSH1 0x44 DUP1 DUP4 ADD SWAP3 PUSH1 0x20 SWAP3 SWAP2 SWAP1 DUP3 SWAP1 SUB ADD DUP2 DUP7 DUP1 EXTCODESIZE ISZERO DUP1 ISZERO PUSH2 0xF6C JUMPI PUSH1 0x0 DUP1 REVERT JUMPDEST POP GAS DELEGATECALL ISZERO DUP1 ISZERO PUSH2 0xF80 JUMPI RETURNDATASIZE PUSH1 0x0 DUP1 RETURNDATACOPY RETURNDATASIZE PUSH1 0x0 REVERT JUMPDEST POP POP POP POP PUSH1 0x40 MLOAD RETURNDATASIZE PUSH1 0x20 DUP2 LT ISZERO PUSH2 0xF96 JUMPI PUSH1 0x0 DUP1 REVERT JUMPDEST POP MLOAD PUSH1 0x0 DUP6 DUP2 MSTORE PUSH1 0x20 DUP10 DUP2 MSTORE PUSH1 0x40 SWAP2 DUP3 SWAP1 KECCAK256 SLOAD DUP3 MLOAD PUSH4 0x2D64C7DF PUSH1 0xE2 SHL DUP2 MSTORE PUSH1 0x4 DUP2 ADD SWAP5 SWAP1 SWAP5 MSTORE PUSH1 0x24 DUP5 ADD MSTORE SWAP1 MLOAD PUSH20 0x0 SWAP3 PUSH4 0xB5931F7C SWAP3 PUSH1 0x44 DUP1 DUP4 ADD SWAP4 SWAP2 SWAP3 DUP3 SWAP1 SUB ADD DUP2 DUP7 DUP1 EXTCODESIZE ISZERO DUP1 ISZERO PUSH2 0xFFC JUMPI PUSH1 0x0 DUP1 REVERT JUMPDEST POP GAS DELEGATECALL ISZERO DUP1 ISZERO PUSH2 0x1010 JUMPI RETURNDATASIZE PUSH1 0x0 DUP1 RETURNDATACOPY RETURNDATASIZE PUSH1 0x0 REVERT JUMPDEST POP POP POP POP PUSH1 0x40 MLOAD RETURNDATASIZE PUSH1 0x20 DUP2 LT ISZERO PUSH2 0x1026 JUMPI PUSH1 0x0 DUP1 REVERT JUMPDEST POP MLOAD SWAP1 POP DUP1 PUSH2 0x10B1 JUMPI PUSH8 0xDE0B6B3A7640000 SWAP1 POP PUSH32 0x655A93B92471C33E1BCC9B2D4C1FD42A1A37AD536AA79A7B50E6CA3F32DEBA67 ADDRESS DUP11 PUSH1 0x0 ADD SLOAD DUP12 PUSH1 0x6 ADD DUP10 DUP2 SLOAD DUP2 LT PUSH2 0x1070 JUMPI INVALID JUMPDEST SWAP1 PUSH1 0x0 MSTORE PUSH1 0x20 PUSH1 0x0 KECCAK256 ADD SLOAD PUSH1 0x40 MLOAD DUP1 DUP5 PUSH1 0x1 PUSH1 0x1 PUSH1 0xA0 SHL SUB AND PUSH1 0x1 PUSH1 0x1 PUSH1 0xA0 SHL SUB AND DUP2 MSTORE PUSH1 0x20 ADD DUP4 DUP2 MSTORE PUSH1 0x20 ADD DUP3 DUP2 MSTORE PUSH1 0x20 ADD SWAP4 POP POP POP POP PUSH1 0x40 MLOAD DUP1 SWAP2 SUB SWAP1 LOG1 JUMPDEST DUP3 SWAP5 POP DUP9 PUSH1 0x5 ADD PUSH1 0x0 SWAP1 SLOAD SWAP1 PUSH2 0x100 EXP SWAP1 DIV PUSH1 0x1 PUSH1 0x1 PUSH1 0xA0 SHL SUB AND PUSH1 0x1 PUSH1 0x1 PUSH1 0xA0 SHL SUB AND PUSH4 0xD16827C6 ADDRESS PUSH1 0x0 DUP13 PUSH1 0x6 ADD DUP11 DUP2 SLOAD DUP2 LT PUSH2 0x10EC JUMPI INVALID JUMPDEST SWAP1 PUSH1 0x0 MSTORE PUSH1 0x20 PUSH1 0x0 KECCAK256 ADD SLOAD PUSH1 0x3 PUSH1 0x40 MLOAD DUP6 PUSH4 0xFFFFFFFF AND PUSH1 0xE0 SHL DUP2 MSTORE PUSH1 0x4 ADD DUP1 DUP6 PUSH1 0x1 PUSH1 0x1 PUSH1 0xA0 SHL SUB AND PUSH1 0x1 PUSH1 0x1 PUSH1 0xA0 SHL SUB AND DUP2 MSTORE PUSH1 0x20 ADD DUP5 DUP2 MSTORE PUSH1 0x20 ADD DUP4 DUP2 MSTORE PUSH1 0x20 ADD DUP3 DUP2 MSTORE PUSH1 0x20 ADD SWAP5 POP POP POP POP POP PUSH1 0x20 PUSH1 0x40 MLOAD DUP1 DUP4 SUB DUP2 DUP7 DUP1 EXTCODESIZE ISZERO DUP1 ISZERO PUSH2 0x1154 JUMPI PUSH1 0x0 DUP1 REVERT JUMPDEST POP GAS STATICCALL ISZERO DUP1 ISZERO PUSH2 0x1168 JUMPI RETURNDATASIZE PUSH1 0x0 DUP1 RETURNDATACOPY RETURNDATASIZE PUSH1 0x0 REVERT JUMPDEST POP POP POP POP PUSH1 0x40 MLOAD RETURNDATASIZE PUSH1 0x20 DUP2 LT ISZERO PUSH2 0x117E JUMPI PUSH1 0x0 DUP1 REVERT JUMPDEST POP MLOAD PUSH1 0x3 DUP11 ADD SLOAD SWAP1 SWAP4 POP PUSH1 0x1 PUSH1 0x1 PUSH1 0xA0 SHL SUB AND ISZERO PUSH2 0x12DD JUMPI PUSH1 0x3 DUP10 ADD SLOAD PUSH1 0x6 DUP11 ADD DUP1 SLOAD PUSH1 0x1 PUSH1 0x1 PUSH1 0xA0 SHL SUB SWAP1 SWAP3 AND SWAP2 PUSH4 0x8D89B16A SWAP2 SWAP1 DUP10 SWAP1 DUP2 LT PUSH2 0x11BE JUMPI INVALID JUMPDEST SWAP1 PUSH1 0x0 MSTORE PUSH1 0x20 PUSH1 0x0 KECCAK256 ADD SLOAD DUP6 PUSH15 0xC097CE7BC90715B34B9F1000000000 PUSH20 0x0 PUSH4 0xB5931F7C SWAP1 SWAP2 DUP8 PUSH1 0x40 MLOAD DUP4 PUSH4 0xFFFFFFFF AND PUSH1 0xE0 SHL DUP2 MSTORE PUSH1 0x4 ADD DUP1 DUP4 DUP2 MSTORE PUSH1 0x20 ADD DUP3 DUP2 MSTORE PUSH1 0x20 ADD SWAP3 POP POP POP PUSH1 0x20 PUSH1 0x40 MLOAD DUP1 DUP4 SUB DUP2 DUP7 DUP1 EXTCODESIZE ISZERO DUP1 ISZERO PUSH2 0x1232 JUMPI PUSH1 0x0 DUP1 REVERT JUMPDEST POP GAS DELEGATECALL ISZERO DUP1 ISZERO PUSH2 0x1246 JUMPI RETURNDATASIZE PUSH1 0x0 DUP1 RETURNDATACOPY RETURNDATASIZE PUSH1 0x0 REVERT JUMPDEST POP POP POP POP PUSH1 0x40 MLOAD RETURNDATASIZE PUSH1 0x20 DUP2 LT ISZERO PUSH2 0x125C JUMPI PUSH1 0x0 DUP1 REVERT JUMPDEST POP MLOAD PUSH1 0x0 DUP10 DUP2 MSTORE PUSH1 0x20 DUP14 SWAP1 MSTORE PUSH1 0x40 DUP1 DUP3 KECCAK256 SLOAD DUP2 MLOAD PUSH1 0x1 PUSH1 0x1 PUSH1 0xE0 SHL SUB NOT PUSH1 0xE0 DUP10 SWAP1 SHL AND DUP2 MSTORE PUSH1 0x4 DUP2 ADD SWAP7 SWAP1 SWAP7 MSTORE PUSH1 0x24 DUP7 ADD SWAP5 SWAP1 SWAP5 MSTORE PUSH1 0x44 DUP6 ADD SWAP3 SWAP1 SWAP3 MSTORE PUSH1 0x64 DUP5 ADD SWAP3 SWAP1 SWAP3 MSTORE PUSH1 0x84 DUP4 ADD DUP8 SWAP1 MSTORE MLOAD PUSH1 0xA4 DUP1 DUP5 ADD SWAP4 DUP3 SWAP1 SUB ADD DUP2 DUP4 DUP8 DUP1 EXTCODESIZE ISZERO DUP1 ISZERO PUSH2 0x12C4 JUMPI PUSH1 0x0 DUP1 REVERT JUMPDEST POP GAS CALL ISZERO DUP1 ISZERO PUSH2 0x12D8 JUMPI RETURNDATASIZE PUSH1 0x0 DUP1 RETURNDATACOPY RETURNDATASIZE PUSH1 0x0 REVERT JUMPDEST POP POP POP POP JUMPDEST PUSH2 0x1303 DUP10 DUP10 DUP10 DUP5 DUP14 PUSH1 0x6 ADD DUP12 DUP2 SLOAD DUP2 LT PUSH2 0x12F3 JUMPI INVALID JUMPDEST SWAP1 PUSH1 0x0 MSTORE PUSH1 0x20 PUSH1 0x0 KECCAK256 ADD SLOAD PUSH2 0x16F5 JUMP JUMPDEST POP POP POP POP SWAP5 SWAP4 POP POP POP POP JUMP JUMPDEST DUP4 SLOAD PUSH1 0x40 DUP1 MLOAD PUSH1 0x20 DUP1 DUP3 ADD SWAP4 SWAP1 SWAP4 MSTORE PUSH1 0x0 DUP2 DUP4 ADD DUP2 SWAP1 MSTORE DUP3 MLOAD DUP1 DUP4 SUB DUP5 ADD DUP2 MSTORE PUSH1 0x60 SWAP1 SWAP3 ADD DUP4 MSTORE DUP2 MLOAD SWAP2 DUP5 ADD SWAP2 SWAP1 SWAP2 KECCAK256 DUP1 DUP3 MSTORE SWAP3 DUP6 SWAP1 MSTORE SWAP1 DUP2 KECCAK256 SLOAD SWAP1 SWAP2 SWAP1 DUP3 SWAP1 PUSH2 0x1362 JUMPI POP PUSH8 0xDE0B6B3A7640000 PUSH2 0x14D7 JUMP JUMPDEST PUSH1 0x40 DUP1 MLOAD PUSH4 0x682E3C6D PUSH1 0xE1 SHL DUP2 MSTORE PUSH1 0x4 DUP2 ADD DUP7 SWAP1 MSTORE PUSH8 0xDE0B6B3A7640000 PUSH1 0x24 DUP3 ADD MSTORE SWAP1 MLOAD PUSH20 0x0 SWAP2 PUSH4 0xD05C78DA SWAP2 PUSH1 0x44 DUP1 DUP4 ADD SWAP3 PUSH1 0x20 SWAP3 SWAP2 SWAP1 DUP3 SWAP1 SUB ADD DUP2 DUP7 DUP1 EXTCODESIZE ISZERO DUP1 ISZERO PUSH2 0x13C2 JUMPI PUSH1 0x0 DUP1 REVERT JUMPDEST POP GAS DELEGATECALL ISZERO DUP1 ISZERO PUSH2 0x13D6 JUMPI RETURNDATASIZE PUSH1 0x0 DUP1 RETURNDATACOPY RETURNDATASIZE PUSH1 0x0 REVERT JUMPDEST POP POP POP POP PUSH1 0x40 MLOAD RETURNDATASIZE PUSH1 0x20 DUP2 LT ISZERO PUSH2 0x13EC JUMPI PUSH1 0x0 DUP1 REVERT JUMPDEST POP MLOAD PUSH1 0x0 DUP4 DUP2 MSTORE PUSH1 0x20 DUP8 DUP2 MSTORE PUSH1 0x40 SWAP2 DUP3 SWAP1 KECCAK256 SLOAD DUP3 MLOAD PUSH4 0x2D64C7DF PUSH1 0xE2 SHL DUP2 MSTORE PUSH1 0x4 DUP2 ADD SWAP5 SWAP1 SWAP5 MSTORE PUSH1 0x24 DUP5 ADD MSTORE SWAP1 MLOAD PUSH20 0x0 SWAP3 PUSH4 0xB5931F7C SWAP3 PUSH1 0x44 DUP1 DUP4 ADD SWAP4 SWAP2 SWAP3 DUP3 SWAP1 SUB ADD DUP2 DUP7 DUP1 EXTCODESIZE ISZERO DUP1 ISZERO PUSH2 0x1452 JUMPI PUSH1 0x0 DUP1 REVERT JUMPDEST POP GAS DELEGATECALL ISZERO DUP1 ISZERO PUSH2 0x1466 JUMPI RETURNDATASIZE PUSH1 0x0 DUP1 RETURNDATACOPY RETURNDATASIZE PUSH1 0x0 REVERT JUMPDEST POP POP POP POP PUSH1 0x40 MLOAD RETURNDATASIZE PUSH1 0x20 DUP2 LT ISZERO PUSH2 0x147C JUMPI PUSH1 0x0 DUP1 REVERT JUMPDEST POP MLOAD DUP5 SWAP4 POP SWAP1 POP DUP1 PUSH2 0x14D7 JUMPI POP DUP6 SLOAD PUSH1 0x40 DUP1 MLOAD ADDRESS DUP2 MSTORE PUSH1 0x20 DUP2 ADD SWAP3 SWAP1 SWAP3 MSTORE PUSH1 0x0 DUP3 DUP3 ADD MSTORE MLOAD PUSH8 0xDE0B6B3A7640000 SWAP2 PUSH32 0x655A93B92471C33E1BCC9B2D4C1FD42A1A37AD536AA79A7B50E6CA3F32DEBA67 SWAP2 SWAP1 DUP2 SWAP1 SUB PUSH1 0x60 ADD SWAP1 LOG1 JUMPDEST PUSH1 0x3 DUP8 ADD SLOAD PUSH1 0x1 PUSH1 0x1 PUSH1 0xA0 SHL SUB AND ISZERO PUSH2 0x1686 JUMPI PUSH1 0x3 DUP8 ADD SLOAD PUSH1 0x8 DUP9 ADD SLOAD PUSH1 0x40 DUP1 MLOAD PUSH4 0x39FFDCB PUSH1 0xE6 SHL DUP2 MSTORE SWAP1 MLOAD PUSH1 0x1 PUSH1 0x1 PUSH1 0xA0 SHL SUB SWAP4 DUP5 AND SWAP4 PUSH4 0x8D89B16A SWAP4 PUSH1 0x0 SWAP4 SWAP2 AND SWAP2 PUSH4 0xE7FF72C0 SWAP2 PUSH1 0x4 DUP1 DUP3 ADD SWAP3 PUSH1 0x20 SWAP3 SWAP1 SWAP2 SWAP1 DUP3 SWAP1 SUB ADD DUP2 DUP7 DUP1 EXTCODESIZE ISZERO DUP1 ISZERO PUSH2 0x1542 JUMPI PUSH1 0x0 DUP1 REVERT JUMPDEST POP GAS STATICCALL ISZERO DUP1 ISZERO PUSH2 0x1556 JUMPI RETURNDATASIZE PUSH1 0x0 DUP1 RETURNDATACOPY RETURNDATASIZE PUSH1 0x0 REVERT JUMPDEST POP POP POP POP PUSH1 0x40 MLOAD RETURNDATASIZE PUSH1 0x20 DUP2 LT ISZERO PUSH2 0x156C JUMPI PUSH1 0x0 DUP1 REVERT JUMPDEST POP MLOAD PUSH1 0x40 DUP1 MLOAD PUSH4 0x2D64C7DF PUSH1 0xE2 SHL DUP2 MSTORE PUSH15 0xC097CE7BC90715B34B9F1000000000 PUSH1 0x4 DUP3 ADD MSTORE PUSH1 0x24 DUP2 ADD DUP8 SWAP1 MSTORE SWAP1 MLOAD PUSH20 0x0 SWAP2 PUSH4 0xB5931F7C SWAP2 PUSH1 0x44 DUP1 DUP4 ADD SWAP3 PUSH1 0x20 SWAP3 SWAP2 SWAP1 DUP3 SWAP1 SUB ADD DUP2 DUP7 DUP1 EXTCODESIZE ISZERO DUP1 ISZERO PUSH2 0x15D5 JUMPI PUSH1 0x0 DUP1 REVERT JUMPDEST POP GAS DELEGATECALL ISZERO DUP1 ISZERO PUSH2 0x15E9 JUMPI RETURNDATASIZE PUSH1 0x0 DUP1 RETURNDATACOPY RETURNDATASIZE PUSH1 0x0 REVERT JUMPDEST POP POP POP POP PUSH1 0x40 MLOAD RETURNDATASIZE PUSH1 0x20 DUP2 LT ISZERO PUSH2 0x15FF JUMPI PUSH1 0x0 DUP1 REVERT JUMPDEST POP MLOAD PUSH1 0x0 DUP8 DUP2 MSTORE PUSH1 0x20 DUP12 SWAP1 MSTORE PUSH1 0x40 DUP1 DUP3 KECCAK256 SLOAD PUSH1 0xE DUP16 ADD SLOAD DUP3 MLOAD PUSH1 0x1 PUSH1 0x1 PUSH1 0xE0 SHL SUB NOT PUSH1 0xE0 DUP11 SWAP1 SHL AND DUP2 MSTORE PUSH1 0x4 DUP2 ADD SWAP8 SWAP1 SWAP8 MSTORE PUSH1 0x24 DUP8 ADD SWAP6 SWAP1 SWAP6 MSTORE PUSH1 0x44 DUP7 ADD SWAP4 SWAP1 SWAP4 MSTORE PUSH1 0x64 DUP6 ADD SWAP3 SWAP1 SWAP3 MSTORE PUSH1 0x84 DUP5 ADD SWAP3 SWAP1 SWAP3 MSTORE MLOAD PUSH1 0xA4 DUP1 DUP5 ADD SWAP4 DUP3 SWAP1 SUB ADD DUP2 DUP4 DUP8 DUP1 EXTCODESIZE ISZERO DUP1 ISZERO PUSH2 0x166D JUMPI PUSH1 0x0 DUP1 REVERT JUMPDEST POP GAS CALL ISZERO DUP1 ISZERO PUSH2 0x1681 JUMPI RETURNDATASIZE PUSH1 0x0 DUP1 RETURNDATACOPY RETURNDATASIZE PUSH1 0x0 REVERT JUMPDEST POP POP POP POP JUMPDEST PUSH2 0x1694 DUP8 DUP8 DUP8 DUP5 PUSH1 0x0 PUSH2 0x16F5 JUMP JUMPDEST POP POP SWAP5 SWAP4 POP POP POP POP JUMP JUMPDEST PUSH1 0x40 DUP1 MLOAD PUSH1 0x1 PUSH1 0x1 PUSH1 0xA0 SHL SUB DUP5 AND PUSH1 0x24 DUP3 ADD MSTORE PUSH1 0x44 DUP1 DUP3 ADD DUP5 SWAP1 MSTORE DUP3 MLOAD DUP1 DUP4 SUB SWAP1 SWAP2 ADD DUP2 MSTORE PUSH1 0x64 SWAP1 SWAP2 ADD SWAP1 SWAP2 MSTORE PUSH1 0x20 DUP2 ADD DUP1 MLOAD PUSH1 0x1 PUSH1 0x1 PUSH1 0xE0 SHL SUB AND PUSH4 0xA9059CBB PUSH1 0xE0 SHL OR SWAP1 MSTORE PUSH2 0x16F0 SWAP1 DUP5 SWAP1 PUSH2 0x23A4 JUMP JUMPDEST POP POP POP JUMP JUMPDEST DUP5 SLOAD PUSH1 0x40 DUP1 MLOAD PUSH1 0x20 DUP1 DUP3 ADD DUP5 SWAP1 MSTORE DUP2 DUP4 ADD DUP6 SWAP1 MSTORE DUP3 MLOAD DUP1 DUP4 SUB DUP5 ADD DUP2 MSTORE PUSH1 0x60 DUP4 ADD DUP5 MSTORE DUP1 MLOAD SWAP1 DUP3 ADD KECCAK256 PUSH1 0x1 SWAP1 SWAP5 ADD PUSH1 0x80 DUP4 ADD MSTORE PUSH1 0xA0 DUP1 DUP4 ADD DUP7 SWAP1 MSTORE DUP4 MLOAD DUP1 DUP5 SUB SWAP1 SWAP2 ADD DUP2 MSTORE PUSH1 0xC0 SWAP1 SWAP3 ADD SWAP1 SWAP3 MSTORE DUP1 MLOAD SWAP2 ADD KECCAK256 PUSH1 0x0 SWAP2 DUP3 SWAP2 DUP3 SWAP2 DUP3 SWAP2 DUP7 PUSH2 0x17C1 JUMPI PUSH1 0x8 DUP12 ADD SLOAD PUSH1 0x40 DUP1 MLOAD PUSH4 0xDBFE0D7 PUSH1 0xE0 SHL DUP2 MSTORE PUSH1 0x4 DUP2 ADD DUP12 SWAP1 MSTORE SWAP1 MLOAD PUSH1 0x1 PUSH1 0x1 PUSH1 0xA0 SHL SUB SWAP1 SWAP3 AND SWAP2 PUSH4 0xDBFE0D7 SWAP2 PUSH1 0x24 DUP1 DUP3 ADD SWAP3 PUSH1 0x0 SWAP3 SWAP1 SWAP2 SWAP1 DUP3 SWAP1 SUB ADD DUP2 DUP4 DUP8 DUP1 EXTCODESIZE ISZERO DUP1 ISZERO PUSH2 0x17A4 JUMPI PUSH1 0x0 DUP1 REVERT JUMPDEST POP GAS CALL ISZERO DUP1 ISZERO PUSH2 0x17B8 JUMPI RETURNDATASIZE PUSH1 0x0 DUP1 RETURNDATACOPY RETURNDATASIZE PUSH1 0x0 REVERT JUMPDEST POP POP POP POP PUSH2 0x1843 JUMP JUMPDEST PUSH1 0x5 DUP12 ADD SLOAD PUSH1 0x40 DUP1 MLOAD PUSH4 0xD53F0E1 PUSH1 0xE0 SHL DUP2 MSTORE ADDRESS PUSH1 0x4 DUP3 ADD MSTORE PUSH1 0x0 PUSH1 0x24 DUP3 ADD DUP2 SWAP1 MSTORE PUSH1 0x44 DUP3 ADD DUP12 SWAP1 MSTORE PUSH1 0x3 PUSH1 0x64 DUP4 ADD MSTORE PUSH1 0x84 DUP3 ADD DUP13 SWAP1 MSTORE SWAP2 MLOAD PUSH1 0x1 PUSH1 0x1 PUSH1 0xA0 SHL SUB SWAP1 SWAP4 AND SWAP3 PUSH4 0xD53F0E1 SWAP3 PUSH1 0xA4 DUP1 DUP5 ADD SWAP4 SWAP2 SWAP3 SWAP2 DUP3 SWAP1 SUB ADD DUP2 DUP4 DUP8 DUP1 EXTCODESIZE ISZERO DUP1 ISZERO PUSH2 0x182A JUMPI PUSH1 0x0 DUP1 REVERT JUMPDEST POP GAS CALL ISZERO DUP1 ISZERO PUSH2 0x183E JUMPI RETURNDATASIZE PUSH1 0x0 DUP1 RETURNDATACOPY RETURNDATASIZE PUSH1 0x0 REVERT JUMPDEST POP POP POP POP JUMPDEST PUSH1 0x40 DUP1 MLOAD PUSH4 0x2D64C7DF PUSH1 0xE2 SHL DUP2 MSTORE PUSH15 0xC097CE7BC90715B34B9F1000000000 PUSH1 0x4 DUP3 ADD MSTORE PUSH1 0x24 DUP2 ADD DUP11 SWAP1 MSTORE SWAP1 MLOAD PUSH20 0x0 SWAP2 PUSH4 0xB5931F7C SWAP2 PUSH1 0x44 DUP1 DUP4 ADD SWAP3 PUSH1 0x20 SWAP3 SWAP2 SWAP1 DUP3 SWAP1 SUB ADD DUP2 DUP7 DUP1 EXTCODESIZE ISZERO DUP1 ISZERO PUSH2 0x18AA JUMPI PUSH1 0x0 DUP1 REVERT JUMPDEST POP GAS DELEGATECALL ISZERO DUP1 ISZERO PUSH2 0x18BE JUMPI RETURNDATASIZE PUSH1 0x0 DUP1 RETURNDATACOPY RETURNDATASIZE PUSH1 0x0 REVERT JUMPDEST POP POP POP POP PUSH1 0x40 MLOAD RETURNDATASIZE PUSH1 0x20 DUP2 LT ISZERO PUSH2 0x18D4 JUMPI PUSH1 0x0 DUP1 REVERT JUMPDEST POP MLOAD PUSH1 0x5 DUP13 ADD SLOAD DUP13 SLOAD PUSH1 0x40 DUP1 MLOAD PUSH4 0xD53F0E1 PUSH1 0xE0 SHL DUP2 MSTORE ADDRESS PUSH1 0x4 DUP3 ADD MSTORE PUSH1 0x1 SWAP3 DUP4 ADD PUSH1 0x24 DUP3 ADD MSTORE PUSH1 0x44 DUP2 ADD DUP13 SWAP1 MSTORE PUSH1 0x64 DUP2 ADD SWAP3 SWAP1 SWAP3 MSTORE PUSH1 0x84 DUP3 ADD DUP5 SWAP1 MSTORE MLOAD SWAP3 SWAP9 POP PUSH1 0x1 PUSH1 0x1 PUSH1 0xA0 SHL SUB SWAP1 SWAP2 AND SWAP2 PUSH4 0xD53F0E1 SWAP2 PUSH1 0xA4 DUP1 DUP3 ADD SWAP3 PUSH1 0x0 SWAP3 SWAP1 SWAP2 SWAP1 DUP3 SWAP1 SUB ADD DUP2 DUP4 DUP8 DUP1 EXTCODESIZE ISZERO DUP1 ISZERO PUSH2 0x1948 JUMPI PUSH1 0x0 DUP1 REVERT JUMPDEST POP GAS CALL ISZERO DUP1 ISZERO PUSH2 0x195C JUMPI RETURNDATASIZE PUSH1 0x0 DUP1 RETURNDATACOPY RETURNDATASIZE PUSH1 0x0 REVERT JUMPDEST POP POP POP PUSH1 0x5 DUP13 ADD SLOAD DUP13 SLOAD PUSH1 0x40 DUP1 MLOAD PUSH4 0x5B6AD57B PUSH1 0xE1 SHL DUP2 MSTORE ADDRESS PUSH1 0x4 DUP3 ADD MSTORE PUSH1 0x1 SWAP3 DUP4 ADD PUSH1 0x24 DUP3 ADD MSTORE PUSH1 0x44 DUP2 ADD DUP13 SWAP1 MSTORE PUSH1 0x64 DUP2 ADD SWAP3 SWAP1 SWAP3 MSTORE MLOAD PUSH1 0x1 PUSH1 0x1 PUSH1 0xA0 SHL SUB SWAP1 SWAP3 AND SWAP3 POP PUSH4 0xB6D5AAF6 SWAP2 PUSH1 0x84 DUP1 DUP4 ADD SWAP3 PUSH1 0x20 SWAP3 SWAP2 SWAP1 DUP3 SWAP1 SUB ADD DUP2 DUP7 DUP1 EXTCODESIZE ISZERO DUP1 ISZERO PUSH2 0x19C6 JUMPI PUSH1 0x0 DUP1 REVERT JUMPDEST POP GAS STATICCALL ISZERO DUP1 ISZERO PUSH2 0x19DA JUMPI RETURNDATASIZE PUSH1 0x0 DUP1 RETURNDATACOPY RETURNDATASIZE PUSH1 0x0 REVERT JUMPDEST POP POP POP POP PUSH1 0x40 MLOAD RETURNDATASIZE PUSH1 0x20 DUP2 LT ISZERO PUSH2 0x19F0 JUMPI PUSH1 0x0 DUP1 REVERT JUMPDEST POP MLOAD PUSH1 0x40 DUP1 MLOAD PUSH4 0x682E3C6D PUSH1 0xE1 SHL DUP2 MSTORE PUSH1 0x4 DUP2 ADD DUP4 SWAP1 MSTORE PUSH8 0xDE0B6B3A7640000 PUSH1 0x24 DUP3 ADD MSTORE SWAP1 MLOAD SWAP2 SWAP8 POP PUSH20 0x0 SWAP2 PUSH4 0xD05C78DA SWAP2 PUSH1 0x44 DUP1 DUP3 ADD SWAP3 PUSH1 0x20 SWAP3 SWAP1 SWAP2 SWAP1 DUP3 SWAP1 SUB ADD DUP2 DUP7 DUP1 EXTCODESIZE ISZERO DUP1 ISZERO PUSH2 0x1A56 JUMPI PUSH1 0x0 DUP1 REVERT JUMPDEST POP GAS DELEGATECALL ISZERO DUP1 ISZERO PUSH2 0x1A6A JUMPI RETURNDATASIZE PUSH1 0x0 DUP1 RETURNDATACOPY RETURNDATASIZE PUSH1 0x0 REVERT JUMPDEST POP POP POP POP PUSH1 0x40 MLOAD RETURNDATASIZE PUSH1 0x20 DUP2 LT ISZERO PUSH2 0x1A80 JUMPI PUSH1 0x0 DUP1 REVERT JUMPDEST POP MLOAD PUSH1 0x40 DUP1 MLOAD PUSH4 0x2D64C7DF PUSH1 0xE2 SHL DUP2 MSTORE PUSH1 0x4 DUP2 ADD SWAP3 SWAP1 SWAP3 MSTORE PUSH1 0x24 DUP3 ADD DUP11 SWAP1 MSTORE MLOAD PUSH20 0x0 SWAP2 PUSH4 0xB5931F7C SWAP2 PUSH1 0x44 DUP1 DUP4 ADD SWAP3 PUSH1 0x20 SWAP3 SWAP2 SWAP1 DUP3 SWAP1 SUB ADD DUP2 DUP7 DUP1 EXTCODESIZE ISZERO DUP1 ISZERO PUSH2 0x1ADB JUMPI PUSH1 0x0 DUP1 REVERT JUMPDEST POP GAS DELEGATECALL ISZERO DUP1 ISZERO PUSH2 0x1AEF JUMPI RETURNDATASIZE PUSH1 0x0 DUP1 RETURNDATACOPY RETURNDATASIZE PUSH1 0x0 REVERT JUMPDEST POP POP POP POP PUSH1 0x40 MLOAD RETURNDATASIZE PUSH1 0x20 DUP2 LT ISZERO PUSH2 0x1B05 JUMPI PUSH1 0x0 DUP1 REVERT JUMPDEST POP MLOAD PUSH1 0x5 DUP13 ADD SLOAD DUP13 SLOAD PUSH1 0x40 DUP1 MLOAD PUSH4 0xD53F0E1 PUSH1 0xE0 SHL DUP2 MSTORE ADDRESS PUSH1 0x4 DUP3 ADD MSTORE PUSH1 0x1 SWAP1 SWAP3 ADD PUSH1 0x24 DUP4 ADD MSTORE PUSH1 0x44 DUP3 ADD DUP12 SWAP1 MSTORE PUSH1 0x2 PUSH1 0x64 DUP4 ADD MSTORE PUSH1 0x84 DUP3 ADD DUP13 SWAP1 MSTORE MLOAD SWAP3 SWAP7 POP PUSH1 0x1 PUSH1 0x1 PUSH1 0xA0 SHL SUB SWAP1 SWAP2 AND SWAP2 PUSH4 0xD53F0E1 SWAP2 PUSH1 0xA4 DUP1 DUP3 ADD SWAP3 PUSH1 0x0 SWAP3 SWAP1 SWAP2 SWAP1 DUP3 SWAP1 SUB ADD DUP2 DUP4 DUP8 DUP1 EXTCODESIZE ISZERO DUP1 ISZERO PUSH2 0x1B78 JUMPI PUSH1 0x0 DUP1 REVERT JUMPDEST POP GAS CALL ISZERO DUP1 ISZERO PUSH2 0x1B8C JUMPI RETURNDATASIZE PUSH1 0x0 DUP1 RETURNDATACOPY RETURNDATASIZE PUSH1 0x0 REVERT JUMPDEST POP POP POP PUSH1 0x5 DUP13 ADD SLOAD DUP13 SLOAD PUSH1 0x40 DUP1 MLOAD PUSH4 0x5B6AD57B PUSH1 0xE1 SHL DUP2 MSTORE ADDRESS PUSH1 0x4 DUP3 ADD MSTORE PUSH1 0x1 SWAP3 SWAP1 SWAP3 ADD PUSH1 0x24 DUP4 ADD MSTORE PUSH1 0x44 DUP3 ADD DUP12 SWAP1 MSTORE PUSH1 0x2 PUSH1 0x64 DUP4 ADD MSTORE MLOAD PUSH1 0x1 PUSH1 0x1 PUSH1 0xA0 SHL SUB SWAP1 SWAP3 AND SWAP3 POP PUSH4 0xB6D5AAF6 SWAP2 PUSH1 0x84 DUP1 DUP4 ADD SWAP3 PUSH1 0x20 SWAP3 SWAP2 SWAP1 DUP3 SWAP1 SUB ADD DUP2 DUP7 DUP1 EXTCODESIZE ISZERO DUP1 ISZERO PUSH2 0x1BF6 JUMPI PUSH1 0x0 DUP1 REVERT JUMPDEST POP GAS STATICCALL ISZERO DUP1 ISZERO PUSH2 0x1C0A JUMPI RETURNDATASIZE PUSH1 0x0 DUP1 RETURNDATACOPY RETURNDATASIZE PUSH1 0x0 REVERT JUMPDEST POP POP POP POP PUSH1 0x40 MLOAD RETURNDATASIZE PUSH1 0x20 DUP2 LT ISZERO PUSH2 0x1C20 JUMPI PUSH1 0x0 DUP1 REVERT JUMPDEST POP MLOAD PUSH1 0x40 DUP1 MLOAD PUSH4 0x682E3C6D PUSH1 0xE1 SHL DUP2 MSTORE PUSH1 0x4 DUP2 ADD SWAP3 SWAP1 SWAP3 MSTORE PUSH1 0x24 DUP3 ADD DUP11 SWAP1 MSTORE MLOAD PUSH20 0x0 SWAP2 PUSH4 0xD05C78DA SWAP2 PUSH1 0x44 DUP1 DUP4 ADD SWAP3 PUSH1 0x20 SWAP3 SWAP2 SWAP1 DUP3 SWAP1 SUB ADD DUP2 DUP7 DUP1 EXTCODESIZE ISZERO DUP1 ISZERO PUSH2 0x1C7B JUMPI PUSH1 0x0 DUP1 REVERT JUMPDEST POP GAS DELEGATECALL ISZERO DUP1 ISZERO PUSH2 0x1C8F JUMPI RETURNDATASIZE PUSH1 0x0 DUP1 RETURNDATACOPY RETURNDATASIZE PUSH1 0x0 REVERT JUMPDEST POP POP POP POP PUSH1 0x40 MLOAD RETURNDATASIZE PUSH1 0x20 DUP2 LT ISZERO PUSH2 0x1CA5 JUMPI PUSH1 0x0 DUP1 REVERT JUMPDEST POP MLOAD PUSH1 0x40 DUP1 MLOAD PUSH4 0x2D64C7DF PUSH1 0xE2 SHL DUP2 MSTORE PUSH1 0x4 DUP2 ADD SWAP3 SWAP1 SWAP3 MSTORE PUSH8 0xDE0B6B3A7640000 PUSH1 0x24 DUP4 ADD MSTORE MLOAD PUSH20 0x0 SWAP2 PUSH4 0xB5931F7C SWAP2 PUSH1 0x44 DUP1 DUP4 ADD SWAP3 PUSH1 0x20 SWAP3 SWAP2 SWAP1 DUP3 SWAP1 SUB ADD DUP2 DUP7 DUP1 EXTCODESIZE ISZERO DUP1 ISZERO PUSH2 0x1D07 JUMPI PUSH1 0x0 DUP1 REVERT JUMPDEST POP GAS DELEGATECALL ISZERO DUP1 ISZERO PUSH2 0x1D1B JUMPI RETURNDATASIZE PUSH1 0x0 DUP1 RETURNDATACOPY RETURNDATASIZE PUSH1 0x0 REVERT JUMPDEST POP POP POP POP PUSH1 0x40 MLOAD RETURNDATASIZE PUSH1 0x20 DUP2 LT ISZERO PUSH2 0x1D31 JUMPI PUSH1 0x0 DUP1 REVERT JUMPDEST POP MLOAD PUSH1 0x5 DUP13 ADD SLOAD DUP13 SLOAD PUSH1 0x40 DUP1 MLOAD PUSH4 0x5B6AD57B PUSH1 0xE1 SHL DUP2 MSTORE ADDRESS PUSH1 0x4 DUP3 ADD MSTORE PUSH1 0x1 SWAP1 SWAP3 ADD PUSH1 0x24 DUP4 ADD MSTORE PUSH1 0x44 DUP3 ADD DUP12 SWAP1 MSTORE PUSH1 0x2 PUSH1 0x64 DUP4 ADD MSTORE MLOAD SWAP3 SWAP8 POP PUSH1 0x1 PUSH1 0x1 PUSH1 0xA0 SHL SUB SWAP1 SWAP2 AND SWAP2 PUSH4 0xB6D5AAF6 SWAP2 PUSH1 0x84 DUP1 DUP3 ADD SWAP3 PUSH1 0x20 SWAP3 SWAP1 SWAP2 SWAP1 DUP3 SWAP1 SUB ADD DUP2 DUP7 DUP1 EXTCODESIZE ISZERO DUP1 ISZERO PUSH2 0x1D9C JUMPI PUSH1 0x0 DUP1 REVERT JUMPDEST POP GAS STATICCALL ISZERO DUP1 ISZERO PUSH2 0x1DB0 JUMPI RETURNDATASIZE PUSH1 0x0 DUP1 RETURNDATACOPY RETURNDATASIZE PUSH1 0x0 REVERT JUMPDEST POP POP POP POP PUSH1 0x40 MLOAD RETURNDATASIZE PUSH1 0x20 DUP2 LT ISZERO PUSH2 0x1DC6 JUMPI PUSH1 0x0 DUP1 REVERT JUMPDEST POP MLOAD PUSH1 0x0 DUP4 DUP2 MSTORE PUSH1 0x20 DUP12 DUP2 MSTORE PUSH1 0x40 SWAP2 DUP3 SWAP1 KECCAK256 SLOAD DUP3 MLOAD PUSH4 0x682E3C6D PUSH1 0xE1 SHL DUP2 MSTORE PUSH1 0x4 DUP2 ADD SWAP2 SWAP1 SWAP2 MSTORE PUSH1 0x24 DUP2 ADD DUP13 SWAP1 MSTORE SWAP2 MLOAD SWAP3 SWAP6 POP PUSH20 0x0 SWAP3 PUSH4 0xD05C78DA SWAP3 PUSH1 0x44 DUP1 DUP3 ADD SWAP4 SWAP3 SWAP2 DUP3 SWAP1 SUB ADD DUP2 DUP7 DUP1 EXTCODESIZE ISZERO DUP1 ISZERO PUSH2 0x1E31 JUMPI PUSH1 0x0 DUP1 REVERT JUMPDEST POP GAS DELEGATECALL ISZERO DUP1 ISZERO PUSH2 0x1E45 JUMPI RETURNDATASIZE PUSH1 0x0 DUP1 RETURNDATACOPY RETURNDATASIZE PUSH1 0x0 REVERT JUMPDEST POP POP POP POP PUSH1 0x40 MLOAD RETURNDATASIZE PUSH1 0x20 DUP2 LT ISZERO PUSH2 0x1E5B JUMPI PUSH1 0x0 DUP1 REVERT JUMPDEST POP MLOAD PUSH1 0x40 DUP1 MLOAD PUSH4 0x2D64C7DF PUSH1 0xE2 SHL DUP2 MSTORE PUSH1 0x4 DUP2 ADD SWAP3 SWAP1 SWAP3 MSTORE PUSH8 0xDE0B6B3A7640000 PUSH1 0x24 DUP4 ADD MSTORE MLOAD PUSH20 0x0 SWAP2 PUSH4 0xB5931F7C SWAP2 PUSH1 0x44 DUP1 DUP4 ADD SWAP3 PUSH1 0x20 SWAP3 SWAP2 SWAP1 DUP3 SWAP1 SUB ADD DUP2 DUP7 DUP1 EXTCODESIZE ISZERO DUP1 ISZERO PUSH2 0x1EBD JUMPI PUSH1 0x0 DUP1 REVERT JUMPDEST POP GAS DELEGATECALL ISZERO DUP1 ISZERO PUSH2 0x1ED1 JUMPI RETURNDATASIZE PUSH1 0x0 DUP1 RETURNDATACOPY RETURNDATASIZE PUSH1 0x0 REVERT JUMPDEST POP POP POP POP PUSH1 0x40 MLOAD RETURNDATASIZE PUSH1 0x20 DUP2 LT ISZERO PUSH2 0x1EE7 JUMPI PUSH1 0x0 DUP1 REVERT JUMPDEST POP MLOAD PUSH1 0x40 DUP1 MLOAD PUSH4 0xE6CB9013 PUSH1 0xE0 SHL DUP2 MSTORE PUSH1 0x4 DUP2 ADD SWAP3 SWAP1 SWAP3 MSTORE PUSH1 0x24 DUP3 ADD DUP9 SWAP1 MSTORE MLOAD PUSH20 0x0 SWAP2 PUSH4 0xE6CB9013 SWAP2 PUSH1 0x44 DUP1 DUP4 ADD SWAP3 PUSH1 0x20 SWAP3 SWAP2 SWAP1 DUP3 SWAP1 SUB ADD DUP2 DUP7 DUP1 EXTCODESIZE ISZERO DUP1 ISZERO PUSH2 0x1F42 JUMPI PUSH1 0x0 DUP1 REVERT JUMPDEST POP GAS DELEGATECALL ISZERO DUP1 ISZERO PUSH2 0x1F56 JUMPI RETURNDATASIZE PUSH1 0x0 DUP1 RETURNDATACOPY RETURNDATASIZE PUSH1 0x0 REVERT JUMPDEST POP POP POP POP PUSH1 0x40 MLOAD RETURNDATASIZE PUSH1 0x20 DUP2 LT ISZERO PUSH2 0x1F6C JUMPI PUSH1 0x0 DUP1 REVERT JUMPDEST POP MLOAD PUSH1 0x40 DUP1 MLOAD PUSH4 0x14527A3D PUSH1 0xE3 SHL DUP2 MSTORE PUSH1 0x4 DUP2 ADD SWAP3 SWAP1 SWAP3 MSTORE PUSH1 0x24 DUP3 ADD DUP8 SWAP1 MSTORE MLOAD PUSH20 0x0 SWAP2 PUSH4 0xA293D1E8 SWAP2 PUSH1 0x44 DUP1 DUP4 ADD SWAP3 PUSH1 0x20 SWAP3 SWAP2 SWAP1 DUP3 SWAP1 SUB ADD DUP2 DUP7 DUP1 EXTCODESIZE ISZERO DUP1 ISZERO PUSH2 0x1FC7 JUMPI PUSH1 0x0 DUP1 REVERT JUMPDEST POP GAS DELEGATECALL ISZERO DUP1 ISZERO PUSH2 0x1FDB JUMPI RETURNDATASIZE PUSH1 0x0 DUP1 RETURNDATACOPY RETURNDATASIZE PUSH1 0x0 REVERT JUMPDEST POP POP POP POP PUSH1 0x40 MLOAD RETURNDATASIZE PUSH1 0x20 DUP2 LT ISZERO PUSH2 0x1FF1 JUMPI PUSH1 0x0 DUP1 REVERT JUMPDEST POP MLOAD PUSH1 0x0 DUP3 DUP2 MSTORE PUSH1 0x20 DUP13 SWAP1 MSTORE PUSH1 0x40 DUP2 KECCAK256 SWAP2 SWAP1 SWAP2 SSTORE PUSH1 0x6 DUP13 ADD DUP1 SLOAD SWAP1 SWAP2 SWAP1 PUSH2 0x2014 JUMPI INVALID JUMPDEST SWAP1 PUSH1 0x0 MSTORE PUSH1 0x20 PUSH1 0x0 KECCAK256 ADD SLOAD DUP8 EQ ISZERO PUSH2 0x2031 JUMPI PUSH1 0xC DUP12 ADD SLOAD PUSH1 0xD DUP13 ADD SSTORE JUMPDEST DUP11 PUSH1 0xD ADD SLOAD PUSH20 0x0 PUSH4 0xE6CB9013 SWAP1 SWAP2 DUP9 PUSH1 0x40 MLOAD DUP4 PUSH4 0xFFFFFFFF AND PUSH1 0xE0 SHL DUP2 MSTORE PUSH1 0x4 ADD DUP1 DUP4 DUP2 MSTORE PUSH1 0x20 ADD DUP3 DUP2 MSTORE PUSH1 0x20 ADD SWAP3 POP POP POP PUSH1 0x20 PUSH1 0x40 MLOAD DUP1 DUP4 SUB DUP2 DUP7 DUP1 EXTCODESIZE ISZERO DUP1 ISZERO PUSH2 0x208E JUMPI PUSH1 0x0 DUP1 REVERT JUMPDEST POP GAS DELEGATECALL ISZERO DUP1 ISZERO PUSH2 0x20A2 JUMPI RETURNDATASIZE PUSH1 0x0 DUP1 RETURNDATACOPY RETURNDATASIZE PUSH1 0x0 REVERT JUMPDEST POP POP POP POP PUSH1 0x40 MLOAD RETURNDATASIZE PUSH1 0x20 DUP2 LT ISZERO PUSH2 0x20B8 JUMPI PUSH1 0x0 DUP1 REVERT JUMPDEST POP MLOAD PUSH1 0x40 DUP1 MLOAD PUSH4 0x14527A3D PUSH1 0xE3 SHL DUP2 MSTORE PUSH1 0x4 DUP2 ADD SWAP3 SWAP1 SWAP3 MSTORE PUSH1 0x24 DUP3 ADD DUP8 SWAP1 MSTORE MLOAD PUSH20 0x0 SWAP2 PUSH4 0xA293D1E8 SWAP2 PUSH1 0x44 DUP1 DUP4 ADD SWAP3 PUSH1 0x20 SWAP3 SWAP2 SWAP1 DUP3 SWAP1 SUB ADD DUP2 DUP7 DUP1 EXTCODESIZE ISZERO DUP1 ISZERO PUSH2 0x2113 JUMPI PUSH1 0x0 DUP1 REVERT JUMPDEST POP GAS DELEGATECALL ISZERO DUP1 ISZERO PUSH2 0x2127 JUMPI RETURNDATASIZE PUSH1 0x0 DUP1 RETURNDATACOPY RETURNDATASIZE PUSH1 0x0 REVERT JUMPDEST POP POP POP POP PUSH1 0x40 MLOAD RETURNDATASIZE PUSH1 0x20 DUP2 LT ISZERO PUSH2 0x213D JUMPI PUSH1 0x0 DUP1 REVERT JUMPDEST POP MLOAD PUSH1 0xD DUP13 ADD SSTORE PUSH1 0x0 DUP3 DUP2 MSTORE PUSH1 0x20 DUP11 DUP2 MSTORE PUSH1 0x40 SWAP2 DUP3 SWAP1 KECCAK256 SLOAD DUP3 MLOAD PUSH4 0xE6CB9013 PUSH1 0xE0 SHL DUP2 MSTORE PUSH1 0x4 DUP2 ADD SWAP2 SWAP1 SWAP2 MSTORE PUSH1 0x24 DUP2 ADD DUP8 SWAP1 MSTORE SWAP2 MLOAD PUSH20 0x0 SWAP3 PUSH4 0xE6CB9013 SWAP3 PUSH1 0x44 DUP1 DUP4 ADD SWAP4 SWAP2 SWAP3 DUP3 SWAP1 SUB ADD DUP2 DUP7 DUP1 EXTCODESIZE ISZERO DUP1 ISZERO PUSH2 0x21AA JUMPI PUSH1 0x0 DUP1 REVERT JUMPDEST POP GAS DELEGATECALL ISZERO DUP1 ISZERO PUSH2 0x21BE JUMPI RETURNDATASIZE PUSH1 0x0 DUP1 RETURNDATACOPY RETURNDATASIZE PUSH1 0x0 REVERT JUMPDEST POP POP POP POP PUSH1 0x40 MLOAD RETURNDATASIZE PUSH1 0x20 DUP2 LT ISZERO PUSH2 0x21D4 JUMPI PUSH1 0x0 DUP1 REVERT JUMPDEST POP MLOAD PUSH1 0x40 DUP1 MLOAD PUSH4 0x14527A3D PUSH1 0xE3 SHL DUP2 MSTORE PUSH1 0x4 DUP2 ADD SWAP3 SWAP1 SWAP3 MSTORE PUSH1 0x24 DUP3 ADD DUP6 SWAP1 MSTORE MLOAD PUSH20 0x0 SWAP2 PUSH4 0xA293D1E8 SWAP2 PUSH1 0x44 DUP1 DUP4 ADD SWAP3 PUSH1 0x20 SWAP3 SWAP2 SWAP1 DUP3 SWAP1 SUB ADD DUP2 DUP7 DUP1 EXTCODESIZE ISZERO DUP1 ISZERO PUSH2 0x222F JUMPI PUSH1 0x0 DUP1 REVERT JUMPDEST POP GAS DELEGATECALL ISZERO DUP1 ISZERO PUSH2 0x2243 JUMPI RETURNDATASIZE PUSH1 0x0 DUP1 RETURNDATACOPY RETURNDATASIZE PUSH1 0x0 REVERT JUMPDEST POP POP POP POP PUSH1 0x40 MLOAD RETURNDATASIZE PUSH1 0x20 DUP2 LT ISZERO PUSH2 0x2259 JUMPI PUSH1 0x0 DUP1 REVERT JUMPDEST POP MLOAD PUSH1 0x0 DUP3 DUP2 MSTORE PUSH1 0x20 DUP12 DUP2 MSTORE PUSH1 0x40 DUP1 DUP4 KECCAK256 SWAP4 SWAP1 SWAP4 SSTORE DUP13 DUP2 MSTORE SWAP1 DUP3 SWAP1 KECCAK256 SLOAD DUP3 MLOAD PUSH4 0x682E3C6D PUSH1 0xE1 SHL DUP2 MSTORE PUSH1 0x4 DUP2 ADD SWAP2 SWAP1 SWAP2 MSTORE PUSH8 0xDE0B6B3A7640000 PUSH1 0x24 DUP3 ADD MSTORE SWAP2 MLOAD PUSH2 0x2397 SWAP3 PUSH20 0x0 SWAP3 PUSH4 0xD05C78DA SWAP3 PUSH1 0x44 DUP1 DUP5 ADD SWAP4 DUP3 SWAP1 SUB ADD DUP2 DUP7 DUP1 EXTCODESIZE ISZERO DUP1 ISZERO PUSH2 0x22D4 JUMPI PUSH1 0x0 DUP1 REVERT JUMPDEST POP GAS DELEGATECALL ISZERO DUP1 ISZERO PUSH2 0x22E8 JUMPI RETURNDATASIZE PUSH1 0x0 DUP1 RETURNDATACOPY RETURNDATASIZE PUSH1 0x0 REVERT JUMPDEST POP POP POP POP PUSH1 0x40 MLOAD RETURNDATASIZE PUSH1 0x20 DUP2 LT ISZERO PUSH2 0x22FE JUMPI PUSH1 0x0 DUP1 REVERT JUMPDEST POP MLOAD PUSH1 0x0 DUP4 DUP2 MSTORE PUSH1 0x20 DUP13 DUP2 MSTORE PUSH1 0x40 SWAP2 DUP3 SWAP1 KECCAK256 SLOAD DUP3 MLOAD PUSH4 0x682E3C6D PUSH1 0xE1 SHL DUP2 MSTORE PUSH1 0x4 DUP2 ADD SWAP2 SWAP1 SWAP2 MSTORE PUSH1 0x24 DUP2 ADD DUP14 SWAP1 MSTORE SWAP2 MLOAD PUSH20 0x0 SWAP3 PUSH4 0xD05C78DA SWAP3 PUSH1 0x44 DUP1 DUP4 ADD SWAP4 SWAP2 SWAP3 DUP3 SWAP1 SUB ADD DUP2 DUP7 DUP1 EXTCODESIZE ISZERO DUP1 ISZERO PUSH2 0x2366 JUMPI PUSH1 0x0 DUP1 REVERT JUMPDEST POP GAS DELEGATECALL ISZERO DUP1 ISZERO PUSH2 0x237A JUMPI RETURNDATASIZE PUSH1 0x0 DUP1 RETURNDATACOPY RETURNDATASIZE PUSH1 0x0 REVERT JUMPDEST POP POP POP POP PUSH1 0x40 MLOAD RETURNDATASIZE PUSH1 0x20 DUP2 LT ISZERO PUSH2 0x2390 JUMPI PUSH1 0x0 DUP1 REVERT JUMPDEST POP MLOAD PUSH2 0xB2 JUMP JUMPDEST POP POP POP POP POP POP POP POP POP POP POP JUMP JUMPDEST PUSH2 0x23B6 DUP3 PUSH1 0x1 PUSH1 0x1 PUSH1 0xA0 SHL SUB AND PUSH2 0x2562 JUMP JUMPDEST PUSH2 0x2407 JUMPI PUSH1 0x40 DUP1 MLOAD PUSH3 0x461BCD PUSH1 0xE5 SHL DUP2 MSTORE PUSH1 0x20 PUSH1 0x4 DUP3 ADD MSTORE PUSH1 0x1F PUSH1 0x24 DUP3 ADD MSTORE PUSH32 0x5361666545524332303A2063616C6C20746F206E6F6E2D636F6E747261637400 PUSH1 0x44 DUP3 ADD MSTORE SWAP1 MLOAD SWAP1 DUP2 SWAP1 SUB PUSH1 0x64 ADD SWAP1 REVERT JUMPDEST PUSH1 0x0 PUSH1 0x60 DUP4 PUSH1 0x1 PUSH1 0x1 PUSH1 0xA0 SHL SUB AND DUP4 PUSH1 0x40 MLOAD DUP1 DUP3 DUP1 MLOAD SWAP1 PUSH1 0x20 ADD SWAP1 DUP1 DUP4 DUP4 JUMPDEST PUSH1 0x20 DUP4 LT PUSH2 0x2445 JUMPI DUP1 MLOAD DUP3 MSTORE PUSH1 0x1F NOT SWAP1 SWAP3 ADD SWAP2 PUSH1 0x20 SWAP2 DUP3 ADD SWAP2 ADD PUSH2 0x2426 JUMP JUMPDEST PUSH1 0x1 DUP4 PUSH1 0x20 SUB PUSH2 0x100 EXP SUB DUP1 NOT DUP3 MLOAD AND DUP2 DUP5 MLOAD AND DUP1 DUP3 OR DUP6 MSTORE POP POP POP POP POP POP SWAP1 POP ADD SWAP2 POP POP PUSH1 0x0 PUSH1 0x40 MLOAD DUP1 DUP4 SUB DUP2 PUSH1 0x0 DUP7 GAS CALL SWAP2 POP POP RETURNDATASIZE DUP1 PUSH1 0x0 DUP2 EQ PUSH2 0x24A7 JUMPI PUSH1 0x40 MLOAD SWAP2 POP PUSH1 0x1F NOT PUSH1 0x3F RETURNDATASIZE ADD AND DUP3 ADD PUSH1 0x40 MSTORE RETURNDATASIZE DUP3 MSTORE RETURNDATASIZE PUSH1 0x0 PUSH1 0x20 DUP5 ADD RETURNDATACOPY PUSH2 0x24AC JUMP JUMPDEST PUSH1 0x60 SWAP2 POP JUMPDEST POP SWAP2 POP SWAP2 POP DUP2 PUSH2 0x2503 JUMPI PUSH1 0x40 DUP1 MLOAD PUSH3 0x461BCD PUSH1 0xE5 SHL DUP2 MSTORE PUSH1 0x20 PUSH1 0x4 DUP3 ADD DUP2 SWAP1 MSTORE PUSH1 0x24 DUP3 ADD MSTORE PUSH32 0x5361666545524332303A206C6F772D6C6576656C2063616C6C206661696C6564 PUSH1 0x44 DUP3 ADD MSTORE SWAP1 MLOAD SWAP1 DUP2 SWAP1 SUB PUSH1 0x64 ADD SWAP1 REVERT JUMPDEST DUP1 MLOAD ISZERO PUSH2 0x255C JUMPI DUP1 DUP1 PUSH1 0x20 ADD SWAP1 MLOAD PUSH1 0x20 DUP2 LT ISZERO PUSH2 0x251F JUMPI PUSH1 0x0 DUP1 REVERT JUMPDEST POP MLOAD PUSH2 0x255C JUMPI PUSH1 0x40 MLOAD PUSH3 0x461BCD PUSH1 0xE5 SHL DUP2 MSTORE PUSH1 0x4 ADD DUP1 DUP1 PUSH1 0x20 ADD DUP3 DUP2 SUB DUP3 MSTORE PUSH1 0x2A DUP2 MSTORE PUSH1 0x20 ADD DUP1 PUSH2 0x259F PUSH1 0x2A SWAP2 CODECOPY PUSH1 0x40 ADD SWAP2 POP POP PUSH1 0x40 MLOAD DUP1 SWAP2 SUB SWAP1 REVERT JUMPDEST POP POP POP POP JUMP JUMPDEST PUSH1 0x0 DUP2 EXTCODEHASH PUSH32 0xC5D2460186F7233C927E7DB2DCC703C0E500B653CA82273B7BFAD8045D85A470 DUP2 ISZERO DUP1 ISZERO SWAP1 PUSH2 0x2596 JUMPI POP DUP1 DUP3 EQ ISZERO JUMPDEST SWAP5 SWAP4 POP POP POP POP JUMP INVALID MSTORE8 PUSH2 0x6665 GASLIMIT MSTORE NUMBER ORIGIN ADDRESS GASPRICE KECCAK256 GASLIMIT MSTORE NUMBER ORIGIN ADDRESS KECCAK256 PUSH16 0x7065726174696F6E20646964206E6F74 KECCAK256 PUSH20 0x756363656564A265627A7A72305820926356C9D4 ISZERO PUSH15 0x8C501B396A885033F48AEAFA37A990 0x1e PUSH28 0xB0551A29DF76048F64736F6C634300050A0032000000000000000000 ",
  "sha1": "95ce9c0c07796b3fcfeca7424d0c1b7c0a0abc6a",
  "source": "pragma solidity >=0.4.21 <0.6.0;\n\nimport \"./HInterfaces.sol\";\nimport \"../erc20/SafeERC20.sol\";\nimport \"../erc20/IERC20.sol\";\nimport \"../ystream/IYieldStream.sol\";\nimport \"./HGateKeeperParam.sol\";\n\n\nlibrary HGateKeeperHelper{\n\n  using SafeMath for uint;\n  using SafeERC20 for IERC20;\n  event ThrowError(address gatekeeper, uint256 round, uint256 ratio);\n\n  function _settle_round_for_one_ratio(HGateKeeperParam.settle_round_param_info storage info,\n                        //mapping (uint256 => uint256) storage total_target_token_in_round,\n                        mapping (bytes32 => uint256) storage target_token_amount_in_round_and_ratio,\n                        mapping (bytes32 => uint256) storage long_term_token_amount_in_round_and_ratio,\n                        uint256 i\n      ) internal returns(uint256 s){\n      // \"hashs\" and \"hasht\" corresponds to the index (hash) of the pair (_round, sratios[i]) and (_round + 1, sratios[i]),\n      // the i-th ratio with current round, and the i-th ratio with the next round respectively.\n      bytes32 hashs = keccak256(abi.encodePacked(info._round, info.sratios[i]));\n      // \"t\" is actual amount of target token, invested for i-th ratio and current round,\n      // including the value of longterm tokens and intokens.\n      uint256 t = target_token_amount_in_round_and_ratio[hashs];\n      // nt is the required interest for tokens invested for i-th ratio.\n      // For example, if the i-th ratio is 5% and target token amount for this ratio is 10000,\n      // start_price is 1e18, then nt = 500*1e18.\n      uint256 nt = t.safeMul(info.start_price).safeMul(info.sratios[i]).safeDiv(info.env_ratio_base);\n      /// require(info.long_term.get_long_term_token_with_ratio(info.sratios[i]) != address(0x0), \"GK:Long term token not set\");\n      // simulate the distribution of total interest.\n      // If the remaining interest can afford the required interest for i-th ratio,\n      // then \"nt\" sets to be the require interest\n      // Otherwise \"nt\" set to be the remain interest\n      // So, \"nt\" is the actual received interest for i-th ratio.\n      // The ramain interest (\"left\") decreases by \"nt\".\n      if(nt > info.left){\n        nt = info.left;\n      }\n      info.left = info.left.safeSub(nt);\n      // now, set \"t\" to be the amount of target token (normalized to 1e18) distributed to i-th ratio and current round,\n      // after the price of target token changing and the interests being distributed.\n      // \"t\" times start price is the total price before,\n      // then add \"nt\" is the total price after obtaining the distributed interest,\n      // then div \"end_price\" to change the total price into the amount of target token, of new price\n      t = t.safeMul(info.start_price).safeAdd(nt).safeDiv(info.end_price);\n\n      // \"ratio_to\" computes the ratio of longterm token to target token, united in 1e18,\n      // \"long_term_token_amount_in_round_and_ratio[hashs]\" records the amount of longterm tokens in i-th ratio and current round,\n      // including all unexchanged intokens.\n      // The default ratio is 1e18 if there is no longterm token.\n      // \"ratio_to\" is a significant variable for updating all maintained values in \"_updata_values()\"\n      uint256 ratio_to;\n      if (long_term_token_amount_in_round_and_ratio[hashs] == 0){\n        ratio_to = 1e18;\n      }\n      else{\n        ratio_to = t.safeMul(1e18).safeDiv(long_term_token_amount_in_round_and_ratio[hashs]);\n        if (ratio_to == 0) {ratio_to = 1e18; emit ThrowError(address(this), info._round, info.sratios[i]);}\n      }\n      //s = s.safeAdd(t);\n      s = t;\n      t = info.aggr.getRatioTo(address(this), 0, info.sratios[i], 3);\n\n      //update minter info for this round\n      \n      if (info.minter != MinterInterfaceGK(0x0)){\n        info.minter.handle_settle_round(\n          info.sratios[i],\n          t,\n          uint256(1e36).safeDiv(ratio_to),\n          long_term_token_amount_in_round_and_ratio[hashs],\n          nt\n        );\n      }  \n      \n      // update the maintained values\n      update_values(info, target_token_amount_in_round_and_ratio, long_term_token_amount_in_round_and_ratio, ratio_to, info.sratios[i]);\n  }\n\n  function _settle_round_for_tail(HGateKeeperParam.settle_round_param_info storage info,\n                        //mapping (uint256 => uint256) storage total_target_token_in_round,\n                        mapping (bytes32 => uint256) storage target_token_amount_in_round_and_ratio,\n                        mapping (bytes32 => uint256) storage long_term_token_amount_in_round_and_ratio,\n                        uint256 nt\n                                 ) internal returns(uint256 s){\n\n    //uint256 nt = left;\n    // \"left\" now is the amount of target token should be allocated to floating.\n    //left = total_target_token_in_round[info._round].safeSub(s);\n    // handle for floating, similar to before.\n    bytes32 hashs = keccak256(abi.encodePacked(info._round, uint256(0)));\n    uint256 ratio_to;\n    s = 0;\n    if (long_term_token_amount_in_round_and_ratio[hashs] == 0){\n      ratio_to = 1e18;\n    }\n    else{\n      ratio_to = nt.safeMul(1e18).safeDiv(long_term_token_amount_in_round_and_ratio[hashs]);\n      s = nt;\n      if (ratio_to == 0) {ratio_to = 1e18; emit ThrowError(address(this), info._round, 0);}\n      //s = s.safeAdd(left);\n    }\n    if (info.minter != MinterInterfaceGK(0x0)){\n      info.minter.handle_settle_round(\n        0,\n        HTokenInterfaceGK(info.float_longterm_token).ratio_to_target(),\n        uint256(1e36).safeDiv(ratio_to),\n        long_term_token_amount_in_round_and_ratio[hashs],\n        info.left\n      );\n    }\n    update_values(info, target_token_amount_in_round_and_ratio, long_term_token_amount_in_round_and_ratio, ratio_to, 0);\n}\n\n  /// @dev This function is executed when the round (indexed by _round) is end.\n  /// It does the settlement for current round with respect to the following things:\n  /// 1.\tIt updates the value of all longterm tokens in target token, according to the price from yield stream in current round.\n  /// It also sets the value of intokens and outtokens in the next round.\n  /// 2.\tIt maintains the amount of longterm tokens (including unexchanged intokens) and target tokens in the next round.\n  function settle_round(HGateKeeperParam.settle_round_param_info storage info,\n                        //mapping (uint256 => uint256) storage total_target_token_in_round,\n                        mapping (bytes32 => uint256) storage target_token_amount_in_round_and_ratio,\n                        mapping (bytes32 => uint256) storage long_term_token_amount_in_round_and_ratio\n                       ) public returns(uint256 settled_round){\n    // get the price of target token from the yield stream. The unit is 1e18.\n    if(info.end_price == 0){\n      info.end_price = info.dispatcher.getYieldStream(info.target_token).getVirtualPrice();\n    }\n    /// \"left\" records the remaining interest in current round. The unit is 1e18.\n    /// At the begining, it equals to the actual interest of all target tokens in current round.\n    /// It then distributes to tokens invested for different ratio,\n    // and decreases accordingly when it is consumed to fulfill interests.\n    info.left = info.total_target_token.safeMul(info.end_price.safeSub(info.start_price));\n    if (info.minter != MinterInterfaceGK(0x0)){\n      info.minter.loop_prepare(\n        info.total_target_token.safeSub(target_token_amount_in_round_and_ratio[keccak256(abi.encodePacked(info._round, uint256(0)))]),\n        target_token_amount_in_round_and_ratio[keccak256(abi.encodePacked(info._round, uint256(0)))],\n        info.long_term.getRoundLength(info._round),\n        info.start_price,\n        info.end_price\n      );\n    }\n    uint256 s = 0;\n\n    // The following FOR loop updates the value of all longterm tokens, for ratios from small to large.\n    // It finally updates the value for floating.\n    for(uint256 i = 0; i < info.sratios.length; i++){\n      // \"s\" records the total amount of distributed target tokens.\n      s = s.safeAdd(_settle_round_for_one_ratio(info, target_token_amount_in_round_and_ratio, long_term_token_amount_in_round_and_ratio, i));\n    }\n    {\n      s = s.safeAdd(_settle_round_for_tail(info, target_token_amount_in_round_and_ratio, long_term_token_amount_in_round_and_ratio, info.total_target_token.safeSub(s)));\n    }\n    // for the case where there is no floating token,\n    // the unallocated target tokens (if any) are transferred to our pool.\n    if(s < info.total_target_token){\n      s = info.total_target_token.safeSub(s);\n      require(info.yield_interest_pool != address(0x0), \"invalid yield interest pool\");\n      if (IERC20(info.target_token).balanceOf(address(this)) >= s){\n        IERC20(info.target_token).safeTransfer(info.yield_interest_pool, s);\n      }\n      info.total_target_token_next_round = info.total_target_token_next_round.safeSub(s);\n      //total_target_token_in_round[info._round + 1] =  total_target_token_in_round[info._round + 1].safeSub(s);\n    }\n    // update the variable \"settled_round\", means that \"_round\" is settled and \"_round\" + 1 should begin\n    settled_round = info._round;\n  }\n  /// @dev the necessary update for maintained variables\n  /// @param ratio the value of the i-th ratio (sratios[i])\n  function update_values(\n    HGateKeeperParam.settle_round_param_info storage info,\n                        mapping (bytes32 => uint256) storage target_token_amount_in_round_and_ratio,\n                        mapping (bytes32 => uint256) storage long_term_token_amount_in_round_and_ratio,\n                        uint256 ratio_to, uint256 ratio) internal {\n      uint256 in_target_amount;//how many newly-come target tokens for the next round.\n      uint256 out_target_amount;//how many target tokens leave before the next round.\n      uint256 in_long_term_amount;//how many newly-come longterm tokens for the next round.\n      uint256 out_long_term_amount;//how many target tokens leave before the next round.\n\n      //\"hashs\" and \"hasht\" are indexes the same as before\n      bytes32 hashs = keccak256(abi.encodePacked(info._round, ratio));\n      bytes32 hasht = keccak256(abi.encodePacked(info._round + 1, ratio));\n\n      //set the ratio of the longterm token to target token.\n      //recall that it is the definition of \"ratio_to\".\n      //lt.set_ratio_to_target(ratio_to);\n      if (ratio == 0){\n        HTokenInterfaceGK(info.float_longterm_token).set_ratio_to_target(ratio_to);\n      }\n      else{\n        info.aggr.setRatioTo(address(this), 0, ratio, 3, ratio_to);\n      }\n      \n      //set the value of intoken in the next round, the ratio to longterm token.\n      //since when the intoken is generated, its amount is 1:1 bind to target token,\n      //so, the ratio of intoken to longterm token should be set to the reciprocal of \"ratio_to\".\n      //HTokenInterfaceGK(info.long_term.hintokenAtPeriodWithRatio(info._round + 1, ratio)).set_ratio_to_target(uint256(1e36).safeDiv(ratio_to));\n      in_target_amount = uint256(1e36).safeDiv(ratio_to);//temporarily use\n      info.aggr.setRatioTo(address(this), info._round + 1, ratio, 1, in_target_amount);\n      //since the amount of intoken is 1:1 to the target token,\n      //the amount of newly-come target token equals to the total amount of intoken in the next round.\n      //in_target_amount = info.long_term.totalInAtPeriodWithRatio(info._round + 1, ratio);\n      in_target_amount = info.aggr.totalSupply(address(this), info._round + 1, ratio, 1);\n      //compute the corresponding amount of newly-come longterm token.\n      //since the ratio of intoken to longterm token has been set, compute it directly.\n      //in_long_term_amount = info.long_term.totalInAtPeriodWithRatio(info._round + 1, ratio).safeMul(HTokenInterfaceGK(info.long_term.hintokenAtPeriodWithRatio(info._round + 1, ratio)).ratio_to_target()).safeDiv(1e18);\n      in_long_term_amount = in_target_amount.safeMul(1e18).safeDiv(ratio_to); \n \n      //set the value of outtoken in the next round, the ratio to target token.\n      //since when the outtoken is generated, its amount is 1:1 bind to long_term token at first,\n      //the ratio of outtoken to target token should be set to \"ratio_to\".\n      //HTokenInterfaceGK(info.long_term.houttokenAtPeriodWithRatio(info._round + 1, ratio)).set_ratio_to_target(ratio_to);\n      info.aggr.setRatioTo(address(this), info._round + 1, ratio, 2, ratio_to);\n      //compute the amount of target token that leaves. \n      //since the ratio of outtoken to target token has been set, compute it directly.\n      out_target_amount = info.aggr.totalSupply(address(this), info._round + 1, ratio, 2).safeMul(ratio_to).safeDiv(1e18);\n      //since the amount of outtoken is 1:1 to the longterm token at first,\n      //the amount of longterm token that leaves equals to the total amount of intoken in the next round.\n      out_long_term_amount = info.aggr.totalSupply(address(this), info._round + 1, ratio, 2);\n   \n      //update the amount of target token and long term token in the new round\n\n      //compute the target token amount in i-th ratio for next round,\n      //which means that this amount of target token joins in the game in i-th ratio and the next round.\n      //It first computes the value of longterm token in target token after the price changing,\n      //since the ratio_to is given.\n      //It then adds the newly-come amount and subs the leave amount.\n      target_token_amount_in_round_and_ratio[hasht] = long_term_token_amount_in_round_and_ratio[hashs].safeMul(ratio_to).safeDiv(1e18).safeAdd(in_target_amount).safeSub(out_target_amount);\n      //The amount of total target token in the next round (to all ratios)\n      //initially set to be the total target token amount in current round.\n      if (ratio == info.sratios[0]) {\n        //total_target_token_in_round[_round + 1] = total_target_token_in_round[_round];\n        info.total_target_token_next_round = info.total_target_token;\n      }\n      //update the total target token amount in the next round,\n      //by adding increment and subbing decrement for each ratio.\n      info.total_target_token_next_round = info.total_target_token_next_round.safeAdd(in_target_amount).safeSub(out_target_amount);\n      //total_target_token_in_round[_round + 1] =  total_target_token_in_round[_round + 1].safeAdd(in_target_amount).safeSub(out_target_amount);\n      //update the longterm token amount in i-th ratio and the next round,\n      //by taking the longterm token amount in i-th ratio and current round, and adding increment and subbing decrement.\n      long_term_token_amount_in_round_and_ratio[hasht] = long_term_token_amount_in_round_and_ratio[hashs].safeAdd(in_long_term_amount).safeSub(out_long_term_amount);\n      //Additional check: after update,\n      //the amount of target token in i-th ratio and the next round,\n      //should equal to the amount of longterm token in i-th ratio and the next round times ratio_to.\n      //Due to the accuracy issue, we let the difference less than 10000(in 1e18).\n      //(This should never happen)\n      _abs_check(target_token_amount_in_round_and_ratio[hasht].safeMul(1e18), long_term_token_amount_in_round_and_ratio[hasht].safeMul(ratio_to));\n  }\n\n  function _abs_check(uint256 a, uint256 b) public pure{\n    if (a >= b) {require (a.safeSub(b) <= 1e22, \"GK: double check\");}\n    else {require (b.safeSub(a) <= 1e22, \"GK: double check\");}\n  }\n}\n",
  "sourcePath": "contracts/core/HGateKeeperHelper.sol",
  "type": "library"
}