{
  "abi": [
    {
      "constant": true,
      "inputs": [],
      "name": "owner",
      "outputs": [
        {
          "name": "",
          "type": "address"
        }
      ],
      "payable": false,
      "stateMutability": "view",
      "type": "function"
    },
    {
      "constant": false,
      "inputs": [
        {
          "name": "_env_addr",
          "type": "address"
        },
        {
          "name": "_dispatcher",
          "type": "address"
        },
        {
          "name": "_long_term",
          "type": "address"
        },
        {
          "name": "_float_token",
          "type": "address"
        },
        {
          "name": "_aggr",
          "type": "address"
        }
      ],
      "name": "createGateKeeperForPeriod",
      "outputs": [
        {
          "name": "",
          "type": "address"
        }
      ],
      "payable": false,
      "stateMutability": "nonpayable",
      "type": "function"
    },
    {
      "constant": false,
      "inputs": [
        {
          "name": "newOwner",
          "type": "address"
        }
      ],
      "name": "transferOwnership",
      "outputs": [],
      "payable": false,
      "stateMutability": "nonpayable",
      "type": "function"
    },
    {
      "anonymous": false,
      "inputs": [
        {
          "indexed": false,
          "name": "addr",
          "type": "address"
        }
      ],
      "name": "NewGateKeeper",
      "type": "event"
    },
    {
      "anonymous": false,
      "inputs": [
        {
          "indexed": true,
          "name": "previousOwner",
          "type": "address"
        },
        {
          "indexed": true,
          "name": "newOwner",
          "type": "address"
        }
      ],
      "name": "OwnershipTransferred",
      "type": "event"
    }
  ],
  "bytecode": "60806040819052600080546001600160a01b031916339081178255918291907f8be0079c531659141344cd1fd0a4f28419497f9722a3daafe3b4186f6b6457e0908290a3506147ee806100536000396000f3fe608060405234801561001057600080fd5b50600436106100415760003560e01c80638da5cb5b14610046578063f21808501461006a578063f2fde38b146100b2575b600080fd5b61004e6100da565b604080516001600160a01b039092168252519081900360200190f35b61004e600480360360a081101561008057600080fd5b506001600160a01b038135811691602081013582169160408201358116916060810135821691608090910135166100e9565b6100d8600480360360208110156100c857600080fd5b50356001600160a01b031661026e565b005b6000546001600160a01b031690565b6000808690506000816001600160a01b0316638b56b77a6040518163ffffffff1660e01b815260040160206040518083038186803b15801561012a57600080fd5b505afa15801561013e573d6000803e3d6000fd5b505050506040513d602081101561015457600080fd5b50516040518990899089908990899061016c90610379565b6001600160a01b0396871681529486166020860152928516604080860191909152918516606085015284166080840152921660a082015290519081900360c001906000f0801580156101c2573d6000803e3d6000fd5b506040805163f2fde38b60e01b815233600482015290519192506001600160a01b0383169163f2fde38b9160248082019260009290919082900301818387803b15801561020e57600080fd5b505af1158015610222573d6000803e3d6000fd5b5050604080516001600160a01b038516815290517fe8645a246fcc56b091152135975c80343dee50b8b6279980d099ec206eafbaab9350908190036020019150a1979650505050505050565b6000546001600160a01b031633146102cd576040805162461bcd60e51b815260206004820181905260248201527f4f776e61626c653a2063616c6c6572206973206e6f7420746865206f776e6572604482015290519081900360640190fd5b6102d6816102d9565b50565b6001600160a01b03811661031e5760405162461bcd60e51b81526004018080602001828103825260268152602001806147946026913960400191505060405180910390fd5b600080546040516001600160a01b03808516939216917f8be0079c531659141344cd1fd0a4f28419497f9722a3daafe3b4186f6b6457e091a3600080546001600160a01b0319166001600160a01b0392909216919091179055565b61440d806103878339019056fe608060405234801561001057600080fd5b506040516200440d3803806200440d833981810160405260c081101561003557600080fd5b50805160208201516040808401516060850151608086015160a090960151600080546001600160a01b0319163390811782559451969795969395929492939192918291907f8be0079c531659141344cd1fd0a4f28419497f9722a3daafe3b4186f6b6457e0908290a350600280546001600160a01b039788166001600160a01b03199182161790915560038054968816968216969096179095556001805494871694861694909417909355600480549286169285169290921790915560006009556006805492851692841692909217909155600780549190931691161790556142e980620001246000396000f3fe608060405234801561001057600080fd5b50600436106101e45760003560e01c80638da5cb5b1161010f578063c348f019116100a2578063efa9a9be11610071578063efa9a9be14610529578063f2fde38b14610552578063f51f749614610578578063fe80261b14610580576101e4565b8063c348f019146104b2578063cb7e9057146104d8578063d70d642c146104e0578063e31d48ad14610506576101e4565b8063a15143cd116100de578063a15143cd1461044d578063a915190d1461046a578063b2c95fb414610487578063b81b46fd1461048f576101e4565b80638da5cb5b146104185780639dca0032146104205780639ff6082514610428578063a105444914610430576101e4565b806342ca18fc1161018757806354ddbea81161015657806354ddbea8146103c8578063590f4d4d146103eb5780635a2dfd49146103f35780638714a5a114610410576101e4565b806342ca18fc146102d15780634b393605146102d95780634b832735146102fc578063528de0e81461039f576101e4565b80631a34fe81116101c35780631a34fe81146102585780632e96b119146102725780632fa490fb1461027a578063390f28af146102a0576101e4565b80625919c7146101e9578063075461721461020e5780631652e9fc14610232575b600080fd5b61020c600480360360408110156101ff57600080fd5b50803590602001356105b6565b005b61021661087f565b604080516001600160a01b039092168252519081900360200190f35b61020c6004803603602081101561024857600080fd5b50356001600160a01b031661088e565b61026061092f565b60408051918252519081900360200190f35b61020c610935565b61020c6004803603602081101561029057600080fd5b50356001600160a01b031661093f565b6102bd600480360360208110156102b657600080fd5b50356109f5565b604080519115158252519081900360200190f35b610216610a3f565b61020c600480360360408110156102ef57600080fd5b5080359060200135610a4e565b61020c6004803603602081101561031257600080fd5b81019060208101813564010000000081111561032d57600080fd5b82018360208201111561033f57600080fd5b8035906020019184602083028401116401000000008311171561036157600080fd5b9190808060200260200160405190810160405280939291908181526020018383602002808284376000920191909152509295506112db945050505050565b61020c600480360360608110156103b557600080fd5b50803590602081013590604001356114eb565b61020c600480360360408110156103de57600080fd5b5080359060200135611a72565b610216611e3b565b61020c6004803603602081101561040957600080fd5b5035611e4a565b610216611ede565b610216611eed565b610216611efd565b610216611f0c565b6102606004803603602081101561044657600080fd5b5035611f1b565b61020c6004803603602081101561046357600080fd5b5035611f39565b6102bd6004803603602081101561048057600080fd5b5035611f47565b610260611f5c565b61020c600480360360408110156104a557600080fd5b5080359060200135611f62565b61020c600480360360208110156104c857600080fd5b50356001600160a01b0316612465565b610216612500565b61020c600480360360208110156104f657600080fd5b50356001600160a01b031661250f565b61020c6004803603604081101561051c57600080fd5b5080359060200135612609565b61020c6004803603606081101561053f57600080fd5b5080359060208101359060400135612e5b565b61020c6004803603602081101561056857600080fd5b50356001600160a01b0316613781565b6102166137d7565b61059d6004803603602081101561059657600080fd5b50356137e6565b6040805192835260208301919091528051918290030190f35b8115806105c757506105c7826109f5565b61060c576040805162461bcd60e51b81526020600482015260116024820152706e6f7420737570706f727420726174696f60781b604482015290519081900360640190fd5b6106146137ff565b60065460095460408051630758e6fd60e51b815230600482015260029283016024820152604481018690526064810192909252608482018490523360a4830152516001600160a01b039092169163eb1cdfa09160c48082019260009290919082900301818387803b15801561068857600080fd5b505af115801561069c573d6000803e3d6000fd5b50505050816000141561071957600754604080516340c10f1960e01b81523360048201526024810184905290516001600160a01b03909216916340c10f199160448082019260009290919082900301818387803b1580156106fc57600080fd5b505af1158015610710573d6000803e3d6000fd5b5050505061079f565b60065460408051636ccf078560e11b81523060048201526000602482018190526044820186905260036064830152608482018590523360a483015291516001600160a01b039093169263d99e0f0a9260c48084019391929182900301818387803b15801561078657600080fd5b505af115801561079a573d6000803e3d6000fd5b505050505b6008546001600160a01b03161561082f5760085460095460408051633474fd3160e11b8152336004820152602481018590526044810186905260029092016064830152516001600160a01b03909216916368e9fa629160848082019260009290919082900301818387803b15801561081657600080fd5b505af115801561082a573d6000803e3d6000fd5b505050505b600954604080513381526020810184905280820185905260029092016060830152517f1b0e9fc7c62cc643508b935f98c3cb260d5f9f602d71240005765d45bb6a051b9181900360800190a15050565b6008546001600160a01b031681565b6000546001600160a01b031633146108db576040805162461bcd60e51b8152602060048201819052602482015260008051602061426b833981519152604482015290519081900360640190fd5b600880546001600160a01b0383166001600160a01b0319909116811790915560408051918252517fcec52196e972044edde8689a1b608e459c5946b7f3e5c8cd3d6d8e126d422e1c9181900360200190a150565b600a5481565b61093d6137ff565b565b6000546001600160a01b0316331461098c576040805162461bcd60e51b8152602060048201819052602482015260008051602061426b833981519152604482015290519081900360640190fd5b600754604080516336686d7160e21b81526001600160a01b0384811660048301529151919092169163d9a1b5c491602480830192600092919082900301818387803b1580156109da57600080fd5b505af11580156109ee573d6000803e3d6000fd5b5050505050565b6000805b601f54811015610a345782601f8281548110610a1157fe5b90600052602060002001541415610a2c576001915050610a3a565b6001016109f9565b50600090505b919050565b6006546001600160a01b031681565b801580610a5f5750610a5f816109f5565b610aa4576040805162461bcd60e51b81526020600482015260116024820152706e6f7420737570706f727420726174696f60781b604482015290519081900360640190fd5b610aac6137ff565b60065460095460408051630758e6fd60e51b8152306004820152600290920160248301526044820184905260016064830152608482018590523360a4830152516001600160a01b039092169163eb1cdfa09160c48082019260009290919082900301818387803b158015610b1f57600080fd5b505af1158015610b33573d6000803e3d6000fd5b505060015460025460408051638b6ea7bb60e01b81526001600160a01b039283166004820152905160009550919092169250638b6ea7bb91602480820192602092909190829003018186803b158015610b8b57600080fd5b505afa158015610b9f573d6000803e3d6000fd5b505050506040513d6020811015610bb557600080fd5b505160408051630d33843160e21b815290516001600160a01b03909216916334ce10c491600480820192602092909190829003018186803b158015610bf957600080fd5b505afa158015610c0d573d6000803e3d6000fd5b505050506040513d6020811015610c2357600080fd5b50516040805163682e3c6d60e11b81526004810186905260248101839052905191925060009173__SafeMath______________________________9163d05c78da916044808301926020929190829003018186803b158015610c8457600080fd5b505af4158015610c98573d6000803e3d6000fd5b505050506040513d6020811015610cae57600080fd5b505160408051632d64c7df60e21b81526004810192909252670de0b6b3a764000060248301525173__SafeMath______________________________9163b5931f7c916044808301926020929190829003018186803b158015610d1057600080fd5b505af4158015610d24573d6000803e3d6000fd5b505050506040513d6020811015610d3a57600080fd5b50516008549091506001600160a01b031615610dcf5760085460095460408051636ac4b8c160e11b8152336004820152602481018890526044810187905260029092016064830152516001600160a01b039092169163d58971829160848082019260009290919082900301818387803b158015610db657600080fd5b505af1158015610dca573d6000803e3d6000fd5b505050505b600360009054906101000a90046001600160a01b03166001600160a01b0316636d6ca17e6040518163ffffffff1660e01b815260040160206040518083038186803b158015610e1d57600080fd5b505afa158015610e31573d6000803e3d6000fd5b505050506040513d6020811015610e4757600080fd5b505115801590610ecf5750600354604080516346cc0e0d60e01b815290516000926001600160a01b0316916346cc0e0d916004808301926020929190829003018186803b158015610e9757600080fd5b505afa158015610eab573d6000803e3d6000fd5b505050506040513d6020811015610ec157600080fd5b50516001600160a01b031614155b1561126457600354604080516336b650bf60e11b8152905160009273__SafeMath______________________________9263d05c78da9286926001600160a01b031691636d6ca17e916004808301926020929190829003018186803b158015610f3757600080fd5b505afa158015610f4b573d6000803e3d6000fd5b505050506040513d6020811015610f6157600080fd5b5051604080516001600160e01b031960e086901b16815260048101939093526024830191909152516044808301926020929190829003018186803b158015610fa857600080fd5b505af4158015610fbc573d6000803e3d6000fd5b505050506040513d6020811015610fd257600080fd5b50516003546040805163039dd49d60e21b8152905173__SafeMath______________________________9363b5931f7c9390926001600160a01b0390911691630e77527491600480820192602092909190829003018186803b15801561103757600080fd5b505afa15801561104b573d6000803e3d6000fd5b505050506040513d602081101561106157600080fd5b5051604080516001600160e01b031960e086901b16815260048101939093526024830191909152516044808301926020929190829003018186803b1580156110a857600080fd5b505af41580156110bc573d6000803e3d6000fd5b505050506040513d60208110156110d257600080fd5b5051604080516314527a3d60e31b81526004810185905260248101839052905191925060009173__SafeMath______________________________9163a293d1e8916044808301926020929190829003018186803b15801561113357600080fd5b505af4158015611147573d6000803e3d6000fd5b505050506040513d602081101561115d57600080fd5b505160025490915061117f906001600160a01b0316338363ffffffff613e7c16565b600354604080516346cc0e0d60e01b8152905161120a926001600160a01b0316916346cc0e0d916004808301926020929190829003018186803b1580156111c557600080fd5b505afa1580156111d9573d6000803e3d6000fd5b505050506040513d60208110156111ef57600080fd5b50516002546001600160a01b0316908463ffffffff613e7c16565b60095460408051338152602081018490528082018590526002909201606083015260808201879052517f6d0ffe801f13d86aed06f92a30cf1d79fed5a0f890c8ce862a4ca04ea0d799129181900360a00190a150506112d5565b600254611281906001600160a01b0316338363ffffffff613e7c16565b60095460408051338152602081018490526000818301526002909201606083015260808201859052517f6d0ffe801f13d86aed06f92a30cf1d79fed5a0f890c8ce862a4ca04ea0d799129181900360a00190a15b50505050565b6000546001600160a01b03163314611328576040805162461bcd60e51b8152602060048201819052602482015260008051602061426b833981519152604482015290519081900360640190fd5b60005b601f5481101561137157601e6000601f838154811061134657fe5b600091825260208083209091015483528201929092526040019020805460ff1916905560010161132b565b5061137e601f60006141c1565b60005b81518110156114715780156114005781600182038151811061139f57fe5b60200260200101518282815181106113b357fe5b602002602001015111611400576040805162461bcd60e51b815260206004820152601060248201526f1cda1bdd5b1908189948185cd8d95b9960821b604482015290519081900360640190fd5b601f82828151811061140e57fe5b6020908102919091018101518254600181810185556000948552928420015583519091601e9185908590811061144057fe5b6020908102919091018101518252810191909152604001600020805460ff1916911515919091179055600101611381565b507f83fe8649d01435d9da2bb5a1107711cd2b3a3cf482768c13067fb12752c76829601f604051808060200182810382528381815481526020019150805480156114da57602002820191906000526020600020905b8154815260200190600101908083116114c6575b50509250505060405180910390a150565b8215806114fc57506114fc836109f5565b611541576040805162461bcd60e51b81526020600482015260116024820152706e6f7420737570706f727420726174696f60781b604482015290519081900360640190fd5b6115496137ff565b81600954600101101561159a576040805162461bcd60e51b815260206004820152601460248201527311d2ce881c9bdd5b99081b9bdd081cd9585b195960621b604482015290519081900360640190fd5b6006546040805163bacd836160e01b815230600482015260248101859052604481018690526001606482015233608482015290516000926001600160a01b03169163bacd83619160a4808301926020929190829003018186803b15801561160057600080fd5b505afa158015611614573d6000803e3d6000fd5b505050506040513d602081101561162a57600080fd5b5051905080821115611683576040805162461bcd60e51b815260206004820152601e60248201527f474b3a206e6f7420656e6f75676820696e746f6b656e2062616c616e63650000604482015290519081900360640190fd5b60065460408051630758e6fd60e51b8152306004820152602481018690526044810187905260016064820152608481018590523360a482015290516001600160a01b039092169163eb1cdfa09160c48082019260009290919082900301818387803b1580156116f157600080fd5b505af1158015611705573d6000803e3d6000fd5b5050600654604080516368b413e360e11b81523060048201526024810188905260448101899052600160648201529051600094506001600160a01b03909216925063d16827c6916084808301926020929190829003018186803b15801561176b57600080fd5b505afa15801561177f573d6000803e3d6000fd5b505050506040513d602081101561179557600080fd5b50516040805163682e3c6d60e11b81526004810186905260248101839052905191925060009173__SafeMath______________________________9163d05c78da916044808301926020929190829003018186803b1580156117f657600080fd5b505af415801561180a573d6000803e3d6000fd5b505050506040513d602081101561182057600080fd5b505160408051632d64c7df60e21b81526004810192909252670de0b6b3a764000060248301525173__SafeMath______________________________9163b5931f7c916044808301926020929190829003018186803b15801561188257600080fd5b505af4158015611896573d6000803e3d6000fd5b505050506040513d60208110156118ac57600080fd5b50516040805133815260208101879052808201839052606081018890526080810189905290519192507f54e367f0027a2d665eaefc8b79cecf9349820b7f8d08b784e824fdc7d9115eab919081900360a00190a160065460095460408051636ccf078560e11b815230600482015260029283016024820152604481018a90526064810192909252608482018490523360a4830152516001600160a01b039092169163d99e0f0a9160c48082019260009290919082900301818387803b15801561197457600080fd5b505af1158015611988573d6000803e3d6000fd5b50506008546001600160a01b0316159150611a1e90505760085460095460408051630657138560e31b815233600482015260248101859052604481018a905260029092016064830152516001600160a01b03909216916332b89c289160848082019260009290919082900301818387803b158015611a0557600080fd5b505af1158015611a19573d6000803e3d6000fd5b505050505b600954604080513381526020810184905260029092018282015260608201889052517fe7412a484c7e2ef301b676b9bedf378302a45fc1cc3bd997b69c63a859e97ce89181900360800190a1505050505050565b611a7a6137ff565b600082611bb257600754604080516370a0823160e01b8152336004820152905184926001600160a01b0316916370a08231916024808301926020929190829003018186803b158015611acb57600080fd5b505afa158015611adf573d6000803e3d6000fd5b505050506040513d6020811015611af557600080fd5b50511015611b42576040805162461bcd60e51b8152602060048201526015602482015274474b3a6e6f7420656e6f7567682062616c616e636560581b604482015290519081900360640190fd5b6007546040805163079cc67960e41b81523360048201526024810185905290516001600160a01b03909216916379cc67909160448082019260009290919082900301818387803b158015611b9557600080fd5b505af1158015611ba9573d6000803e3d6000fd5b50505050611ccc565b6006546040805163bacd836160e01b815230600482015260006024820152604481018690526003606482015233608482015290516001600160a01b039092169163bacd83619160a480820192602092909190829003018186803b158015611c1857600080fd5b505afa158015611c2c573d6000803e3d6000fd5b505050506040513d6020811015611c4257600080fd5b505160065460408051630758e6fd60e51b81523060048201526000602482018190526044820188905260036064830152608482018790523360a483015291519394506001600160a01b039092169263eb1cdfa09260c480820193929182900301818387803b158015611cb357600080fd5b505af1158015611cc7573d6000803e3d6000fd5b505050505b60065460095460408051636ccf078560e11b815230600482015260029283016024820152604481018790526064810192909252608482018590523360a4830152516001600160a01b039092169163d99e0f0a9160c48082019260009290919082900301818387803b158015611d4057600080fd5b505af1158015611d54573d6000803e3d6000fd5b50506008546001600160a01b0316159150611dea90505760085460095460408051630657138560e31b8152336004820152602481018690526044810187905260029092016064830152516001600160a01b03909216916332b89c289160848082019260009290919082900301818387803b158015611dd157600080fd5b505af1158015611de5573d6000803e3d6000fd5b505050505b600954604080513381526020810185905260029092018282015260608201859052517fe7412a484c7e2ef301b676b9bedf378302a45fc1cc3bd997b69c63a859e97ce89181900360800190a1505050565b6007546001600160a01b031681565b6000546001600160a01b03163314611e97576040805162461bcd60e51b8152602060048201819052602482015260008051602061426b833981519152604482015290519081900360640190fd5b600a805490829055604080518281526020810184905281517fda1ac08e19cf366ae5b5feb717776ca672304e55946e9640989edad1d94900b5929181900390910190a15050565b6004546001600160a01b031681565b6000546001600160a01b03165b90565b6003546001600160a01b031681565b6005546001600160a01b031681565b601f8181548110611f2857fe5b600091825260209091200154905081565b611f44816000612609565b50565b601e6020526000908152604090205460ff1681565b60095481565b8015611fa9576040805162461bcd60e51b81526020600482015260116024820152706e6f7420737570706f727420726174696f60781b604482015290519081900360640190fd5b611fb16137ff565b816009546001011015612002576040805162461bcd60e51b815260206004820152601460248201527311d2ce881c9bdd5b99081b9bdd081cd9585b195960621b604482015290519081900360640190fd5b6006546040805163bacd836160e01b815230600482015260248101859052604481018490526001606482015233608482015290516000926001600160a01b03169163bacd83619160a4808301926020929190829003018186803b15801561206857600080fd5b505afa15801561207c573d6000803e3d6000fd5b505050506040513d602081101561209257600080fd5b50519050806120e8576040805162461bcd60e51b815260206004820152601760248201527f474b3a206e6f20696e20746f6b656e2062616c616e6365000000000000000000604482015290519081900360640190fd5b60065460408051630758e6fd60e51b8152306004820152602481018690526044810185905260016064820152608481018490523360a482015290516001600160a01b039092169163eb1cdfa09160c48082019260009290919082900301818387803b15801561215657600080fd5b505af115801561216a573d6000803e3d6000fd5b5050600654604080516368b413e360e11b81523060048201526024810188905260448101879052600160648201529051600094506001600160a01b03909216925063d16827c6916084808301926020929190829003018186803b1580156121d057600080fd5b505afa1580156121e4573d6000803e3d6000fd5b505050506040513d60208110156121fa57600080fd5b50516040805163682e3c6d60e11b81526004810185905260248101839052905191925060009173__SafeMath______________________________9163d05c78da916044808301926020929190829003018186803b15801561225b57600080fd5b505af415801561226f573d6000803e3d6000fd5b505050506040513d602081101561228557600080fd5b505160408051632d64c7df60e21b81526004810192909252670de0b6b3a764000060248301525173__SafeMath______________________________9163b5931f7c916044808301926020929190829003018186803b1580156122e757600080fd5b505af41580156122fb573d6000803e3d6000fd5b505050506040513d602081101561231157600080fd5b505190508361238a57600754604080516340c10f1960e01b81523360048201526024810184905290516001600160a01b03909216916340c10f199160448082019260009290919082900301818387803b15801561236d57600080fd5b505af1158015612381573d6000803e3d6000fd5b50505050612410565b60065460408051636ccf078560e11b81523060048201526000602482018190526044820188905260036064830152608482018590523360a483015291516001600160a01b039093169263d99e0f0a9260c48084019391929182900301818387803b1580156123f757600080fd5b505af115801561240b573d6000803e3d6000fd5b505050505b6040805133815260208101859052808201839052606081018790526080810186905290517f54e367f0027a2d665eaefc8b79cecf9349820b7f8d08b784e824fdc7d9115eab9181900360a00190a15050505050565b6000546001600160a01b031633146124b2576040805162461bcd60e51b8152602060048201819052602482015260008051602061426b833981519152604482015290519081900360640190fd5b60075460408051634e7dd42d60e11b81526001600160a01b03848116600483015291519190921691639cfba85a91602480830192600092919082900301818387803b1580156109da57600080fd5b6001546001600160a01b031681565b6000546001600160a01b0316331461255c576040805162461bcd60e51b8152602060048201819052602482015260008051602061426b833981519152604482015290519081900360640190fd5b6001600160a01b0381166125a6576040805162461bcd60e51b815260206004820152600c60248201526b1a5b9d985b1a59081c1bdbdb60a21b604482015290519081900360640190fd5b600580546001600160a01b038381166001600160a01b0319831681179093556040805191909216808252602082019390935281517f652007bf928e65eb823aa08d80f212e3dda774b35be23c9d5345aee033ca8ba9929181900390910190a15050565b80158061261a575061261a816109f5565b61265f576040805162461bcd60e51b81526020600482015260116024820152706e6f7420737570706f727420726174696f60781b604482015290519081900360640190fd5b6126676137ff565b60025460408051636eb1769f60e11b8152336004820152306024820152905184926001600160a01b03169163dd62ed3e916044808301926020929190829003018186803b1580156126b757600080fd5b505afa1580156126cb573d6000803e3d6000fd5b505050506040513d60208110156126e157600080fd5b5051101561272d576040805162461bcd60e51b81526020600482015260146024820152736e6f7420656e6f75676820616c6c6f77616e636560601b604482015290519081900360640190fd5b600254604080516370a0823160e01b815230600482015290516000926001600160a01b0316916370a08231916024808301926020929190829003018186803b15801561277857600080fd5b505afa15801561278c573d6000803e3d6000fd5b505050506040513d60208110156127a257600080fd5b50516002549091506127c5906001600160a01b031633308663ffffffff613ed316565b600254604080516370a0823160e01b815230600482015290516000926001600160a01b0316916370a08231916024808301926020929190829003018186803b15801561281057600080fd5b505afa158015612824573d6000803e3d6000fd5b505050506040513d602081101561283a57600080fd5b5051604080516314527a3d60e31b81526004810183905260248101859052905191925073__SafeMath______________________________9163a293d1e891604480820192602092909190829003018186803b15801561289957600080fd5b505af41580156128ad573d6000803e3d6000fd5b505050506040513d60208110156128c357600080fd5b505160015460025460408051638b6ea7bb60e01b81526001600160a01b03928316600482015290519397506000939190921691638b6ea7bb916024808301926020929190829003018186803b15801561291b57600080fd5b505afa15801561292f573d6000803e3d6000fd5b505050506040513d602081101561294557600080fd5b505160408051630d33843160e21b815290516001600160a01b03909216916334ce10c491600480820192602092909190829003018186803b15801561298957600080fd5b505afa15801561299d573d6000803e3d6000fd5b505050506040513d60208110156129b357600080fd5b50519050670de0b6b3a7640000811115612a08576040805162461bcd60e51b8152602060048201526011602482015270646563696d616c20746f6f206c6172676560781b604482015290519081900360640190fd5b60008573__SafeMath______________________________63d05c78da9091670de0b6b3a76400006040518363ffffffff1660e01b8152600401808381526020018281526020019250505060206040518083038186803b158015612a6b57600080fd5b505af4158015612a7f573d6000803e3d6000fd5b505050506040513d6020811015612a9557600080fd5b505160408051632d64c7df60e21b81526004810192909252602482018490525173__SafeMath______________________________9163b5931f7c916044808301926020929190829003018186803b158015612af057600080fd5b505af4158015612b04573d6000803e3d6000fd5b505050506040513d6020811015612b1a57600080fd5b5051600a5490915015612ce357600a54811115612b71576040805162461bcd60e51b815260206004820152601060248201526f1d1bdbc81b185c99d948185b5bdd5b9d60821b604482015290519081900360640190fd5b600a546006546009546040805163bacd836160e01b8152306004820152600290920160248301526044820189905260016064830152336084830152516001600160a01b039092169163bacd83619160a480820192602092909190829003018186803b158015612bdf57600080fd5b505afa158015612bf3573d6000803e3d6000fd5b505050506040513d6020811015612c0957600080fd5b50516040805163e6cb901360e01b81526004810192909252602482018490525173__SafeMath______________________________9163e6cb9013916044808301926020929190829003018186803b158015612c6457600080fd5b505af4158015612c78573d6000803e3d6000fd5b505050506040513d6020811015612c8e57600080fd5b50511115612ce3576040805162461bcd60e51b815260206004820152601960248201527f506c656173652075736520616e6f746865722077616c6c657400000000000000604482015290519081900360640190fd5b60065460095460408051636ccf078560e11b8152306004820152600290920160248301526044820188905260016064830152608482018490523360a4830152516001600160a01b039092169163d99e0f0a9160c48082019260009290919082900301818387803b158015612d5657600080fd5b505af1158015612d6a573d6000803e3d6000fd5b50506008546001600160a01b0316159150612e0090505760085460095460408051630f808a5560e11b8152336004820152602481018590526044810189905260029092016064830152516001600160a01b0390921691631f0114aa9160848082019260009290919082900301818387803b158015612de757600080fd5b505af1158015612dfb573d6000803e3d6000fd5b505050505b60095460408051338152602081018990528082018490526002909201606083015260808201879052517f2d2443dfa56bbd3edc124f14cc70910210af27e37180113f9c9aa729e31b26a39181900360a00190a1505050505050565b811580612e6c5750612e6c826109f5565b612eb1576040805162461bcd60e51b81526020600482015260116024820152706e6f7420737570706f727420726174696f60781b604482015290519081900360640190fd5b612eb96137ff565b826009546001011015612f08576040805162461bcd60e51b815260206004820152601260248201527111d2ce881c195c9a5bd9081b9bdd08195b9960721b604482015290519081900360640190fd5b60015460025460408051638b6ea7bb60e01b81526001600160a01b03928316600482015290516000939290921691638b6ea7bb91602480820192602092909190829003018186803b158015612f5c57600080fd5b505afa158015612f70573d6000803e3d6000fd5b505050506040513d6020811015612f8657600080fd5b505160408051630d33843160e21b815290516001600160a01b03909216916334ce10c491600480820192602092909190829003018186803b158015612fca57600080fd5b505afa158015612fde573d6000803e3d6000fd5b505050506040513d6020811015612ff457600080fd5b5051600654604080516368b413e360e11b815230600482015260248101889052604481018790526002606482015290519293506000926001600160a01b039092169163d16827c691608480820192602092909190829003018186803b15801561305c57600080fd5b505afa158015613070573d6000803e3d6000fd5b505050506040513d602081101561308657600080fd5b50516040805163682e3c6d60e11b81526004810186905260248101839052905191925060009173__SafeMath______________________________9163d05c78da916044808301926020929190829003018186803b1580156130e757600080fd5b505af41580156130fb573d6000803e3d6000fd5b505050506040513d602081101561311157600080fd5b50516040805163682e3c6d60e11b81526004810192909252602482018590525173__SafeMath______________________________9163d05c78da916044808301926020929190829003018186803b15801561316c57600080fd5b505af4158015613180573d6000803e3d6000fd5b505050506040513d602081101561319657600080fd5b505160408051632d64c7df60e21b815260048101929092526ec097ce7bc90715b34b9f100000000060248301525173__SafeMath______________________________9163b5931f7c916044808301926020929190829003018186803b1580156131ff57600080fd5b505af4158015613213573d6000803e3d6000fd5b505050506040513d602081101561322957600080fd5b505160065460408051630758e6fd60e51b8152306004820152602481018a90526044810189905260026064820152608481018890523360a482015290519293506001600160a01b039091169163eb1cdfa09160c48082019260009290919082900301818387803b15801561329c57600080fd5b505af11580156132b0573d6000803e3d6000fd5b50505050600360009054906101000a90046001600160a01b03166001600160a01b03166370f9e52f6040518163ffffffff1660e01b815260040160206040518083038186803b15801561330257600080fd5b505afa158015613316573d6000803e3d6000fd5b505050506040513d602081101561332c57600080fd5b5051158015906133b45750600354604080516346cc0e0d60e01b815290516000926001600160a01b0316916346cc0e0d916004808301926020929190829003018186803b15801561337c57600080fd5b505afa158015613390573d6000803e3d6000fd5b505050506040513d60208110156133a657600080fd5b50516001600160a01b031614155b1561370657600354604080516370f9e52f60e01b8152905160009273__SafeMath______________________________9263d05c78da9286926001600160a01b0316916370f9e52f916004808301926020929190829003018186803b15801561341c57600080fd5b505afa158015613430573d6000803e3d6000fd5b505050506040513d602081101561344657600080fd5b5051604080516001600160e01b031960e086901b16815260048101939093526024830191909152516044808301926020929190829003018186803b15801561348d57600080fd5b505af41580156134a1573d6000803e3d6000fd5b505050506040513d60208110156134b757600080fd5b50516003546040805163039dd49d60e21b8152905173__SafeMath______________________________9363b5931f7c9390926001600160a01b0390911691630e77527491600480820192602092909190829003018186803b15801561351c57600080fd5b505afa158015613530573d6000803e3d6000fd5b505050506040513d602081101561354657600080fd5b5051604080516001600160e01b031960e086901b16815260048101939093526024830191909152516044808301926020929190829003018186803b15801561358d57600080fd5b505af41580156135a1573d6000803e3d6000fd5b505050506040513d60208110156135b757600080fd5b5051604080516314527a3d60e31b81526004810185905260248101839052905191925060009173__SafeMath______________________________9163a293d1e8916044808301926020929190829003018186803b15801561361857600080fd5b505af415801561362c573d6000803e3d6000fd5b505050506040513d602081101561364257600080fd5b5051600254909150613664906001600160a01b0316338363ffffffff613e7c16565b600354604080516346cc0e0d60e01b815290516136aa926001600160a01b0316916346cc0e0d916004808301926020929190829003018186803b1580156111c557600080fd5b604080513381526020810188905280820183905260608101849052608081018a905260a0810189905290517f4c415edfb62d967e09c127dd1c6e95256b964eb6a9411f52f1c272eab216d8b99181900360c00190a15050613779565b600254613723906001600160a01b0316338363ffffffff613e7c16565b6040805133815260208101869052808201839052600060608201526080810188905260a0810187905290517f4c415edfb62d967e09c127dd1c6e95256b964eb6a9411f52f1c272eab216d8b99181900360c00190a15b505050505050565b6000546001600160a01b031633146137ce576040805162461bcd60e51b8152602060048201819052602482015260008051602061426b833981519152604482015290519081900360640190fd5b611f4481613f2d565b6002546001600160a01b031681565b600b602052600090815260409020805460019091015482565b6004805460408051632e96b11960e01b815290516001600160a01b0390921692632e96b1199282820192602092908290030181600087803b15801561384357600080fd5b505af1158015613857573d6000803e3d6000fd5b505050506040513d602081101561386d57600080fd5b5050600480546040805163a32bf59760e01b815290516000936001600160a01b039093169263a32bf5979280820192602092909182900301818787803b1580156138b657600080fd5b505af11580156138ca573d6000803e3d6000fd5b505050506040513d60208110156138e057600080fd5b50516000818152600b60205260409020549091506139f25760015460025460408051638b6ea7bb60e01b81526001600160a01b03928316600482015290519190921691638b6ea7bb916024808301926020929190829003018186803b15801561394857600080fd5b505afa15801561395c573d6000803e3d6000fd5b505050506040513d602081101561397257600080fd5b50516040805163712d52fd60e11b815290516001600160a01b039092169163e25aa5fa91600480820192602092909190829003018186803b1580156139b657600080fd5b505afa1580156139ca573d6000803e3d6000fd5b505050506040513d60208110156139e057600080fd5b50516000828152600b60205260409020555b600460009054906101000a90046001600160a01b03166001600160a01b031663a3089e056009546001016040518263ffffffff1660e01b815260040180828152602001915050602060405180830381600087803b158015613a5257600080fd5b505af1158015613a66573d6000803e3d6000fd5b505050506040513d6020811015613a7c57600080fd5b505115611f4457604080516101e08101825260095460019081018252546001600160a01b03908116602080840191909152600254821683850152600854821660608401526004548216608084015260065490911660a0830152601f8054845181840281018401909552808552929360c08501939092830182828015613b2057602002820191906000526020600020905b815481526020019060010190808311613b0c575b50505050508152602001600360009054906101000a90046001600160a01b03166001600160a01b0316630e7752746040518163ffffffff1660e01b815260040160206040518083038186803b158015613b7857600080fd5b505afa158015613b8c573d6000803e3d6000fd5b505050506040513d6020811015613ba257600080fd5b505181526007546001600160a01b03908116602080840191909152600554821660408085019190915260095460018082016000818152600b865284812080546060808b01919091529301546080808a0191909152918152600e8087528582205460a0808b01919091526002909501825286528481205460c0808a019190915260e0909801528751600f90815588860151601080546001600160a01b0319908116928a169290921790559489015160118054871691891691909117905591880151601280548616918816919091179055870151601380548516918716919091179055908601516014805490931694169390931790559183015180519192613cae92601592909101906141df565b5060e082015160078201556101008201516008820180546001600160a01b039283166001600160a01b031991821617909155610120840151600984018054919093169116179055610140820151600a820155610160820151600b820155610180820151600c808301919091556101a0830151600d808401919091556101c090930151600e90920191909155604080516307f7ec3f60e51b8152600f600482015260248101929092526044820192909252905173__HGateKeeperHelper_____________________9163fefd87e0916064808301926020929190829003018186803b158015613d9b57600080fd5b505af4158015613daf573d6000803e3d6000fd5b505050506040513d6020811015613dc557600080fd5b505160098190556001016000908152600e602090815260409182902054601c54835163e6cb901360e01b815260048101929092526024820152915173__SafeMath______________________________9263e6cb9013926044808301939192829003018186803b158015613e3857600080fd5b505af4158015613e4c573d6000803e3d6000fd5b505050506040513d6020811015613e6257600080fd5b50516009546001016000908152600e602052604090205550565b604080516001600160a01b038416602482015260448082018490528251808303909101815260649091019091526020810180516001600160e01b031663a9059cbb60e01b179052613ece908490613fcd565b505050565b604080516001600160a01b0385811660248301528416604482015260648082018490528251808303909101815260849091019091526020810180516001600160e01b03166323b872dd60e01b1790526112d5908590613fcd565b6001600160a01b038116613f725760405162461bcd60e51b81526004018080602001828103825260268152602001806142456026913960400191505060405180910390fd5b600080546040516001600160a01b03808516939216917f8be0079c531659141344cd1fd0a4f28419497f9722a3daafe3b4186f6b6457e091a3600080546001600160a01b0319166001600160a01b0392909216919091179055565b613fdf826001600160a01b0316614185565b614030576040805162461bcd60e51b815260206004820152601f60248201527f5361666545524332303a2063616c6c20746f206e6f6e2d636f6e747261637400604482015290519081900360640190fd5b60006060836001600160a01b0316836040518082805190602001908083835b6020831061406e5780518252601f19909201916020918201910161404f565b6001836020036101000a0380198251168184511680821785525050505050509050019150506000604051808303816000865af19150503d80600081146140d0576040519150601f19603f3d011682016040523d82523d6000602084013e6140d5565b606091505b50915091508161412c576040805162461bcd60e51b815260206004820181905260248201527f5361666545524332303a206c6f772d6c6576656c2063616c6c206661696c6564604482015290519081900360640190fd5b8051156112d55780806020019051602081101561414857600080fd5b50516112d55760405162461bcd60e51b815260040180806020018281038252602a81526020018061428b602a913960400191505060405180910390fd5b6000813f7fc5d2460186f7233c927e7db2dcc703c0e500b653ca82273b7bfad8045d85a47081158015906141b95750808214155b949350505050565b5080546000825590600052602060002090810190611f44919061422a565b82805482825590600052602060002090810192821561421a579160200282015b8281111561421a5782518255916020019190600101906141ff565b5061422692915061422a565b5090565b611efa91905b80821115614226576000815560010161423056fe4f776e61626c653a206e6577206f776e657220697320746865207a65726f20616464726573734f776e61626c653a2063616c6c6572206973206e6f7420746865206f776e65725361666545524332303a204552433230206f7065726174696f6e20646964206e6f742073756363656564a265627a7a7230582017f3b5e898d5b495adc8e4f1586ede48f69666ef6ea294b14d476065e934ffcc64736f6c634300050a00324f776e61626c653a206e6577206f776e657220697320746865207a65726f2061646472657373a265627a7a723058208b399bd3c98e5896893a2a2ad40e25ce3b477d58b675ce3efd540d681a03956a64736f6c634300050a0032",
  "bytecodeSha1": "2b0cea3490f5fd3518c565f7dc63bbf22986a16b",
  "compiler": {
    "evm_version": "petersburg",
    "optimizer": {
      "enabled": true,
      "runs": 200
    },
    "version": "0.5.10+commit.5a6ea5b1"
  },
  "contractName": "HGateKeeperFactory",
  "deployedBytecode": "608060405234801561001057600080fd5b50600436106100415760003560e01c80638da5cb5b14610046578063f21808501461006a578063f2fde38b146100b2575b600080fd5b61004e6100da565b604080516001600160a01b039092168252519081900360200190f35b61004e600480360360a081101561008057600080fd5b506001600160a01b038135811691602081013582169160408201358116916060810135821691608090910135166100e9565b6100d8600480360360208110156100c857600080fd5b50356001600160a01b031661026e565b005b6000546001600160a01b031690565b6000808690506000816001600160a01b0316638b56b77a6040518163ffffffff1660e01b815260040160206040518083038186803b15801561012a57600080fd5b505afa15801561013e573d6000803e3d6000fd5b505050506040513d602081101561015457600080fd5b50516040518990899089908990899061016c90610379565b6001600160a01b0396871681529486166020860152928516604080860191909152918516606085015284166080840152921660a082015290519081900360c001906000f0801580156101c2573d6000803e3d6000fd5b506040805163f2fde38b60e01b815233600482015290519192506001600160a01b0383169163f2fde38b9160248082019260009290919082900301818387803b15801561020e57600080fd5b505af1158015610222573d6000803e3d6000fd5b5050604080516001600160a01b038516815290517fe8645a246fcc56b091152135975c80343dee50b8b6279980d099ec206eafbaab9350908190036020019150a1979650505050505050565b6000546001600160a01b031633146102cd576040805162461bcd60e51b815260206004820181905260248201527f4f776e61626c653a2063616c6c6572206973206e6f7420746865206f776e6572604482015290519081900360640190fd5b6102d6816102d9565b50565b6001600160a01b03811661031e5760405162461bcd60e51b81526004018080602001828103825260268152602001806147946026913960400191505060405180910390fd5b600080546040516001600160a01b03808516939216917f8be0079c531659141344cd1fd0a4f28419497f9722a3daafe3b4186f6b6457e091a3600080546001600160a01b0319166001600160a01b0392909216919091179055565b61440d806103878339019056fe608060405234801561001057600080fd5b506040516200440d3803806200440d833981810160405260c081101561003557600080fd5b50805160208201516040808401516060850151608086015160a090960151600080546001600160a01b0319163390811782559451969795969395929492939192918291907f8be0079c531659141344cd1fd0a4f28419497f9722a3daafe3b4186f6b6457e0908290a350600280546001600160a01b039788166001600160a01b03199182161790915560038054968816968216969096179095556001805494871694861694909417909355600480549286169285169290921790915560006009556006805492851692841692909217909155600780549190931691161790556142e980620001246000396000f3fe608060405234801561001057600080fd5b50600436106101e45760003560e01c80638da5cb5b1161010f578063c348f019116100a2578063efa9a9be11610071578063efa9a9be14610529578063f2fde38b14610552578063f51f749614610578578063fe80261b14610580576101e4565b8063c348f019146104b2578063cb7e9057146104d8578063d70d642c146104e0578063e31d48ad14610506576101e4565b8063a15143cd116100de578063a15143cd1461044d578063a915190d1461046a578063b2c95fb414610487578063b81b46fd1461048f576101e4565b80638da5cb5b146104185780639dca0032146104205780639ff6082514610428578063a105444914610430576101e4565b806342ca18fc1161018757806354ddbea81161015657806354ddbea8146103c8578063590f4d4d146103eb5780635a2dfd49146103f35780638714a5a114610410576101e4565b806342ca18fc146102d15780634b393605146102d95780634b832735146102fc578063528de0e81461039f576101e4565b80631a34fe81116101c35780631a34fe81146102585780632e96b119146102725780632fa490fb1461027a578063390f28af146102a0576101e4565b80625919c7146101e9578063075461721461020e5780631652e9fc14610232575b600080fd5b61020c600480360360408110156101ff57600080fd5b50803590602001356105b6565b005b61021661087f565b604080516001600160a01b039092168252519081900360200190f35b61020c6004803603602081101561024857600080fd5b50356001600160a01b031661088e565b61026061092f565b60408051918252519081900360200190f35b61020c610935565b61020c6004803603602081101561029057600080fd5b50356001600160a01b031661093f565b6102bd600480360360208110156102b657600080fd5b50356109f5565b604080519115158252519081900360200190f35b610216610a3f565b61020c600480360360408110156102ef57600080fd5b5080359060200135610a4e565b61020c6004803603602081101561031257600080fd5b81019060208101813564010000000081111561032d57600080fd5b82018360208201111561033f57600080fd5b8035906020019184602083028401116401000000008311171561036157600080fd5b9190808060200260200160405190810160405280939291908181526020018383602002808284376000920191909152509295506112db945050505050565b61020c600480360360608110156103b557600080fd5b50803590602081013590604001356114eb565b61020c600480360360408110156103de57600080fd5b5080359060200135611a72565b610216611e3b565b61020c6004803603602081101561040957600080fd5b5035611e4a565b610216611ede565b610216611eed565b610216611efd565b610216611f0c565b6102606004803603602081101561044657600080fd5b5035611f1b565b61020c6004803603602081101561046357600080fd5b5035611f39565b6102bd6004803603602081101561048057600080fd5b5035611f47565b610260611f5c565b61020c600480360360408110156104a557600080fd5b5080359060200135611f62565b61020c600480360360208110156104c857600080fd5b50356001600160a01b0316612465565b610216612500565b61020c600480360360208110156104f657600080fd5b50356001600160a01b031661250f565b61020c6004803603604081101561051c57600080fd5b5080359060200135612609565b61020c6004803603606081101561053f57600080fd5b5080359060208101359060400135612e5b565b61020c6004803603602081101561056857600080fd5b50356001600160a01b0316613781565b6102166137d7565b61059d6004803603602081101561059657600080fd5b50356137e6565b6040805192835260208301919091528051918290030190f35b8115806105c757506105c7826109f5565b61060c576040805162461bcd60e51b81526020600482015260116024820152706e6f7420737570706f727420726174696f60781b604482015290519081900360640190fd5b6106146137ff565b60065460095460408051630758e6fd60e51b815230600482015260029283016024820152604481018690526064810192909252608482018490523360a4830152516001600160a01b039092169163eb1cdfa09160c48082019260009290919082900301818387803b15801561068857600080fd5b505af115801561069c573d6000803e3d6000fd5b50505050816000141561071957600754604080516340c10f1960e01b81523360048201526024810184905290516001600160a01b03909216916340c10f199160448082019260009290919082900301818387803b1580156106fc57600080fd5b505af1158015610710573d6000803e3d6000fd5b5050505061079f565b60065460408051636ccf078560e11b81523060048201526000602482018190526044820186905260036064830152608482018590523360a483015291516001600160a01b039093169263d99e0f0a9260c48084019391929182900301818387803b15801561078657600080fd5b505af115801561079a573d6000803e3d6000fd5b505050505b6008546001600160a01b03161561082f5760085460095460408051633474fd3160e11b8152336004820152602481018590526044810186905260029092016064830152516001600160a01b03909216916368e9fa629160848082019260009290919082900301818387803b15801561081657600080fd5b505af115801561082a573d6000803e3d6000fd5b505050505b600954604080513381526020810184905280820185905260029092016060830152517f1b0e9fc7c62cc643508b935f98c3cb260d5f9f602d71240005765d45bb6a051b9181900360800190a15050565b6008546001600160a01b031681565b6000546001600160a01b031633146108db576040805162461bcd60e51b8152602060048201819052602482015260008051602061426b833981519152604482015290519081900360640190fd5b600880546001600160a01b0383166001600160a01b0319909116811790915560408051918252517fcec52196e972044edde8689a1b608e459c5946b7f3e5c8cd3d6d8e126d422e1c9181900360200190a150565b600a5481565b61093d6137ff565b565b6000546001600160a01b0316331461098c576040805162461bcd60e51b8152602060048201819052602482015260008051602061426b833981519152604482015290519081900360640190fd5b600754604080516336686d7160e21b81526001600160a01b0384811660048301529151919092169163d9a1b5c491602480830192600092919082900301818387803b1580156109da57600080fd5b505af11580156109ee573d6000803e3d6000fd5b5050505050565b6000805b601f54811015610a345782601f8281548110610a1157fe5b90600052602060002001541415610a2c576001915050610a3a565b6001016109f9565b50600090505b919050565b6006546001600160a01b031681565b801580610a5f5750610a5f816109f5565b610aa4576040805162461bcd60e51b81526020600482015260116024820152706e6f7420737570706f727420726174696f60781b604482015290519081900360640190fd5b610aac6137ff565b60065460095460408051630758e6fd60e51b8152306004820152600290920160248301526044820184905260016064830152608482018590523360a4830152516001600160a01b039092169163eb1cdfa09160c48082019260009290919082900301818387803b158015610b1f57600080fd5b505af1158015610b33573d6000803e3d6000fd5b505060015460025460408051638b6ea7bb60e01b81526001600160a01b039283166004820152905160009550919092169250638b6ea7bb91602480820192602092909190829003018186803b158015610b8b57600080fd5b505afa158015610b9f573d6000803e3d6000fd5b505050506040513d6020811015610bb557600080fd5b505160408051630d33843160e21b815290516001600160a01b03909216916334ce10c491600480820192602092909190829003018186803b158015610bf957600080fd5b505afa158015610c0d573d6000803e3d6000fd5b505050506040513d6020811015610c2357600080fd5b50516040805163682e3c6d60e11b81526004810186905260248101839052905191925060009173__$453ca7436f2e4c673c26da82379bd674f3$__9163d05c78da916044808301926020929190829003018186803b158015610c8457600080fd5b505af4158015610c98573d6000803e3d6000fd5b505050506040513d6020811015610cae57600080fd5b505160408051632d64c7df60e21b81526004810192909252670de0b6b3a764000060248301525173__$453ca7436f2e4c673c26da82379bd674f3$__9163b5931f7c916044808301926020929190829003018186803b158015610d1057600080fd5b505af4158015610d24573d6000803e3d6000fd5b505050506040513d6020811015610d3a57600080fd5b50516008549091506001600160a01b031615610dcf5760085460095460408051636ac4b8c160e11b8152336004820152602481018890526044810187905260029092016064830152516001600160a01b039092169163d58971829160848082019260009290919082900301818387803b158015610db657600080fd5b505af1158015610dca573d6000803e3d6000fd5b505050505b600360009054906101000a90046001600160a01b03166001600160a01b0316636d6ca17e6040518163ffffffff1660e01b815260040160206040518083038186803b158015610e1d57600080fd5b505afa158015610e31573d6000803e3d6000fd5b505050506040513d6020811015610e4757600080fd5b505115801590610ecf5750600354604080516346cc0e0d60e01b815290516000926001600160a01b0316916346cc0e0d916004808301926020929190829003018186803b158015610e9757600080fd5b505afa158015610eab573d6000803e3d6000fd5b505050506040513d6020811015610ec157600080fd5b50516001600160a01b031614155b1561126457600354604080516336b650bf60e11b8152905160009273__$453ca7436f2e4c673c26da82379bd674f3$__9263d05c78da9286926001600160a01b031691636d6ca17e916004808301926020929190829003018186803b158015610f3757600080fd5b505afa158015610f4b573d6000803e3d6000fd5b505050506040513d6020811015610f6157600080fd5b5051604080516001600160e01b031960e086901b16815260048101939093526024830191909152516044808301926020929190829003018186803b158015610fa857600080fd5b505af4158015610fbc573d6000803e3d6000fd5b505050506040513d6020811015610fd257600080fd5b50516003546040805163039dd49d60e21b8152905173__$453ca7436f2e4c673c26da82379bd674f3$__9363b5931f7c9390926001600160a01b0390911691630e77527491600480820192602092909190829003018186803b15801561103757600080fd5b505afa15801561104b573d6000803e3d6000fd5b505050506040513d602081101561106157600080fd5b5051604080516001600160e01b031960e086901b16815260048101939093526024830191909152516044808301926020929190829003018186803b1580156110a857600080fd5b505af41580156110bc573d6000803e3d6000fd5b505050506040513d60208110156110d257600080fd5b5051604080516314527a3d60e31b81526004810185905260248101839052905191925060009173__$453ca7436f2e4c673c26da82379bd674f3$__9163a293d1e8916044808301926020929190829003018186803b15801561113357600080fd5b505af4158015611147573d6000803e3d6000fd5b505050506040513d602081101561115d57600080fd5b505160025490915061117f906001600160a01b0316338363ffffffff613e7c16565b600354604080516346cc0e0d60e01b8152905161120a926001600160a01b0316916346cc0e0d916004808301926020929190829003018186803b1580156111c557600080fd5b505afa1580156111d9573d6000803e3d6000fd5b505050506040513d60208110156111ef57600080fd5b50516002546001600160a01b0316908463ffffffff613e7c16565b60095460408051338152602081018490528082018590526002909201606083015260808201879052517f6d0ffe801f13d86aed06f92a30cf1d79fed5a0f890c8ce862a4ca04ea0d799129181900360a00190a150506112d5565b600254611281906001600160a01b0316338363ffffffff613e7c16565b60095460408051338152602081018490526000818301526002909201606083015260808201859052517f6d0ffe801f13d86aed06f92a30cf1d79fed5a0f890c8ce862a4ca04ea0d799129181900360a00190a15b50505050565b6000546001600160a01b03163314611328576040805162461bcd60e51b8152602060048201819052602482015260008051602061426b833981519152604482015290519081900360640190fd5b60005b601f5481101561137157601e6000601f838154811061134657fe5b600091825260208083209091015483528201929092526040019020805460ff1916905560010161132b565b5061137e601f60006141c1565b60005b81518110156114715780156114005781600182038151811061139f57fe5b60200260200101518282815181106113b357fe5b602002602001015111611400576040805162461bcd60e51b815260206004820152601060248201526f1cda1bdd5b1908189948185cd8d95b9960821b604482015290519081900360640190fd5b601f82828151811061140e57fe5b6020908102919091018101518254600181810185556000948552928420015583519091601e9185908590811061144057fe5b6020908102919091018101518252810191909152604001600020805460ff1916911515919091179055600101611381565b507f83fe8649d01435d9da2bb5a1107711cd2b3a3cf482768c13067fb12752c76829601f604051808060200182810382528381815481526020019150805480156114da57602002820191906000526020600020905b8154815260200190600101908083116114c6575b50509250505060405180910390a150565b8215806114fc57506114fc836109f5565b611541576040805162461bcd60e51b81526020600482015260116024820152706e6f7420737570706f727420726174696f60781b604482015290519081900360640190fd5b6115496137ff565b81600954600101101561159a576040805162461bcd60e51b815260206004820152601460248201527311d2ce881c9bdd5b99081b9bdd081cd9585b195960621b604482015290519081900360640190fd5b6006546040805163bacd836160e01b815230600482015260248101859052604481018690526001606482015233608482015290516000926001600160a01b03169163bacd83619160a4808301926020929190829003018186803b15801561160057600080fd5b505afa158015611614573d6000803e3d6000fd5b505050506040513d602081101561162a57600080fd5b5051905080821115611683576040805162461bcd60e51b815260206004820152601e60248201527f474b3a206e6f7420656e6f75676820696e746f6b656e2062616c616e63650000604482015290519081900360640190fd5b60065460408051630758e6fd60e51b8152306004820152602481018690526044810187905260016064820152608481018590523360a482015290516001600160a01b039092169163eb1cdfa09160c48082019260009290919082900301818387803b1580156116f157600080fd5b505af1158015611705573d6000803e3d6000fd5b5050600654604080516368b413e360e11b81523060048201526024810188905260448101899052600160648201529051600094506001600160a01b03909216925063d16827c6916084808301926020929190829003018186803b15801561176b57600080fd5b505afa15801561177f573d6000803e3d6000fd5b505050506040513d602081101561179557600080fd5b50516040805163682e3c6d60e11b81526004810186905260248101839052905191925060009173__$453ca7436f2e4c673c26da82379bd674f3$__9163d05c78da916044808301926020929190829003018186803b1580156117f657600080fd5b505af415801561180a573d6000803e3d6000fd5b505050506040513d602081101561182057600080fd5b505160408051632d64c7df60e21b81526004810192909252670de0b6b3a764000060248301525173__$453ca7436f2e4c673c26da82379bd674f3$__9163b5931f7c916044808301926020929190829003018186803b15801561188257600080fd5b505af4158015611896573d6000803e3d6000fd5b505050506040513d60208110156118ac57600080fd5b50516040805133815260208101879052808201839052606081018890526080810189905290519192507f54e367f0027a2d665eaefc8b79cecf9349820b7f8d08b784e824fdc7d9115eab919081900360a00190a160065460095460408051636ccf078560e11b815230600482015260029283016024820152604481018a90526064810192909252608482018490523360a4830152516001600160a01b039092169163d99e0f0a9160c48082019260009290919082900301818387803b15801561197457600080fd5b505af1158015611988573d6000803e3d6000fd5b50506008546001600160a01b0316159150611a1e90505760085460095460408051630657138560e31b815233600482015260248101859052604481018a905260029092016064830152516001600160a01b03909216916332b89c289160848082019260009290919082900301818387803b158015611a0557600080fd5b505af1158015611a19573d6000803e3d6000fd5b505050505b600954604080513381526020810184905260029092018282015260608201889052517fe7412a484c7e2ef301b676b9bedf378302a45fc1cc3bd997b69c63a859e97ce89181900360800190a1505050505050565b611a7a6137ff565b600082611bb257600754604080516370a0823160e01b8152336004820152905184926001600160a01b0316916370a08231916024808301926020929190829003018186803b158015611acb57600080fd5b505afa158015611adf573d6000803e3d6000fd5b505050506040513d6020811015611af557600080fd5b50511015611b42576040805162461bcd60e51b8152602060048201526015602482015274474b3a6e6f7420656e6f7567682062616c616e636560581b604482015290519081900360640190fd5b6007546040805163079cc67960e41b81523360048201526024810185905290516001600160a01b03909216916379cc67909160448082019260009290919082900301818387803b158015611b9557600080fd5b505af1158015611ba9573d6000803e3d6000fd5b50505050611ccc565b6006546040805163bacd836160e01b815230600482015260006024820152604481018690526003606482015233608482015290516001600160a01b039092169163bacd83619160a480820192602092909190829003018186803b158015611c1857600080fd5b505afa158015611c2c573d6000803e3d6000fd5b505050506040513d6020811015611c4257600080fd5b505160065460408051630758e6fd60e51b81523060048201526000602482018190526044820188905260036064830152608482018790523360a483015291519394506001600160a01b039092169263eb1cdfa09260c480820193929182900301818387803b158015611cb357600080fd5b505af1158015611cc7573d6000803e3d6000fd5b505050505b60065460095460408051636ccf078560e11b815230600482015260029283016024820152604481018790526064810192909252608482018590523360a4830152516001600160a01b039092169163d99e0f0a9160c48082019260009290919082900301818387803b158015611d4057600080fd5b505af1158015611d54573d6000803e3d6000fd5b50506008546001600160a01b0316159150611dea90505760085460095460408051630657138560e31b8152336004820152602481018690526044810187905260029092016064830152516001600160a01b03909216916332b89c289160848082019260009290919082900301818387803b158015611dd157600080fd5b505af1158015611de5573d6000803e3d6000fd5b505050505b600954604080513381526020810185905260029092018282015260608201859052517fe7412a484c7e2ef301b676b9bedf378302a45fc1cc3bd997b69c63a859e97ce89181900360800190a1505050565b6007546001600160a01b031681565b6000546001600160a01b03163314611e97576040805162461bcd60e51b8152602060048201819052602482015260008051602061426b833981519152604482015290519081900360640190fd5b600a805490829055604080518281526020810184905281517fda1ac08e19cf366ae5b5feb717776ca672304e55946e9640989edad1d94900b5929181900390910190a15050565b6004546001600160a01b031681565b6000546001600160a01b03165b90565b6003546001600160a01b031681565b6005546001600160a01b031681565b601f8181548110611f2857fe5b600091825260209091200154905081565b611f44816000612609565b50565b601e6020526000908152604090205460ff1681565b60095481565b8015611fa9576040805162461bcd60e51b81526020600482015260116024820152706e6f7420737570706f727420726174696f60781b604482015290519081900360640190fd5b611fb16137ff565b816009546001011015612002576040805162461bcd60e51b815260206004820152601460248201527311d2ce881c9bdd5b99081b9bdd081cd9585b195960621b604482015290519081900360640190fd5b6006546040805163bacd836160e01b815230600482015260248101859052604481018490526001606482015233608482015290516000926001600160a01b03169163bacd83619160a4808301926020929190829003018186803b15801561206857600080fd5b505afa15801561207c573d6000803e3d6000fd5b505050506040513d602081101561209257600080fd5b50519050806120e8576040805162461bcd60e51b815260206004820152601760248201527f474b3a206e6f20696e20746f6b656e2062616c616e6365000000000000000000604482015290519081900360640190fd5b60065460408051630758e6fd60e51b8152306004820152602481018690526044810185905260016064820152608481018490523360a482015290516001600160a01b039092169163eb1cdfa09160c48082019260009290919082900301818387803b15801561215657600080fd5b505af115801561216a573d6000803e3d6000fd5b5050600654604080516368b413e360e11b81523060048201526024810188905260448101879052600160648201529051600094506001600160a01b03909216925063d16827c6916084808301926020929190829003018186803b1580156121d057600080fd5b505afa1580156121e4573d6000803e3d6000fd5b505050506040513d60208110156121fa57600080fd5b50516040805163682e3c6d60e11b81526004810185905260248101839052905191925060009173__$453ca7436f2e4c673c26da82379bd674f3$__9163d05c78da916044808301926020929190829003018186803b15801561225b57600080fd5b505af415801561226f573d6000803e3d6000fd5b505050506040513d602081101561228557600080fd5b505160408051632d64c7df60e21b81526004810192909252670de0b6b3a764000060248301525173__$453ca7436f2e4c673c26da82379bd674f3$__9163b5931f7c916044808301926020929190829003018186803b1580156122e757600080fd5b505af41580156122fb573d6000803e3d6000fd5b505050506040513d602081101561231157600080fd5b505190508361238a57600754604080516340c10f1960e01b81523360048201526024810184905290516001600160a01b03909216916340c10f199160448082019260009290919082900301818387803b15801561236d57600080fd5b505af1158015612381573d6000803e3d6000fd5b50505050612410565b60065460408051636ccf078560e11b81523060048201526000602482018190526044820188905260036064830152608482018590523360a483015291516001600160a01b039093169263d99e0f0a9260c48084019391929182900301818387803b1580156123f757600080fd5b505af115801561240b573d6000803e3d6000fd5b505050505b6040805133815260208101859052808201839052606081018790526080810186905290517f54e367f0027a2d665eaefc8b79cecf9349820b7f8d08b784e824fdc7d9115eab9181900360a00190a15050505050565b6000546001600160a01b031633146124b2576040805162461bcd60e51b8152602060048201819052602482015260008051602061426b833981519152604482015290519081900360640190fd5b60075460408051634e7dd42d60e11b81526001600160a01b03848116600483015291519190921691639cfba85a91602480830192600092919082900301818387803b1580156109da57600080fd5b6001546001600160a01b031681565b6000546001600160a01b0316331461255c576040805162461bcd60e51b8152602060048201819052602482015260008051602061426b833981519152604482015290519081900360640190fd5b6001600160a01b0381166125a6576040805162461bcd60e51b815260206004820152600c60248201526b1a5b9d985b1a59081c1bdbdb60a21b604482015290519081900360640190fd5b600580546001600160a01b038381166001600160a01b0319831681179093556040805191909216808252602082019390935281517f652007bf928e65eb823aa08d80f212e3dda774b35be23c9d5345aee033ca8ba9929181900390910190a15050565b80158061261a575061261a816109f5565b61265f576040805162461bcd60e51b81526020600482015260116024820152706e6f7420737570706f727420726174696f60781b604482015290519081900360640190fd5b6126676137ff565b60025460408051636eb1769f60e11b8152336004820152306024820152905184926001600160a01b03169163dd62ed3e916044808301926020929190829003018186803b1580156126b757600080fd5b505afa1580156126cb573d6000803e3d6000fd5b505050506040513d60208110156126e157600080fd5b5051101561272d576040805162461bcd60e51b81526020600482015260146024820152736e6f7420656e6f75676820616c6c6f77616e636560601b604482015290519081900360640190fd5b600254604080516370a0823160e01b815230600482015290516000926001600160a01b0316916370a08231916024808301926020929190829003018186803b15801561277857600080fd5b505afa15801561278c573d6000803e3d6000fd5b505050506040513d60208110156127a257600080fd5b50516002549091506127c5906001600160a01b031633308663ffffffff613ed316565b600254604080516370a0823160e01b815230600482015290516000926001600160a01b0316916370a08231916024808301926020929190829003018186803b15801561281057600080fd5b505afa158015612824573d6000803e3d6000fd5b505050506040513d602081101561283a57600080fd5b5051604080516314527a3d60e31b81526004810183905260248101859052905191925073__$453ca7436f2e4c673c26da82379bd674f3$__9163a293d1e891604480820192602092909190829003018186803b15801561289957600080fd5b505af41580156128ad573d6000803e3d6000fd5b505050506040513d60208110156128c357600080fd5b505160015460025460408051638b6ea7bb60e01b81526001600160a01b03928316600482015290519397506000939190921691638b6ea7bb916024808301926020929190829003018186803b15801561291b57600080fd5b505afa15801561292f573d6000803e3d6000fd5b505050506040513d602081101561294557600080fd5b505160408051630d33843160e21b815290516001600160a01b03909216916334ce10c491600480820192602092909190829003018186803b15801561298957600080fd5b505afa15801561299d573d6000803e3d6000fd5b505050506040513d60208110156129b357600080fd5b50519050670de0b6b3a7640000811115612a08576040805162461bcd60e51b8152602060048201526011602482015270646563696d616c20746f6f206c6172676560781b604482015290519081900360640190fd5b60008573__$453ca7436f2e4c673c26da82379bd674f3$__63d05c78da9091670de0b6b3a76400006040518363ffffffff1660e01b8152600401808381526020018281526020019250505060206040518083038186803b158015612a6b57600080fd5b505af4158015612a7f573d6000803e3d6000fd5b505050506040513d6020811015612a9557600080fd5b505160408051632d64c7df60e21b81526004810192909252602482018490525173__$453ca7436f2e4c673c26da82379bd674f3$__9163b5931f7c916044808301926020929190829003018186803b158015612af057600080fd5b505af4158015612b04573d6000803e3d6000fd5b505050506040513d6020811015612b1a57600080fd5b5051600a5490915015612ce357600a54811115612b71576040805162461bcd60e51b815260206004820152601060248201526f1d1bdbc81b185c99d948185b5bdd5b9d60821b604482015290519081900360640190fd5b600a546006546009546040805163bacd836160e01b8152306004820152600290920160248301526044820189905260016064830152336084830152516001600160a01b039092169163bacd83619160a480820192602092909190829003018186803b158015612bdf57600080fd5b505afa158015612bf3573d6000803e3d6000fd5b505050506040513d6020811015612c0957600080fd5b50516040805163e6cb901360e01b81526004810192909252602482018490525173__$453ca7436f2e4c673c26da82379bd674f3$__9163e6cb9013916044808301926020929190829003018186803b158015612c6457600080fd5b505af4158015612c78573d6000803e3d6000fd5b505050506040513d6020811015612c8e57600080fd5b50511115612ce3576040805162461bcd60e51b815260206004820152601960248201527f506c656173652075736520616e6f746865722077616c6c657400000000000000604482015290519081900360640190fd5b60065460095460408051636ccf078560e11b8152306004820152600290920160248301526044820188905260016064830152608482018490523360a4830152516001600160a01b039092169163d99e0f0a9160c48082019260009290919082900301818387803b158015612d5657600080fd5b505af1158015612d6a573d6000803e3d6000fd5b50506008546001600160a01b0316159150612e0090505760085460095460408051630f808a5560e11b8152336004820152602481018590526044810189905260029092016064830152516001600160a01b0390921691631f0114aa9160848082019260009290919082900301818387803b158015612de757600080fd5b505af1158015612dfb573d6000803e3d6000fd5b505050505b60095460408051338152602081018990528082018490526002909201606083015260808201879052517f2d2443dfa56bbd3edc124f14cc70910210af27e37180113f9c9aa729e31b26a39181900360a00190a1505050505050565b811580612e6c5750612e6c826109f5565b612eb1576040805162461bcd60e51b81526020600482015260116024820152706e6f7420737570706f727420726174696f60781b604482015290519081900360640190fd5b612eb96137ff565b826009546001011015612f08576040805162461bcd60e51b815260206004820152601260248201527111d2ce881c195c9a5bd9081b9bdd08195b9960721b604482015290519081900360640190fd5b60015460025460408051638b6ea7bb60e01b81526001600160a01b03928316600482015290516000939290921691638b6ea7bb91602480820192602092909190829003018186803b158015612f5c57600080fd5b505afa158015612f70573d6000803e3d6000fd5b505050506040513d6020811015612f8657600080fd5b505160408051630d33843160e21b815290516001600160a01b03909216916334ce10c491600480820192602092909190829003018186803b158015612fca57600080fd5b505afa158015612fde573d6000803e3d6000fd5b505050506040513d6020811015612ff457600080fd5b5051600654604080516368b413e360e11b815230600482015260248101889052604481018790526002606482015290519293506000926001600160a01b039092169163d16827c691608480820192602092909190829003018186803b15801561305c57600080fd5b505afa158015613070573d6000803e3d6000fd5b505050506040513d602081101561308657600080fd5b50516040805163682e3c6d60e11b81526004810186905260248101839052905191925060009173__$453ca7436f2e4c673c26da82379bd674f3$__9163d05c78da916044808301926020929190829003018186803b1580156130e757600080fd5b505af41580156130fb573d6000803e3d6000fd5b505050506040513d602081101561311157600080fd5b50516040805163682e3c6d60e11b81526004810192909252602482018590525173__$453ca7436f2e4c673c26da82379bd674f3$__9163d05c78da916044808301926020929190829003018186803b15801561316c57600080fd5b505af4158015613180573d6000803e3d6000fd5b505050506040513d602081101561319657600080fd5b505160408051632d64c7df60e21b815260048101929092526ec097ce7bc90715b34b9f100000000060248301525173__$453ca7436f2e4c673c26da82379bd674f3$__9163b5931f7c916044808301926020929190829003018186803b1580156131ff57600080fd5b505af4158015613213573d6000803e3d6000fd5b505050506040513d602081101561322957600080fd5b505160065460408051630758e6fd60e51b8152306004820152602481018a90526044810189905260026064820152608481018890523360a482015290519293506001600160a01b039091169163eb1cdfa09160c48082019260009290919082900301818387803b15801561329c57600080fd5b505af11580156132b0573d6000803e3d6000fd5b50505050600360009054906101000a90046001600160a01b03166001600160a01b03166370f9e52f6040518163ffffffff1660e01b815260040160206040518083038186803b15801561330257600080fd5b505afa158015613316573d6000803e3d6000fd5b505050506040513d602081101561332c57600080fd5b5051158015906133b45750600354604080516346cc0e0d60e01b815290516000926001600160a01b0316916346cc0e0d916004808301926020929190829003018186803b15801561337c57600080fd5b505afa158015613390573d6000803e3d6000fd5b505050506040513d60208110156133a657600080fd5b50516001600160a01b031614155b1561370657600354604080516370f9e52f60e01b8152905160009273__$453ca7436f2e4c673c26da82379bd674f3$__9263d05c78da9286926001600160a01b0316916370f9e52f916004808301926020929190829003018186803b15801561341c57600080fd5b505afa158015613430573d6000803e3d6000fd5b505050506040513d602081101561344657600080fd5b5051604080516001600160e01b031960e086901b16815260048101939093526024830191909152516044808301926020929190829003018186803b15801561348d57600080fd5b505af41580156134a1573d6000803e3d6000fd5b505050506040513d60208110156134b757600080fd5b50516003546040805163039dd49d60e21b8152905173__$453ca7436f2e4c673c26da82379bd674f3$__9363b5931f7c9390926001600160a01b0390911691630e77527491600480820192602092909190829003018186803b15801561351c57600080fd5b505afa158015613530573d6000803e3d6000fd5b505050506040513d602081101561354657600080fd5b5051604080516001600160e01b031960e086901b16815260048101939093526024830191909152516044808301926020929190829003018186803b15801561358d57600080fd5b505af41580156135a1573d6000803e3d6000fd5b505050506040513d60208110156135b757600080fd5b5051604080516314527a3d60e31b81526004810185905260248101839052905191925060009173__$453ca7436f2e4c673c26da82379bd674f3$__9163a293d1e8916044808301926020929190829003018186803b15801561361857600080fd5b505af415801561362c573d6000803e3d6000fd5b505050506040513d602081101561364257600080fd5b5051600254909150613664906001600160a01b0316338363ffffffff613e7c16565b600354604080516346cc0e0d60e01b815290516136aa926001600160a01b0316916346cc0e0d916004808301926020929190829003018186803b1580156111c557600080fd5b604080513381526020810188905280820183905260608101849052608081018a905260a0810189905290517f4c415edfb62d967e09c127dd1c6e95256b964eb6a9411f52f1c272eab216d8b99181900360c00190a15050613779565b600254613723906001600160a01b0316338363ffffffff613e7c16565b6040805133815260208101869052808201839052600060608201526080810188905260a0810187905290517f4c415edfb62d967e09c127dd1c6e95256b964eb6a9411f52f1c272eab216d8b99181900360c00190a15b505050505050565b6000546001600160a01b031633146137ce576040805162461bcd60e51b8152602060048201819052602482015260008051602061426b833981519152604482015290519081900360640190fd5b611f4481613f2d565b6002546001600160a01b031681565b600b602052600090815260409020805460019091015482565b6004805460408051632e96b11960e01b815290516001600160a01b0390921692632e96b1199282820192602092908290030181600087803b15801561384357600080fd5b505af1158015613857573d6000803e3d6000fd5b505050506040513d602081101561386d57600080fd5b5050600480546040805163a32bf59760e01b815290516000936001600160a01b039093169263a32bf5979280820192602092909182900301818787803b1580156138b657600080fd5b505af11580156138ca573d6000803e3d6000fd5b505050506040513d60208110156138e057600080fd5b50516000818152600b60205260409020549091506139f25760015460025460408051638b6ea7bb60e01b81526001600160a01b03928316600482015290519190921691638b6ea7bb916024808301926020929190829003018186803b15801561394857600080fd5b505afa15801561395c573d6000803e3d6000fd5b505050506040513d602081101561397257600080fd5b50516040805163712d52fd60e11b815290516001600160a01b039092169163e25aa5fa91600480820192602092909190829003018186803b1580156139b657600080fd5b505afa1580156139ca573d6000803e3d6000fd5b505050506040513d60208110156139e057600080fd5b50516000828152600b60205260409020555b600460009054906101000a90046001600160a01b03166001600160a01b031663a3089e056009546001016040518263ffffffff1660e01b815260040180828152602001915050602060405180830381600087803b158015613a5257600080fd5b505af1158015613a66573d6000803e3d6000fd5b505050506040513d6020811015613a7c57600080fd5b505115611f4457604080516101e08101825260095460019081018252546001600160a01b03908116602080840191909152600254821683850152600854821660608401526004548216608084015260065490911660a0830152601f8054845181840281018401909552808552929360c08501939092830182828015613b2057602002820191906000526020600020905b815481526020019060010190808311613b0c575b50505050508152602001600360009054906101000a90046001600160a01b03166001600160a01b0316630e7752746040518163ffffffff1660e01b815260040160206040518083038186803b158015613b7857600080fd5b505afa158015613b8c573d6000803e3d6000fd5b505050506040513d6020811015613ba257600080fd5b505181526007546001600160a01b03908116602080840191909152600554821660408085019190915260095460018082016000818152600b865284812080546060808b01919091529301546080808a0191909152918152600e8087528582205460a0808b01919091526002909501825286528481205460c0808a019190915260e0909801528751600f90815588860151601080546001600160a01b0319908116928a169290921790559489015160118054871691891691909117905591880151601280548616918816919091179055870151601380548516918716919091179055908601516014805490931694169390931790559183015180519192613cae92601592909101906141df565b5060e082015160078201556101008201516008820180546001600160a01b039283166001600160a01b031991821617909155610120840151600984018054919093169116179055610140820151600a820155610160820151600b820155610180820151600c808301919091556101a0830151600d808401919091556101c090930151600e90920191909155604080516307f7ec3f60e51b8152600f600482015260248101929092526044820192909252905173__$7840a310f09a32fa845deac7d5678f406e$__9163fefd87e0916064808301926020929190829003018186803b158015613d9b57600080fd5b505af4158015613daf573d6000803e3d6000fd5b505050506040513d6020811015613dc557600080fd5b505160098190556001016000908152600e602090815260409182902054601c54835163e6cb901360e01b815260048101929092526024820152915173__$453ca7436f2e4c673c26da82379bd674f3$__9263e6cb9013926044808301939192829003018186803b158015613e3857600080fd5b505af4158015613e4c573d6000803e3d6000fd5b505050506040513d6020811015613e6257600080fd5b50516009546001016000908152600e602052604090205550565b604080516001600160a01b038416602482015260448082018490528251808303909101815260649091019091526020810180516001600160e01b031663a9059cbb60e01b179052613ece908490613fcd565b505050565b604080516001600160a01b0385811660248301528416604482015260648082018490528251808303909101815260849091019091526020810180516001600160e01b03166323b872dd60e01b1790526112d5908590613fcd565b6001600160a01b038116613f725760405162461bcd60e51b81526004018080602001828103825260268152602001806142456026913960400191505060405180910390fd5b600080546040516001600160a01b03808516939216917f8be0079c531659141344cd1fd0a4f28419497f9722a3daafe3b4186f6b6457e091a3600080546001600160a01b0319166001600160a01b0392909216919091179055565b613fdf826001600160a01b0316614185565b614030576040805162461bcd60e51b815260206004820152601f60248201527f5361666545524332303a2063616c6c20746f206e6f6e2d636f6e747261637400604482015290519081900360640190fd5b60006060836001600160a01b0316836040518082805190602001908083835b6020831061406e5780518252601f19909201916020918201910161404f565b6001836020036101000a0380198251168184511680821785525050505050509050019150506000604051808303816000865af19150503d80600081146140d0576040519150601f19603f3d011682016040523d82523d6000602084013e6140d5565b606091505b50915091508161412c576040805162461bcd60e51b815260206004820181905260248201527f5361666545524332303a206c6f772d6c6576656c2063616c6c206661696c6564604482015290519081900360640190fd5b8051156112d55780806020019051602081101561414857600080fd5b50516112d55760405162461bcd60e51b815260040180806020018281038252602a81526020018061428b602a913960400191505060405180910390fd5b6000813f7fc5d2460186f7233c927e7db2dcc703c0e500b653ca82273b7bfad8045d85a47081158015906141b95750808214155b949350505050565b5080546000825590600052602060002090810190611f44919061422a565b82805482825590600052602060002090810192821561421a579160200282015b8281111561421a5782518255916020019190600101906141ff565b5061422692915061422a565b5090565b611efa91905b80821115614226576000815560010161423056fe4f776e61626c653a206e6577206f776e657220697320746865207a65726f20616464726573734f776e61626c653a2063616c6c6572206973206e6f7420746865206f776e65725361666545524332303a204552433230206f7065726174696f6e20646964206e6f742073756363656564a265627a7a7230582017f3b5e898d5b495adc8e4f1586ede48f69666ef6ea294b14d476065e934ffcc64736f6c634300050a00324f776e61626c653a206e6577206f776e657220697320746865207a65726f2061646472657373a265627a7a723058208b399bd3c98e5896893a2a2ad40e25ce3b477d58b675ce3efd540d681a03956a64736f6c634300050a0032",
  "language": "Solidity",
  "natspec": {
    "methods": {
      "owner()": {
        "details": "Returns the address of the current owner."
      },
      "transferOwnership(address)": {
        "details": "Transfers ownership of the contract to a new account (`newOwner`). Can only be called by the current owner."
      }
    }
  },
  "opcodes": "PUSH1 0x80 PUSH1 0x40 MSTORE CALLVALUE DUP1 ISZERO PUSH2 0x10 JUMPI PUSH1 0x0 DUP1 REVERT JUMPDEST POP PUSH1 0x4 CALLDATASIZE LT PUSH2 0x41 JUMPI PUSH1 0x0 CALLDATALOAD PUSH1 0xE0 SHR DUP1 PUSH4 0x8DA5CB5B EQ PUSH2 0x46 JUMPI DUP1 PUSH4 0xF2180850 EQ PUSH2 0x6A JUMPI DUP1 PUSH4 0xF2FDE38B EQ PUSH2 0xB2 JUMPI JUMPDEST PUSH1 0x0 DUP1 REVERT JUMPDEST PUSH2 0x4E PUSH2 0xDA JUMP JUMPDEST PUSH1 0x40 DUP1 MLOAD PUSH1 0x1 PUSH1 0x1 PUSH1 0xA0 SHL SUB SWAP1 SWAP3 AND DUP3 MSTORE MLOAD SWAP1 DUP2 SWAP1 SUB PUSH1 0x20 ADD SWAP1 RETURN JUMPDEST PUSH2 0x4E PUSH1 0x4 DUP1 CALLDATASIZE SUB PUSH1 0xA0 DUP2 LT ISZERO PUSH2 0x80 JUMPI PUSH1 0x0 DUP1 REVERT JUMPDEST POP PUSH1 0x1 PUSH1 0x1 PUSH1 0xA0 SHL SUB DUP2 CALLDATALOAD DUP2 AND SWAP2 PUSH1 0x20 DUP2 ADD CALLDATALOAD DUP3 AND SWAP2 PUSH1 0x40 DUP3 ADD CALLDATALOAD DUP2 AND SWAP2 PUSH1 0x60 DUP2 ADD CALLDATALOAD DUP3 AND SWAP2 PUSH1 0x80 SWAP1 SWAP2 ADD CALLDATALOAD AND PUSH2 0xE9 JUMP JUMPDEST PUSH2 0xD8 PUSH1 0x4 DUP1 CALLDATASIZE SUB PUSH1 0x20 DUP2 LT ISZERO PUSH2 0xC8 JUMPI PUSH1 0x0 DUP1 REVERT JUMPDEST POP CALLDATALOAD PUSH1 0x1 PUSH1 0x1 PUSH1 0xA0 SHL SUB AND PUSH2 0x26E JUMP JUMPDEST STOP JUMPDEST PUSH1 0x0 SLOAD PUSH1 0x1 PUSH1 0x1 PUSH1 0xA0 SHL SUB AND SWAP1 JUMP JUMPDEST PUSH1 0x0 DUP1 DUP7 SWAP1 POP PUSH1 0x0 DUP2 PUSH1 0x1 PUSH1 0x1 PUSH1 0xA0 SHL SUB AND PUSH4 0x8B56B77A PUSH1 0x40 MLOAD DUP2 PUSH4 0xFFFFFFFF AND PUSH1 0xE0 SHL DUP2 MSTORE PUSH1 0x4 ADD PUSH1 0x20 PUSH1 0x40 MLOAD DUP1 DUP4 SUB DUP2 DUP7 DUP1 EXTCODESIZE ISZERO DUP1 ISZERO PUSH2 0x12A JUMPI PUSH1 0x0 DUP1 REVERT JUMPDEST POP GAS STATICCALL ISZERO DUP1 ISZERO PUSH2 0x13E JUMPI RETURNDATASIZE PUSH1 0x0 DUP1 RETURNDATACOPY RETURNDATASIZE PUSH1 0x0 REVERT JUMPDEST POP POP POP POP PUSH1 0x40 MLOAD RETURNDATASIZE PUSH1 0x20 DUP2 LT ISZERO PUSH2 0x154 JUMPI PUSH1 0x0 DUP1 REVERT JUMPDEST POP MLOAD PUSH1 0x40 MLOAD DUP10 SWAP1 DUP10 SWAP1 DUP10 SWAP1 DUP10 SWAP1 DUP10 SWAP1 PUSH2 0x16C SWAP1 PUSH2 0x379 JUMP JUMPDEST PUSH1 0x1 PUSH1 0x1 PUSH1 0xA0 SHL SUB SWAP7 DUP8 AND DUP2 MSTORE SWAP5 DUP7 AND PUSH1 0x20 DUP7 ADD MSTORE SWAP3 DUP6 AND PUSH1 0x40 DUP1 DUP7 ADD SWAP2 SWAP1 SWAP2 MSTORE SWAP2 DUP6 AND PUSH1 0x60 DUP6 ADD MSTORE DUP5 AND PUSH1 0x80 DUP5 ADD MSTORE SWAP3 AND PUSH1 0xA0 DUP3 ADD MSTORE SWAP1 MLOAD SWAP1 DUP2 SWAP1 SUB PUSH1 0xC0 ADD SWAP1 PUSH1 0x0 CREATE DUP1 ISZERO DUP1 ISZERO PUSH2 0x1C2 JUMPI RETURNDATASIZE PUSH1 0x0 DUP1 RETURNDATACOPY RETURNDATASIZE PUSH1 0x0 REVERT JUMPDEST POP PUSH1 0x40 DUP1 MLOAD PUSH4 0xF2FDE38B PUSH1 0xE0 SHL DUP2 MSTORE CALLER PUSH1 0x4 DUP3 ADD MSTORE SWAP1 MLOAD SWAP2 SWAP3 POP PUSH1 0x1 PUSH1 0x1 PUSH1 0xA0 SHL SUB DUP4 AND SWAP2 PUSH4 0xF2FDE38B SWAP2 PUSH1 0x24 DUP1 DUP3 ADD SWAP3 PUSH1 0x0 SWAP3 SWAP1 SWAP2 SWAP1 DUP3 SWAP1 SUB ADD DUP2 DUP4 DUP8 DUP1 EXTCODESIZE ISZERO DUP1 ISZERO PUSH2 0x20E JUMPI PUSH1 0x0 DUP1 REVERT JUMPDEST POP GAS CALL ISZERO DUP1 ISZERO PUSH2 0x222 JUMPI RETURNDATASIZE PUSH1 0x0 DUP1 RETURNDATACOPY RETURNDATASIZE PUSH1 0x0 REVERT JUMPDEST POP POP PUSH1 0x40 DUP1 MLOAD PUSH1 0x1 PUSH1 0x1 PUSH1 0xA0 SHL SUB DUP6 AND DUP2 MSTORE SWAP1 MLOAD PUSH32 0xE8645A246FCC56B091152135975C80343DEE50B8B6279980D099EC206EAFBAAB SWAP4 POP SWAP1 DUP2 SWAP1 SUB PUSH1 0x20 ADD SWAP2 POP LOG1 SWAP8 SWAP7 POP POP POP POP POP POP POP JUMP JUMPDEST PUSH1 0x0 SLOAD PUSH1 0x1 PUSH1 0x1 PUSH1 0xA0 SHL SUB AND CALLER EQ PUSH2 0x2CD JUMPI PUSH1 0x40 DUP1 MLOAD PUSH3 0x461BCD PUSH1 0xE5 SHL DUP2 MSTORE PUSH1 0x20 PUSH1 0x4 DUP3 ADD DUP2 SWAP1 MSTORE PUSH1 0x24 DUP3 ADD MSTORE PUSH32 0x4F776E61626C653A2063616C6C6572206973206E6F7420746865206F776E6572 PUSH1 0x44 DUP3 ADD MSTORE SWAP1 MLOAD SWAP1 DUP2 SWAP1 SUB PUSH1 0x64 ADD SWAP1 REVERT JUMPDEST PUSH2 0x2D6 DUP2 PUSH2 0x2D9 JUMP JUMPDEST POP JUMP JUMPDEST PUSH1 0x1 PUSH1 0x1 PUSH1 0xA0 SHL SUB DUP2 AND PUSH2 0x31E JUMPI PUSH1 0x40 MLOAD PUSH3 0x461BCD PUSH1 0xE5 SHL DUP2 MSTORE PUSH1 0x4 ADD DUP1 DUP1 PUSH1 0x20 ADD DUP3 DUP2 SUB DUP3 MSTORE PUSH1 0x26 DUP2 MSTORE PUSH1 0x20 ADD DUP1 PUSH2 0x4794 PUSH1 0x26 SWAP2 CODECOPY PUSH1 0x40 ADD SWAP2 POP POP PUSH1 0x40 MLOAD DUP1 SWAP2 SUB SWAP1 REVERT JUMPDEST PUSH1 0x0 DUP1 SLOAD PUSH1 0x40 MLOAD PUSH1 0x1 PUSH1 0x1 PUSH1 0xA0 SHL SUB DUP1 DUP6 AND SWAP4 SWAP3 AND SWAP2 PUSH32 0x8BE0079C531659141344CD1FD0A4F28419497F9722A3DAAFE3B4186F6B6457E0 SWAP2 LOG3 PUSH1 0x0 DUP1 SLOAD PUSH1 0x1 PUSH1 0x1 PUSH1 0xA0 SHL SUB NOT AND PUSH1 0x1 PUSH1 0x1 PUSH1 0xA0 SHL SUB SWAP3 SWAP1 SWAP3 AND SWAP2 SWAP1 SWAP2 OR SWAP1 SSTORE JUMP JUMPDEST PUSH2 0x440D DUP1 PUSH2 0x387 DUP4 CODECOPY ADD SWAP1 JUMP INVALID PUSH1 0x80 PUSH1 0x40 MSTORE CALLVALUE DUP1 ISZERO PUSH2 0x10 JUMPI PUSH1 0x0 DUP1 REVERT JUMPDEST POP PUSH1 0x40 MLOAD PUSH3 0x440D CODESIZE SUB DUP1 PUSH3 0x440D DUP4 CODECOPY DUP2 DUP2 ADD PUSH1 0x40 MSTORE PUSH1 0xC0 DUP2 LT ISZERO PUSH2 0x35 JUMPI PUSH1 0x0 DUP1 REVERT JUMPDEST POP DUP1 MLOAD PUSH1 0x20 DUP3 ADD MLOAD PUSH1 0x40 DUP1 DUP5 ADD MLOAD PUSH1 0x60 DUP6 ADD MLOAD PUSH1 0x80 DUP7 ADD MLOAD PUSH1 0xA0 SWAP1 SWAP7 ADD MLOAD PUSH1 0x0 DUP1 SLOAD PUSH1 0x1 PUSH1 0x1 PUSH1 0xA0 SHL SUB NOT AND CALLER SWAP1 DUP2 OR DUP3 SSTORE SWAP5 MLOAD SWAP7 SWAP8 SWAP6 SWAP7 SWAP4 SWAP6 SWAP3 SWAP5 SWAP3 SWAP4 SWAP2 SWAP3 SWAP2 DUP3 SWAP2 SWAP1 PUSH32 0x8BE0079C531659141344CD1FD0A4F28419497F9722A3DAAFE3B4186F6B6457E0 SWAP1 DUP3 SWAP1 LOG3 POP PUSH1 0x2 DUP1 SLOAD PUSH1 0x1 PUSH1 0x1 PUSH1 0xA0 SHL SUB SWAP8 DUP9 AND PUSH1 0x1 PUSH1 0x1 PUSH1 0xA0 SHL SUB NOT SWAP2 DUP3 AND OR SWAP1 SWAP2 SSTORE PUSH1 0x3 DUP1 SLOAD SWAP7 DUP9 AND SWAP7 DUP3 AND SWAP7 SWAP1 SWAP7 OR SWAP1 SWAP6 SSTORE PUSH1 0x1 DUP1 SLOAD SWAP5 DUP8 AND SWAP5 DUP7 AND SWAP5 SWAP1 SWAP5 OR SWAP1 SWAP4 SSTORE PUSH1 0x4 DUP1 SLOAD SWAP3 DUP7 AND SWAP3 DUP6 AND SWAP3 SWAP1 SWAP3 OR SWAP1 SWAP2 SSTORE PUSH1 0x0 PUSH1 0x9 SSTORE PUSH1 0x6 DUP1 SLOAD SWAP3 DUP6 AND SWAP3 DUP5 AND SWAP3 SWAP1 SWAP3 OR SWAP1 SWAP2 SSTORE PUSH1 0x7 DUP1 SLOAD SWAP2 SWAP1 SWAP4 AND SWAP2 AND OR SWAP1 SSTORE PUSH2 0x42E9 DUP1 PUSH3 0x124 PUSH1 0x0 CODECOPY PUSH1 0x0 RETURN INVALID PUSH1 0x80 PUSH1 0x40 MSTORE CALLVALUE DUP1 ISZERO PUSH2 0x10 JUMPI PUSH1 0x0 DUP1 REVERT JUMPDEST POP PUSH1 0x4 CALLDATASIZE LT PUSH2 0x1E4 JUMPI PUSH1 0x0 CALLDATALOAD PUSH1 0xE0 SHR DUP1 PUSH4 0x8DA5CB5B GT PUSH2 0x10F JUMPI DUP1 PUSH4 0xC348F019 GT PUSH2 0xA2 JUMPI DUP1 PUSH4 0xEFA9A9BE GT PUSH2 0x71 JUMPI DUP1 PUSH4 0xEFA9A9BE EQ PUSH2 0x529 JUMPI DUP1 PUSH4 0xF2FDE38B EQ PUSH2 0x552 JUMPI DUP1 PUSH4 0xF51F7496 EQ PUSH2 0x578 JUMPI DUP1 PUSH4 0xFE80261B EQ PUSH2 0x580 JUMPI PUSH2 0x1E4 JUMP JUMPDEST DUP1 PUSH4 0xC348F019 EQ PUSH2 0x4B2 JUMPI DUP1 PUSH4 0xCB7E9057 EQ PUSH2 0x4D8 JUMPI DUP1 PUSH4 0xD70D642C EQ PUSH2 0x4E0 JUMPI DUP1 PUSH4 0xE31D48AD EQ PUSH2 0x506 JUMPI PUSH2 0x1E4 JUMP JUMPDEST DUP1 PUSH4 0xA15143CD GT PUSH2 0xDE JUMPI DUP1 PUSH4 0xA15143CD EQ PUSH2 0x44D JUMPI DUP1 PUSH4 0xA915190D EQ PUSH2 0x46A JUMPI DUP1 PUSH4 0xB2C95FB4 EQ PUSH2 0x487 JUMPI DUP1 PUSH4 0xB81B46FD EQ PUSH2 0x48F JUMPI PUSH2 0x1E4 JUMP JUMPDEST DUP1 PUSH4 0x8DA5CB5B EQ PUSH2 0x418 JUMPI DUP1 PUSH4 0x9DCA0032 EQ PUSH2 0x420 JUMPI DUP1 PUSH4 0x9FF60825 EQ PUSH2 0x428 JUMPI DUP1 PUSH4 0xA1054449 EQ PUSH2 0x430 JUMPI PUSH2 0x1E4 JUMP JUMPDEST DUP1 PUSH4 0x42CA18FC GT PUSH2 0x187 JUMPI DUP1 PUSH4 0x54DDBEA8 GT PUSH2 0x156 JUMPI DUP1 PUSH4 0x54DDBEA8 EQ PUSH2 0x3C8 JUMPI DUP1 PUSH4 0x590F4D4D EQ PUSH2 0x3EB JUMPI DUP1 PUSH4 0x5A2DFD49 EQ PUSH2 0x3F3 JUMPI DUP1 PUSH4 0x8714A5A1 EQ PUSH2 0x410 JUMPI PUSH2 0x1E4 JUMP JUMPDEST DUP1 PUSH4 0x42CA18FC EQ PUSH2 0x2D1 JUMPI DUP1 PUSH4 0x4B393605 EQ PUSH2 0x2D9 JUMPI DUP1 PUSH4 0x4B832735 EQ PUSH2 0x2FC JUMPI DUP1 PUSH4 0x528DE0E8 EQ PUSH2 0x39F JUMPI PUSH2 0x1E4 JUMP JUMPDEST DUP1 PUSH4 0x1A34FE81 GT PUSH2 0x1C3 JUMPI DUP1 PUSH4 0x1A34FE81 EQ PUSH2 0x258 JUMPI DUP1 PUSH4 0x2E96B119 EQ PUSH2 0x272 JUMPI DUP1 PUSH4 0x2FA490FB EQ PUSH2 0x27A JUMPI DUP1 PUSH4 0x390F28AF EQ PUSH2 0x2A0 JUMPI PUSH2 0x1E4 JUMP JUMPDEST DUP1 PUSH3 0x5919C7 EQ PUSH2 0x1E9 JUMPI DUP1 PUSH4 0x7546172 EQ PUSH2 0x20E JUMPI DUP1 PUSH4 0x1652E9FC EQ PUSH2 0x232 JUMPI JUMPDEST PUSH1 0x0 DUP1 REVERT JUMPDEST PUSH2 0x20C PUSH1 0x4 DUP1 CALLDATASIZE SUB PUSH1 0x40 DUP2 LT ISZERO PUSH2 0x1FF JUMPI PUSH1 0x0 DUP1 REVERT JUMPDEST POP DUP1 CALLDATALOAD SWAP1 PUSH1 0x20 ADD CALLDATALOAD PUSH2 0x5B6 JUMP JUMPDEST STOP JUMPDEST PUSH2 0x216 PUSH2 0x87F JUMP JUMPDEST PUSH1 0x40 DUP1 MLOAD PUSH1 0x1 PUSH1 0x1 PUSH1 0xA0 SHL SUB SWAP1 SWAP3 AND DUP3 MSTORE MLOAD SWAP1 DUP2 SWAP1 SUB PUSH1 0x20 ADD SWAP1 RETURN JUMPDEST PUSH2 0x20C PUSH1 0x4 DUP1 CALLDATASIZE SUB PUSH1 0x20 DUP2 LT ISZERO PUSH2 0x248 JUMPI PUSH1 0x0 DUP1 REVERT JUMPDEST POP CALLDATALOAD PUSH1 0x1 PUSH1 0x1 PUSH1 0xA0 SHL SUB AND PUSH2 0x88E JUMP JUMPDEST PUSH2 0x260 PUSH2 0x92F JUMP JUMPDEST PUSH1 0x40 DUP1 MLOAD SWAP2 DUP3 MSTORE MLOAD SWAP1 DUP2 SWAP1 SUB PUSH1 0x20 ADD SWAP1 RETURN JUMPDEST PUSH2 0x20C PUSH2 0x935 JUMP JUMPDEST PUSH2 0x20C PUSH1 0x4 DUP1 CALLDATASIZE SUB PUSH1 0x20 DUP2 LT ISZERO PUSH2 0x290 JUMPI PUSH1 0x0 DUP1 REVERT JUMPDEST POP CALLDATALOAD PUSH1 0x1 PUSH1 0x1 PUSH1 0xA0 SHL SUB AND PUSH2 0x93F JUMP JUMPDEST PUSH2 0x2BD PUSH1 0x4 DUP1 CALLDATASIZE SUB PUSH1 0x20 DUP2 LT ISZERO PUSH2 0x2B6 JUMPI PUSH1 0x0 DUP1 REVERT JUMPDEST POP CALLDATALOAD PUSH2 0x9F5 JUMP JUMPDEST PUSH1 0x40 DUP1 MLOAD SWAP2 ISZERO ISZERO DUP3 MSTORE MLOAD SWAP1 DUP2 SWAP1 SUB PUSH1 0x20 ADD SWAP1 RETURN JUMPDEST PUSH2 0x216 PUSH2 0xA3F JUMP JUMPDEST PUSH2 0x20C PUSH1 0x4 DUP1 CALLDATASIZE SUB PUSH1 0x40 DUP2 LT ISZERO PUSH2 0x2EF JUMPI PUSH1 0x0 DUP1 REVERT JUMPDEST POP DUP1 CALLDATALOAD SWAP1 PUSH1 0x20 ADD CALLDATALOAD PUSH2 0xA4E JUMP JUMPDEST PUSH2 0x20C PUSH1 0x4 DUP1 CALLDATASIZE SUB PUSH1 0x20 DUP2 LT ISZERO PUSH2 0x312 JUMPI PUSH1 0x0 DUP1 REVERT JUMPDEST DUP2 ADD SWAP1 PUSH1 0x20 DUP2 ADD DUP2 CALLDATALOAD PUSH5 0x100000000 DUP2 GT ISZERO PUSH2 0x32D JUMPI PUSH1 0x0 DUP1 REVERT JUMPDEST DUP3 ADD DUP4 PUSH1 0x20 DUP3 ADD GT ISZERO PUSH2 0x33F JUMPI PUSH1 0x0 DUP1 REVERT JUMPDEST DUP1 CALLDATALOAD SWAP1 PUSH1 0x20 ADD SWAP2 DUP5 PUSH1 0x20 DUP4 MUL DUP5 ADD GT PUSH5 0x100000000 DUP4 GT OR ISZERO PUSH2 0x361 JUMPI PUSH1 0x0 DUP1 REVERT JUMPDEST SWAP2 SWAP1 DUP1 DUP1 PUSH1 0x20 MUL PUSH1 0x20 ADD PUSH1 0x40 MLOAD SWAP1 DUP2 ADD PUSH1 0x40 MSTORE DUP1 SWAP4 SWAP3 SWAP2 SWAP1 DUP2 DUP2 MSTORE PUSH1 0x20 ADD DUP4 DUP4 PUSH1 0x20 MUL DUP1 DUP3 DUP5 CALLDATACOPY PUSH1 0x0 SWAP3 ADD SWAP2 SWAP1 SWAP2 MSTORE POP SWAP3 SWAP6 POP PUSH2 0x12DB SWAP5 POP POP POP POP POP JUMP JUMPDEST PUSH2 0x20C PUSH1 0x4 DUP1 CALLDATASIZE SUB PUSH1 0x60 DUP2 LT ISZERO PUSH2 0x3B5 JUMPI PUSH1 0x0 DUP1 REVERT JUMPDEST POP DUP1 CALLDATALOAD SWAP1 PUSH1 0x20 DUP2 ADD CALLDATALOAD SWAP1 PUSH1 0x40 ADD CALLDATALOAD PUSH2 0x14EB JUMP JUMPDEST PUSH2 0x20C PUSH1 0x4 DUP1 CALLDATASIZE SUB PUSH1 0x40 DUP2 LT ISZERO PUSH2 0x3DE JUMPI PUSH1 0x0 DUP1 REVERT JUMPDEST POP DUP1 CALLDATALOAD SWAP1 PUSH1 0x20 ADD CALLDATALOAD PUSH2 0x1A72 JUMP JUMPDEST PUSH2 0x216 PUSH2 0x1E3B JUMP JUMPDEST PUSH2 0x20C PUSH1 0x4 DUP1 CALLDATASIZE SUB PUSH1 0x20 DUP2 LT ISZERO PUSH2 0x409 JUMPI PUSH1 0x0 DUP1 REVERT JUMPDEST POP CALLDATALOAD PUSH2 0x1E4A JUMP JUMPDEST PUSH2 0x216 PUSH2 0x1EDE JUMP JUMPDEST PUSH2 0x216 PUSH2 0x1EED JUMP JUMPDEST PUSH2 0x216 PUSH2 0x1EFD JUMP JUMPDEST PUSH2 0x216 PUSH2 0x1F0C JUMP JUMPDEST PUSH2 0x260 PUSH1 0x4 DUP1 CALLDATASIZE SUB PUSH1 0x20 DUP2 LT ISZERO PUSH2 0x446 JUMPI PUSH1 0x0 DUP1 REVERT JUMPDEST POP CALLDATALOAD PUSH2 0x1F1B JUMP JUMPDEST PUSH2 0x20C PUSH1 0x4 DUP1 CALLDATASIZE SUB PUSH1 0x20 DUP2 LT ISZERO PUSH2 0x463 JUMPI PUSH1 0x0 DUP1 REVERT JUMPDEST POP CALLDATALOAD PUSH2 0x1F39 JUMP JUMPDEST PUSH2 0x2BD PUSH1 0x4 DUP1 CALLDATASIZE SUB PUSH1 0x20 DUP2 LT ISZERO PUSH2 0x480 JUMPI PUSH1 0x0 DUP1 REVERT JUMPDEST POP CALLDATALOAD PUSH2 0x1F47 JUMP JUMPDEST PUSH2 0x260 PUSH2 0x1F5C JUMP JUMPDEST PUSH2 0x20C PUSH1 0x4 DUP1 CALLDATASIZE SUB PUSH1 0x40 DUP2 LT ISZERO PUSH2 0x4A5 JUMPI PUSH1 0x0 DUP1 REVERT JUMPDEST POP DUP1 CALLDATALOAD SWAP1 PUSH1 0x20 ADD CALLDATALOAD PUSH2 0x1F62 JUMP JUMPDEST PUSH2 0x20C PUSH1 0x4 DUP1 CALLDATASIZE SUB PUSH1 0x20 DUP2 LT ISZERO PUSH2 0x4C8 JUMPI PUSH1 0x0 DUP1 REVERT JUMPDEST POP CALLDATALOAD PUSH1 0x1 PUSH1 0x1 PUSH1 0xA0 SHL SUB AND PUSH2 0x2465 JUMP JUMPDEST PUSH2 0x216 PUSH2 0x2500 JUMP JUMPDEST PUSH2 0x20C PUSH1 0x4 DUP1 CALLDATASIZE SUB PUSH1 0x20 DUP2 LT ISZERO PUSH2 0x4F6 JUMPI PUSH1 0x0 DUP1 REVERT JUMPDEST POP CALLDATALOAD PUSH1 0x1 PUSH1 0x1 PUSH1 0xA0 SHL SUB AND PUSH2 0x250F JUMP JUMPDEST PUSH2 0x20C PUSH1 0x4 DUP1 CALLDATASIZE SUB PUSH1 0x40 DUP2 LT ISZERO PUSH2 0x51C JUMPI PUSH1 0x0 DUP1 REVERT JUMPDEST POP DUP1 CALLDATALOAD SWAP1 PUSH1 0x20 ADD CALLDATALOAD PUSH2 0x2609 JUMP JUMPDEST PUSH2 0x20C PUSH1 0x4 DUP1 CALLDATASIZE SUB PUSH1 0x60 DUP2 LT ISZERO PUSH2 0x53F JUMPI PUSH1 0x0 DUP1 REVERT JUMPDEST POP DUP1 CALLDATALOAD SWAP1 PUSH1 0x20 DUP2 ADD CALLDATALOAD SWAP1 PUSH1 0x40 ADD CALLDATALOAD PUSH2 0x2E5B JUMP JUMPDEST PUSH2 0x20C PUSH1 0x4 DUP1 CALLDATASIZE SUB PUSH1 0x20 DUP2 LT ISZERO PUSH2 0x568 JUMPI PUSH1 0x0 DUP1 REVERT JUMPDEST POP CALLDATALOAD PUSH1 0x1 PUSH1 0x1 PUSH1 0xA0 SHL SUB AND PUSH2 0x3781 JUMP JUMPDEST PUSH2 0x216 PUSH2 0x37D7 JUMP JUMPDEST PUSH2 0x59D PUSH1 0x4 DUP1 CALLDATASIZE SUB PUSH1 0x20 DUP2 LT ISZERO PUSH2 0x596 JUMPI PUSH1 0x0 DUP1 REVERT JUMPDEST POP CALLDATALOAD PUSH2 0x37E6 JUMP JUMPDEST PUSH1 0x40 DUP1 MLOAD SWAP3 DUP4 MSTORE PUSH1 0x20 DUP4 ADD SWAP2 SWAP1 SWAP2 MSTORE DUP1 MLOAD SWAP2 DUP3 SWAP1 SUB ADD SWAP1 RETURN JUMPDEST DUP2 ISZERO DUP1 PUSH2 0x5C7 JUMPI POP PUSH2 0x5C7 DUP3 PUSH2 0x9F5 JUMP JUMPDEST PUSH2 0x60C JUMPI PUSH1 0x40 DUP1 MLOAD PUSH3 0x461BCD PUSH1 0xE5 SHL DUP2 MSTORE PUSH1 0x20 PUSH1 0x4 DUP3 ADD MSTORE PUSH1 0x11 PUSH1 0x24 DUP3 ADD MSTORE PUSH17 0x6E6F7420737570706F727420726174696F PUSH1 0x78 SHL PUSH1 0x44 DUP3 ADD MSTORE SWAP1 MLOAD SWAP1 DUP2 SWAP1 SUB PUSH1 0x64 ADD SWAP1 REVERT JUMPDEST PUSH2 0x614 PUSH2 0x37FF JUMP JUMPDEST PUSH1 0x6 SLOAD PUSH1 0x9 SLOAD PUSH1 0x40 DUP1 MLOAD PUSH4 0x758E6FD PUSH1 0xE5 SHL DUP2 MSTORE ADDRESS PUSH1 0x4 DUP3 ADD MSTORE PUSH1 0x2 SWAP3 DUP4 ADD PUSH1 0x24 DUP3 ADD MSTORE PUSH1 0x44 DUP2 ADD DUP7 SWAP1 MSTORE PUSH1 0x64 DUP2 ADD SWAP3 SWAP1 SWAP3 MSTORE PUSH1 0x84 DUP3 ADD DUP5 SWAP1 MSTORE CALLER PUSH1 0xA4 DUP4 ADD MSTORE MLOAD PUSH1 0x1 PUSH1 0x1 PUSH1 0xA0 SHL SUB SWAP1 SWAP3 AND SWAP2 PUSH4 0xEB1CDFA0 SWAP2 PUSH1 0xC4 DUP1 DUP3 ADD SWAP3 PUSH1 0x0 SWAP3 SWAP1 SWAP2 SWAP1 DUP3 SWAP1 SUB ADD DUP2 DUP4 DUP8 DUP1 EXTCODESIZE ISZERO DUP1 ISZERO PUSH2 0x688 JUMPI PUSH1 0x0 DUP1 REVERT JUMPDEST POP GAS CALL ISZERO DUP1 ISZERO PUSH2 0x69C JUMPI RETURNDATASIZE PUSH1 0x0 DUP1 RETURNDATACOPY RETURNDATASIZE PUSH1 0x0 REVERT JUMPDEST POP POP POP POP DUP2 PUSH1 0x0 EQ ISZERO PUSH2 0x719 JUMPI PUSH1 0x7 SLOAD PUSH1 0x40 DUP1 MLOAD PUSH4 0x40C10F19 PUSH1 0xE0 SHL DUP2 MSTORE CALLER PUSH1 0x4 DUP3 ADD MSTORE PUSH1 0x24 DUP2 ADD DUP5 SWAP1 MSTORE SWAP1 MLOAD PUSH1 0x1 PUSH1 0x1 PUSH1 0xA0 SHL SUB SWAP1 SWAP3 AND SWAP2 PUSH4 0x40C10F19 SWAP2 PUSH1 0x44 DUP1 DUP3 ADD SWAP3 PUSH1 0x0 SWAP3 SWAP1 SWAP2 SWAP1 DUP3 SWAP1 SUB ADD DUP2 DUP4 DUP8 DUP1 EXTCODESIZE ISZERO DUP1 ISZERO PUSH2 0x6FC JUMPI PUSH1 0x0 DUP1 REVERT JUMPDEST POP GAS CALL ISZERO DUP1 ISZERO PUSH2 0x710 JUMPI RETURNDATASIZE PUSH1 0x0 DUP1 RETURNDATACOPY RETURNDATASIZE PUSH1 0x0 REVERT JUMPDEST POP POP POP POP PUSH2 0x79F JUMP JUMPDEST PUSH1 0x6 SLOAD PUSH1 0x40 DUP1 MLOAD PUSH4 0x6CCF0785 PUSH1 0xE1 SHL DUP2 MSTORE ADDRESS PUSH1 0x4 DUP3 ADD MSTORE PUSH1 0x0 PUSH1 0x24 DUP3 ADD DUP2 SWAP1 MSTORE PUSH1 0x44 DUP3 ADD DUP7 SWAP1 MSTORE PUSH1 0x3 PUSH1 0x64 DUP4 ADD MSTORE PUSH1 0x84 DUP3 ADD DUP6 SWAP1 MSTORE CALLER PUSH1 0xA4 DUP4 ADD MSTORE SWAP2 MLOAD PUSH1 0x1 PUSH1 0x1 PUSH1 0xA0 SHL SUB SWAP1 SWAP4 AND SWAP3 PUSH4 0xD99E0F0A SWAP3 PUSH1 0xC4 DUP1 DUP5 ADD SWAP4 SWAP2 SWAP3 SWAP2 DUP3 SWAP1 SUB ADD DUP2 DUP4 DUP8 DUP1 EXTCODESIZE ISZERO DUP1 ISZERO PUSH2 0x786 JUMPI PUSH1 0x0 DUP1 REVERT JUMPDEST POP GAS CALL ISZERO DUP1 ISZERO PUSH2 0x79A JUMPI RETURNDATASIZE PUSH1 0x0 DUP1 RETURNDATACOPY RETURNDATASIZE PUSH1 0x0 REVERT JUMPDEST POP POP POP POP JUMPDEST PUSH1 0x8 SLOAD PUSH1 0x1 PUSH1 0x1 PUSH1 0xA0 SHL SUB AND ISZERO PUSH2 0x82F JUMPI PUSH1 0x8 SLOAD PUSH1 0x9 SLOAD PUSH1 0x40 DUP1 MLOAD PUSH4 0x3474FD31 PUSH1 0xE1 SHL DUP2 MSTORE CALLER PUSH1 0x4 DUP3 ADD MSTORE PUSH1 0x24 DUP2 ADD DUP6 SWAP1 MSTORE PUSH1 0x44 DUP2 ADD DUP7 SWAP1 MSTORE PUSH1 0x2 SWAP1 SWAP3 ADD PUSH1 0x64 DUP4 ADD MSTORE MLOAD PUSH1 0x1 PUSH1 0x1 PUSH1 0xA0 SHL SUB SWAP1 SWAP3 AND SWAP2 PUSH4 0x68E9FA62 SWAP2 PUSH1 0x84 DUP1 DUP3 ADD SWAP3 PUSH1 0x0 SWAP3 SWAP1 SWAP2 SWAP1 DUP3 SWAP1 SUB ADD DUP2 DUP4 DUP8 DUP1 EXTCODESIZE ISZERO DUP1 ISZERO PUSH2 0x816 JUMPI PUSH1 0x0 DUP1 REVERT JUMPDEST POP GAS CALL ISZERO DUP1 ISZERO PUSH2 0x82A JUMPI RETURNDATASIZE PUSH1 0x0 DUP1 RETURNDATACOPY RETURNDATASIZE PUSH1 0x0 REVERT JUMPDEST POP POP POP POP JUMPDEST PUSH1 0x9 SLOAD PUSH1 0x40 DUP1 MLOAD CALLER DUP2 MSTORE PUSH1 0x20 DUP2 ADD DUP5 SWAP1 MSTORE DUP1 DUP3 ADD DUP6 SWAP1 MSTORE PUSH1 0x2 SWAP1 SWAP3 ADD PUSH1 0x60 DUP4 ADD MSTORE MLOAD PUSH32 0x1B0E9FC7C62CC643508B935F98C3CB260D5F9F602D71240005765D45BB6A051B SWAP2 DUP2 SWAP1 SUB PUSH1 0x80 ADD SWAP1 LOG1 POP POP JUMP JUMPDEST PUSH1 0x8 SLOAD PUSH1 0x1 PUSH1 0x1 PUSH1 0xA0 SHL SUB AND DUP2 JUMP JUMPDEST PUSH1 0x0 SLOAD PUSH1 0x1 PUSH1 0x1 PUSH1 0xA0 SHL SUB AND CALLER EQ PUSH2 0x8DB JUMPI PUSH1 0x40 DUP1 MLOAD PUSH3 0x461BCD PUSH1 0xE5 SHL DUP2 MSTORE PUSH1 0x20 PUSH1 0x4 DUP3 ADD DUP2 SWAP1 MSTORE PUSH1 0x24 DUP3 ADD MSTORE PUSH1 0x0 DUP1 MLOAD PUSH1 0x20 PUSH2 0x426B DUP4 CODECOPY DUP2 MLOAD SWAP2 MSTORE PUSH1 0x44 DUP3 ADD MSTORE SWAP1 MLOAD SWAP1 DUP2 SWAP1 SUB PUSH1 0x64 ADD SWAP1 REVERT JUMPDEST PUSH1 0x8 DUP1 SLOAD PUSH1 0x1 PUSH1 0x1 PUSH1 0xA0 SHL SUB DUP4 AND PUSH1 0x1 PUSH1 0x1 PUSH1 0xA0 SHL SUB NOT SWAP1 SWAP2 AND DUP2 OR SWAP1 SWAP2 SSTORE PUSH1 0x40 DUP1 MLOAD SWAP2 DUP3 MSTORE MLOAD PUSH32 0xCEC52196E972044EDDE8689A1B608E459C5946B7F3E5C8CD3D6D8E126D422E1C SWAP2 DUP2 SWAP1 SUB PUSH1 0x20 ADD SWAP1 LOG1 POP JUMP JUMPDEST PUSH1 0xA SLOAD DUP2 JUMP JUMPDEST PUSH2 0x93D PUSH2 0x37FF JUMP JUMPDEST JUMP JUMPDEST PUSH1 0x0 SLOAD PUSH1 0x1 PUSH1 0x1 PUSH1 0xA0 SHL SUB AND CALLER EQ PUSH2 0x98C JUMPI PUSH1 0x40 DUP1 MLOAD PUSH3 0x461BCD PUSH1 0xE5 SHL DUP2 MSTORE PUSH1 0x20 PUSH1 0x4 DUP3 ADD DUP2 SWAP1 MSTORE PUSH1 0x24 DUP3 ADD MSTORE PUSH1 0x0 DUP1 MLOAD PUSH1 0x20 PUSH2 0x426B DUP4 CODECOPY DUP2 MLOAD SWAP2 MSTORE PUSH1 0x44 DUP3 ADD MSTORE SWAP1 MLOAD SWAP1 DUP2 SWAP1 SUB PUSH1 0x64 ADD SWAP1 REVERT JUMPDEST PUSH1 0x7 SLOAD PUSH1 0x40 DUP1 MLOAD PUSH4 0x36686D71 PUSH1 0xE2 SHL DUP2 MSTORE PUSH1 0x1 PUSH1 0x1 PUSH1 0xA0 SHL SUB DUP5 DUP2 AND PUSH1 0x4 DUP4 ADD MSTORE SWAP2 MLOAD SWAP2 SWAP1 SWAP3 AND SWAP2 PUSH4 0xD9A1B5C4 SWAP2 PUSH1 0x24 DUP1 DUP4 ADD SWAP3 PUSH1 0x0 SWAP3 SWAP2 SWAP1 DUP3 SWAP1 SUB ADD DUP2 DUP4 DUP8 DUP1 EXTCODESIZE ISZERO DUP1 ISZERO PUSH2 0x9DA JUMPI PUSH1 0x0 DUP1 REVERT JUMPDEST POP GAS CALL ISZERO DUP1 ISZERO PUSH2 0x9EE JUMPI RETURNDATASIZE PUSH1 0x0 DUP1 RETURNDATACOPY RETURNDATASIZE PUSH1 0x0 REVERT JUMPDEST POP POP POP POP POP JUMP JUMPDEST PUSH1 0x0 DUP1 JUMPDEST PUSH1 0x1F SLOAD DUP2 LT ISZERO PUSH2 0xA34 JUMPI DUP3 PUSH1 0x1F DUP3 DUP2 SLOAD DUP2 LT PUSH2 0xA11 JUMPI INVALID JUMPDEST SWAP1 PUSH1 0x0 MSTORE PUSH1 0x20 PUSH1 0x0 KECCAK256 ADD SLOAD EQ ISZERO PUSH2 0xA2C JUMPI PUSH1 0x1 SWAP2 POP POP PUSH2 0xA3A JUMP JUMPDEST PUSH1 0x1 ADD PUSH2 0x9F9 JUMP JUMPDEST POP PUSH1 0x0 SWAP1 POP JUMPDEST SWAP2 SWAP1 POP JUMP JUMPDEST PUSH1 0x6 SLOAD PUSH1 0x1 PUSH1 0x1 PUSH1 0xA0 SHL SUB AND DUP2 JUMP JUMPDEST DUP1 ISZERO DUP1 PUSH2 0xA5F JUMPI POP PUSH2 0xA5F DUP2 PUSH2 0x9F5 JUMP JUMPDEST PUSH2 0xAA4 JUMPI PUSH1 0x40 DUP1 MLOAD PUSH3 0x461BCD PUSH1 0xE5 SHL DUP2 MSTORE PUSH1 0x20 PUSH1 0x4 DUP3 ADD MSTORE PUSH1 0x11 PUSH1 0x24 DUP3 ADD MSTORE PUSH17 0x6E6F7420737570706F727420726174696F PUSH1 0x78 SHL PUSH1 0x44 DUP3 ADD MSTORE SWAP1 MLOAD SWAP1 DUP2 SWAP1 SUB PUSH1 0x64 ADD SWAP1 REVERT JUMPDEST PUSH2 0xAAC PUSH2 0x37FF JUMP JUMPDEST PUSH1 0x6 SLOAD PUSH1 0x9 SLOAD PUSH1 0x40 DUP1 MLOAD PUSH4 0x758E6FD PUSH1 0xE5 SHL DUP2 MSTORE ADDRESS PUSH1 0x4 DUP3 ADD MSTORE PUSH1 0x2 SWAP1 SWAP3 ADD PUSH1 0x24 DUP4 ADD MSTORE PUSH1 0x44 DUP3 ADD DUP5 SWAP1 MSTORE PUSH1 0x1 PUSH1 0x64 DUP4 ADD MSTORE PUSH1 0x84 DUP3 ADD DUP6 SWAP1 MSTORE CALLER PUSH1 0xA4 DUP4 ADD MSTORE MLOAD PUSH1 0x1 PUSH1 0x1 PUSH1 0xA0 SHL SUB SWAP1 SWAP3 AND SWAP2 PUSH4 0xEB1CDFA0 SWAP2 PUSH1 0xC4 DUP1 DUP3 ADD SWAP3 PUSH1 0x0 SWAP3 SWAP1 SWAP2 SWAP1 DUP3 SWAP1 SUB ADD DUP2 DUP4 DUP8 DUP1 EXTCODESIZE ISZERO DUP1 ISZERO PUSH2 0xB1F JUMPI PUSH1 0x0 DUP1 REVERT JUMPDEST POP GAS CALL ISZERO DUP1 ISZERO PUSH2 0xB33 JUMPI RETURNDATASIZE PUSH1 0x0 DUP1 RETURNDATACOPY RETURNDATASIZE PUSH1 0x0 REVERT JUMPDEST POP POP PUSH1 0x1 SLOAD PUSH1 0x2 SLOAD PUSH1 0x40 DUP1 MLOAD PUSH4 0x8B6EA7BB PUSH1 0xE0 SHL DUP2 MSTORE PUSH1 0x1 PUSH1 0x1 PUSH1 0xA0 SHL SUB SWAP3 DUP4 AND PUSH1 0x4 DUP3 ADD MSTORE SWAP1 MLOAD PUSH1 0x0 SWAP6 POP SWAP2 SWAP1 SWAP3 AND SWAP3 POP PUSH4 0x8B6EA7BB SWAP2 PUSH1 0x24 DUP1 DUP3 ADD SWAP3 PUSH1 0x20 SWAP3 SWAP1 SWAP2 SWAP1 DUP3 SWAP1 SUB ADD DUP2 DUP7 DUP1 EXTCODESIZE ISZERO DUP1 ISZERO PUSH2 0xB8B JUMPI PUSH1 0x0 DUP1 REVERT JUMPDEST POP GAS STATICCALL ISZERO DUP1 ISZERO PUSH2 0xB9F JUMPI RETURNDATASIZE PUSH1 0x0 DUP1 RETURNDATACOPY RETURNDATASIZE PUSH1 0x0 REVERT JUMPDEST POP POP POP POP PUSH1 0x40 MLOAD RETURNDATASIZE PUSH1 0x20 DUP2 LT ISZERO PUSH2 0xBB5 JUMPI PUSH1 0x0 DUP1 REVERT JUMPDEST POP MLOAD PUSH1 0x40 DUP1 MLOAD PUSH4 0xD338431 PUSH1 0xE2 SHL DUP2 MSTORE SWAP1 MLOAD PUSH1 0x1 PUSH1 0x1 PUSH1 0xA0 SHL SUB SWAP1 SWAP3 AND SWAP2 PUSH4 0x34CE10C4 SWAP2 PUSH1 0x4 DUP1 DUP3 ADD SWAP3 PUSH1 0x20 SWAP3 SWAP1 SWAP2 SWAP1 DUP3 SWAP1 SUB ADD DUP2 DUP7 DUP1 EXTCODESIZE ISZERO DUP1 ISZERO PUSH2 0xBF9 JUMPI PUSH1 0x0 DUP1 REVERT JUMPDEST POP GAS STATICCALL ISZERO DUP1 ISZERO PUSH2 0xC0D JUMPI RETURNDATASIZE PUSH1 0x0 DUP1 RETURNDATACOPY RETURNDATASIZE PUSH1 0x0 REVERT JUMPDEST POP POP POP POP PUSH1 0x40 MLOAD RETURNDATASIZE PUSH1 0x20 DUP2 LT ISZERO PUSH2 0xC23 JUMPI PUSH1 0x0 DUP1 REVERT JUMPDEST POP MLOAD PUSH1 0x40 DUP1 MLOAD PUSH4 0x682E3C6D PUSH1 0xE1 SHL DUP2 MSTORE PUSH1 0x4 DUP2 ADD DUP7 SWAP1 MSTORE PUSH1 0x24 DUP2 ADD DUP4 SWAP1 MSTORE SWAP1 MLOAD SWAP2 SWAP3 POP PUSH1 0x0 SWAP2 PUSH20 0x0 SWAP2 PUSH4 0xD05C78DA SWAP2 PUSH1 0x44 DUP1 DUP4 ADD SWAP3 PUSH1 0x20 SWAP3 SWAP2 SWAP1 DUP3 SWAP1 SUB ADD DUP2 DUP7 DUP1 EXTCODESIZE ISZERO DUP1 ISZERO PUSH2 0xC84 JUMPI PUSH1 0x0 DUP1 REVERT JUMPDEST POP GAS DELEGATECALL ISZERO DUP1 ISZERO PUSH2 0xC98 JUMPI RETURNDATASIZE PUSH1 0x0 DUP1 RETURNDATACOPY RETURNDATASIZE PUSH1 0x0 REVERT JUMPDEST POP POP POP POP PUSH1 0x40 MLOAD RETURNDATASIZE PUSH1 0x20 DUP2 LT ISZERO PUSH2 0xCAE JUMPI PUSH1 0x0 DUP1 REVERT JUMPDEST POP MLOAD PUSH1 0x40 DUP1 MLOAD PUSH4 0x2D64C7DF PUSH1 0xE2 SHL DUP2 MSTORE PUSH1 0x4 DUP2 ADD SWAP3 SWAP1 SWAP3 MSTORE PUSH8 0xDE0B6B3A7640000 PUSH1 0x24 DUP4 ADD MSTORE MLOAD PUSH20 0x0 SWAP2 PUSH4 0xB5931F7C SWAP2 PUSH1 0x44 DUP1 DUP4 ADD SWAP3 PUSH1 0x20 SWAP3 SWAP2 SWAP1 DUP3 SWAP1 SUB ADD DUP2 DUP7 DUP1 EXTCODESIZE ISZERO DUP1 ISZERO PUSH2 0xD10 JUMPI PUSH1 0x0 DUP1 REVERT JUMPDEST POP GAS DELEGATECALL ISZERO DUP1 ISZERO PUSH2 0xD24 JUMPI RETURNDATASIZE PUSH1 0x0 DUP1 RETURNDATACOPY RETURNDATASIZE PUSH1 0x0 REVERT JUMPDEST POP POP POP POP PUSH1 0x40 MLOAD RETURNDATASIZE PUSH1 0x20 DUP2 LT ISZERO PUSH2 0xD3A JUMPI PUSH1 0x0 DUP1 REVERT JUMPDEST POP MLOAD PUSH1 0x8 SLOAD SWAP1 SWAP2 POP PUSH1 0x1 PUSH1 0x1 PUSH1 0xA0 SHL SUB AND ISZERO PUSH2 0xDCF JUMPI PUSH1 0x8 SLOAD PUSH1 0x9 SLOAD PUSH1 0x40 DUP1 MLOAD PUSH4 0x6AC4B8C1 PUSH1 0xE1 SHL DUP2 MSTORE CALLER PUSH1 0x4 DUP3 ADD MSTORE PUSH1 0x24 DUP2 ADD DUP9 SWAP1 MSTORE PUSH1 0x44 DUP2 ADD DUP8 SWAP1 MSTORE PUSH1 0x2 SWAP1 SWAP3 ADD PUSH1 0x64 DUP4 ADD MSTORE MLOAD PUSH1 0x1 PUSH1 0x1 PUSH1 0xA0 SHL SUB SWAP1 SWAP3 AND SWAP2 PUSH4 0xD5897182 SWAP2 PUSH1 0x84 DUP1 DUP3 ADD SWAP3 PUSH1 0x0 SWAP3 SWAP1 SWAP2 SWAP1 DUP3 SWAP1 SUB ADD DUP2 DUP4 DUP8 DUP1 EXTCODESIZE ISZERO DUP1 ISZERO PUSH2 0xDB6 JUMPI PUSH1 0x0 DUP1 REVERT JUMPDEST POP GAS CALL ISZERO DUP1 ISZERO PUSH2 0xDCA JUMPI RETURNDATASIZE PUSH1 0x0 DUP1 RETURNDATACOPY RETURNDATASIZE PUSH1 0x0 REVERT JUMPDEST POP POP POP POP JUMPDEST PUSH1 0x3 PUSH1 0x0 SWAP1 SLOAD SWAP1 PUSH2 0x100 EXP SWAP1 DIV PUSH1 0x1 PUSH1 0x1 PUSH1 0xA0 SHL SUB AND PUSH1 0x1 PUSH1 0x1 PUSH1 0xA0 SHL SUB AND PUSH4 0x6D6CA17E PUSH1 0x40 MLOAD DUP2 PUSH4 0xFFFFFFFF AND PUSH1 0xE0 SHL DUP2 MSTORE PUSH1 0x4 ADD PUSH1 0x20 PUSH1 0x40 MLOAD DUP1 DUP4 SUB DUP2 DUP7 DUP1 EXTCODESIZE ISZERO DUP1 ISZERO PUSH2 0xE1D JUMPI PUSH1 0x0 DUP1 REVERT JUMPDEST POP GAS STATICCALL ISZERO DUP1 ISZERO PUSH2 0xE31 JUMPI RETURNDATASIZE PUSH1 0x0 DUP1 RETURNDATACOPY RETURNDATASIZE PUSH1 0x0 REVERT JUMPDEST POP POP POP POP PUSH1 0x40 MLOAD RETURNDATASIZE PUSH1 0x20 DUP2 LT ISZERO PUSH2 0xE47 JUMPI PUSH1 0x0 DUP1 REVERT JUMPDEST POP MLOAD ISZERO DUP1 ISZERO SWAP1 PUSH2 0xECF JUMPI POP PUSH1 0x3 SLOAD PUSH1 0x40 DUP1 MLOAD PUSH4 0x46CC0E0D PUSH1 0xE0 SHL DUP2 MSTORE SWAP1 MLOAD PUSH1 0x0 SWAP3 PUSH1 0x1 PUSH1 0x1 PUSH1 0xA0 SHL SUB AND SWAP2 PUSH4 0x46CC0E0D SWAP2 PUSH1 0x4 DUP1 DUP4 ADD SWAP3 PUSH1 0x20 SWAP3 SWAP2 SWAP1 DUP3 SWAP1 SUB ADD DUP2 DUP7 DUP1 EXTCODESIZE ISZERO DUP1 ISZERO PUSH2 0xE97 JUMPI PUSH1 0x0 DUP1 REVERT JUMPDEST POP GAS STATICCALL ISZERO DUP1 ISZERO PUSH2 0xEAB JUMPI RETURNDATASIZE PUSH1 0x0 DUP1 RETURNDATACOPY RETURNDATASIZE PUSH1 0x0 REVERT JUMPDEST POP POP POP POP PUSH1 0x40 MLOAD RETURNDATASIZE PUSH1 0x20 DUP2 LT ISZERO PUSH2 0xEC1 JUMPI PUSH1 0x0 DUP1 REVERT JUMPDEST POP MLOAD PUSH1 0x1 PUSH1 0x1 PUSH1 0xA0 SHL SUB AND EQ ISZERO JUMPDEST ISZERO PUSH2 0x1264 JUMPI PUSH1 0x3 SLOAD PUSH1 0x40 DUP1 MLOAD PUSH4 0x36B650BF PUSH1 0xE1 SHL DUP2 MSTORE SWAP1 MLOAD PUSH1 0x0 SWAP3 PUSH20 0x0 SWAP3 PUSH4 0xD05C78DA SWAP3 DUP7 SWAP3 PUSH1 0x1 PUSH1 0x1 PUSH1 0xA0 SHL SUB AND SWAP2 PUSH4 0x6D6CA17E SWAP2 PUSH1 0x4 DUP1 DUP4 ADD SWAP3 PUSH1 0x20 SWAP3 SWAP2 SWAP1 DUP3 SWAP1 SUB ADD DUP2 DUP7 DUP1 EXTCODESIZE ISZERO DUP1 ISZERO PUSH2 0xF37 JUMPI PUSH1 0x0 DUP1 REVERT JUMPDEST POP GAS STATICCALL ISZERO DUP1 ISZERO PUSH2 0xF4B JUMPI RETURNDATASIZE PUSH1 0x0 DUP1 RETURNDATACOPY RETURNDATASIZE PUSH1 0x0 REVERT JUMPDEST POP POP POP POP PUSH1 0x40 MLOAD RETURNDATASIZE PUSH1 0x20 DUP2 LT ISZERO PUSH2 0xF61 JUMPI PUSH1 0x0 DUP1 REVERT JUMPDEST POP MLOAD PUSH1 0x40 DUP1 MLOAD PUSH1 0x1 PUSH1 0x1 PUSH1 0xE0 SHL SUB NOT PUSH1 0xE0 DUP7 SWAP1 SHL AND DUP2 MSTORE PUSH1 0x4 DUP2 ADD SWAP4 SWAP1 SWAP4 MSTORE PUSH1 0x24 DUP4 ADD SWAP2 SWAP1 SWAP2 MSTORE MLOAD PUSH1 0x44 DUP1 DUP4 ADD SWAP3 PUSH1 0x20 SWAP3 SWAP2 SWAP1 DUP3 SWAP1 SUB ADD DUP2 DUP7 DUP1 EXTCODESIZE ISZERO DUP1 ISZERO PUSH2 0xFA8 JUMPI PUSH1 0x0 DUP1 REVERT JUMPDEST POP GAS DELEGATECALL ISZERO DUP1 ISZERO PUSH2 0xFBC JUMPI RETURNDATASIZE PUSH1 0x0 DUP1 RETURNDATACOPY RETURNDATASIZE PUSH1 0x0 REVERT JUMPDEST POP POP POP POP PUSH1 0x40 MLOAD RETURNDATASIZE PUSH1 0x20 DUP2 LT ISZERO PUSH2 0xFD2 JUMPI PUSH1 0x0 DUP1 REVERT JUMPDEST POP MLOAD PUSH1 0x3 SLOAD PUSH1 0x40 DUP1 MLOAD PUSH4 0x39DD49D PUSH1 0xE2 SHL DUP2 MSTORE SWAP1 MLOAD PUSH20 0x0 SWAP4 PUSH4 0xB5931F7C SWAP4 SWAP1 SWAP3 PUSH1 0x1 PUSH1 0x1 PUSH1 0xA0 SHL SUB SWAP1 SWAP2 AND SWAP2 PUSH4 0xE775274 SWAP2 PUSH1 0x4 DUP1 DUP3 ADD SWAP3 PUSH1 0x20 SWAP3 SWAP1 SWAP2 SWAP1 DUP3 SWAP1 SUB ADD DUP2 DUP7 DUP1 EXTCODESIZE ISZERO DUP1 ISZERO PUSH2 0x1037 JUMPI PUSH1 0x0 DUP1 REVERT JUMPDEST POP GAS STATICCALL ISZERO DUP1 ISZERO PUSH2 0x104B JUMPI RETURNDATASIZE PUSH1 0x0 DUP1 RETURNDATACOPY RETURNDATASIZE PUSH1 0x0 REVERT JUMPDEST POP POP POP POP PUSH1 0x40 MLOAD RETURNDATASIZE PUSH1 0x20 DUP2 LT ISZERO PUSH2 0x1061 JUMPI PUSH1 0x0 DUP1 REVERT JUMPDEST POP MLOAD PUSH1 0x40 DUP1 MLOAD PUSH1 0x1 PUSH1 0x1 PUSH1 0xE0 SHL SUB NOT PUSH1 0xE0 DUP7 SWAP1 SHL AND DUP2 MSTORE PUSH1 0x4 DUP2 ADD SWAP4 SWAP1 SWAP4 MSTORE PUSH1 0x24 DUP4 ADD SWAP2 SWAP1 SWAP2 MSTORE MLOAD PUSH1 0x44 DUP1 DUP4 ADD SWAP3 PUSH1 0x20 SWAP3 SWAP2 SWAP1 DUP3 SWAP1 SUB ADD DUP2 DUP7 DUP1 EXTCODESIZE ISZERO DUP1 ISZERO PUSH2 0x10A8 JUMPI PUSH1 0x0 DUP1 REVERT JUMPDEST POP GAS DELEGATECALL ISZERO DUP1 ISZERO PUSH2 0x10BC JUMPI RETURNDATASIZE PUSH1 0x0 DUP1 RETURNDATACOPY RETURNDATASIZE PUSH1 0x0 REVERT JUMPDEST POP POP POP POP PUSH1 0x40 MLOAD RETURNDATASIZE PUSH1 0x20 DUP2 LT ISZERO PUSH2 0x10D2 JUMPI PUSH1 0x0 DUP1 REVERT JUMPDEST POP MLOAD PUSH1 0x40 DUP1 MLOAD PUSH4 0x14527A3D PUSH1 0xE3 SHL DUP2 MSTORE PUSH1 0x4 DUP2 ADD DUP6 SWAP1 MSTORE PUSH1 0x24 DUP2 ADD DUP4 SWAP1 MSTORE SWAP1 MLOAD SWAP2 SWAP3 POP PUSH1 0x0 SWAP2 PUSH20 0x0 SWAP2 PUSH4 0xA293D1E8 SWAP2 PUSH1 0x44 DUP1 DUP4 ADD SWAP3 PUSH1 0x20 SWAP3 SWAP2 SWAP1 DUP3 SWAP1 SUB ADD DUP2 DUP7 DUP1 EXTCODESIZE ISZERO DUP1 ISZERO PUSH2 0x1133 JUMPI PUSH1 0x0 DUP1 REVERT JUMPDEST POP GAS DELEGATECALL ISZERO DUP1 ISZERO PUSH2 0x1147 JUMPI RETURNDATASIZE PUSH1 0x0 DUP1 RETURNDATACOPY RETURNDATASIZE PUSH1 0x0 REVERT JUMPDEST POP POP POP POP PUSH1 0x40 MLOAD RETURNDATASIZE PUSH1 0x20 DUP2 LT ISZERO PUSH2 0x115D JUMPI PUSH1 0x0 DUP1 REVERT JUMPDEST POP MLOAD PUSH1 0x2 SLOAD SWAP1 SWAP2 POP PUSH2 0x117F SWAP1 PUSH1 0x1 PUSH1 0x1 PUSH1 0xA0 SHL SUB AND CALLER DUP4 PUSH4 0xFFFFFFFF PUSH2 0x3E7C AND JUMP JUMPDEST PUSH1 0x3 SLOAD PUSH1 0x40 DUP1 MLOAD PUSH4 0x46CC0E0D PUSH1 0xE0 SHL DUP2 MSTORE SWAP1 MLOAD PUSH2 0x120A SWAP3 PUSH1 0x1 PUSH1 0x1 PUSH1 0xA0 SHL SUB AND SWAP2 PUSH4 0x46CC0E0D SWAP2 PUSH1 0x4 DUP1 DUP4 ADD SWAP3 PUSH1 0x20 SWAP3 SWAP2 SWAP1 DUP3 SWAP1 SUB ADD DUP2 DUP7 DUP1 EXTCODESIZE ISZERO DUP1 ISZERO PUSH2 0x11C5 JUMPI PUSH1 0x0 DUP1 REVERT JUMPDEST POP GAS STATICCALL ISZERO DUP1 ISZERO PUSH2 0x11D9 JUMPI RETURNDATASIZE PUSH1 0x0 DUP1 RETURNDATACOPY RETURNDATASIZE PUSH1 0x0 REVERT JUMPDEST POP POP POP POP PUSH1 0x40 MLOAD RETURNDATASIZE PUSH1 0x20 DUP2 LT ISZERO PUSH2 0x11EF JUMPI PUSH1 0x0 DUP1 REVERT JUMPDEST POP MLOAD PUSH1 0x2 SLOAD PUSH1 0x1 PUSH1 0x1 PUSH1 0xA0 SHL SUB AND SWAP1 DUP5 PUSH4 0xFFFFFFFF PUSH2 0x3E7C AND JUMP JUMPDEST PUSH1 0x9 SLOAD PUSH1 0x40 DUP1 MLOAD CALLER DUP2 MSTORE PUSH1 0x20 DUP2 ADD DUP5 SWAP1 MSTORE DUP1 DUP3 ADD DUP6 SWAP1 MSTORE PUSH1 0x2 SWAP1 SWAP3 ADD PUSH1 0x60 DUP4 ADD MSTORE PUSH1 0x80 DUP3 ADD DUP8 SWAP1 MSTORE MLOAD PUSH32 0x6D0FFE801F13D86AED06F92A30CF1D79FED5A0F890C8CE862A4CA04EA0D79912 SWAP2 DUP2 SWAP1 SUB PUSH1 0xA0 ADD SWAP1 LOG1 POP POP PUSH2 0x12D5 JUMP JUMPDEST PUSH1 0x2 SLOAD PUSH2 0x1281 SWAP1 PUSH1 0x1 PUSH1 0x1 PUSH1 0xA0 SHL SUB AND CALLER DUP4 PUSH4 0xFFFFFFFF PUSH2 0x3E7C AND JUMP JUMPDEST PUSH1 0x9 SLOAD PUSH1 0x40 DUP1 MLOAD CALLER DUP2 MSTORE PUSH1 0x20 DUP2 ADD DUP5 SWAP1 MSTORE PUSH1 0x0 DUP2 DUP4 ADD MSTORE PUSH1 0x2 SWAP1 SWAP3 ADD PUSH1 0x60 DUP4 ADD MSTORE PUSH1 0x80 DUP3 ADD DUP6 SWAP1 MSTORE MLOAD PUSH32 0x6D0FFE801F13D86AED06F92A30CF1D79FED5A0F890C8CE862A4CA04EA0D79912 SWAP2 DUP2 SWAP1 SUB PUSH1 0xA0 ADD SWAP1 LOG1 JUMPDEST POP POP POP POP JUMP JUMPDEST PUSH1 0x0 SLOAD PUSH1 0x1 PUSH1 0x1 PUSH1 0xA0 SHL SUB AND CALLER EQ PUSH2 0x1328 JUMPI PUSH1 0x40 DUP1 MLOAD PUSH3 0x461BCD PUSH1 0xE5 SHL DUP2 MSTORE PUSH1 0x20 PUSH1 0x4 DUP3 ADD DUP2 SWAP1 MSTORE PUSH1 0x24 DUP3 ADD MSTORE PUSH1 0x0 DUP1 MLOAD PUSH1 0x20 PUSH2 0x426B DUP4 CODECOPY DUP2 MLOAD SWAP2 MSTORE PUSH1 0x44 DUP3 ADD MSTORE SWAP1 MLOAD SWAP1 DUP2 SWAP1 SUB PUSH1 0x64 ADD SWAP1 REVERT JUMPDEST PUSH1 0x0 JUMPDEST PUSH1 0x1F SLOAD DUP2 LT ISZERO PUSH2 0x1371 JUMPI PUSH1 0x1E PUSH1 0x0 PUSH1 0x1F DUP4 DUP2 SLOAD DUP2 LT PUSH2 0x1346 JUMPI INVALID JUMPDEST PUSH1 0x0 SWAP2 DUP3 MSTORE PUSH1 0x20 DUP1 DUP4 KECCAK256 SWAP1 SWAP2 ADD SLOAD DUP4 MSTORE DUP3 ADD SWAP3 SWAP1 SWAP3 MSTORE PUSH1 0x40 ADD SWAP1 KECCAK256 DUP1 SLOAD PUSH1 0xFF NOT AND SWAP1 SSTORE PUSH1 0x1 ADD PUSH2 0x132B JUMP JUMPDEST POP PUSH2 0x137E PUSH1 0x1F PUSH1 0x0 PUSH2 0x41C1 JUMP JUMPDEST PUSH1 0x0 JUMPDEST DUP2 MLOAD DUP2 LT ISZERO PUSH2 0x1471 JUMPI DUP1 ISZERO PUSH2 0x1400 JUMPI DUP2 PUSH1 0x1 DUP3 SUB DUP2 MLOAD DUP2 LT PUSH2 0x139F JUMPI INVALID JUMPDEST PUSH1 0x20 MUL PUSH1 0x20 ADD ADD MLOAD DUP3 DUP3 DUP2 MLOAD DUP2 LT PUSH2 0x13B3 JUMPI INVALID JUMPDEST PUSH1 0x20 MUL PUSH1 0x20 ADD ADD MLOAD GT PUSH2 0x1400 JUMPI PUSH1 0x40 DUP1 MLOAD PUSH3 0x461BCD PUSH1 0xE5 SHL DUP2 MSTORE PUSH1 0x20 PUSH1 0x4 DUP3 ADD MSTORE PUSH1 0x10 PUSH1 0x24 DUP3 ADD MSTORE PUSH16 0x1CDA1BDD5B1908189948185CD8D95B99 PUSH1 0x82 SHL PUSH1 0x44 DUP3 ADD MSTORE SWAP1 MLOAD SWAP1 DUP2 SWAP1 SUB PUSH1 0x64 ADD SWAP1 REVERT JUMPDEST PUSH1 0x1F DUP3 DUP3 DUP2 MLOAD DUP2 LT PUSH2 0x140E JUMPI INVALID JUMPDEST PUSH1 0x20 SWAP1 DUP2 MUL SWAP2 SWAP1 SWAP2 ADD DUP2 ADD MLOAD DUP3 SLOAD PUSH1 0x1 DUP2 DUP2 ADD DUP6 SSTORE PUSH1 0x0 SWAP5 DUP6 MSTORE SWAP3 DUP5 KECCAK256 ADD SSTORE DUP4 MLOAD SWAP1 SWAP2 PUSH1 0x1E SWAP2 DUP6 SWAP1 DUP6 SWAP1 DUP2 LT PUSH2 0x1440 JUMPI INVALID JUMPDEST PUSH1 0x20 SWAP1 DUP2 MUL SWAP2 SWAP1 SWAP2 ADD DUP2 ADD MLOAD DUP3 MSTORE DUP2 ADD SWAP2 SWAP1 SWAP2 MSTORE PUSH1 0x40 ADD PUSH1 0x0 KECCAK256 DUP1 SLOAD PUSH1 0xFF NOT AND SWAP2 ISZERO ISZERO SWAP2 SWAP1 SWAP2 OR SWAP1 SSTORE PUSH1 0x1 ADD PUSH2 0x1381 JUMP JUMPDEST POP PUSH32 0x83FE8649D01435D9DA2BB5A1107711CD2B3A3CF482768C13067FB12752C76829 PUSH1 0x1F PUSH1 0x40 MLOAD DUP1 DUP1 PUSH1 0x20 ADD DUP3 DUP2 SUB DUP3 MSTORE DUP4 DUP2 DUP2 SLOAD DUP2 MSTORE PUSH1 0x20 ADD SWAP2 POP DUP1 SLOAD DUP1 ISZERO PUSH2 0x14DA JUMPI PUSH1 0x20 MUL DUP3 ADD SWAP2 SWAP1 PUSH1 0x0 MSTORE PUSH1 0x20 PUSH1 0x0 KECCAK256 SWAP1 JUMPDEST DUP2 SLOAD DUP2 MSTORE PUSH1 0x20 ADD SWAP1 PUSH1 0x1 ADD SWAP1 DUP1 DUP4 GT PUSH2 0x14C6 JUMPI JUMPDEST POP POP SWAP3 POP POP POP PUSH1 0x40 MLOAD DUP1 SWAP2 SUB SWAP1 LOG1 POP JUMP JUMPDEST DUP3 ISZERO DUP1 PUSH2 0x14FC JUMPI POP PUSH2 0x14FC DUP4 PUSH2 0x9F5 JUMP JUMPDEST PUSH2 0x1541 JUMPI PUSH1 0x40 DUP1 MLOAD PUSH3 0x461BCD PUSH1 0xE5 SHL DUP2 MSTORE PUSH1 0x20 PUSH1 0x4 DUP3 ADD MSTORE PUSH1 0x11 PUSH1 0x24 DUP3 ADD MSTORE PUSH17 0x6E6F7420737570706F727420726174696F PUSH1 0x78 SHL PUSH1 0x44 DUP3 ADD MSTORE SWAP1 MLOAD SWAP1 DUP2 SWAP1 SUB PUSH1 0x64 ADD SWAP1 REVERT JUMPDEST PUSH2 0x1549 PUSH2 0x37FF JUMP JUMPDEST DUP2 PUSH1 0x9 SLOAD PUSH1 0x1 ADD LT ISZERO PUSH2 0x159A JUMPI PUSH1 0x40 DUP1 MLOAD PUSH3 0x461BCD PUSH1 0xE5 SHL DUP2 MSTORE PUSH1 0x20 PUSH1 0x4 DUP3 ADD MSTORE PUSH1 0x14 PUSH1 0x24 DUP3 ADD MSTORE PUSH20 0x11D2CE881C9BDD5B99081B9BDD081CD9585B1959 PUSH1 0x62 SHL PUSH1 0x44 DUP3 ADD MSTORE SWAP1 MLOAD SWAP1 DUP2 SWAP1 SUB PUSH1 0x64 ADD SWAP1 REVERT JUMPDEST PUSH1 0x6 SLOAD PUSH1 0x40 DUP1 MLOAD PUSH4 0xBACD8361 PUSH1 0xE0 SHL DUP2 MSTORE ADDRESS PUSH1 0x4 DUP3 ADD MSTORE PUSH1 0x24 DUP2 ADD DUP6 SWAP1 MSTORE PUSH1 0x44 DUP2 ADD DUP7 SWAP1 MSTORE PUSH1 0x1 PUSH1 0x64 DUP3 ADD MSTORE CALLER PUSH1 0x84 DUP3 ADD MSTORE SWAP1 MLOAD PUSH1 0x0 SWAP3 PUSH1 0x1 PUSH1 0x1 PUSH1 0xA0 SHL SUB AND SWAP2 PUSH4 0xBACD8361 SWAP2 PUSH1 0xA4 DUP1 DUP4 ADD SWAP3 PUSH1 0x20 SWAP3 SWAP2 SWAP1 DUP3 SWAP1 SUB ADD DUP2 DUP7 DUP1 EXTCODESIZE ISZERO DUP1 ISZERO PUSH2 0x1600 JUMPI PUSH1 0x0 DUP1 REVERT JUMPDEST POP GAS STATICCALL ISZERO DUP1 ISZERO PUSH2 0x1614 JUMPI RETURNDATASIZE PUSH1 0x0 DUP1 RETURNDATACOPY RETURNDATASIZE PUSH1 0x0 REVERT JUMPDEST POP POP POP POP PUSH1 0x40 MLOAD RETURNDATASIZE PUSH1 0x20 DUP2 LT ISZERO PUSH2 0x162A JUMPI PUSH1 0x0 DUP1 REVERT JUMPDEST POP MLOAD SWAP1 POP DUP1 DUP3 GT ISZERO PUSH2 0x1683 JUMPI PUSH1 0x40 DUP1 MLOAD PUSH3 0x461BCD PUSH1 0xE5 SHL DUP2 MSTORE PUSH1 0x20 PUSH1 0x4 DUP3 ADD MSTORE PUSH1 0x1E PUSH1 0x24 DUP3 ADD MSTORE PUSH32 0x474B3A206E6F7420656E6F75676820696E746F6B656E2062616C616E63650000 PUSH1 0x44 DUP3 ADD MSTORE SWAP1 MLOAD SWAP1 DUP2 SWAP1 SUB PUSH1 0x64 ADD SWAP1 REVERT JUMPDEST PUSH1 0x6 SLOAD PUSH1 0x40 DUP1 MLOAD PUSH4 0x758E6FD PUSH1 0xE5 SHL DUP2 MSTORE ADDRESS PUSH1 0x4 DUP3 ADD MSTORE PUSH1 0x24 DUP2 ADD DUP7 SWAP1 MSTORE PUSH1 0x44 DUP2 ADD DUP8 SWAP1 MSTORE PUSH1 0x1 PUSH1 0x64 DUP3 ADD MSTORE PUSH1 0x84 DUP2 ADD DUP6 SWAP1 MSTORE CALLER PUSH1 0xA4 DUP3 ADD MSTORE SWAP1 MLOAD PUSH1 0x1 PUSH1 0x1 PUSH1 0xA0 SHL SUB SWAP1 SWAP3 AND SWAP2 PUSH4 0xEB1CDFA0 SWAP2 PUSH1 0xC4 DUP1 DUP3 ADD SWAP3 PUSH1 0x0 SWAP3 SWAP1 SWAP2 SWAP1 DUP3 SWAP1 SUB ADD DUP2 DUP4 DUP8 DUP1 EXTCODESIZE ISZERO DUP1 ISZERO PUSH2 0x16F1 JUMPI PUSH1 0x0 DUP1 REVERT JUMPDEST POP GAS CALL ISZERO DUP1 ISZERO PUSH2 0x1705 JUMPI RETURNDATASIZE PUSH1 0x0 DUP1 RETURNDATACOPY RETURNDATASIZE PUSH1 0x0 REVERT JUMPDEST POP POP PUSH1 0x6 SLOAD PUSH1 0x40 DUP1 MLOAD PUSH4 0x68B413E3 PUSH1 0xE1 SHL DUP2 MSTORE ADDRESS PUSH1 0x4 DUP3 ADD MSTORE PUSH1 0x24 DUP2 ADD DUP9 SWAP1 MSTORE PUSH1 0x44 DUP2 ADD DUP10 SWAP1 MSTORE PUSH1 0x1 PUSH1 0x64 DUP3 ADD MSTORE SWAP1 MLOAD PUSH1 0x0 SWAP5 POP PUSH1 0x1 PUSH1 0x1 PUSH1 0xA0 SHL SUB SWAP1 SWAP3 AND SWAP3 POP PUSH4 0xD16827C6 SWAP2 PUSH1 0x84 DUP1 DUP4 ADD SWAP3 PUSH1 0x20 SWAP3 SWAP2 SWAP1 DUP3 SWAP1 SUB ADD DUP2 DUP7 DUP1 EXTCODESIZE ISZERO DUP1 ISZERO PUSH2 0x176B JUMPI PUSH1 0x0 DUP1 REVERT JUMPDEST POP GAS STATICCALL ISZERO DUP1 ISZERO PUSH2 0x177F JUMPI RETURNDATASIZE PUSH1 0x0 DUP1 RETURNDATACOPY RETURNDATASIZE PUSH1 0x0 REVERT JUMPDEST POP POP POP POP PUSH1 0x40 MLOAD RETURNDATASIZE PUSH1 0x20 DUP2 LT ISZERO PUSH2 0x1795 JUMPI PUSH1 0x0 DUP1 REVERT JUMPDEST POP MLOAD PUSH1 0x40 DUP1 MLOAD PUSH4 0x682E3C6D PUSH1 0xE1 SHL DUP2 MSTORE PUSH1 0x4 DUP2 ADD DUP7 SWAP1 MSTORE PUSH1 0x24 DUP2 ADD DUP4 SWAP1 MSTORE SWAP1 MLOAD SWAP2 SWAP3 POP PUSH1 0x0 SWAP2 PUSH20 0x0 SWAP2 PUSH4 0xD05C78DA SWAP2 PUSH1 0x44 DUP1 DUP4 ADD SWAP3 PUSH1 0x20 SWAP3 SWAP2 SWAP1 DUP3 SWAP1 SUB ADD DUP2 DUP7 DUP1 EXTCODESIZE ISZERO DUP1 ISZERO PUSH2 0x17F6 JUMPI PUSH1 0x0 DUP1 REVERT JUMPDEST POP GAS DELEGATECALL ISZERO DUP1 ISZERO PUSH2 0x180A JUMPI RETURNDATASIZE PUSH1 0x0 DUP1 RETURNDATACOPY RETURNDATASIZE PUSH1 0x0 REVERT JUMPDEST POP POP POP POP PUSH1 0x40 MLOAD RETURNDATASIZE PUSH1 0x20 DUP2 LT ISZERO PUSH2 0x1820 JUMPI PUSH1 0x0 DUP1 REVERT JUMPDEST POP MLOAD PUSH1 0x40 DUP1 MLOAD PUSH4 0x2D64C7DF PUSH1 0xE2 SHL DUP2 MSTORE PUSH1 0x4 DUP2 ADD SWAP3 SWAP1 SWAP3 MSTORE PUSH8 0xDE0B6B3A7640000 PUSH1 0x24 DUP4 ADD MSTORE MLOAD PUSH20 0x0 SWAP2 PUSH4 0xB5931F7C SWAP2 PUSH1 0x44 DUP1 DUP4 ADD SWAP3 PUSH1 0x20 SWAP3 SWAP2 SWAP1 DUP3 SWAP1 SUB ADD DUP2 DUP7 DUP1 EXTCODESIZE ISZERO DUP1 ISZERO PUSH2 0x1882 JUMPI PUSH1 0x0 DUP1 REVERT JUMPDEST POP GAS DELEGATECALL ISZERO DUP1 ISZERO PUSH2 0x1896 JUMPI RETURNDATASIZE PUSH1 0x0 DUP1 RETURNDATACOPY RETURNDATASIZE PUSH1 0x0 REVERT JUMPDEST POP POP POP POP PUSH1 0x40 MLOAD RETURNDATASIZE PUSH1 0x20 DUP2 LT ISZERO PUSH2 0x18AC JUMPI PUSH1 0x0 DUP1 REVERT JUMPDEST POP MLOAD PUSH1 0x40 DUP1 MLOAD CALLER DUP2 MSTORE PUSH1 0x20 DUP2 ADD DUP8 SWAP1 MSTORE DUP1 DUP3 ADD DUP4 SWAP1 MSTORE PUSH1 0x60 DUP2 ADD DUP9 SWAP1 MSTORE PUSH1 0x80 DUP2 ADD DUP10 SWAP1 MSTORE SWAP1 MLOAD SWAP2 SWAP3 POP PUSH32 0x54E367F0027A2D665EAEFC8B79CECF9349820B7F8D08B784E824FDC7D9115EAB SWAP2 SWAP1 DUP2 SWAP1 SUB PUSH1 0xA0 ADD SWAP1 LOG1 PUSH1 0x6 SLOAD PUSH1 0x9 SLOAD PUSH1 0x40 DUP1 MLOAD PUSH4 0x6CCF0785 PUSH1 0xE1 SHL DUP2 MSTORE ADDRESS PUSH1 0x4 DUP3 ADD MSTORE PUSH1 0x2 SWAP3 DUP4 ADD PUSH1 0x24 DUP3 ADD MSTORE PUSH1 0x44 DUP2 ADD DUP11 SWAP1 MSTORE PUSH1 0x64 DUP2 ADD SWAP3 SWAP1 SWAP3 MSTORE PUSH1 0x84 DUP3 ADD DUP5 SWAP1 MSTORE CALLER PUSH1 0xA4 DUP4 ADD MSTORE MLOAD PUSH1 0x1 PUSH1 0x1 PUSH1 0xA0 SHL SUB SWAP1 SWAP3 AND SWAP2 PUSH4 0xD99E0F0A SWAP2 PUSH1 0xC4 DUP1 DUP3 ADD SWAP3 PUSH1 0x0 SWAP3 SWAP1 SWAP2 SWAP1 DUP3 SWAP1 SUB ADD DUP2 DUP4 DUP8 DUP1 EXTCODESIZE ISZERO DUP1 ISZERO PUSH2 0x1974 JUMPI PUSH1 0x0 DUP1 REVERT JUMPDEST POP GAS CALL ISZERO DUP1 ISZERO PUSH2 0x1988 JUMPI RETURNDATASIZE PUSH1 0x0 DUP1 RETURNDATACOPY RETURNDATASIZE PUSH1 0x0 REVERT JUMPDEST POP POP PUSH1 0x8 SLOAD PUSH1 0x1 PUSH1 0x1 PUSH1 0xA0 SHL SUB AND ISZERO SWAP2 POP PUSH2 0x1A1E SWAP1 POP JUMPI PUSH1 0x8 SLOAD PUSH1 0x9 SLOAD PUSH1 0x40 DUP1 MLOAD PUSH4 0x6571385 PUSH1 0xE3 SHL DUP2 MSTORE CALLER PUSH1 0x4 DUP3 ADD MSTORE PUSH1 0x24 DUP2 ADD DUP6 SWAP1 MSTORE PUSH1 0x44 DUP2 ADD DUP11 SWAP1 MSTORE PUSH1 0x2 SWAP1 SWAP3 ADD PUSH1 0x64 DUP4 ADD MSTORE MLOAD PUSH1 0x1 PUSH1 0x1 PUSH1 0xA0 SHL SUB SWAP1 SWAP3 AND SWAP2 PUSH4 0x32B89C28 SWAP2 PUSH1 0x84 DUP1 DUP3 ADD SWAP3 PUSH1 0x0 SWAP3 SWAP1 SWAP2 SWAP1 DUP3 SWAP1 SUB ADD DUP2 DUP4 DUP8 DUP1 EXTCODESIZE ISZERO DUP1 ISZERO PUSH2 0x1A05 JUMPI PUSH1 0x0 DUP1 REVERT JUMPDEST POP GAS CALL ISZERO DUP1 ISZERO PUSH2 0x1A19 JUMPI RETURNDATASIZE PUSH1 0x0 DUP1 RETURNDATACOPY RETURNDATASIZE PUSH1 0x0 REVERT JUMPDEST POP POP POP POP JUMPDEST PUSH1 0x9 SLOAD PUSH1 0x40 DUP1 MLOAD CALLER DUP2 MSTORE PUSH1 0x20 DUP2 ADD DUP5 SWAP1 MSTORE PUSH1 0x2 SWAP1 SWAP3 ADD DUP3 DUP3 ADD MSTORE PUSH1 0x60 DUP3 ADD DUP9 SWAP1 MSTORE MLOAD PUSH32 0xE7412A484C7E2EF301B676B9BEDF378302A45FC1CC3BD997B69C63A859E97CE8 SWAP2 DUP2 SWAP1 SUB PUSH1 0x80 ADD SWAP1 LOG1 POP POP POP POP POP POP JUMP JUMPDEST PUSH2 0x1A7A PUSH2 0x37FF JUMP JUMPDEST PUSH1 0x0 DUP3 PUSH2 0x1BB2 JUMPI PUSH1 0x7 SLOAD PUSH1 0x40 DUP1 MLOAD PUSH4 0x70A08231 PUSH1 0xE0 SHL DUP2 MSTORE CALLER PUSH1 0x4 DUP3 ADD MSTORE SWAP1 MLOAD DUP5 SWAP3 PUSH1 0x1 PUSH1 0x1 PUSH1 0xA0 SHL SUB AND SWAP2 PUSH4 0x70A08231 SWAP2 PUSH1 0x24 DUP1 DUP4 ADD SWAP3 PUSH1 0x20 SWAP3 SWAP2 SWAP1 DUP3 SWAP1 SUB ADD DUP2 DUP7 DUP1 EXTCODESIZE ISZERO DUP1 ISZERO PUSH2 0x1ACB JUMPI PUSH1 0x0 DUP1 REVERT JUMPDEST POP GAS STATICCALL ISZERO DUP1 ISZERO PUSH2 0x1ADF JUMPI RETURNDATASIZE PUSH1 0x0 DUP1 RETURNDATACOPY RETURNDATASIZE PUSH1 0x0 REVERT JUMPDEST POP POP POP POP PUSH1 0x40 MLOAD RETURNDATASIZE PUSH1 0x20 DUP2 LT ISZERO PUSH2 0x1AF5 JUMPI PUSH1 0x0 DUP1 REVERT JUMPDEST POP MLOAD LT ISZERO PUSH2 0x1B42 JUMPI PUSH1 0x40 DUP1 MLOAD PUSH3 0x461BCD PUSH1 0xE5 SHL DUP2 MSTORE PUSH1 0x20 PUSH1 0x4 DUP3 ADD MSTORE PUSH1 0x15 PUSH1 0x24 DUP3 ADD MSTORE PUSH21 0x474B3A6E6F7420656E6F7567682062616C616E6365 PUSH1 0x58 SHL PUSH1 0x44 DUP3 ADD MSTORE SWAP1 MLOAD SWAP1 DUP2 SWAP1 SUB PUSH1 0x64 ADD SWAP1 REVERT JUMPDEST PUSH1 0x7 SLOAD PUSH1 0x40 DUP1 MLOAD PUSH4 0x79CC679 PUSH1 0xE4 SHL DUP2 MSTORE CALLER PUSH1 0x4 DUP3 ADD MSTORE PUSH1 0x24 DUP2 ADD DUP6 SWAP1 MSTORE SWAP1 MLOAD PUSH1 0x1 PUSH1 0x1 PUSH1 0xA0 SHL SUB SWAP1 SWAP3 AND SWAP2 PUSH4 0x79CC6790 SWAP2 PUSH1 0x44 DUP1 DUP3 ADD SWAP3 PUSH1 0x0 SWAP3 SWAP1 SWAP2 SWAP1 DUP3 SWAP1 SUB ADD DUP2 DUP4 DUP8 DUP1 EXTCODESIZE ISZERO DUP1 ISZERO PUSH2 0x1B95 JUMPI PUSH1 0x0 DUP1 REVERT JUMPDEST POP GAS CALL ISZERO DUP1 ISZERO PUSH2 0x1BA9 JUMPI RETURNDATASIZE PUSH1 0x0 DUP1 RETURNDATACOPY RETURNDATASIZE PUSH1 0x0 REVERT JUMPDEST POP POP POP POP PUSH2 0x1CCC JUMP JUMPDEST PUSH1 0x6 SLOAD PUSH1 0x40 DUP1 MLOAD PUSH4 0xBACD8361 PUSH1 0xE0 SHL DUP2 MSTORE ADDRESS PUSH1 0x4 DUP3 ADD MSTORE PUSH1 0x0 PUSH1 0x24 DUP3 ADD MSTORE PUSH1 0x44 DUP2 ADD DUP7 SWAP1 MSTORE PUSH1 0x3 PUSH1 0x64 DUP3 ADD MSTORE CALLER PUSH1 0x84 DUP3 ADD MSTORE SWAP1 MLOAD PUSH1 0x1 PUSH1 0x1 PUSH1 0xA0 SHL SUB SWAP1 SWAP3 AND SWAP2 PUSH4 0xBACD8361 SWAP2 PUSH1 0xA4 DUP1 DUP3 ADD SWAP3 PUSH1 0x20 SWAP3 SWAP1 SWAP2 SWAP1 DUP3 SWAP1 SUB ADD DUP2 DUP7 DUP1 EXTCODESIZE ISZERO DUP1 ISZERO PUSH2 0x1C18 JUMPI PUSH1 0x0 DUP1 REVERT JUMPDEST POP GAS STATICCALL ISZERO DUP1 ISZERO PUSH2 0x1C2C JUMPI RETURNDATASIZE PUSH1 0x0 DUP1 RETURNDATACOPY RETURNDATASIZE PUSH1 0x0 REVERT JUMPDEST POP POP POP POP PUSH1 0x40 MLOAD RETURNDATASIZE PUSH1 0x20 DUP2 LT ISZERO PUSH2 0x1C42 JUMPI PUSH1 0x0 DUP1 REVERT JUMPDEST POP MLOAD PUSH1 0x6 SLOAD PUSH1 0x40 DUP1 MLOAD PUSH4 0x758E6FD PUSH1 0xE5 SHL DUP2 MSTORE ADDRESS PUSH1 0x4 DUP3 ADD MSTORE PUSH1 0x0 PUSH1 0x24 DUP3 ADD DUP2 SWAP1 MSTORE PUSH1 0x44 DUP3 ADD DUP9 SWAP1 MSTORE PUSH1 0x3 PUSH1 0x64 DUP4 ADD MSTORE PUSH1 0x84 DUP3 ADD DUP8 SWAP1 MSTORE CALLER PUSH1 0xA4 DUP4 ADD MSTORE SWAP2 MLOAD SWAP4 SWAP5 POP PUSH1 0x1 PUSH1 0x1 PUSH1 0xA0 SHL SUB SWAP1 SWAP3 AND SWAP3 PUSH4 0xEB1CDFA0 SWAP3 PUSH1 0xC4 DUP1 DUP3 ADD SWAP4 SWAP3 SWAP2 DUP3 SWAP1 SUB ADD DUP2 DUP4 DUP8 DUP1 EXTCODESIZE ISZERO DUP1 ISZERO PUSH2 0x1CB3 JUMPI PUSH1 0x0 DUP1 REVERT JUMPDEST POP GAS CALL ISZERO DUP1 ISZERO PUSH2 0x1CC7 JUMPI RETURNDATASIZE PUSH1 0x0 DUP1 RETURNDATACOPY RETURNDATASIZE PUSH1 0x0 REVERT JUMPDEST POP POP POP POP JUMPDEST PUSH1 0x6 SLOAD PUSH1 0x9 SLOAD PUSH1 0x40 DUP1 MLOAD PUSH4 0x6CCF0785 PUSH1 0xE1 SHL DUP2 MSTORE ADDRESS PUSH1 0x4 DUP3 ADD MSTORE PUSH1 0x2 SWAP3 DUP4 ADD PUSH1 0x24 DUP3 ADD MSTORE PUSH1 0x44 DUP2 ADD DUP8 SWAP1 MSTORE PUSH1 0x64 DUP2 ADD SWAP3 SWAP1 SWAP3 MSTORE PUSH1 0x84 DUP3 ADD DUP6 SWAP1 MSTORE CALLER PUSH1 0xA4 DUP4 ADD MSTORE MLOAD PUSH1 0x1 PUSH1 0x1 PUSH1 0xA0 SHL SUB SWAP1 SWAP3 AND SWAP2 PUSH4 0xD99E0F0A SWAP2 PUSH1 0xC4 DUP1 DUP3 ADD SWAP3 PUSH1 0x0 SWAP3 SWAP1 SWAP2 SWAP1 DUP3 SWAP1 SUB ADD DUP2 DUP4 DUP8 DUP1 EXTCODESIZE ISZERO DUP1 ISZERO PUSH2 0x1D40 JUMPI PUSH1 0x0 DUP1 REVERT JUMPDEST POP GAS CALL ISZERO DUP1 ISZERO PUSH2 0x1D54 JUMPI RETURNDATASIZE PUSH1 0x0 DUP1 RETURNDATACOPY RETURNDATASIZE PUSH1 0x0 REVERT JUMPDEST POP POP PUSH1 0x8 SLOAD PUSH1 0x1 PUSH1 0x1 PUSH1 0xA0 SHL SUB AND ISZERO SWAP2 POP PUSH2 0x1DEA SWAP1 POP JUMPI PUSH1 0x8 SLOAD PUSH1 0x9 SLOAD PUSH1 0x40 DUP1 MLOAD PUSH4 0x6571385 PUSH1 0xE3 SHL DUP2 MSTORE CALLER PUSH1 0x4 DUP3 ADD MSTORE PUSH1 0x24 DUP2 ADD DUP7 SWAP1 MSTORE PUSH1 0x44 DUP2 ADD DUP8 SWAP1 MSTORE PUSH1 0x2 SWAP1 SWAP3 ADD PUSH1 0x64 DUP4 ADD MSTORE MLOAD PUSH1 0x1 PUSH1 0x1 PUSH1 0xA0 SHL SUB SWAP1 SWAP3 AND SWAP2 PUSH4 0x32B89C28 SWAP2 PUSH1 0x84 DUP1 DUP3 ADD SWAP3 PUSH1 0x0 SWAP3 SWAP1 SWAP2 SWAP1 DUP3 SWAP1 SUB ADD DUP2 DUP4 DUP8 DUP1 EXTCODESIZE ISZERO DUP1 ISZERO PUSH2 0x1DD1 JUMPI PUSH1 0x0 DUP1 REVERT JUMPDEST POP GAS CALL ISZERO DUP1 ISZERO PUSH2 0x1DE5 JUMPI RETURNDATASIZE PUSH1 0x0 DUP1 RETURNDATACOPY RETURNDATASIZE PUSH1 0x0 REVERT JUMPDEST POP POP POP POP JUMPDEST PUSH1 0x9 SLOAD PUSH1 0x40 DUP1 MLOAD CALLER DUP2 MSTORE PUSH1 0x20 DUP2 ADD DUP6 SWAP1 MSTORE PUSH1 0x2 SWAP1 SWAP3 ADD DUP3 DUP3 ADD MSTORE PUSH1 0x60 DUP3 ADD DUP6 SWAP1 MSTORE MLOAD PUSH32 0xE7412A484C7E2EF301B676B9BEDF378302A45FC1CC3BD997B69C63A859E97CE8 SWAP2 DUP2 SWAP1 SUB PUSH1 0x80 ADD SWAP1 LOG1 POP POP POP JUMP JUMPDEST PUSH1 0x7 SLOAD PUSH1 0x1 PUSH1 0x1 PUSH1 0xA0 SHL SUB AND DUP2 JUMP JUMPDEST PUSH1 0x0 SLOAD PUSH1 0x1 PUSH1 0x1 PUSH1 0xA0 SHL SUB AND CALLER EQ PUSH2 0x1E97 JUMPI PUSH1 0x40 DUP1 MLOAD PUSH3 0x461BCD PUSH1 0xE5 SHL DUP2 MSTORE PUSH1 0x20 PUSH1 0x4 DUP3 ADD DUP2 SWAP1 MSTORE PUSH1 0x24 DUP3 ADD MSTORE PUSH1 0x0 DUP1 MLOAD PUSH1 0x20 PUSH2 0x426B DUP4 CODECOPY DUP2 MLOAD SWAP2 MSTORE PUSH1 0x44 DUP3 ADD MSTORE SWAP1 MLOAD SWAP1 DUP2 SWAP1 SUB PUSH1 0x64 ADD SWAP1 REVERT JUMPDEST PUSH1 0xA DUP1 SLOAD SWAP1 DUP3 SWAP1 SSTORE PUSH1 0x40 DUP1 MLOAD DUP3 DUP2 MSTORE PUSH1 0x20 DUP2 ADD DUP5 SWAP1 MSTORE DUP2 MLOAD PUSH32 0xDA1AC08E19CF366AE5B5FEB717776CA672304E55946E9640989EDAD1D94900B5 SWAP3 SWAP2 DUP2 SWAP1 SUB SWAP1 SWAP2 ADD SWAP1 LOG1 POP POP JUMP JUMPDEST PUSH1 0x4 SLOAD PUSH1 0x1 PUSH1 0x1 PUSH1 0xA0 SHL SUB AND DUP2 JUMP JUMPDEST PUSH1 0x0 SLOAD PUSH1 0x1 PUSH1 0x1 PUSH1 0xA0 SHL SUB AND JUMPDEST SWAP1 JUMP JUMPDEST PUSH1 0x3 SLOAD PUSH1 0x1 PUSH1 0x1 PUSH1 0xA0 SHL SUB AND DUP2 JUMP JUMPDEST PUSH1 0x5 SLOAD PUSH1 0x1 PUSH1 0x1 PUSH1 0xA0 SHL SUB AND DUP2 JUMP JUMPDEST PUSH1 0x1F DUP2 DUP2 SLOAD DUP2 LT PUSH2 0x1F28 JUMPI INVALID JUMPDEST PUSH1 0x0 SWAP2 DUP3 MSTORE PUSH1 0x20 SWAP1 SWAP2 KECCAK256 ADD SLOAD SWAP1 POP DUP2 JUMP JUMPDEST PUSH2 0x1F44 DUP2 PUSH1 0x0 PUSH2 0x2609 JUMP JUMPDEST POP JUMP JUMPDEST PUSH1 0x1E PUSH1 0x20 MSTORE PUSH1 0x0 SWAP1 DUP2 MSTORE PUSH1 0x40 SWAP1 KECCAK256 SLOAD PUSH1 0xFF AND DUP2 JUMP JUMPDEST PUSH1 0x9 SLOAD DUP2 JUMP JUMPDEST DUP1 ISZERO PUSH2 0x1FA9 JUMPI PUSH1 0x40 DUP1 MLOAD PUSH3 0x461BCD PUSH1 0xE5 SHL DUP2 MSTORE PUSH1 0x20 PUSH1 0x4 DUP3 ADD MSTORE PUSH1 0x11 PUSH1 0x24 DUP3 ADD MSTORE PUSH17 0x6E6F7420737570706F727420726174696F PUSH1 0x78 SHL PUSH1 0x44 DUP3 ADD MSTORE SWAP1 MLOAD SWAP1 DUP2 SWAP1 SUB PUSH1 0x64 ADD SWAP1 REVERT JUMPDEST PUSH2 0x1FB1 PUSH2 0x37FF JUMP JUMPDEST DUP2 PUSH1 0x9 SLOAD PUSH1 0x1 ADD LT ISZERO PUSH2 0x2002 JUMPI PUSH1 0x40 DUP1 MLOAD PUSH3 0x461BCD PUSH1 0xE5 SHL DUP2 MSTORE PUSH1 0x20 PUSH1 0x4 DUP3 ADD MSTORE PUSH1 0x14 PUSH1 0x24 DUP3 ADD MSTORE PUSH20 0x11D2CE881C9BDD5B99081B9BDD081CD9585B1959 PUSH1 0x62 SHL PUSH1 0x44 DUP3 ADD MSTORE SWAP1 MLOAD SWAP1 DUP2 SWAP1 SUB PUSH1 0x64 ADD SWAP1 REVERT JUMPDEST PUSH1 0x6 SLOAD PUSH1 0x40 DUP1 MLOAD PUSH4 0xBACD8361 PUSH1 0xE0 SHL DUP2 MSTORE ADDRESS PUSH1 0x4 DUP3 ADD MSTORE PUSH1 0x24 DUP2 ADD DUP6 SWAP1 MSTORE PUSH1 0x44 DUP2 ADD DUP5 SWAP1 MSTORE PUSH1 0x1 PUSH1 0x64 DUP3 ADD MSTORE CALLER PUSH1 0x84 DUP3 ADD MSTORE SWAP1 MLOAD PUSH1 0x0 SWAP3 PUSH1 0x1 PUSH1 0x1 PUSH1 0xA0 SHL SUB AND SWAP2 PUSH4 0xBACD8361 SWAP2 PUSH1 0xA4 DUP1 DUP4 ADD SWAP3 PUSH1 0x20 SWAP3 SWAP2 SWAP1 DUP3 SWAP1 SUB ADD DUP2 DUP7 DUP1 EXTCODESIZE ISZERO DUP1 ISZERO PUSH2 0x2068 JUMPI PUSH1 0x0 DUP1 REVERT JUMPDEST POP GAS STATICCALL ISZERO DUP1 ISZERO PUSH2 0x207C JUMPI RETURNDATASIZE PUSH1 0x0 DUP1 RETURNDATACOPY RETURNDATASIZE PUSH1 0x0 REVERT JUMPDEST POP POP POP POP PUSH1 0x40 MLOAD RETURNDATASIZE PUSH1 0x20 DUP2 LT ISZERO PUSH2 0x2092 JUMPI PUSH1 0x0 DUP1 REVERT JUMPDEST POP MLOAD SWAP1 POP DUP1 PUSH2 0x20E8 JUMPI PUSH1 0x40 DUP1 MLOAD PUSH3 0x461BCD PUSH1 0xE5 SHL DUP2 MSTORE PUSH1 0x20 PUSH1 0x4 DUP3 ADD MSTORE PUSH1 0x17 PUSH1 0x24 DUP3 ADD MSTORE PUSH32 0x474B3A206E6F20696E20746F6B656E2062616C616E6365000000000000000000 PUSH1 0x44 DUP3 ADD MSTORE SWAP1 MLOAD SWAP1 DUP2 SWAP1 SUB PUSH1 0x64 ADD SWAP1 REVERT JUMPDEST PUSH1 0x6 SLOAD PUSH1 0x40 DUP1 MLOAD PUSH4 0x758E6FD PUSH1 0xE5 SHL DUP2 MSTORE ADDRESS PUSH1 0x4 DUP3 ADD MSTORE PUSH1 0x24 DUP2 ADD DUP7 SWAP1 MSTORE PUSH1 0x44 DUP2 ADD DUP6 SWAP1 MSTORE PUSH1 0x1 PUSH1 0x64 DUP3 ADD MSTORE PUSH1 0x84 DUP2 ADD DUP5 SWAP1 MSTORE CALLER PUSH1 0xA4 DUP3 ADD MSTORE SWAP1 MLOAD PUSH1 0x1 PUSH1 0x1 PUSH1 0xA0 SHL SUB SWAP1 SWAP3 AND SWAP2 PUSH4 0xEB1CDFA0 SWAP2 PUSH1 0xC4 DUP1 DUP3 ADD SWAP3 PUSH1 0x0 SWAP3 SWAP1 SWAP2 SWAP1 DUP3 SWAP1 SUB ADD DUP2 DUP4 DUP8 DUP1 EXTCODESIZE ISZERO DUP1 ISZERO PUSH2 0x2156 JUMPI PUSH1 0x0 DUP1 REVERT JUMPDEST POP GAS CALL ISZERO DUP1 ISZERO PUSH2 0x216A JUMPI RETURNDATASIZE PUSH1 0x0 DUP1 RETURNDATACOPY RETURNDATASIZE PUSH1 0x0 REVERT JUMPDEST POP POP PUSH1 0x6 SLOAD PUSH1 0x40 DUP1 MLOAD PUSH4 0x68B413E3 PUSH1 0xE1 SHL DUP2 MSTORE ADDRESS PUSH1 0x4 DUP3 ADD MSTORE PUSH1 0x24 DUP2 ADD DUP9 SWAP1 MSTORE PUSH1 0x44 DUP2 ADD DUP8 SWAP1 MSTORE PUSH1 0x1 PUSH1 0x64 DUP3 ADD MSTORE SWAP1 MLOAD PUSH1 0x0 SWAP5 POP PUSH1 0x1 PUSH1 0x1 PUSH1 0xA0 SHL SUB SWAP1 SWAP3 AND SWAP3 POP PUSH4 0xD16827C6 SWAP2 PUSH1 0x84 DUP1 DUP4 ADD SWAP3 PUSH1 0x20 SWAP3 SWAP2 SWAP1 DUP3 SWAP1 SUB ADD DUP2 DUP7 DUP1 EXTCODESIZE ISZERO DUP1 ISZERO PUSH2 0x21D0 JUMPI PUSH1 0x0 DUP1 REVERT JUMPDEST POP GAS STATICCALL ISZERO DUP1 ISZERO PUSH2 0x21E4 JUMPI RETURNDATASIZE PUSH1 0x0 DUP1 RETURNDATACOPY RETURNDATASIZE PUSH1 0x0 REVERT JUMPDEST POP POP POP POP PUSH1 0x40 MLOAD RETURNDATASIZE PUSH1 0x20 DUP2 LT ISZERO PUSH2 0x21FA JUMPI PUSH1 0x0 DUP1 REVERT JUMPDEST POP MLOAD PUSH1 0x40 DUP1 MLOAD PUSH4 0x682E3C6D PUSH1 0xE1 SHL DUP2 MSTORE PUSH1 0x4 DUP2 ADD DUP6 SWAP1 MSTORE PUSH1 0x24 DUP2 ADD DUP4 SWAP1 MSTORE SWAP1 MLOAD SWAP2 SWAP3 POP PUSH1 0x0 SWAP2 PUSH20 0x0 SWAP2 PUSH4 0xD05C78DA SWAP2 PUSH1 0x44 DUP1 DUP4 ADD SWAP3 PUSH1 0x20 SWAP3 SWAP2 SWAP1 DUP3 SWAP1 SUB ADD DUP2 DUP7 DUP1 EXTCODESIZE ISZERO DUP1 ISZERO PUSH2 0x225B JUMPI PUSH1 0x0 DUP1 REVERT JUMPDEST POP GAS DELEGATECALL ISZERO DUP1 ISZERO PUSH2 0x226F JUMPI RETURNDATASIZE PUSH1 0x0 DUP1 RETURNDATACOPY RETURNDATASIZE PUSH1 0x0 REVERT JUMPDEST POP POP POP POP PUSH1 0x40 MLOAD RETURNDATASIZE PUSH1 0x20 DUP2 LT ISZERO PUSH2 0x2285 JUMPI PUSH1 0x0 DUP1 REVERT JUMPDEST POP MLOAD PUSH1 0x40 DUP1 MLOAD PUSH4 0x2D64C7DF PUSH1 0xE2 SHL DUP2 MSTORE PUSH1 0x4 DUP2 ADD SWAP3 SWAP1 SWAP3 MSTORE PUSH8 0xDE0B6B3A7640000 PUSH1 0x24 DUP4 ADD MSTORE MLOAD PUSH20 0x0 SWAP2 PUSH4 0xB5931F7C SWAP2 PUSH1 0x44 DUP1 DUP4 ADD SWAP3 PUSH1 0x20 SWAP3 SWAP2 SWAP1 DUP3 SWAP1 SUB ADD DUP2 DUP7 DUP1 EXTCODESIZE ISZERO DUP1 ISZERO PUSH2 0x22E7 JUMPI PUSH1 0x0 DUP1 REVERT JUMPDEST POP GAS DELEGATECALL ISZERO DUP1 ISZERO PUSH2 0x22FB JUMPI RETURNDATASIZE PUSH1 0x0 DUP1 RETURNDATACOPY RETURNDATASIZE PUSH1 0x0 REVERT JUMPDEST POP POP POP POP PUSH1 0x40 MLOAD RETURNDATASIZE PUSH1 0x20 DUP2 LT ISZERO PUSH2 0x2311 JUMPI PUSH1 0x0 DUP1 REVERT JUMPDEST POP MLOAD SWAP1 POP DUP4 PUSH2 0x238A JUMPI PUSH1 0x7 SLOAD PUSH1 0x40 DUP1 MLOAD PUSH4 0x40C10F19 PUSH1 0xE0 SHL DUP2 MSTORE CALLER PUSH1 0x4 DUP3 ADD MSTORE PUSH1 0x24 DUP2 ADD DUP5 SWAP1 MSTORE SWAP1 MLOAD PUSH1 0x1 PUSH1 0x1 PUSH1 0xA0 SHL SUB SWAP1 SWAP3 AND SWAP2 PUSH4 0x40C10F19 SWAP2 PUSH1 0x44 DUP1 DUP3 ADD SWAP3 PUSH1 0x0 SWAP3 SWAP1 SWAP2 SWAP1 DUP3 SWAP1 SUB ADD DUP2 DUP4 DUP8 DUP1 EXTCODESIZE ISZERO DUP1 ISZERO PUSH2 0x236D JUMPI PUSH1 0x0 DUP1 REVERT JUMPDEST POP GAS CALL ISZERO DUP1 ISZERO PUSH2 0x2381 JUMPI RETURNDATASIZE PUSH1 0x0 DUP1 RETURNDATACOPY RETURNDATASIZE PUSH1 0x0 REVERT JUMPDEST POP POP POP POP PUSH2 0x2410 JUMP JUMPDEST PUSH1 0x6 SLOAD PUSH1 0x40 DUP1 MLOAD PUSH4 0x6CCF0785 PUSH1 0xE1 SHL DUP2 MSTORE ADDRESS PUSH1 0x4 DUP3 ADD MSTORE PUSH1 0x0 PUSH1 0x24 DUP3 ADD DUP2 SWAP1 MSTORE PUSH1 0x44 DUP3 ADD DUP9 SWAP1 MSTORE PUSH1 0x3 PUSH1 0x64 DUP4 ADD MSTORE PUSH1 0x84 DUP3 ADD DUP6 SWAP1 MSTORE CALLER PUSH1 0xA4 DUP4 ADD MSTORE SWAP2 MLOAD PUSH1 0x1 PUSH1 0x1 PUSH1 0xA0 SHL SUB SWAP1 SWAP4 AND SWAP3 PUSH4 0xD99E0F0A SWAP3 PUSH1 0xC4 DUP1 DUP5 ADD SWAP4 SWAP2 SWAP3 SWAP2 DUP3 SWAP1 SUB ADD DUP2 DUP4 DUP8 DUP1 EXTCODESIZE ISZERO DUP1 ISZERO PUSH2 0x23F7 JUMPI PUSH1 0x0 DUP1 REVERT JUMPDEST POP GAS CALL ISZERO DUP1 ISZERO PUSH2 0x240B JUMPI RETURNDATASIZE PUSH1 0x0 DUP1 RETURNDATACOPY RETURNDATASIZE PUSH1 0x0 REVERT JUMPDEST POP POP POP POP JUMPDEST PUSH1 0x40 DUP1 MLOAD CALLER DUP2 MSTORE PUSH1 0x20 DUP2 ADD DUP6 SWAP1 MSTORE DUP1 DUP3 ADD DUP4 SWAP1 MSTORE PUSH1 0x60 DUP2 ADD DUP8 SWAP1 MSTORE PUSH1 0x80 DUP2 ADD DUP7 SWAP1 MSTORE SWAP1 MLOAD PUSH32 0x54E367F0027A2D665EAEFC8B79CECF9349820B7F8D08B784E824FDC7D9115EAB SWAP2 DUP2 SWAP1 SUB PUSH1 0xA0 ADD SWAP1 LOG1 POP POP POP POP POP JUMP JUMPDEST PUSH1 0x0 SLOAD PUSH1 0x1 PUSH1 0x1 PUSH1 0xA0 SHL SUB AND CALLER EQ PUSH2 0x24B2 JUMPI PUSH1 0x40 DUP1 MLOAD PUSH3 0x461BCD PUSH1 0xE5 SHL DUP2 MSTORE PUSH1 0x20 PUSH1 0x4 DUP3 ADD DUP2 SWAP1 MSTORE PUSH1 0x24 DUP3 ADD MSTORE PUSH1 0x0 DUP1 MLOAD PUSH1 0x20 PUSH2 0x426B DUP4 CODECOPY DUP2 MLOAD SWAP2 MSTORE PUSH1 0x44 DUP3 ADD MSTORE SWAP1 MLOAD SWAP1 DUP2 SWAP1 SUB PUSH1 0x64 ADD SWAP1 REVERT JUMPDEST PUSH1 0x7 SLOAD PUSH1 0x40 DUP1 MLOAD PUSH4 0x4E7DD42D PUSH1 0xE1 SHL DUP2 MSTORE PUSH1 0x1 PUSH1 0x1 PUSH1 0xA0 SHL SUB DUP5 DUP2 AND PUSH1 0x4 DUP4 ADD MSTORE SWAP2 MLOAD SWAP2 SWAP1 SWAP3 AND SWAP2 PUSH4 0x9CFBA85A SWAP2 PUSH1 0x24 DUP1 DUP4 ADD SWAP3 PUSH1 0x0 SWAP3 SWAP2 SWAP1 DUP3 SWAP1 SUB ADD DUP2 DUP4 DUP8 DUP1 EXTCODESIZE ISZERO DUP1 ISZERO PUSH2 0x9DA JUMPI PUSH1 0x0 DUP1 REVERT JUMPDEST PUSH1 0x1 SLOAD PUSH1 0x1 PUSH1 0x1 PUSH1 0xA0 SHL SUB AND DUP2 JUMP JUMPDEST PUSH1 0x0 SLOAD PUSH1 0x1 PUSH1 0x1 PUSH1 0xA0 SHL SUB AND CALLER EQ PUSH2 0x255C JUMPI PUSH1 0x40 DUP1 MLOAD PUSH3 0x461BCD PUSH1 0xE5 SHL DUP2 MSTORE PUSH1 0x20 PUSH1 0x4 DUP3 ADD DUP2 SWAP1 MSTORE PUSH1 0x24 DUP3 ADD MSTORE PUSH1 0x0 DUP1 MLOAD PUSH1 0x20 PUSH2 0x426B DUP4 CODECOPY DUP2 MLOAD SWAP2 MSTORE PUSH1 0x44 DUP3 ADD MSTORE SWAP1 MLOAD SWAP1 DUP2 SWAP1 SUB PUSH1 0x64 ADD SWAP1 REVERT JUMPDEST PUSH1 0x1 PUSH1 0x1 PUSH1 0xA0 SHL SUB DUP2 AND PUSH2 0x25A6 JUMPI PUSH1 0x40 DUP1 MLOAD PUSH3 0x461BCD PUSH1 0xE5 SHL DUP2 MSTORE PUSH1 0x20 PUSH1 0x4 DUP3 ADD MSTORE PUSH1 0xC PUSH1 0x24 DUP3 ADD MSTORE PUSH12 0x1A5B9D985B1A59081C1BDBDB PUSH1 0xA2 SHL PUSH1 0x44 DUP3 ADD MSTORE SWAP1 MLOAD SWAP1 DUP2 SWAP1 SUB PUSH1 0x64 ADD SWAP1 REVERT JUMPDEST PUSH1 0x5 DUP1 SLOAD PUSH1 0x1 PUSH1 0x1 PUSH1 0xA0 SHL SUB DUP4 DUP2 AND PUSH1 0x1 PUSH1 0x1 PUSH1 0xA0 SHL SUB NOT DUP4 AND DUP2 OR SWAP1 SWAP4 SSTORE PUSH1 0x40 DUP1 MLOAD SWAP2 SWAP1 SWAP3 AND DUP1 DUP3 MSTORE PUSH1 0x20 DUP3 ADD SWAP4 SWAP1 SWAP4 MSTORE DUP2 MLOAD PUSH32 0x652007BF928E65EB823AA08D80F212E3DDA774B35BE23C9D5345AEE033CA8BA9 SWAP3 SWAP2 DUP2 SWAP1 SUB SWAP1 SWAP2 ADD SWAP1 LOG1 POP POP JUMP JUMPDEST DUP1 ISZERO DUP1 PUSH2 0x261A JUMPI POP PUSH2 0x261A DUP2 PUSH2 0x9F5 JUMP JUMPDEST PUSH2 0x265F JUMPI PUSH1 0x40 DUP1 MLOAD PUSH3 0x461BCD PUSH1 0xE5 SHL DUP2 MSTORE PUSH1 0x20 PUSH1 0x4 DUP3 ADD MSTORE PUSH1 0x11 PUSH1 0x24 DUP3 ADD MSTORE PUSH17 0x6E6F7420737570706F727420726174696F PUSH1 0x78 SHL PUSH1 0x44 DUP3 ADD MSTORE SWAP1 MLOAD SWAP1 DUP2 SWAP1 SUB PUSH1 0x64 ADD SWAP1 REVERT JUMPDEST PUSH2 0x2667 PUSH2 0x37FF JUMP JUMPDEST PUSH1 0x2 SLOAD PUSH1 0x40 DUP1 MLOAD PUSH4 0x6EB1769F PUSH1 0xE1 SHL DUP2 MSTORE CALLER PUSH1 0x4 DUP3 ADD MSTORE ADDRESS PUSH1 0x24 DUP3 ADD MSTORE SWAP1 MLOAD DUP5 SWAP3 PUSH1 0x1 PUSH1 0x1 PUSH1 0xA0 SHL SUB AND SWAP2 PUSH4 0xDD62ED3E SWAP2 PUSH1 0x44 DUP1 DUP4 ADD SWAP3 PUSH1 0x20 SWAP3 SWAP2 SWAP1 DUP3 SWAP1 SUB ADD DUP2 DUP7 DUP1 EXTCODESIZE ISZERO DUP1 ISZERO PUSH2 0x26B7 JUMPI PUSH1 0x0 DUP1 REVERT JUMPDEST POP GAS STATICCALL ISZERO DUP1 ISZERO PUSH2 0x26CB JUMPI RETURNDATASIZE PUSH1 0x0 DUP1 RETURNDATACOPY RETURNDATASIZE PUSH1 0x0 REVERT JUMPDEST POP POP POP POP PUSH1 0x40 MLOAD RETURNDATASIZE PUSH1 0x20 DUP2 LT ISZERO PUSH2 0x26E1 JUMPI PUSH1 0x0 DUP1 REVERT JUMPDEST POP MLOAD LT ISZERO PUSH2 0x272D JUMPI PUSH1 0x40 DUP1 MLOAD PUSH3 0x461BCD PUSH1 0xE5 SHL DUP2 MSTORE PUSH1 0x20 PUSH1 0x4 DUP3 ADD MSTORE PUSH1 0x14 PUSH1 0x24 DUP3 ADD MSTORE PUSH20 0x6E6F7420656E6F75676820616C6C6F77616E6365 PUSH1 0x60 SHL PUSH1 0x44 DUP3 ADD MSTORE SWAP1 MLOAD SWAP1 DUP2 SWAP1 SUB PUSH1 0x64 ADD SWAP1 REVERT JUMPDEST PUSH1 0x2 SLOAD PUSH1 0x40 DUP1 MLOAD PUSH4 0x70A08231 PUSH1 0xE0 SHL DUP2 MSTORE ADDRESS PUSH1 0x4 DUP3 ADD MSTORE SWAP1 MLOAD PUSH1 0x0 SWAP3 PUSH1 0x1 PUSH1 0x1 PUSH1 0xA0 SHL SUB AND SWAP2 PUSH4 0x70A08231 SWAP2 PUSH1 0x24 DUP1 DUP4 ADD SWAP3 PUSH1 0x20 SWAP3 SWAP2 SWAP1 DUP3 SWAP1 SUB ADD DUP2 DUP7 DUP1 EXTCODESIZE ISZERO DUP1 ISZERO PUSH2 0x2778 JUMPI PUSH1 0x0 DUP1 REVERT JUMPDEST POP GAS STATICCALL ISZERO DUP1 ISZERO PUSH2 0x278C JUMPI RETURNDATASIZE PUSH1 0x0 DUP1 RETURNDATACOPY RETURNDATASIZE PUSH1 0x0 REVERT JUMPDEST POP POP POP POP PUSH1 0x40 MLOAD RETURNDATASIZE PUSH1 0x20 DUP2 LT ISZERO PUSH2 0x27A2 JUMPI PUSH1 0x0 DUP1 REVERT JUMPDEST POP MLOAD PUSH1 0x2 SLOAD SWAP1 SWAP2 POP PUSH2 0x27C5 SWAP1 PUSH1 0x1 PUSH1 0x1 PUSH1 0xA0 SHL SUB AND CALLER ADDRESS DUP7 PUSH4 0xFFFFFFFF PUSH2 0x3ED3 AND JUMP JUMPDEST PUSH1 0x2 SLOAD PUSH1 0x40 DUP1 MLOAD PUSH4 0x70A08231 PUSH1 0xE0 SHL DUP2 MSTORE ADDRESS PUSH1 0x4 DUP3 ADD MSTORE SWAP1 MLOAD PUSH1 0x0 SWAP3 PUSH1 0x1 PUSH1 0x1 PUSH1 0xA0 SHL SUB AND SWAP2 PUSH4 0x70A08231 SWAP2 PUSH1 0x24 DUP1 DUP4 ADD SWAP3 PUSH1 0x20 SWAP3 SWAP2 SWAP1 DUP3 SWAP1 SUB ADD DUP2 DUP7 DUP1 EXTCODESIZE ISZERO DUP1 ISZERO PUSH2 0x2810 JUMPI PUSH1 0x0 DUP1 REVERT JUMPDEST POP GAS STATICCALL ISZERO DUP1 ISZERO PUSH2 0x2824 JUMPI RETURNDATASIZE PUSH1 0x0 DUP1 RETURNDATACOPY RETURNDATASIZE PUSH1 0x0 REVERT JUMPDEST POP POP POP POP PUSH1 0x40 MLOAD RETURNDATASIZE PUSH1 0x20 DUP2 LT ISZERO PUSH2 0x283A JUMPI PUSH1 0x0 DUP1 REVERT JUMPDEST POP MLOAD PUSH1 0x40 DUP1 MLOAD PUSH4 0x14527A3D PUSH1 0xE3 SHL DUP2 MSTORE PUSH1 0x4 DUP2 ADD DUP4 SWAP1 MSTORE PUSH1 0x24 DUP2 ADD DUP6 SWAP1 MSTORE SWAP1 MLOAD SWAP2 SWAP3 POP PUSH20 0x0 SWAP2 PUSH4 0xA293D1E8 SWAP2 PUSH1 0x44 DUP1 DUP3 ADD SWAP3 PUSH1 0x20 SWAP3 SWAP1 SWAP2 SWAP1 DUP3 SWAP1 SUB ADD DUP2 DUP7 DUP1 EXTCODESIZE ISZERO DUP1 ISZERO PUSH2 0x2899 JUMPI PUSH1 0x0 DUP1 REVERT JUMPDEST POP GAS DELEGATECALL ISZERO DUP1 ISZERO PUSH2 0x28AD JUMPI RETURNDATASIZE PUSH1 0x0 DUP1 RETURNDATACOPY RETURNDATASIZE PUSH1 0x0 REVERT JUMPDEST POP POP POP POP PUSH1 0x40 MLOAD RETURNDATASIZE PUSH1 0x20 DUP2 LT ISZERO PUSH2 0x28C3 JUMPI PUSH1 0x0 DUP1 REVERT JUMPDEST POP MLOAD PUSH1 0x1 SLOAD PUSH1 0x2 SLOAD PUSH1 0x40 DUP1 MLOAD PUSH4 0x8B6EA7BB PUSH1 0xE0 SHL DUP2 MSTORE PUSH1 0x1 PUSH1 0x1 PUSH1 0xA0 SHL SUB SWAP3 DUP4 AND PUSH1 0x4 DUP3 ADD MSTORE SWAP1 MLOAD SWAP4 SWAP8 POP PUSH1 0x0 SWAP4 SWAP2 SWAP1 SWAP3 AND SWAP2 PUSH4 0x8B6EA7BB SWAP2 PUSH1 0x24 DUP1 DUP4 ADD SWAP3 PUSH1 0x20 SWAP3 SWAP2 SWAP1 DUP3 SWAP1 SUB ADD DUP2 DUP7 DUP1 EXTCODESIZE ISZERO DUP1 ISZERO PUSH2 0x291B JUMPI PUSH1 0x0 DUP1 REVERT JUMPDEST POP GAS STATICCALL ISZERO DUP1 ISZERO PUSH2 0x292F JUMPI RETURNDATASIZE PUSH1 0x0 DUP1 RETURNDATACOPY RETURNDATASIZE PUSH1 0x0 REVERT JUMPDEST POP POP POP POP PUSH1 0x40 MLOAD RETURNDATASIZE PUSH1 0x20 DUP2 LT ISZERO PUSH2 0x2945 JUMPI PUSH1 0x0 DUP1 REVERT JUMPDEST POP MLOAD PUSH1 0x40 DUP1 MLOAD PUSH4 0xD338431 PUSH1 0xE2 SHL DUP2 MSTORE SWAP1 MLOAD PUSH1 0x1 PUSH1 0x1 PUSH1 0xA0 SHL SUB SWAP1 SWAP3 AND SWAP2 PUSH4 0x34CE10C4 SWAP2 PUSH1 0x4 DUP1 DUP3 ADD SWAP3 PUSH1 0x20 SWAP3 SWAP1 SWAP2 SWAP1 DUP3 SWAP1 SUB ADD DUP2 DUP7 DUP1 EXTCODESIZE ISZERO DUP1 ISZERO PUSH2 0x2989 JUMPI PUSH1 0x0 DUP1 REVERT JUMPDEST POP GAS STATICCALL ISZERO DUP1 ISZERO PUSH2 0x299D JUMPI RETURNDATASIZE PUSH1 0x0 DUP1 RETURNDATACOPY RETURNDATASIZE PUSH1 0x0 REVERT JUMPDEST POP POP POP POP PUSH1 0x40 MLOAD RETURNDATASIZE PUSH1 0x20 DUP2 LT ISZERO PUSH2 0x29B3 JUMPI PUSH1 0x0 DUP1 REVERT JUMPDEST POP MLOAD SWAP1 POP PUSH8 0xDE0B6B3A7640000 DUP2 GT ISZERO PUSH2 0x2A08 JUMPI PUSH1 0x40 DUP1 MLOAD PUSH3 0x461BCD PUSH1 0xE5 SHL DUP2 MSTORE PUSH1 0x20 PUSH1 0x4 DUP3 ADD MSTORE PUSH1 0x11 PUSH1 0x24 DUP3 ADD MSTORE PUSH17 0x646563696D616C20746F6F206C61726765 PUSH1 0x78 SHL PUSH1 0x44 DUP3 ADD MSTORE SWAP1 MLOAD SWAP1 DUP2 SWAP1 SUB PUSH1 0x64 ADD SWAP1 REVERT JUMPDEST PUSH1 0x0 DUP6 PUSH20 0x0 PUSH4 0xD05C78DA SWAP1 SWAP2 PUSH8 0xDE0B6B3A7640000 PUSH1 0x40 MLOAD DUP4 PUSH4 0xFFFFFFFF AND PUSH1 0xE0 SHL DUP2 MSTORE PUSH1 0x4 ADD DUP1 DUP4 DUP2 MSTORE PUSH1 0x20 ADD DUP3 DUP2 MSTORE PUSH1 0x20 ADD SWAP3 POP POP POP PUSH1 0x20 PUSH1 0x40 MLOAD DUP1 DUP4 SUB DUP2 DUP7 DUP1 EXTCODESIZE ISZERO DUP1 ISZERO PUSH2 0x2A6B JUMPI PUSH1 0x0 DUP1 REVERT JUMPDEST POP GAS DELEGATECALL ISZERO DUP1 ISZERO PUSH2 0x2A7F JUMPI RETURNDATASIZE PUSH1 0x0 DUP1 RETURNDATACOPY RETURNDATASIZE PUSH1 0x0 REVERT JUMPDEST POP POP POP POP PUSH1 0x40 MLOAD RETURNDATASIZE PUSH1 0x20 DUP2 LT ISZERO PUSH2 0x2A95 JUMPI PUSH1 0x0 DUP1 REVERT JUMPDEST POP MLOAD PUSH1 0x40 DUP1 MLOAD PUSH4 0x2D64C7DF PUSH1 0xE2 SHL DUP2 MSTORE PUSH1 0x4 DUP2 ADD SWAP3 SWAP1 SWAP3 MSTORE PUSH1 0x24 DUP3 ADD DUP5 SWAP1 MSTORE MLOAD PUSH20 0x0 SWAP2 PUSH4 0xB5931F7C SWAP2 PUSH1 0x44 DUP1 DUP4 ADD SWAP3 PUSH1 0x20 SWAP3 SWAP2 SWAP1 DUP3 SWAP1 SUB ADD DUP2 DUP7 DUP1 EXTCODESIZE ISZERO DUP1 ISZERO PUSH2 0x2AF0 JUMPI PUSH1 0x0 DUP1 REVERT JUMPDEST POP GAS DELEGATECALL ISZERO DUP1 ISZERO PUSH2 0x2B04 JUMPI RETURNDATASIZE PUSH1 0x0 DUP1 RETURNDATACOPY RETURNDATASIZE PUSH1 0x0 REVERT JUMPDEST POP POP POP POP PUSH1 0x40 MLOAD RETURNDATASIZE PUSH1 0x20 DUP2 LT ISZERO PUSH2 0x2B1A JUMPI PUSH1 0x0 DUP1 REVERT JUMPDEST POP MLOAD PUSH1 0xA SLOAD SWAP1 SWAP2 POP ISZERO PUSH2 0x2CE3 JUMPI PUSH1 0xA SLOAD DUP2 GT ISZERO PUSH2 0x2B71 JUMPI PUSH1 0x40 DUP1 MLOAD PUSH3 0x461BCD PUSH1 0xE5 SHL DUP2 MSTORE PUSH1 0x20 PUSH1 0x4 DUP3 ADD MSTORE PUSH1 0x10 PUSH1 0x24 DUP3 ADD MSTORE PUSH16 0x1D1BDBC81B185C99D948185B5BDD5B9D PUSH1 0x82 SHL PUSH1 0x44 DUP3 ADD MSTORE SWAP1 MLOAD SWAP1 DUP2 SWAP1 SUB PUSH1 0x64 ADD SWAP1 REVERT JUMPDEST PUSH1 0xA SLOAD PUSH1 0x6 SLOAD PUSH1 0x9 SLOAD PUSH1 0x40 DUP1 MLOAD PUSH4 0xBACD8361 PUSH1 0xE0 SHL DUP2 MSTORE ADDRESS PUSH1 0x4 DUP3 ADD MSTORE PUSH1 0x2 SWAP1 SWAP3 ADD PUSH1 0x24 DUP4 ADD MSTORE PUSH1 0x44 DUP3 ADD DUP10 SWAP1 MSTORE PUSH1 0x1 PUSH1 0x64 DUP4 ADD MSTORE CALLER PUSH1 0x84 DUP4 ADD MSTORE MLOAD PUSH1 0x1 PUSH1 0x1 PUSH1 0xA0 SHL SUB SWAP1 SWAP3 AND SWAP2 PUSH4 0xBACD8361 SWAP2 PUSH1 0xA4 DUP1 DUP3 ADD SWAP3 PUSH1 0x20 SWAP3 SWAP1 SWAP2 SWAP1 DUP3 SWAP1 SUB ADD DUP2 DUP7 DUP1 EXTCODESIZE ISZERO DUP1 ISZERO PUSH2 0x2BDF JUMPI PUSH1 0x0 DUP1 REVERT JUMPDEST POP GAS STATICCALL ISZERO DUP1 ISZERO PUSH2 0x2BF3 JUMPI RETURNDATASIZE PUSH1 0x0 DUP1 RETURNDATACOPY RETURNDATASIZE PUSH1 0x0 REVERT JUMPDEST POP POP POP POP PUSH1 0x40 MLOAD RETURNDATASIZE PUSH1 0x20 DUP2 LT ISZERO PUSH2 0x2C09 JUMPI PUSH1 0x0 DUP1 REVERT JUMPDEST POP MLOAD PUSH1 0x40 DUP1 MLOAD PUSH4 0xE6CB9013 PUSH1 0xE0 SHL DUP2 MSTORE PUSH1 0x4 DUP2 ADD SWAP3 SWAP1 SWAP3 MSTORE PUSH1 0x24 DUP3 ADD DUP5 SWAP1 MSTORE MLOAD PUSH20 0x0 SWAP2 PUSH4 0xE6CB9013 SWAP2 PUSH1 0x44 DUP1 DUP4 ADD SWAP3 PUSH1 0x20 SWAP3 SWAP2 SWAP1 DUP3 SWAP1 SUB ADD DUP2 DUP7 DUP1 EXTCODESIZE ISZERO DUP1 ISZERO PUSH2 0x2C64 JUMPI PUSH1 0x0 DUP1 REVERT JUMPDEST POP GAS DELEGATECALL ISZERO DUP1 ISZERO PUSH2 0x2C78 JUMPI RETURNDATASIZE PUSH1 0x0 DUP1 RETURNDATACOPY RETURNDATASIZE PUSH1 0x0 REVERT JUMPDEST POP POP POP POP PUSH1 0x40 MLOAD RETURNDATASIZE PUSH1 0x20 DUP2 LT ISZERO PUSH2 0x2C8E JUMPI PUSH1 0x0 DUP1 REVERT JUMPDEST POP MLOAD GT ISZERO PUSH2 0x2CE3 JUMPI PUSH1 0x40 DUP1 MLOAD PUSH3 0x461BCD PUSH1 0xE5 SHL DUP2 MSTORE PUSH1 0x20 PUSH1 0x4 DUP3 ADD MSTORE PUSH1 0x19 PUSH1 0x24 DUP3 ADD MSTORE PUSH32 0x506C656173652075736520616E6F746865722077616C6C657400000000000000 PUSH1 0x44 DUP3 ADD MSTORE SWAP1 MLOAD SWAP1 DUP2 SWAP1 SUB PUSH1 0x64 ADD SWAP1 REVERT JUMPDEST PUSH1 0x6 SLOAD PUSH1 0x9 SLOAD PUSH1 0x40 DUP1 MLOAD PUSH4 0x6CCF0785 PUSH1 0xE1 SHL DUP2 MSTORE ADDRESS PUSH1 0x4 DUP3 ADD MSTORE PUSH1 0x2 SWAP1 SWAP3 ADD PUSH1 0x24 DUP4 ADD MSTORE PUSH1 0x44 DUP3 ADD DUP9 SWAP1 MSTORE PUSH1 0x1 PUSH1 0x64 DUP4 ADD MSTORE PUSH1 0x84 DUP3 ADD DUP5 SWAP1 MSTORE CALLER PUSH1 0xA4 DUP4 ADD MSTORE MLOAD PUSH1 0x1 PUSH1 0x1 PUSH1 0xA0 SHL SUB SWAP1 SWAP3 AND SWAP2 PUSH4 0xD99E0F0A SWAP2 PUSH1 0xC4 DUP1 DUP3 ADD SWAP3 PUSH1 0x0 SWAP3 SWAP1 SWAP2 SWAP1 DUP3 SWAP1 SUB ADD DUP2 DUP4 DUP8 DUP1 EXTCODESIZE ISZERO DUP1 ISZERO PUSH2 0x2D56 JUMPI PUSH1 0x0 DUP1 REVERT JUMPDEST POP GAS CALL ISZERO DUP1 ISZERO PUSH2 0x2D6A JUMPI RETURNDATASIZE PUSH1 0x0 DUP1 RETURNDATACOPY RETURNDATASIZE PUSH1 0x0 REVERT JUMPDEST POP POP PUSH1 0x8 SLOAD PUSH1 0x1 PUSH1 0x1 PUSH1 0xA0 SHL SUB AND ISZERO SWAP2 POP PUSH2 0x2E00 SWAP1 POP JUMPI PUSH1 0x8 SLOAD PUSH1 0x9 SLOAD PUSH1 0x40 DUP1 MLOAD PUSH4 0xF808A55 PUSH1 0xE1 SHL DUP2 MSTORE CALLER PUSH1 0x4 DUP3 ADD MSTORE PUSH1 0x24 DUP2 ADD DUP6 SWAP1 MSTORE PUSH1 0x44 DUP2 ADD DUP10 SWAP1 MSTORE PUSH1 0x2 SWAP1 SWAP3 ADD PUSH1 0x64 DUP4 ADD MSTORE MLOAD PUSH1 0x1 PUSH1 0x1 PUSH1 0xA0 SHL SUB SWAP1 SWAP3 AND SWAP2 PUSH4 0x1F0114AA SWAP2 PUSH1 0x84 DUP1 DUP3 ADD SWAP3 PUSH1 0x0 SWAP3 SWAP1 SWAP2 SWAP1 DUP3 SWAP1 SUB ADD DUP2 DUP4 DUP8 DUP1 EXTCODESIZE ISZERO DUP1 ISZERO PUSH2 0x2DE7 JUMPI PUSH1 0x0 DUP1 REVERT JUMPDEST POP GAS CALL ISZERO DUP1 ISZERO PUSH2 0x2DFB JUMPI RETURNDATASIZE PUSH1 0x0 DUP1 RETURNDATACOPY RETURNDATASIZE PUSH1 0x0 REVERT JUMPDEST POP POP POP POP JUMPDEST PUSH1 0x9 SLOAD PUSH1 0x40 DUP1 MLOAD CALLER DUP2 MSTORE PUSH1 0x20 DUP2 ADD DUP10 SWAP1 MSTORE DUP1 DUP3 ADD DUP5 SWAP1 MSTORE PUSH1 0x2 SWAP1 SWAP3 ADD PUSH1 0x60 DUP4 ADD MSTORE PUSH1 0x80 DUP3 ADD DUP8 SWAP1 MSTORE MLOAD PUSH32 0x2D2443DFA56BBD3EDC124F14CC70910210AF27E37180113F9C9AA729E31B26A3 SWAP2 DUP2 SWAP1 SUB PUSH1 0xA0 ADD SWAP1 LOG1 POP POP POP POP POP POP JUMP JUMPDEST DUP2 ISZERO DUP1 PUSH2 0x2E6C JUMPI POP PUSH2 0x2E6C DUP3 PUSH2 0x9F5 JUMP JUMPDEST PUSH2 0x2EB1 JUMPI PUSH1 0x40 DUP1 MLOAD PUSH3 0x461BCD PUSH1 0xE5 SHL DUP2 MSTORE PUSH1 0x20 PUSH1 0x4 DUP3 ADD MSTORE PUSH1 0x11 PUSH1 0x24 DUP3 ADD MSTORE PUSH17 0x6E6F7420737570706F727420726174696F PUSH1 0x78 SHL PUSH1 0x44 DUP3 ADD MSTORE SWAP1 MLOAD SWAP1 DUP2 SWAP1 SUB PUSH1 0x64 ADD SWAP1 REVERT JUMPDEST PUSH2 0x2EB9 PUSH2 0x37FF JUMP JUMPDEST DUP3 PUSH1 0x9 SLOAD PUSH1 0x1 ADD LT ISZERO PUSH2 0x2F08 JUMPI PUSH1 0x40 DUP1 MLOAD PUSH3 0x461BCD PUSH1 0xE5 SHL DUP2 MSTORE PUSH1 0x20 PUSH1 0x4 DUP3 ADD MSTORE PUSH1 0x12 PUSH1 0x24 DUP3 ADD MSTORE PUSH18 0x11D2CE881C195C9A5BD9081B9BDD08195B99 PUSH1 0x72 SHL PUSH1 0x44 DUP3 ADD MSTORE SWAP1 MLOAD SWAP1 DUP2 SWAP1 SUB PUSH1 0x64 ADD SWAP1 REVERT JUMPDEST PUSH1 0x1 SLOAD PUSH1 0x2 SLOAD PUSH1 0x40 DUP1 MLOAD PUSH4 0x8B6EA7BB PUSH1 0xE0 SHL DUP2 MSTORE PUSH1 0x1 PUSH1 0x1 PUSH1 0xA0 SHL SUB SWAP3 DUP4 AND PUSH1 0x4 DUP3 ADD MSTORE SWAP1 MLOAD PUSH1 0x0 SWAP4 SWAP3 SWAP1 SWAP3 AND SWAP2 PUSH4 0x8B6EA7BB SWAP2 PUSH1 0x24 DUP1 DUP3 ADD SWAP3 PUSH1 0x20 SWAP3 SWAP1 SWAP2 SWAP1 DUP3 SWAP1 SUB ADD DUP2 DUP7 DUP1 EXTCODESIZE ISZERO DUP1 ISZERO PUSH2 0x2F5C JUMPI PUSH1 0x0 DUP1 REVERT JUMPDEST POP GAS STATICCALL ISZERO DUP1 ISZERO PUSH2 0x2F70 JUMPI RETURNDATASIZE PUSH1 0x0 DUP1 RETURNDATACOPY RETURNDATASIZE PUSH1 0x0 REVERT JUMPDEST POP POP POP POP PUSH1 0x40 MLOAD RETURNDATASIZE PUSH1 0x20 DUP2 LT ISZERO PUSH2 0x2F86 JUMPI PUSH1 0x0 DUP1 REVERT JUMPDEST POP MLOAD PUSH1 0x40 DUP1 MLOAD PUSH4 0xD338431 PUSH1 0xE2 SHL DUP2 MSTORE SWAP1 MLOAD PUSH1 0x1 PUSH1 0x1 PUSH1 0xA0 SHL SUB SWAP1 SWAP3 AND SWAP2 PUSH4 0x34CE10C4 SWAP2 PUSH1 0x4 DUP1 DUP3 ADD SWAP3 PUSH1 0x20 SWAP3 SWAP1 SWAP2 SWAP1 DUP3 SWAP1 SUB ADD DUP2 DUP7 DUP1 EXTCODESIZE ISZERO DUP1 ISZERO PUSH2 0x2FCA JUMPI PUSH1 0x0 DUP1 REVERT JUMPDEST POP GAS STATICCALL ISZERO DUP1 ISZERO PUSH2 0x2FDE JUMPI RETURNDATASIZE PUSH1 0x0 DUP1 RETURNDATACOPY RETURNDATASIZE PUSH1 0x0 REVERT JUMPDEST POP POP POP POP PUSH1 0x40 MLOAD RETURNDATASIZE PUSH1 0x20 DUP2 LT ISZERO PUSH2 0x2FF4 JUMPI PUSH1 0x0 DUP1 REVERT JUMPDEST POP MLOAD PUSH1 0x6 SLOAD PUSH1 0x40 DUP1 MLOAD PUSH4 0x68B413E3 PUSH1 0xE1 SHL DUP2 MSTORE ADDRESS PUSH1 0x4 DUP3 ADD MSTORE PUSH1 0x24 DUP2 ADD DUP9 SWAP1 MSTORE PUSH1 0x44 DUP2 ADD DUP8 SWAP1 MSTORE PUSH1 0x2 PUSH1 0x64 DUP3 ADD MSTORE SWAP1 MLOAD SWAP3 SWAP4 POP PUSH1 0x0 SWAP3 PUSH1 0x1 PUSH1 0x1 PUSH1 0xA0 SHL SUB SWAP1 SWAP3 AND SWAP2 PUSH4 0xD16827C6 SWAP2 PUSH1 0x84 DUP1 DUP3 ADD SWAP3 PUSH1 0x20 SWAP3 SWAP1 SWAP2 SWAP1 DUP3 SWAP1 SUB ADD DUP2 DUP7 DUP1 EXTCODESIZE ISZERO DUP1 ISZERO PUSH2 0x305C JUMPI PUSH1 0x0 DUP1 REVERT JUMPDEST POP GAS STATICCALL ISZERO DUP1 ISZERO PUSH2 0x3070 JUMPI RETURNDATASIZE PUSH1 0x0 DUP1 RETURNDATACOPY RETURNDATASIZE PUSH1 0x0 REVERT JUMPDEST POP POP POP POP PUSH1 0x40 MLOAD RETURNDATASIZE PUSH1 0x20 DUP2 LT ISZERO PUSH2 0x3086 JUMPI PUSH1 0x0 DUP1 REVERT JUMPDEST POP MLOAD PUSH1 0x40 DUP1 MLOAD PUSH4 0x682E3C6D PUSH1 0xE1 SHL DUP2 MSTORE PUSH1 0x4 DUP2 ADD DUP7 SWAP1 MSTORE PUSH1 0x24 DUP2 ADD DUP4 SWAP1 MSTORE SWAP1 MLOAD SWAP2 SWAP3 POP PUSH1 0x0 SWAP2 PUSH20 0x0 SWAP2 PUSH4 0xD05C78DA SWAP2 PUSH1 0x44 DUP1 DUP4 ADD SWAP3 PUSH1 0x20 SWAP3 SWAP2 SWAP1 DUP3 SWAP1 SUB ADD DUP2 DUP7 DUP1 EXTCODESIZE ISZERO DUP1 ISZERO PUSH2 0x30E7 JUMPI PUSH1 0x0 DUP1 REVERT JUMPDEST POP GAS DELEGATECALL ISZERO DUP1 ISZERO PUSH2 0x30FB JUMPI RETURNDATASIZE PUSH1 0x0 DUP1 RETURNDATACOPY RETURNDATASIZE PUSH1 0x0 REVERT JUMPDEST POP POP POP POP PUSH1 0x40 MLOAD RETURNDATASIZE PUSH1 0x20 DUP2 LT ISZERO PUSH2 0x3111 JUMPI PUSH1 0x0 DUP1 REVERT JUMPDEST POP MLOAD PUSH1 0x40 DUP1 MLOAD PUSH4 0x682E3C6D PUSH1 0xE1 SHL DUP2 MSTORE PUSH1 0x4 DUP2 ADD SWAP3 SWAP1 SWAP3 MSTORE PUSH1 0x24 DUP3 ADD DUP6 SWAP1 MSTORE MLOAD PUSH20 0x0 SWAP2 PUSH4 0xD05C78DA SWAP2 PUSH1 0x44 DUP1 DUP4 ADD SWAP3 PUSH1 0x20 SWAP3 SWAP2 SWAP1 DUP3 SWAP1 SUB ADD DUP2 DUP7 DUP1 EXTCODESIZE ISZERO DUP1 ISZERO PUSH2 0x316C JUMPI PUSH1 0x0 DUP1 REVERT JUMPDEST POP GAS DELEGATECALL ISZERO DUP1 ISZERO PUSH2 0x3180 JUMPI RETURNDATASIZE PUSH1 0x0 DUP1 RETURNDATACOPY RETURNDATASIZE PUSH1 0x0 REVERT JUMPDEST POP POP POP POP PUSH1 0x40 MLOAD RETURNDATASIZE PUSH1 0x20 DUP2 LT ISZERO PUSH2 0x3196 JUMPI PUSH1 0x0 DUP1 REVERT JUMPDEST POP MLOAD PUSH1 0x40 DUP1 MLOAD PUSH4 0x2D64C7DF PUSH1 0xE2 SHL DUP2 MSTORE PUSH1 0x4 DUP2 ADD SWAP3 SWAP1 SWAP3 MSTORE PUSH15 0xC097CE7BC90715B34B9F1000000000 PUSH1 0x24 DUP4 ADD MSTORE MLOAD PUSH20 0x0 SWAP2 PUSH4 0xB5931F7C SWAP2 PUSH1 0x44 DUP1 DUP4 ADD SWAP3 PUSH1 0x20 SWAP3 SWAP2 SWAP1 DUP3 SWAP1 SUB ADD DUP2 DUP7 DUP1 EXTCODESIZE ISZERO DUP1 ISZERO PUSH2 0x31FF JUMPI PUSH1 0x0 DUP1 REVERT JUMPDEST POP GAS DELEGATECALL ISZERO DUP1 ISZERO PUSH2 0x3213 JUMPI RETURNDATASIZE PUSH1 0x0 DUP1 RETURNDATACOPY RETURNDATASIZE PUSH1 0x0 REVERT JUMPDEST POP POP POP POP PUSH1 0x40 MLOAD RETURNDATASIZE PUSH1 0x20 DUP2 LT ISZERO PUSH2 0x3229 JUMPI PUSH1 0x0 DUP1 REVERT JUMPDEST POP MLOAD PUSH1 0x6 SLOAD PUSH1 0x40 DUP1 MLOAD PUSH4 0x758E6FD PUSH1 0xE5 SHL DUP2 MSTORE ADDRESS PUSH1 0x4 DUP3 ADD MSTORE PUSH1 0x24 DUP2 ADD DUP11 SWAP1 MSTORE PUSH1 0x44 DUP2 ADD DUP10 SWAP1 MSTORE PUSH1 0x2 PUSH1 0x64 DUP3 ADD MSTORE PUSH1 0x84 DUP2 ADD DUP9 SWAP1 MSTORE CALLER PUSH1 0xA4 DUP3 ADD MSTORE SWAP1 MLOAD SWAP3 SWAP4 POP PUSH1 0x1 PUSH1 0x1 PUSH1 0xA0 SHL SUB SWAP1 SWAP2 AND SWAP2 PUSH4 0xEB1CDFA0 SWAP2 PUSH1 0xC4 DUP1 DUP3 ADD SWAP3 PUSH1 0x0 SWAP3 SWAP1 SWAP2 SWAP1 DUP3 SWAP1 SUB ADD DUP2 DUP4 DUP8 DUP1 EXTCODESIZE ISZERO DUP1 ISZERO PUSH2 0x329C JUMPI PUSH1 0x0 DUP1 REVERT JUMPDEST POP GAS CALL ISZERO DUP1 ISZERO PUSH2 0x32B0 JUMPI RETURNDATASIZE PUSH1 0x0 DUP1 RETURNDATACOPY RETURNDATASIZE PUSH1 0x0 REVERT JUMPDEST POP POP POP POP PUSH1 0x3 PUSH1 0x0 SWAP1 SLOAD SWAP1 PUSH2 0x100 EXP SWAP1 DIV PUSH1 0x1 PUSH1 0x1 PUSH1 0xA0 SHL SUB AND PUSH1 0x1 PUSH1 0x1 PUSH1 0xA0 SHL SUB AND PUSH4 0x70F9E52F PUSH1 0x40 MLOAD DUP2 PUSH4 0xFFFFFFFF AND PUSH1 0xE0 SHL DUP2 MSTORE PUSH1 0x4 ADD PUSH1 0x20 PUSH1 0x40 MLOAD DUP1 DUP4 SUB DUP2 DUP7 DUP1 EXTCODESIZE ISZERO DUP1 ISZERO PUSH2 0x3302 JUMPI PUSH1 0x0 DUP1 REVERT JUMPDEST POP GAS STATICCALL ISZERO DUP1 ISZERO PUSH2 0x3316 JUMPI RETURNDATASIZE PUSH1 0x0 DUP1 RETURNDATACOPY RETURNDATASIZE PUSH1 0x0 REVERT JUMPDEST POP POP POP POP PUSH1 0x40 MLOAD RETURNDATASIZE PUSH1 0x20 DUP2 LT ISZERO PUSH2 0x332C JUMPI PUSH1 0x0 DUP1 REVERT JUMPDEST POP MLOAD ISZERO DUP1 ISZERO SWAP1 PUSH2 0x33B4 JUMPI POP PUSH1 0x3 SLOAD PUSH1 0x40 DUP1 MLOAD PUSH4 0x46CC0E0D PUSH1 0xE0 SHL DUP2 MSTORE SWAP1 MLOAD PUSH1 0x0 SWAP3 PUSH1 0x1 PUSH1 0x1 PUSH1 0xA0 SHL SUB AND SWAP2 PUSH4 0x46CC0E0D SWAP2 PUSH1 0x4 DUP1 DUP4 ADD SWAP3 PUSH1 0x20 SWAP3 SWAP2 SWAP1 DUP3 SWAP1 SUB ADD DUP2 DUP7 DUP1 EXTCODESIZE ISZERO DUP1 ISZERO PUSH2 0x337C JUMPI PUSH1 0x0 DUP1 REVERT JUMPDEST POP GAS STATICCALL ISZERO DUP1 ISZERO PUSH2 0x3390 JUMPI RETURNDATASIZE PUSH1 0x0 DUP1 RETURNDATACOPY RETURNDATASIZE PUSH1 0x0 REVERT JUMPDEST POP POP POP POP PUSH1 0x40 MLOAD RETURNDATASIZE PUSH1 0x20 DUP2 LT ISZERO PUSH2 0x33A6 JUMPI PUSH1 0x0 DUP1 REVERT JUMPDEST POP MLOAD PUSH1 0x1 PUSH1 0x1 PUSH1 0xA0 SHL SUB AND EQ ISZERO JUMPDEST ISZERO PUSH2 0x3706 JUMPI PUSH1 0x3 SLOAD PUSH1 0x40 DUP1 MLOAD PUSH4 0x70F9E52F PUSH1 0xE0 SHL DUP2 MSTORE SWAP1 MLOAD PUSH1 0x0 SWAP3 PUSH20 0x0 SWAP3 PUSH4 0xD05C78DA SWAP3 DUP7 SWAP3 PUSH1 0x1 PUSH1 0x1 PUSH1 0xA0 SHL SUB AND SWAP2 PUSH4 0x70F9E52F SWAP2 PUSH1 0x4 DUP1 DUP4 ADD SWAP3 PUSH1 0x20 SWAP3 SWAP2 SWAP1 DUP3 SWAP1 SUB ADD DUP2 DUP7 DUP1 EXTCODESIZE ISZERO DUP1 ISZERO PUSH2 0x341C JUMPI PUSH1 0x0 DUP1 REVERT JUMPDEST POP GAS STATICCALL ISZERO DUP1 ISZERO PUSH2 0x3430 JUMPI RETURNDATASIZE PUSH1 0x0 DUP1 RETURNDATACOPY RETURNDATASIZE PUSH1 0x0 REVERT JUMPDEST POP POP POP POP PUSH1 0x40 MLOAD RETURNDATASIZE PUSH1 0x20 DUP2 LT ISZERO PUSH2 0x3446 JUMPI PUSH1 0x0 DUP1 REVERT JUMPDEST POP MLOAD PUSH1 0x40 DUP1 MLOAD PUSH1 0x1 PUSH1 0x1 PUSH1 0xE0 SHL SUB NOT PUSH1 0xE0 DUP7 SWAP1 SHL AND DUP2 MSTORE PUSH1 0x4 DUP2 ADD SWAP4 SWAP1 SWAP4 MSTORE PUSH1 0x24 DUP4 ADD SWAP2 SWAP1 SWAP2 MSTORE MLOAD PUSH1 0x44 DUP1 DUP4 ADD SWAP3 PUSH1 0x20 SWAP3 SWAP2 SWAP1 DUP3 SWAP1 SUB ADD DUP2 DUP7 DUP1 EXTCODESIZE ISZERO DUP1 ISZERO PUSH2 0x348D JUMPI PUSH1 0x0 DUP1 REVERT JUMPDEST POP GAS DELEGATECALL ISZERO DUP1 ISZERO PUSH2 0x34A1 JUMPI RETURNDATASIZE PUSH1 0x0 DUP1 RETURNDATACOPY RETURNDATASIZE PUSH1 0x0 REVERT JUMPDEST POP POP POP POP PUSH1 0x40 MLOAD RETURNDATASIZE PUSH1 0x20 DUP2 LT ISZERO PUSH2 0x34B7 JUMPI PUSH1 0x0 DUP1 REVERT JUMPDEST POP MLOAD PUSH1 0x3 SLOAD PUSH1 0x40 DUP1 MLOAD PUSH4 0x39DD49D PUSH1 0xE2 SHL DUP2 MSTORE SWAP1 MLOAD PUSH20 0x0 SWAP4 PUSH4 0xB5931F7C SWAP4 SWAP1 SWAP3 PUSH1 0x1 PUSH1 0x1 PUSH1 0xA0 SHL SUB SWAP1 SWAP2 AND SWAP2 PUSH4 0xE775274 SWAP2 PUSH1 0x4 DUP1 DUP3 ADD SWAP3 PUSH1 0x20 SWAP3 SWAP1 SWAP2 SWAP1 DUP3 SWAP1 SUB ADD DUP2 DUP7 DUP1 EXTCODESIZE ISZERO DUP1 ISZERO PUSH2 0x351C JUMPI PUSH1 0x0 DUP1 REVERT JUMPDEST POP GAS STATICCALL ISZERO DUP1 ISZERO PUSH2 0x3530 JUMPI RETURNDATASIZE PUSH1 0x0 DUP1 RETURNDATACOPY RETURNDATASIZE PUSH1 0x0 REVERT JUMPDEST POP POP POP POP PUSH1 0x40 MLOAD RETURNDATASIZE PUSH1 0x20 DUP2 LT ISZERO PUSH2 0x3546 JUMPI PUSH1 0x0 DUP1 REVERT JUMPDEST POP MLOAD PUSH1 0x40 DUP1 MLOAD PUSH1 0x1 PUSH1 0x1 PUSH1 0xE0 SHL SUB NOT PUSH1 0xE0 DUP7 SWAP1 SHL AND DUP2 MSTORE PUSH1 0x4 DUP2 ADD SWAP4 SWAP1 SWAP4 MSTORE PUSH1 0x24 DUP4 ADD SWAP2 SWAP1 SWAP2 MSTORE MLOAD PUSH1 0x44 DUP1 DUP4 ADD SWAP3 PUSH1 0x20 SWAP3 SWAP2 SWAP1 DUP3 SWAP1 SUB ADD DUP2 DUP7 DUP1 EXTCODESIZE ISZERO DUP1 ISZERO PUSH2 0x358D JUMPI PUSH1 0x0 DUP1 REVERT JUMPDEST POP GAS DELEGATECALL ISZERO DUP1 ISZERO PUSH2 0x35A1 JUMPI RETURNDATASIZE PUSH1 0x0 DUP1 RETURNDATACOPY RETURNDATASIZE PUSH1 0x0 REVERT JUMPDEST POP POP POP POP PUSH1 0x40 MLOAD RETURNDATASIZE PUSH1 0x20 DUP2 LT ISZERO PUSH2 0x35B7 JUMPI PUSH1 0x0 DUP1 REVERT JUMPDEST POP MLOAD PUSH1 0x40 DUP1 MLOAD PUSH4 0x14527A3D PUSH1 0xE3 SHL DUP2 MSTORE PUSH1 0x4 DUP2 ADD DUP6 SWAP1 MSTORE PUSH1 0x24 DUP2 ADD DUP4 SWAP1 MSTORE SWAP1 MLOAD SWAP2 SWAP3 POP PUSH1 0x0 SWAP2 PUSH20 0x0 SWAP2 PUSH4 0xA293D1E8 SWAP2 PUSH1 0x44 DUP1 DUP4 ADD SWAP3 PUSH1 0x20 SWAP3 SWAP2 SWAP1 DUP3 SWAP1 SUB ADD DUP2 DUP7 DUP1 EXTCODESIZE ISZERO DUP1 ISZERO PUSH2 0x3618 JUMPI PUSH1 0x0 DUP1 REVERT JUMPDEST POP GAS DELEGATECALL ISZERO DUP1 ISZERO PUSH2 0x362C JUMPI RETURNDATASIZE PUSH1 0x0 DUP1 RETURNDATACOPY RETURNDATASIZE PUSH1 0x0 REVERT JUMPDEST POP POP POP POP PUSH1 0x40 MLOAD RETURNDATASIZE PUSH1 0x20 DUP2 LT ISZERO PUSH2 0x3642 JUMPI PUSH1 0x0 DUP1 REVERT JUMPDEST POP MLOAD PUSH1 0x2 SLOAD SWAP1 SWAP2 POP PUSH2 0x3664 SWAP1 PUSH1 0x1 PUSH1 0x1 PUSH1 0xA0 SHL SUB AND CALLER DUP4 PUSH4 0xFFFFFFFF PUSH2 0x3E7C AND JUMP JUMPDEST PUSH1 0x3 SLOAD PUSH1 0x40 DUP1 MLOAD PUSH4 0x46CC0E0D PUSH1 0xE0 SHL DUP2 MSTORE SWAP1 MLOAD PUSH2 0x36AA SWAP3 PUSH1 0x1 PUSH1 0x1 PUSH1 0xA0 SHL SUB AND SWAP2 PUSH4 0x46CC0E0D SWAP2 PUSH1 0x4 DUP1 DUP4 ADD SWAP3 PUSH1 0x20 SWAP3 SWAP2 SWAP1 DUP3 SWAP1 SUB ADD DUP2 DUP7 DUP1 EXTCODESIZE ISZERO DUP1 ISZERO PUSH2 0x11C5 JUMPI PUSH1 0x0 DUP1 REVERT JUMPDEST PUSH1 0x40 DUP1 MLOAD CALLER DUP2 MSTORE PUSH1 0x20 DUP2 ADD DUP9 SWAP1 MSTORE DUP1 DUP3 ADD DUP4 SWAP1 MSTORE PUSH1 0x60 DUP2 ADD DUP5 SWAP1 MSTORE PUSH1 0x80 DUP2 ADD DUP11 SWAP1 MSTORE PUSH1 0xA0 DUP2 ADD DUP10 SWAP1 MSTORE SWAP1 MLOAD PUSH32 0x4C415EDFB62D967E09C127DD1C6E95256B964EB6A9411F52F1C272EAB216D8B9 SWAP2 DUP2 SWAP1 SUB PUSH1 0xC0 ADD SWAP1 LOG1 POP POP PUSH2 0x3779 JUMP JUMPDEST PUSH1 0x2 SLOAD PUSH2 0x3723 SWAP1 PUSH1 0x1 PUSH1 0x1 PUSH1 0xA0 SHL SUB AND CALLER DUP4 PUSH4 0xFFFFFFFF PUSH2 0x3E7C AND JUMP JUMPDEST PUSH1 0x40 DUP1 MLOAD CALLER DUP2 MSTORE PUSH1 0x20 DUP2 ADD DUP7 SWAP1 MSTORE DUP1 DUP3 ADD DUP4 SWAP1 MSTORE PUSH1 0x0 PUSH1 0x60 DUP3 ADD MSTORE PUSH1 0x80 DUP2 ADD DUP9 SWAP1 MSTORE PUSH1 0xA0 DUP2 ADD DUP8 SWAP1 MSTORE SWAP1 MLOAD PUSH32 0x4C415EDFB62D967E09C127DD1C6E95256B964EB6A9411F52F1C272EAB216D8B9 SWAP2 DUP2 SWAP1 SUB PUSH1 0xC0 ADD SWAP1 LOG1 JUMPDEST POP POP POP POP POP POP JUMP JUMPDEST PUSH1 0x0 SLOAD PUSH1 0x1 PUSH1 0x1 PUSH1 0xA0 SHL SUB AND CALLER EQ PUSH2 0x37CE JUMPI PUSH1 0x40 DUP1 MLOAD PUSH3 0x461BCD PUSH1 0xE5 SHL DUP2 MSTORE PUSH1 0x20 PUSH1 0x4 DUP3 ADD DUP2 SWAP1 MSTORE PUSH1 0x24 DUP3 ADD MSTORE PUSH1 0x0 DUP1 MLOAD PUSH1 0x20 PUSH2 0x426B DUP4 CODECOPY DUP2 MLOAD SWAP2 MSTORE PUSH1 0x44 DUP3 ADD MSTORE SWAP1 MLOAD SWAP1 DUP2 SWAP1 SUB PUSH1 0x64 ADD SWAP1 REVERT JUMPDEST PUSH2 0x1F44 DUP2 PUSH2 0x3F2D JUMP JUMPDEST PUSH1 0x2 SLOAD PUSH1 0x1 PUSH1 0x1 PUSH1 0xA0 SHL SUB AND DUP2 JUMP JUMPDEST PUSH1 0xB PUSH1 0x20 MSTORE PUSH1 0x0 SWAP1 DUP2 MSTORE PUSH1 0x40 SWAP1 KECCAK256 DUP1 SLOAD PUSH1 0x1 SWAP1 SWAP2 ADD SLOAD DUP3 JUMP JUMPDEST PUSH1 0x4 DUP1 SLOAD PUSH1 0x40 DUP1 MLOAD PUSH4 0x2E96B119 PUSH1 0xE0 SHL DUP2 MSTORE SWAP1 MLOAD PUSH1 0x1 PUSH1 0x1 PUSH1 0xA0 SHL SUB SWAP1 SWAP3 AND SWAP3 PUSH4 0x2E96B119 SWAP3 DUP3 DUP3 ADD SWAP3 PUSH1 0x20 SWAP3 SWAP1 DUP3 SWAP1 SUB ADD DUP2 PUSH1 0x0 DUP8 DUP1 EXTCODESIZE ISZERO DUP1 ISZERO PUSH2 0x3843 JUMPI PUSH1 0x0 DUP1 REVERT JUMPDEST POP GAS CALL ISZERO DUP1 ISZERO PUSH2 0x3857 JUMPI RETURNDATASIZE PUSH1 0x0 DUP1 RETURNDATACOPY RETURNDATASIZE PUSH1 0x0 REVERT JUMPDEST POP POP POP POP PUSH1 0x40 MLOAD RETURNDATASIZE PUSH1 0x20 DUP2 LT ISZERO PUSH2 0x386D JUMPI PUSH1 0x0 DUP1 REVERT JUMPDEST POP POP PUSH1 0x4 DUP1 SLOAD PUSH1 0x40 DUP1 MLOAD PUSH4 0xA32BF597 PUSH1 0xE0 SHL DUP2 MSTORE SWAP1 MLOAD PUSH1 0x0 SWAP4 PUSH1 0x1 PUSH1 0x1 PUSH1 0xA0 SHL SUB SWAP1 SWAP4 AND SWAP3 PUSH4 0xA32BF597 SWAP3 DUP1 DUP3 ADD SWAP3 PUSH1 0x20 SWAP3 SWAP1 SWAP2 DUP3 SWAP1 SUB ADD DUP2 DUP8 DUP8 DUP1 EXTCODESIZE ISZERO DUP1 ISZERO PUSH2 0x38B6 JUMPI PUSH1 0x0 DUP1 REVERT JUMPDEST POP GAS CALL ISZERO DUP1 ISZERO PUSH2 0x38CA JUMPI RETURNDATASIZE PUSH1 0x0 DUP1 RETURNDATACOPY RETURNDATASIZE PUSH1 0x0 REVERT JUMPDEST POP POP POP POP PUSH1 0x40 MLOAD RETURNDATASIZE PUSH1 0x20 DUP2 LT ISZERO PUSH2 0x38E0 JUMPI PUSH1 0x0 DUP1 REVERT JUMPDEST POP MLOAD PUSH1 0x0 DUP2 DUP2 MSTORE PUSH1 0xB PUSH1 0x20 MSTORE PUSH1 0x40 SWAP1 KECCAK256 SLOAD SWAP1 SWAP2 POP PUSH2 0x39F2 JUMPI PUSH1 0x1 SLOAD PUSH1 0x2 SLOAD PUSH1 0x40 DUP1 MLOAD PUSH4 0x8B6EA7BB PUSH1 0xE0 SHL DUP2 MSTORE PUSH1 0x1 PUSH1 0x1 PUSH1 0xA0 SHL SUB SWAP3 DUP4 AND PUSH1 0x4 DUP3 ADD MSTORE SWAP1 MLOAD SWAP2 SWAP1 SWAP3 AND SWAP2 PUSH4 0x8B6EA7BB SWAP2 PUSH1 0x24 DUP1 DUP4 ADD SWAP3 PUSH1 0x20 SWAP3 SWAP2 SWAP1 DUP3 SWAP1 SUB ADD DUP2 DUP7 DUP1 EXTCODESIZE ISZERO DUP1 ISZERO PUSH2 0x3948 JUMPI PUSH1 0x0 DUP1 REVERT JUMPDEST POP GAS STATICCALL ISZERO DUP1 ISZERO PUSH2 0x395C JUMPI RETURNDATASIZE PUSH1 0x0 DUP1 RETURNDATACOPY RETURNDATASIZE PUSH1 0x0 REVERT JUMPDEST POP POP POP POP PUSH1 0x40 MLOAD RETURNDATASIZE PUSH1 0x20 DUP2 LT ISZERO PUSH2 0x3972 JUMPI PUSH1 0x0 DUP1 REVERT JUMPDEST POP MLOAD PUSH1 0x40 DUP1 MLOAD PUSH4 0x712D52FD PUSH1 0xE1 SHL DUP2 MSTORE SWAP1 MLOAD PUSH1 0x1 PUSH1 0x1 PUSH1 0xA0 SHL SUB SWAP1 SWAP3 AND SWAP2 PUSH4 0xE25AA5FA SWAP2 PUSH1 0x4 DUP1 DUP3 ADD SWAP3 PUSH1 0x20 SWAP3 SWAP1 SWAP2 SWAP1 DUP3 SWAP1 SUB ADD DUP2 DUP7 DUP1 EXTCODESIZE ISZERO DUP1 ISZERO PUSH2 0x39B6 JUMPI PUSH1 0x0 DUP1 REVERT JUMPDEST POP GAS STATICCALL ISZERO DUP1 ISZERO PUSH2 0x39CA JUMPI RETURNDATASIZE PUSH1 0x0 DUP1 RETURNDATACOPY RETURNDATASIZE PUSH1 0x0 REVERT JUMPDEST POP POP POP POP PUSH1 0x40 MLOAD RETURNDATASIZE PUSH1 0x20 DUP2 LT ISZERO PUSH2 0x39E0 JUMPI PUSH1 0x0 DUP1 REVERT JUMPDEST POP MLOAD PUSH1 0x0 DUP3 DUP2 MSTORE PUSH1 0xB PUSH1 0x20 MSTORE PUSH1 0x40 SWAP1 KECCAK256 SSTORE JUMPDEST PUSH1 0x4 PUSH1 0x0 SWAP1 SLOAD SWAP1 PUSH2 0x100 EXP SWAP1 DIV PUSH1 0x1 PUSH1 0x1 PUSH1 0xA0 SHL SUB AND PUSH1 0x1 PUSH1 0x1 PUSH1 0xA0 SHL SUB AND PUSH4 0xA3089E05 PUSH1 0x9 SLOAD PUSH1 0x1 ADD PUSH1 0x40 MLOAD DUP3 PUSH4 0xFFFFFFFF AND PUSH1 0xE0 SHL DUP2 MSTORE PUSH1 0x4 ADD DUP1 DUP3 DUP2 MSTORE PUSH1 0x20 ADD SWAP2 POP POP PUSH1 0x20 PUSH1 0x40 MLOAD DUP1 DUP4 SUB DUP2 PUSH1 0x0 DUP8 DUP1 EXTCODESIZE ISZERO DUP1 ISZERO PUSH2 0x3A52 JUMPI PUSH1 0x0 DUP1 REVERT JUMPDEST POP GAS CALL ISZERO DUP1 ISZERO PUSH2 0x3A66 JUMPI RETURNDATASIZE PUSH1 0x0 DUP1 RETURNDATACOPY RETURNDATASIZE PUSH1 0x0 REVERT JUMPDEST POP POP POP POP PUSH1 0x40 MLOAD RETURNDATASIZE PUSH1 0x20 DUP2 LT ISZERO PUSH2 0x3A7C JUMPI PUSH1 0x0 DUP1 REVERT JUMPDEST POP MLOAD ISZERO PUSH2 0x1F44 JUMPI PUSH1 0x40 DUP1 MLOAD PUSH2 0x1E0 DUP2 ADD DUP3 MSTORE PUSH1 0x9 SLOAD PUSH1 0x1 SWAP1 DUP2 ADD DUP3 MSTORE SLOAD PUSH1 0x1 PUSH1 0x1 PUSH1 0xA0 SHL SUB SWAP1 DUP2 AND PUSH1 0x20 DUP1 DUP5 ADD SWAP2 SWAP1 SWAP2 MSTORE PUSH1 0x2 SLOAD DUP3 AND DUP4 DUP6 ADD MSTORE PUSH1 0x8 SLOAD DUP3 AND PUSH1 0x60 DUP5 ADD MSTORE PUSH1 0x4 SLOAD DUP3 AND PUSH1 0x80 DUP5 ADD MSTORE PUSH1 0x6 SLOAD SWAP1 SWAP2 AND PUSH1 0xA0 DUP4 ADD MSTORE PUSH1 0x1F DUP1 SLOAD DUP5 MLOAD DUP2 DUP5 MUL DUP2 ADD DUP5 ADD SWAP1 SWAP6 MSTORE DUP1 DUP6 MSTORE SWAP3 SWAP4 PUSH1 0xC0 DUP6 ADD SWAP4 SWAP1 SWAP3 DUP4 ADD DUP3 DUP3 DUP1 ISZERO PUSH2 0x3B20 JUMPI PUSH1 0x20 MUL DUP3 ADD SWAP2 SWAP1 PUSH1 0x0 MSTORE PUSH1 0x20 PUSH1 0x0 KECCAK256 SWAP1 JUMPDEST DUP2 SLOAD DUP2 MSTORE PUSH1 0x20 ADD SWAP1 PUSH1 0x1 ADD SWAP1 DUP1 DUP4 GT PUSH2 0x3B0C JUMPI JUMPDEST POP POP POP POP POP DUP2 MSTORE PUSH1 0x20 ADD PUSH1 0x3 PUSH1 0x0 SWAP1 SLOAD SWAP1 PUSH2 0x100 EXP SWAP1 DIV PUSH1 0x1 PUSH1 0x1 PUSH1 0xA0 SHL SUB AND PUSH1 0x1 PUSH1 0x1 PUSH1 0xA0 SHL SUB AND PUSH4 0xE775274 PUSH1 0x40 MLOAD DUP2 PUSH4 0xFFFFFFFF AND PUSH1 0xE0 SHL DUP2 MSTORE PUSH1 0x4 ADD PUSH1 0x20 PUSH1 0x40 MLOAD DUP1 DUP4 SUB DUP2 DUP7 DUP1 EXTCODESIZE ISZERO DUP1 ISZERO PUSH2 0x3B78 JUMPI PUSH1 0x0 DUP1 REVERT JUMPDEST POP GAS STATICCALL ISZERO DUP1 ISZERO PUSH2 0x3B8C JUMPI RETURNDATASIZE PUSH1 0x0 DUP1 RETURNDATACOPY RETURNDATASIZE PUSH1 0x0 REVERT JUMPDEST POP POP POP POP PUSH1 0x40 MLOAD RETURNDATASIZE PUSH1 0x20 DUP2 LT ISZERO PUSH2 0x3BA2 JUMPI PUSH1 0x0 DUP1 REVERT JUMPDEST POP MLOAD DUP2 MSTORE PUSH1 0x7 SLOAD PUSH1 0x1 PUSH1 0x1 PUSH1 0xA0 SHL SUB SWAP1 DUP2 AND PUSH1 0x20 DUP1 DUP5 ADD SWAP2 SWAP1 SWAP2 MSTORE PUSH1 0x5 SLOAD DUP3 AND PUSH1 0x40 DUP1 DUP6 ADD SWAP2 SWAP1 SWAP2 MSTORE PUSH1 0x9 SLOAD PUSH1 0x1 DUP1 DUP3 ADD PUSH1 0x0 DUP2 DUP2 MSTORE PUSH1 0xB DUP7 MSTORE DUP5 DUP2 KECCAK256 DUP1 SLOAD PUSH1 0x60 DUP1 DUP12 ADD SWAP2 SWAP1 SWAP2 MSTORE SWAP4 ADD SLOAD PUSH1 0x80 DUP1 DUP11 ADD SWAP2 SWAP1 SWAP2 MSTORE SWAP2 DUP2 MSTORE PUSH1 0xE DUP1 DUP8 MSTORE DUP6 DUP3 KECCAK256 SLOAD PUSH1 0xA0 DUP1 DUP12 ADD SWAP2 SWAP1 SWAP2 MSTORE PUSH1 0x2 SWAP1 SWAP6 ADD DUP3 MSTORE DUP7 MSTORE DUP5 DUP2 KECCAK256 SLOAD PUSH1 0xC0 DUP1 DUP11 ADD SWAP2 SWAP1 SWAP2 MSTORE PUSH1 0xE0 SWAP1 SWAP9 ADD MSTORE DUP8 MLOAD PUSH1 0xF SWAP1 DUP2 SSTORE DUP9 DUP7 ADD MLOAD PUSH1 0x10 DUP1 SLOAD PUSH1 0x1 PUSH1 0x1 PUSH1 0xA0 SHL SUB NOT SWAP1 DUP2 AND SWAP3 DUP11 AND SWAP3 SWAP1 SWAP3 OR SWAP1 SSTORE SWAP5 DUP10 ADD MLOAD PUSH1 0x11 DUP1 SLOAD DUP8 AND SWAP2 DUP10 AND SWAP2 SWAP1 SWAP2 OR SWAP1 SSTORE SWAP2 DUP9 ADD MLOAD PUSH1 0x12 DUP1 SLOAD DUP7 AND SWAP2 DUP9 AND SWAP2 SWAP1 SWAP2 OR SWAP1 SSTORE DUP8 ADD MLOAD PUSH1 0x13 DUP1 SLOAD DUP6 AND SWAP2 DUP8 AND SWAP2 SWAP1 SWAP2 OR SWAP1 SSTORE SWAP1 DUP7 ADD MLOAD PUSH1 0x14 DUP1 SLOAD SWAP1 SWAP4 AND SWAP5 AND SWAP4 SWAP1 SWAP4 OR SWAP1 SSTORE SWAP2 DUP4 ADD MLOAD DUP1 MLOAD SWAP2 SWAP3 PUSH2 0x3CAE SWAP3 PUSH1 0x15 SWAP3 SWAP1 SWAP2 ADD SWAP1 PUSH2 0x41DF JUMP JUMPDEST POP PUSH1 0xE0 DUP3 ADD MLOAD PUSH1 0x7 DUP3 ADD SSTORE PUSH2 0x100 DUP3 ADD MLOAD PUSH1 0x8 DUP3 ADD DUP1 SLOAD PUSH1 0x1 PUSH1 0x1 PUSH1 0xA0 SHL SUB SWAP3 DUP4 AND PUSH1 0x1 PUSH1 0x1 PUSH1 0xA0 SHL SUB NOT SWAP2 DUP3 AND OR SWAP1 SWAP2 SSTORE PUSH2 0x120 DUP5 ADD MLOAD PUSH1 0x9 DUP5 ADD DUP1 SLOAD SWAP2 SWAP1 SWAP4 AND SWAP2 AND OR SWAP1 SSTORE PUSH2 0x140 DUP3 ADD MLOAD PUSH1 0xA DUP3 ADD SSTORE PUSH2 0x160 DUP3 ADD MLOAD PUSH1 0xB DUP3 ADD SSTORE PUSH2 0x180 DUP3 ADD MLOAD PUSH1 0xC DUP1 DUP4 ADD SWAP2 SWAP1 SWAP2 SSTORE PUSH2 0x1A0 DUP4 ADD MLOAD PUSH1 0xD DUP1 DUP5 ADD SWAP2 SWAP1 SWAP2 SSTORE PUSH2 0x1C0 SWAP1 SWAP4 ADD MLOAD PUSH1 0xE SWAP1 SWAP3 ADD SWAP2 SWAP1 SWAP2 SSTORE PUSH1 0x40 DUP1 MLOAD PUSH4 0x7F7EC3F PUSH1 0xE5 SHL DUP2 MSTORE PUSH1 0xF PUSH1 0x4 DUP3 ADD MSTORE PUSH1 0x24 DUP2 ADD SWAP3 SWAP1 SWAP3 MSTORE PUSH1 0x44 DUP3 ADD SWAP3 SWAP1 SWAP3 MSTORE SWAP1 MLOAD PUSH20 0x0 SWAP2 PUSH4 0xFEFD87E0 SWAP2 PUSH1 0x64 DUP1 DUP4 ADD SWAP3 PUSH1 0x20 SWAP3 SWAP2 SWAP1 DUP3 SWAP1 SUB ADD DUP2 DUP7 DUP1 EXTCODESIZE ISZERO DUP1 ISZERO PUSH2 0x3D9B JUMPI PUSH1 0x0 DUP1 REVERT JUMPDEST POP GAS DELEGATECALL ISZERO DUP1 ISZERO PUSH2 0x3DAF JUMPI RETURNDATASIZE PUSH1 0x0 DUP1 RETURNDATACOPY RETURNDATASIZE PUSH1 0x0 REVERT JUMPDEST POP POP POP POP PUSH1 0x40 MLOAD RETURNDATASIZE PUSH1 0x20 DUP2 LT ISZERO PUSH2 0x3DC5 JUMPI PUSH1 0x0 DUP1 REVERT JUMPDEST POP MLOAD PUSH1 0x9 DUP2 SWAP1 SSTORE PUSH1 0x1 ADD PUSH1 0x0 SWAP1 DUP2 MSTORE PUSH1 0xE PUSH1 0x20 SWAP1 DUP2 MSTORE PUSH1 0x40 SWAP2 DUP3 SWAP1 KECCAK256 SLOAD PUSH1 0x1C SLOAD DUP4 MLOAD PUSH4 0xE6CB9013 PUSH1 0xE0 SHL DUP2 MSTORE PUSH1 0x4 DUP2 ADD SWAP3 SWAP1 SWAP3 MSTORE PUSH1 0x24 DUP3 ADD MSTORE SWAP2 MLOAD PUSH20 0x0 SWAP3 PUSH4 0xE6CB9013 SWAP3 PUSH1 0x44 DUP1 DUP4 ADD SWAP4 SWAP2 SWAP3 DUP3 SWAP1 SUB ADD DUP2 DUP7 DUP1 EXTCODESIZE ISZERO DUP1 ISZERO PUSH2 0x3E38 JUMPI PUSH1 0x0 DUP1 REVERT JUMPDEST POP GAS DELEGATECALL ISZERO DUP1 ISZERO PUSH2 0x3E4C JUMPI RETURNDATASIZE PUSH1 0x0 DUP1 RETURNDATACOPY RETURNDATASIZE PUSH1 0x0 REVERT JUMPDEST POP POP POP POP PUSH1 0x40 MLOAD RETURNDATASIZE PUSH1 0x20 DUP2 LT ISZERO PUSH2 0x3E62 JUMPI PUSH1 0x0 DUP1 REVERT JUMPDEST POP MLOAD PUSH1 0x9 SLOAD PUSH1 0x1 ADD PUSH1 0x0 SWAP1 DUP2 MSTORE PUSH1 0xE PUSH1 0x20 MSTORE PUSH1 0x40 SWAP1 KECCAK256 SSTORE POP JUMP JUMPDEST PUSH1 0x40 DUP1 MLOAD PUSH1 0x1 PUSH1 0x1 PUSH1 0xA0 SHL SUB DUP5 AND PUSH1 0x24 DUP3 ADD MSTORE PUSH1 0x44 DUP1 DUP3 ADD DUP5 SWAP1 MSTORE DUP3 MLOAD DUP1 DUP4 SUB SWAP1 SWAP2 ADD DUP2 MSTORE PUSH1 0x64 SWAP1 SWAP2 ADD SWAP1 SWAP2 MSTORE PUSH1 0x20 DUP2 ADD DUP1 MLOAD PUSH1 0x1 PUSH1 0x1 PUSH1 0xE0 SHL SUB AND PUSH4 0xA9059CBB PUSH1 0xE0 SHL OR SWAP1 MSTORE PUSH2 0x3ECE SWAP1 DUP5 SWAP1 PUSH2 0x3FCD JUMP JUMPDEST POP POP POP JUMP JUMPDEST PUSH1 0x40 DUP1 MLOAD PUSH1 0x1 PUSH1 0x1 PUSH1 0xA0 SHL SUB DUP6 DUP2 AND PUSH1 0x24 DUP4 ADD MSTORE DUP5 AND PUSH1 0x44 DUP3 ADD MSTORE PUSH1 0x64 DUP1 DUP3 ADD DUP5 SWAP1 MSTORE DUP3 MLOAD DUP1 DUP4 SUB SWAP1 SWAP2 ADD DUP2 MSTORE PUSH1 0x84 SWAP1 SWAP2 ADD SWAP1 SWAP2 MSTORE PUSH1 0x20 DUP2 ADD DUP1 MLOAD PUSH1 0x1 PUSH1 0x1 PUSH1 0xE0 SHL SUB AND PUSH4 0x23B872DD PUSH1 0xE0 SHL OR SWAP1 MSTORE PUSH2 0x12D5 SWAP1 DUP6 SWAP1 PUSH2 0x3FCD JUMP JUMPDEST PUSH1 0x1 PUSH1 0x1 PUSH1 0xA0 SHL SUB DUP2 AND PUSH2 0x3F72 JUMPI PUSH1 0x40 MLOAD PUSH3 0x461BCD PUSH1 0xE5 SHL DUP2 MSTORE PUSH1 0x4 ADD DUP1 DUP1 PUSH1 0x20 ADD DUP3 DUP2 SUB DUP3 MSTORE PUSH1 0x26 DUP2 MSTORE PUSH1 0x20 ADD DUP1 PUSH2 0x4245 PUSH1 0x26 SWAP2 CODECOPY PUSH1 0x40 ADD SWAP2 POP POP PUSH1 0x40 MLOAD DUP1 SWAP2 SUB SWAP1 REVERT JUMPDEST PUSH1 0x0 DUP1 SLOAD PUSH1 0x40 MLOAD PUSH1 0x1 PUSH1 0x1 PUSH1 0xA0 SHL SUB DUP1 DUP6 AND SWAP4 SWAP3 AND SWAP2 PUSH32 0x8BE0079C531659141344CD1FD0A4F28419497F9722A3DAAFE3B4186F6B6457E0 SWAP2 LOG3 PUSH1 0x0 DUP1 SLOAD PUSH1 0x1 PUSH1 0x1 PUSH1 0xA0 SHL SUB NOT AND PUSH1 0x1 PUSH1 0x1 PUSH1 0xA0 SHL SUB SWAP3 SWAP1 SWAP3 AND SWAP2 SWAP1 SWAP2 OR SWAP1 SSTORE JUMP JUMPDEST PUSH2 0x3FDF DUP3 PUSH1 0x1 PUSH1 0x1 PUSH1 0xA0 SHL SUB AND PUSH2 0x4185 JUMP JUMPDEST PUSH2 0x4030 JUMPI PUSH1 0x40 DUP1 MLOAD PUSH3 0x461BCD PUSH1 0xE5 SHL DUP2 MSTORE PUSH1 0x20 PUSH1 0x4 DUP3 ADD MSTORE PUSH1 0x1F PUSH1 0x24 DUP3 ADD MSTORE PUSH32 0x5361666545524332303A2063616C6C20746F206E6F6E2D636F6E747261637400 PUSH1 0x44 DUP3 ADD MSTORE SWAP1 MLOAD SWAP1 DUP2 SWAP1 SUB PUSH1 0x64 ADD SWAP1 REVERT JUMPDEST PUSH1 0x0 PUSH1 0x60 DUP4 PUSH1 0x1 PUSH1 0x1 PUSH1 0xA0 SHL SUB AND DUP4 PUSH1 0x40 MLOAD DUP1 DUP3 DUP1 MLOAD SWAP1 PUSH1 0x20 ADD SWAP1 DUP1 DUP4 DUP4 JUMPDEST PUSH1 0x20 DUP4 LT PUSH2 0x406E JUMPI DUP1 MLOAD DUP3 MSTORE PUSH1 0x1F NOT SWAP1 SWAP3 ADD SWAP2 PUSH1 0x20 SWAP2 DUP3 ADD SWAP2 ADD PUSH2 0x404F JUMP JUMPDEST PUSH1 0x1 DUP4 PUSH1 0x20 SUB PUSH2 0x100 EXP SUB DUP1 NOT DUP3 MLOAD AND DUP2 DUP5 MLOAD AND DUP1 DUP3 OR DUP6 MSTORE POP POP POP POP POP POP SWAP1 POP ADD SWAP2 POP POP PUSH1 0x0 PUSH1 0x40 MLOAD DUP1 DUP4 SUB DUP2 PUSH1 0x0 DUP7 GAS CALL SWAP2 POP POP RETURNDATASIZE DUP1 PUSH1 0x0 DUP2 EQ PUSH2 0x40D0 JUMPI PUSH1 0x40 MLOAD SWAP2 POP PUSH1 0x1F NOT PUSH1 0x3F RETURNDATASIZE ADD AND DUP3 ADD PUSH1 0x40 MSTORE RETURNDATASIZE DUP3 MSTORE RETURNDATASIZE PUSH1 0x0 PUSH1 0x20 DUP5 ADD RETURNDATACOPY PUSH2 0x40D5 JUMP JUMPDEST PUSH1 0x60 SWAP2 POP JUMPDEST POP SWAP2 POP SWAP2 POP DUP2 PUSH2 0x412C JUMPI PUSH1 0x40 DUP1 MLOAD PUSH3 0x461BCD PUSH1 0xE5 SHL DUP2 MSTORE PUSH1 0x20 PUSH1 0x4 DUP3 ADD DUP2 SWAP1 MSTORE PUSH1 0x24 DUP3 ADD MSTORE PUSH32 0x5361666545524332303A206C6F772D6C6576656C2063616C6C206661696C6564 PUSH1 0x44 DUP3 ADD MSTORE SWAP1 MLOAD SWAP1 DUP2 SWAP1 SUB PUSH1 0x64 ADD SWAP1 REVERT JUMPDEST DUP1 MLOAD ISZERO PUSH2 0x12D5 JUMPI DUP1 DUP1 PUSH1 0x20 ADD SWAP1 MLOAD PUSH1 0x20 DUP2 LT ISZERO PUSH2 0x4148 JUMPI PUSH1 0x0 DUP1 REVERT JUMPDEST POP MLOAD PUSH2 0x12D5 JUMPI PUSH1 0x40 MLOAD PUSH3 0x461BCD PUSH1 0xE5 SHL DUP2 MSTORE PUSH1 0x4 ADD DUP1 DUP1 PUSH1 0x20 ADD DUP3 DUP2 SUB DUP3 MSTORE PUSH1 0x2A DUP2 MSTORE PUSH1 0x20 ADD DUP1 PUSH2 0x428B PUSH1 0x2A SWAP2 CODECOPY PUSH1 0x40 ADD SWAP2 POP POP PUSH1 0x40 MLOAD DUP1 SWAP2 SUB SWAP1 REVERT JUMPDEST PUSH1 0x0 DUP2 EXTCODEHASH PUSH32 0xC5D2460186F7233C927E7DB2DCC703C0E500B653CA82273B7BFAD8045D85A470 DUP2 ISZERO DUP1 ISZERO SWAP1 PUSH2 0x41B9 JUMPI POP DUP1 DUP3 EQ ISZERO JUMPDEST SWAP5 SWAP4 POP POP POP POP JUMP JUMPDEST POP DUP1 SLOAD PUSH1 0x0 DUP3 SSTORE SWAP1 PUSH1 0x0 MSTORE PUSH1 0x20 PUSH1 0x0 KECCAK256 SWAP1 DUP2 ADD SWAP1 PUSH2 0x1F44 SWAP2 SWAP1 PUSH2 0x422A JUMP JUMPDEST DUP3 DUP1 SLOAD DUP3 DUP3 SSTORE SWAP1 PUSH1 0x0 MSTORE PUSH1 0x20 PUSH1 0x0 KECCAK256 SWAP1 DUP2 ADD SWAP3 DUP3 ISZERO PUSH2 0x421A JUMPI SWAP2 PUSH1 0x20 MUL DUP3 ADD JUMPDEST DUP3 DUP2 GT ISZERO PUSH2 0x421A JUMPI DUP3 MLOAD DUP3 SSTORE SWAP2 PUSH1 0x20 ADD SWAP2 SWAP1 PUSH1 0x1 ADD SWAP1 PUSH2 0x41FF JUMP JUMPDEST POP PUSH2 0x4226 SWAP3 SWAP2 POP PUSH2 0x422A JUMP JUMPDEST POP SWAP1 JUMP JUMPDEST PUSH2 0x1EFA SWAP2 SWAP1 JUMPDEST DUP1 DUP3 GT ISZERO PUSH2 0x4226 JUMPI PUSH1 0x0 DUP2 SSTORE PUSH1 0x1 ADD PUSH2 0x4230 JUMP INVALID 0x4f PUSH24 0x6E61626C653A206E6577206F776E65722069732074686520 PUSH27 0x65726F20616464726573734F776E61626C653A2063616C6C657220 PUSH10 0x73206E6F742074686520 PUSH16 0x776E65725361666545524332303A2045 MSTORE NUMBER ORIGIN ADDRESS KECCAK256 PUSH16 0x7065726174696F6E20646964206E6F74 KECCAK256 PUSH20 0x756363656564A265627A7A7230582017F3B5E898 0xd5 0xb4 SWAP6 0xad 0xc8 0xe4 CALL PC PUSH15 0xDE48F69666EF6EA294B14D476065E9 CALLVALUE SELFDESTRUCT 0xcc PUSH5 0x736F6C6343 STOP SDIV EXP STOP ORIGIN 0x4f PUSH24 0x6E61626C653A206E6577206F776E65722069732074686520 PUSH27 0x65726F2061646472657373A265627A7A723058208B399BD3C98E58 SWAP7 DUP10 GASPRICE 0x2a 0x2a 0xd4 0xe 0x25 0xce EXTCODESIZE 0x47 PUSH30 0x58B675CE3EFD540D681A03956A64736F6C634300050A0032000000000000 ",
  "sha1": "f25bbd9e72109e0534d062141eee6d2408827d51",
  "source": "pragma solidity >=0.4.21 <0.6.0;\nimport \"../utils/Ownable.sol\";\n//import \"../utils/SafeMath.sol\";\n//import \"../erc20/SafeERC20.sol\";\nimport \"../erc20/IERC20.sol\";\nimport \"../ystream/IYieldStream.sol\";\nimport \"./HEnv.sol\";\nimport \"./HToken.sol\";\nimport \"./HGateKeeperHelper.sol\";\nimport \"./HGateKeeperParam.sol\";\nimport \"./HInterfaces.sol\";\n\n/// @notice Gatekeeper contains all user interfaces and updating values of tokens\ncontract HGateKeeper is Ownable{\n  using SafeERC20 for IERC20;\n  using SafeMath for uint256;\n  using HGateKeeperHelper for HGateKeeperParam.settle_round_param_info;// mapping(uint256=>uint256) ;\n\n  HDispatcherInterface public dispatcher;//the contracts to get the yield strem\n  address public target_token;//the target token, e.g. yycurve\n  HEnv public env;//the contract of environment variables, mainly the fee ratios\n\n  HLongTermInterface public long_term;//the contract that maintain the period and generate/destroy all tokens.\n  address public yield_interest_pool;//the pool that additional target tokens.\n  HTokenAggregatorInterface public aggr;\n\n  address public float_longterm_token;\n\n  MinterInterfaceGK public minter;\n\n  uint256 public settled_round;//the index of the round that has been settled\n  uint256 public max_amount;//the max amount that a wallet allowd to bid.\n\n\n  mapping (uint256 => HGateKeeperParam.round_price_info) public round_prices;//price info of all rounds\n\n  mapping (bytes32 => uint256) target_token_amount_in_round_and_ratio;//amount of target token invested in a given round and ratio\n  mapping (bytes32 => uint256) long_term_token_amount_in_round_and_ratio;//amount of longterm token in a given round and ratio\n  mapping (uint256 => uint256) total_target_token_in_round;//amount of total target token invested in a round\n\n  /// @dev Constructor to create a gatekeeper\n  /// @param _token_addr Address of the target token, such as yUSD or yvUSDC\n  /// @param _env Address of env, to get fee ratios\n  /// @param _dispatcher Address of the dispatcher, to get yield stream\n  /// @param _long_term Address of the Hlongterm contract, to generate/destroy in/out-tokens.\n  constructor(address _token_addr, address _env, address _dispatcher, address _long_term, address _float_token, address _aggr) public{\n    target_token = _token_addr;\n    env = HEnv(_env);\n    dispatcher = HDispatcherInterface(_dispatcher);\n    long_term = HLongTermInterface(_long_term);\n    settled_round = 0;\n    aggr = HTokenAggregatorInterface(_aggr);\n    float_longterm_token = _float_token;\n  }\n\n  event ChangeMaxAmount(uint256 old, uint256 _new);\n  function set_max_amount(uint _amount) public onlyOwner{\n    uint256 old = max_amount;\n    max_amount = _amount;\n    emit ChangeMaxAmount(old, max_amount);\n  }\n\n  event HorizonBid(address from, uint256 amount, uint256 share, uint256 round, uint256 ratio);\n  /// @dev User invests terget tokens to the contract to take part in the game in the next round and further rounds.\n  /// User gets intokens with respect to the next round.\n  /// @param _amount The amount of target token that the user invests\n  /// @param _ratio The ratio that the user chooses.\n  function bidRatio(uint256 _amount, uint256 _ratio) public{\n    require(_ratio == 0 || isSupportRatio(_ratio), \"not support ratio\");    \n    _check_round();\n\n    require(IERC20(target_token).allowance(msg.sender, address(this)) >= _amount, \"not enough allowance\");\n    uint _before = IERC20(target_token).balanceOf(address(this));\n    IERC20(target_token).safeTransferFrom(msg.sender, address(this), _amount);\n    uint256 _after = IERC20(target_token).balanceOf(address(this));\n    _amount = _after.safeSub(_before); // Additional check for deflationary tokens\n\n    uint256 decimal = dispatcher.getYieldStream(target_token).getDecimal();\n    require(decimal <= 1e18, \"decimal too large\");\n    uint256 shares = _amount.safeMul(1e18).safeDiv(decimal);//turn into 1e18 decimal\n\n    if(max_amount > 0){\n      require(shares <= max_amount, \"too large amount\");\n      require(aggr.balanceOf(address(this), settled_round + 2, _ratio, 1, msg.sender).safeAdd(shares) <= max_amount, \"Please use another wallet\");\n    }\n    aggr.mint(address(this), settled_round + 2, _ratio, 1, shares, msg.sender);\n    //HTokenInterfaceGK(in_addr).mint(msg.sender, shares);\n\n    if (minter != MinterInterfaceGK(0x0)){\n      MinterInterfaceGK(minter).handle_bid_ratio(msg.sender, shares, _ratio, settled_round + 2);\n    }\n    emit HorizonBid(msg.sender, _amount, shares, settled_round + 2, _ratio);\n  }\n\n  function bidFloating(uint256 _amount) public{\n    bidRatio(_amount, 0);\n  }\n  event CancelBid(address from, uint256 amount, uint256 fee, uint256 round, uint256 ratio);\n  function cancelBid(uint256 amount, uint256 _ratio) public{\n    //user can only cancel bid for the next round (during the current round period)\n    require(_ratio == 0 || isSupportRatio(_ratio), \"not support ratio\");\n    _check_round();\n\n    //HTokenInterfaceGK(_in_token_addr).burnFrom(msg.sender, amount);\n    aggr.burn(address(this), settled_round + 2, _ratio, 1, amount, msg.sender);\n    \n    uint256 decimal = dispatcher.getYieldStream(target_token).getDecimal();\n\n    uint256 target_amount = amount.safeMul(decimal).safeDiv(1e18);\n\n    if (minter != MinterInterfaceGK(0x0)){\n      MinterInterfaceGK(minter).handle_cancel_bid(msg.sender, amount, _ratio, settled_round + 2);\n    }\n\n    if(env.cancel_fee_ratio() != 0 && env.fee_pool_addr() != address(0x0)){\n      uint256 fee = target_amount.safeMul(env.cancel_fee_ratio()).safeDiv(env.ratio_base());\n      uint256 recv = target_amount.safeSub(fee);\n      IERC20(target_token).safeTransfer(msg.sender, recv);\n      IERC20(target_token).safeTransfer(env.fee_pool_addr(), fee);\n      emit CancelBid(msg.sender, recv, fee, settled_round + 2, _ratio);\n    }else{\n      IERC20(target_token).safeTransfer(msg.sender, target_amount);\n      emit CancelBid(msg.sender, target_amount, 0, settled_round + 2, _ratio);\n    }\n  }\n   /*\n  function changeBid(address _in_token_addr, uint256 _new_amount, uint256 _new_ratio) public{\n    cancelBid(_in_token_addr);\n    bidRatio(_new_amount, _new_ratio);\n  }*/\n\n  event HorizonWithdrawLongTermToken(address from, uint256 amount, uint256 round, uint256 ratio);\n  /// @dev User changes longterm tokens to outtokens with respect to the next round,\n  /// meaning that he quits the game by the next round.\n  /// @param _amount The amount of longterm token that the user wants to withdraw.\n  function withdrawLongTerm(uint256 ratio, uint256 _amount) public{\n    _check_round();\n    uint256 total_amount;\n    if (ratio == 0){\n      require(IERC20(float_longterm_token).balanceOf(msg.sender) >= _amount, \"GK:not enough balance\");\n      HTokenInterfaceGK(float_longterm_token).burnFrom(msg.sender, _amount);\n    }\n    else{\n      total_amount = aggr.balanceOf(address(this), 0, ratio, 3, msg.sender);\n      aggr.burn(address(this), 0, ratio, 3, _amount, msg.sender);\n    }\n    aggr.mint(address(this), settled_round + 2, ratio, 2, _amount, msg.sender);\n    //HTokenInterfaceGK(out_addr).mint(msg.sender, _amount);\n    if (minter != MinterInterfaceGK(0x0)){\n      MinterInterfaceGK(minter).handle_withdraw(msg.sender, _amount, ratio, settled_round + 2);\n    }\n\n    emit HorizonWithdrawLongTermToken(msg.sender, _amount, settled_round + 2, ratio);\n  }\n\n\n  function withdrawInToken(uint256 ratio, uint256 round, uint256 _amount) public{\n    require(ratio == 0 || isSupportRatio(ratio), \"not support ratio\");\n    _check_round();\n    require(settled_round + 1 >= round, \"GK: round not sealed\");\n\n    uint256 amount = aggr.balanceOf(address(this), round, ratio, 1, msg.sender);\n\n    require(_amount <= amount, \"GK: not enough intoken balance\");\n    aggr.burn(address(this), round, ratio, 1, _amount, msg.sender);\n\n    uint256 ratio_to = aggr.getRatioTo(address(this), round, ratio, 1);\n    uint256 lt_amount = _amount.safeMul(ratio_to).safeDiv(1e18);\n\n    emit HorizonExchangeToLongTermToken(msg.sender, _amount, lt_amount, round, ratio);\n\n    aggr.mint(address(this), settled_round + 2, ratio, 2, lt_amount, msg.sender);    \n    if (minter != MinterInterfaceGK(0x0)){\n      MinterInterfaceGK(minter).handle_withdraw(msg.sender, lt_amount, ratio, settled_round + 2);\n    }\n\n    emit HorizonWithdrawLongTermToken(msg.sender, lt_amount, settled_round + 2, ratio);\n  }\n  event HorizonCancelWithdraw(address from, uint256 amount, uint256 ratio, uint256 round);\n  /// @dev User cancel his/her withdraw operation,\n  /// changing all outtokens back to longterm token.\n  function cancelWithdraw(uint256 _ratio, uint256 _amount) public{\n    require(_ratio == 0 || isSupportRatio(_ratio), \"not support ratio\");\n    _check_round();\n    aggr.burn(address(this), settled_round + 2, _ratio, 2, _amount, msg.sender);\n    \n    if (_ratio == 0){\n      HTokenInterfaceGK(float_longterm_token).mint(msg.sender, _amount);\n    }\n    else\n    {\n      aggr.mint(address(this), 0, _ratio, 3, _amount, msg.sender);\n    }\n    if (minter != MinterInterfaceGK(0x0)){\n      MinterInterfaceGK(minter).handle_cancel_withdraw(msg.sender, _amount, _ratio, settled_round + 2);\n    }\n\n    emit HorizonCancelWithdraw(msg.sender, _amount, _ratio, settled_round + 2);\n  }\n\n  event HorizonClaim(address from, uint256 out_amount, uint256 amount, uint256 fee, uint256 round, uint256 ratio);\n  /// @dev User withdraws outtokens to get target tokens.\n  /// @param _amount The amount of outtoken.\n  function claim(uint256 round, uint256 ratio, uint256 _amount) public {\n    require(ratio == 0 || isSupportRatio(ratio), \"not support ratio\");\n    _check_round();\n\n    require(settled_round + 1 >= round, \"GK: period not end\");\n\n    uint256 decimal = dispatcher.getYieldStream(target_token).getDecimal();\n    uint256 ratio_to = aggr.getRatioTo(address(this), round, ratio, 2);\n    uint256 t = _amount.safeMul(ratio_to).safeMul(decimal).safeDiv(1e36);//turn into target decimal\n\n    aggr.burn(address(this), round, ratio, 2, _amount, msg.sender);\n\n    if(env.withdraw_fee_ratio() != 0 && env.fee_pool_addr() != address(0x0)){\n      uint256 fee = t.safeMul(env.withdraw_fee_ratio()).safeDiv(env.ratio_base());\n      uint256 recv = t.safeSub(fee);\n      IERC20(target_token).safeTransfer(msg.sender, recv);\n      IERC20(target_token).safeTransfer(env.fee_pool_addr(), fee);\n      emit HorizonClaim(msg.sender, _amount, recv, fee, round, ratio);\n    }else{\n      IERC20(target_token).safeTransfer(msg.sender, t);\n      emit HorizonClaim(msg.sender, _amount, t, 0, round, ratio);\n    }\n  }\n\n  event HorizonExchangeToLongTermToken(address from, uint256 amount_in, uint256 amount_long, uint256 round, uint256 ratio);\n  /// @dev User changes all intokens to long-term tokens,\n  /// so that the user can withdraw to outtoken or transfer in secondary markets.\n  function exchangeToLongTermToken(uint256 round, uint256 ratio) public{\n    //require(ratio == 0 || isSupportRatio(ratio), \"not support ratio\");\n    require(ratio == 0, \"not support ratio\");\n    _check_round();\n    require(settled_round + 1 >= round, \"GK: round not sealed\");\n\n    uint256 amount = aggr.balanceOf(address(this), round, ratio, 1, msg.sender);\n    require(amount > 0, \"GK: no in token balance\");\n\n    aggr.burn(address(this), round, ratio, 1, amount, msg.sender);\n\n    uint256 ratio_to = aggr.getRatioTo(address(this), round, ratio, 1);\n\n    uint256 rec = amount.safeMul(ratio_to).safeDiv(1e18);\n    \n    if (ratio == 0){\n      HTokenInterfaceGK(float_longterm_token).mint(msg.sender, rec);\n    }\n    else{\n      aggr.mint(address(this), 0, ratio, 3, rec, msg.sender);\n    }\n    emit HorizonExchangeToLongTermToken(msg.sender, amount, rec, round, ratio);\n  }\n\n  /// @dev To check whether the current round should end.\n  /// If so, do settlement for the current round and begin a new round.\n  HGateKeeperParam.settle_round_param_info info;\n  function _check_round() internal{\n    long_term.updatePeriodStatus();\n    uint256 new_period = long_term.getCurrentRound();\n    if(round_prices[new_period].start_price == 0){\n      round_prices[new_period].start_price = dispatcher.getYieldStream(target_token).getVirtualPrice();\n    }\n    if(long_term.isRoundEnd(settled_round + 1)){\n      /*HGateKeeperParam.settle_round_param_info memory info*/ info = HGateKeeperParam.settle_round_param_info({\n                      _round:settled_round+1,\n                       dispatcher:dispatcher,\n                       target_token:target_token,\n                       minter:minter,\n                       long_term:long_term,\n                       aggr:aggr,\n                       sratios:sratios,\n                       env_ratio_base:env.ratio_base(),\n                       float_longterm_token:float_longterm_token,\n                       yield_interest_pool:yield_interest_pool,\n                       start_price:round_prices[settled_round+1].start_price,\n                       end_price:round_prices[settled_round+1].end_price,\n                       total_target_token:total_target_token_in_round[settled_round+1],\n                       total_target_token_next_round:total_target_token_in_round[settled_round+2],\n                       left: 0\n      });\n      settled_round =\n        info.settle_round(target_token_amount_in_round_and_ratio, long_term_token_amount_in_round_and_ratio);\n      total_target_token_in_round[settled_round + 1] = total_target_token_in_round[settled_round + 1].safeAdd(info.total_target_token_next_round);\n    }\n  }\n\n  mapping (uint256 => bool) public support_ratios;\n  uint256[] public sratios;\n\n  event SupportRatiosChanged(uint256[] rs);\n  function resetSupportRatios(uint256[] memory rs) public onlyOwner{\n    for(uint i = 0; i < sratios.length; i++){\n      delete support_ratios[sratios[i]];\n    }\n    delete sratios;\n    for(uint i = 0; i < rs.length; i++){\n      if(i > 0){\n        require(rs[i] > rs[i-1], \"should be ascend\");\n      }\n      sratios.push(rs[i]);\n      support_ratios[rs[i]] = true;\n    }\n    emit SupportRatiosChanged(sratios);\n  }\n\n  function isSupportRatio(uint256 r) public view returns(bool){\n    for(uint i = 0; i < sratios.length; i++){\n      if(sratios[i] == r){\n        return true;\n      }\n    }\n    return false;\n  }\n  function updatePeriodStatus() public{\n    _check_round();\n  }\n\n\n  event ChangeYieldInterestPool(address old, address _new);\n  function changeYieldPool(address _pool) onlyOwner public{\n    require(_pool != address(0x0), \"invalid pool\");\n    address old = yield_interest_pool;\n    yield_interest_pool = _pool;\n    emit ChangeYieldInterestPool(old, _pool);\n  }\n  event SetMinter(address addr);\n  function set_minter(address addr) onlyOwner public{\n    minter = MinterInterfaceGK(addr);\n    emit SetMinter(addr);\n  }\n  \n  function add_transfer_listener_to(address _listener) onlyOwner public{\n    HTokenInterfaceGK(float_longterm_token).addTransferListener(_listener);\n  }\n  function remove_transfer_listener_to(address _listener) onlyOwner public{\n    HTokenInterfaceGK(float_longterm_token).removeTransferListener(_listener);\n  }\n}\n\ncontract HGateKeeperFactory is Ownable{\n  event NewGateKeeper(address addr);\n\n  function createGateKeeperForPeriod(address _env_addr, address _dispatcher, address _long_term, address _float_token, address _aggr) public returns(address){\n    HEnv e = HEnv(_env_addr);\n    HGateKeeper gk = new HGateKeeper(e.token_addr(), _env_addr, _dispatcher, _long_term, _float_token, _aggr);\n    gk.transferOwnership(msg.sender);\n    emit NewGateKeeper(address(gk));\n    return address(gk);\n  }\n}\n\n",
  "sourcePath": "contracts/core/HGateKeeper.sol",
  "type": "contract"
}