{
  "abi": [
    {
      "constant": true,
      "inputs": [],
      "name": "getParamPeriodBlockNum",
      "outputs": [
        {
          "name": "",
          "type": "uint256"
        }
      ],
      "payable": false,
      "stateMutability": "view",
      "type": "function"
    },
    {
      "constant": false,
      "inputs": [],
      "name": "updatePeriodStatus",
      "outputs": [
        {
          "name": "",
          "type": "bool"
        }
      ],
      "payable": false,
      "stateMutability": "nonpayable",
      "type": "function"
    },
    {
      "constant": true,
      "inputs": [
        {
          "name": "_round",
          "type": "uint256"
        }
      ],
      "name": "getRoundLength",
      "outputs": [
        {
          "name": "",
          "type": "uint256"
        }
      ],
      "payable": false,
      "stateMutability": "view",
      "type": "function"
    },
    {
      "constant": true,
      "inputs": [
        {
          "name": "",
          "type": "uint256"
        }
      ],
      "name": "all_rounds_start_block",
      "outputs": [
        {
          "name": "",
          "type": "uint256"
        }
      ],
      "payable": false,
      "stateMutability": "view",
      "type": "function"
    },
    {
      "constant": true,
      "inputs": [
        {
          "name": "_round",
          "type": "uint256"
        }
      ],
      "name": "isRoundStart",
      "outputs": [
        {
          "name": "",
          "type": "bool"
        }
      ],
      "payable": false,
      "stateMutability": "view",
      "type": "function"
    },
    {
      "constant": true,
      "inputs": [],
      "name": "owner",
      "outputs": [
        {
          "name": "",
          "type": "address"
        }
      ],
      "payable": false,
      "stateMutability": "view",
      "type": "function"
    },
    {
      "constant": true,
      "inputs": [
        {
          "name": "_round",
          "type": "uint256"
        }
      ],
      "name": "isRoundEnd",
      "outputs": [
        {
          "name": "",
          "type": "bool"
        }
      ],
      "payable": false,
      "stateMutability": "view",
      "type": "function"
    },
    {
      "constant": true,
      "inputs": [],
      "name": "getCurrentRound",
      "outputs": [
        {
          "name": "",
          "type": "uint256"
        }
      ],
      "payable": false,
      "stateMutability": "view",
      "type": "function"
    },
    {
      "constant": true,
      "inputs": [],
      "name": "getCurrentRoundStartBlock",
      "outputs": [
        {
          "name": "",
          "type": "uint256"
        }
      ],
      "payable": false,
      "stateMutability": "view",
      "type": "function"
    },
    {
      "constant": false,
      "inputs": [
        {
          "name": "newOwner",
          "type": "address"
        }
      ],
      "name": "transferOwnership",
      "outputs": [],
      "payable": false,
      "stateMutability": "nonpayable",
      "type": "function"
    },
    {
      "constant": true,
      "inputs": [],
      "name": "getParamPeriodStartBlock",
      "outputs": [
        {
          "name": "",
          "type": "uint256"
        }
      ],
      "payable": false,
      "stateMutability": "view",
      "type": "function"
    },
    {
      "inputs": [
        {
          "name": "_start_block",
          "type": "uint256"
        },
        {
          "name": "_period_block_num",
          "type": "uint256"
        }
      ],
      "payable": false,
      "stateMutability": "nonpayable",
      "type": "constructor"
    },
    {
      "anonymous": false,
      "inputs": [
        {
          "indexed": true,
          "name": "previousOwner",
          "type": "address"
        },
        {
          "indexed": true,
          "name": "newOwner",
          "type": "address"
        }
      ],
      "name": "OwnershipTransferred",
      "type": "event"
    }
  ],
  "bytecode": "608060405234801561001057600080fd5b506040516106c23803806106c28339818101604052604081101561003357600080fd5b508051602090910151600080546001600160a01b031916339081178255604051909182917f8be0079c531659141344cd1fd0a4f28419497f9722a3daafe3b4186f6b6457e0908290a35060019190915560025560006004556106288061009a6000396000f3fe608060405234801561001057600080fd5b50600436106100a85760003560e01c80638da5cb5b116100715780638da5cb5b1461013a578063a3089e051461015e578063a32bf5971461017b578063ac7beedc14610183578063f2fde38b1461018b578063f5360bca146101b3576100a8565b806298f6fd146100ad5780632e96b119146100c7578063516b3ca3146100e3578063735b44151461010057806378013ad11461011d575b600080fd5b6100b56101bb565b60408051918252519081900360200190f35b6100cf6101c2565b604080519115158252519081900360200190f35b6100b5600480360360208110156100f957600080fd5b503561022f565b6100b56004803603602081101561011657600080fd5b5035610326565b6100cf6004803603602081101561013357600080fd5b5035610338565b61014261034c565b604080516001600160a01b039092168252519081900360200190f35b6100cf6004803603602081101561017457600080fd5b503561035b565b6100b5610372565b6100b5610378565b6101b1600480360360208110156101a157600080fd5b50356001600160a01b031661038d565b005b6100b56103f8565b6002545b90565b600080546001600160a01b03163314610222576040805162461bcd60e51b815260206004820181905260248201527f4f776e61626c653a2063616c6c6572206973206e6f7420746865206f776e6572604482015290519081900360640190fd5b61022a6103fe565b905090565b600061023a8261035b565b610284576040805162461bcd60e51b81526020600482015260166024820152751214195c9a5bd90e881c9bdd5b99081b9bdd08195b9960521b604482015290519081900360640190fd5b60018201600090815260036020908152604080832054858452928190205481516314527a3d60e31b8152600481019490945260248401525173__SafeMath______________________________9263a293d1e8926044808301939192829003018186803b1580156102f457600080fd5b505af4158015610308573d6000803e3d6000fd5b505050506040513d602081101561031e57600080fd5b505192915050565b60036020526000908152604090205481565b600090815260036020526040902054151590565b6000546001600160a01b031690565b600101600090815260036020526040902054151590565b60045490565b60045460009081526003602052604090205490565b6000546001600160a01b031633146103ec576040805162461bcd60e51b815260206004820181905260248201527f4f776e61626c653a2063616c6c6572206973206e6f7420746865206f776e6572604482015290519081900360640190fd5b6103f58161052d565b50565b60015490565b6000600154431015610457576040805162461bcd60e51b815260206004820152601860248201527f31737420706572696f64206e6f74207374617274207965740000000000000000604482015290519081900360640190fd5b60045415806104fd5750600254600480546000908152600360209081526040918290205482516314527a3d60e31b815243948101949094526024840152905173__SafeMath______________________________9263a293d1e8926044808301939192829003018186803b1580156104ce57600080fd5b505af41580156104e2573d6000803e3d6000fd5b505050506040513d60208110156104f857600080fd5b505110155b156105275750600480546001908101918290556000918252600360205260409091204390556101bf565b50600090565b6001600160a01b0381166105725760405162461bcd60e51b81526004018080602001828103825260268152602001806105ce6026913960400191505060405180910390fd5b600080546040516001600160a01b03808516939216917f8be0079c531659141344cd1fd0a4f28419497f9722a3daafe3b4186f6b6457e091a3600080546001600160a01b0319166001600160a01b039290921691909117905556fe4f776e61626c653a206e6577206f776e657220697320746865207a65726f2061646472657373a265627a7a723058200c5cb5ae1fcf815eb388fbf722200c30ea72032bbbb31a1952a3c127ca95450d64736f6c634300050a0032",
  "bytecodeSha1": "16041e883e0b83c99be61cee52e330169c106c07",
  "compiler": {
    "evm_version": "petersburg",
    "optimizer": {
      "enabled": true,
      "runs": 200
    },
    "version": "0.5.10+commit.5a6ea5b1"
  },
  "contractName": "HPeriod",
  "deployedBytecode": "608060405234801561001057600080fd5b50600436106100a85760003560e01c80638da5cb5b116100715780638da5cb5b1461013a578063a3089e051461015e578063a32bf5971461017b578063ac7beedc14610183578063f2fde38b1461018b578063f5360bca146101b3576100a8565b806298f6fd146100ad5780632e96b119146100c7578063516b3ca3146100e3578063735b44151461010057806378013ad11461011d575b600080fd5b6100b56101bb565b60408051918252519081900360200190f35b6100cf6101c2565b604080519115158252519081900360200190f35b6100b5600480360360208110156100f957600080fd5b503561022f565b6100b56004803603602081101561011657600080fd5b5035610326565b6100cf6004803603602081101561013357600080fd5b5035610338565b61014261034c565b604080516001600160a01b039092168252519081900360200190f35b6100cf6004803603602081101561017457600080fd5b503561035b565b6100b5610372565b6100b5610378565b6101b1600480360360208110156101a157600080fd5b50356001600160a01b031661038d565b005b6100b56103f8565b6002545b90565b600080546001600160a01b03163314610222576040805162461bcd60e51b815260206004820181905260248201527f4f776e61626c653a2063616c6c6572206973206e6f7420746865206f776e6572604482015290519081900360640190fd5b61022a6103fe565b905090565b600061023a8261035b565b610284576040805162461bcd60e51b81526020600482015260166024820152751214195c9a5bd90e881c9bdd5b99081b9bdd08195b9960521b604482015290519081900360640190fd5b60018201600090815260036020908152604080832054858452928190205481516314527a3d60e31b8152600481019490945260248401525173__$453ca7436f2e4c673c26da82379bd674f3$__9263a293d1e8926044808301939192829003018186803b1580156102f457600080fd5b505af4158015610308573d6000803e3d6000fd5b505050506040513d602081101561031e57600080fd5b505192915050565b60036020526000908152604090205481565b600090815260036020526040902054151590565b6000546001600160a01b031690565b600101600090815260036020526040902054151590565b60045490565b60045460009081526003602052604090205490565b6000546001600160a01b031633146103ec576040805162461bcd60e51b815260206004820181905260248201527f4f776e61626c653a2063616c6c6572206973206e6f7420746865206f776e6572604482015290519081900360640190fd5b6103f58161052d565b50565b60015490565b6000600154431015610457576040805162461bcd60e51b815260206004820152601860248201527f31737420706572696f64206e6f74207374617274207965740000000000000000604482015290519081900360640190fd5b60045415806104fd5750600254600480546000908152600360209081526040918290205482516314527a3d60e31b815243948101949094526024840152905173__$453ca7436f2e4c673c26da82379bd674f3$__9263a293d1e8926044808301939192829003018186803b1580156104ce57600080fd5b505af41580156104e2573d6000803e3d6000fd5b505050506040513d60208110156104f857600080fd5b505110155b156105275750600480546001908101918290556000918252600360205260409091204390556101bf565b50600090565b6001600160a01b0381166105725760405162461bcd60e51b81526004018080602001828103825260268152602001806105ce6026913960400191505060405180910390fd5b600080546040516001600160a01b03808516939216917f8be0079c531659141344cd1fd0a4f28419497f9722a3daafe3b4186f6b6457e091a3600080546001600160a01b0319166001600160a01b039290921691909117905556fe4f776e61626c653a206e6577206f776e657220697320746865207a65726f2061646472657373a265627a7a723058200c5cb5ae1fcf815eb388fbf722200c30ea72032bbbb31a1952a3c127ca95450d64736f6c634300050a0032",
  "language": "Solidity",
  "natspec": {
    "methods": {
      "owner()": {
        "details": "Returns the address of the current owner."
      },
      "transferOwnership(address)": {
        "details": "Transfers ownership of the contract to a new account (`newOwner`). Can only be called by the current owner."
      }
    }
  },
  "opcodes": "PUSH1 0x80 PUSH1 0x40 MSTORE CALLVALUE DUP1 ISZERO PUSH2 0x10 JUMPI PUSH1 0x0 DUP1 REVERT JUMPDEST POP PUSH1 0x4 CALLDATASIZE LT PUSH2 0xA8 JUMPI PUSH1 0x0 CALLDATALOAD PUSH1 0xE0 SHR DUP1 PUSH4 0x8DA5CB5B GT PUSH2 0x71 JUMPI DUP1 PUSH4 0x8DA5CB5B EQ PUSH2 0x13A JUMPI DUP1 PUSH4 0xA3089E05 EQ PUSH2 0x15E JUMPI DUP1 PUSH4 0xA32BF597 EQ PUSH2 0x17B JUMPI DUP1 PUSH4 0xAC7BEEDC EQ PUSH2 0x183 JUMPI DUP1 PUSH4 0xF2FDE38B EQ PUSH2 0x18B JUMPI DUP1 PUSH4 0xF5360BCA EQ PUSH2 0x1B3 JUMPI PUSH2 0xA8 JUMP JUMPDEST DUP1 PUSH3 0x98F6FD EQ PUSH2 0xAD JUMPI DUP1 PUSH4 0x2E96B119 EQ PUSH2 0xC7 JUMPI DUP1 PUSH4 0x516B3CA3 EQ PUSH2 0xE3 JUMPI DUP1 PUSH4 0x735B4415 EQ PUSH2 0x100 JUMPI DUP1 PUSH4 0x78013AD1 EQ PUSH2 0x11D JUMPI JUMPDEST PUSH1 0x0 DUP1 REVERT JUMPDEST PUSH2 0xB5 PUSH2 0x1BB JUMP JUMPDEST PUSH1 0x40 DUP1 MLOAD SWAP2 DUP3 MSTORE MLOAD SWAP1 DUP2 SWAP1 SUB PUSH1 0x20 ADD SWAP1 RETURN JUMPDEST PUSH2 0xCF PUSH2 0x1C2 JUMP JUMPDEST PUSH1 0x40 DUP1 MLOAD SWAP2 ISZERO ISZERO DUP3 MSTORE MLOAD SWAP1 DUP2 SWAP1 SUB PUSH1 0x20 ADD SWAP1 RETURN JUMPDEST PUSH2 0xB5 PUSH1 0x4 DUP1 CALLDATASIZE SUB PUSH1 0x20 DUP2 LT ISZERO PUSH2 0xF9 JUMPI PUSH1 0x0 DUP1 REVERT JUMPDEST POP CALLDATALOAD PUSH2 0x22F JUMP JUMPDEST PUSH2 0xB5 PUSH1 0x4 DUP1 CALLDATASIZE SUB PUSH1 0x20 DUP2 LT ISZERO PUSH2 0x116 JUMPI PUSH1 0x0 DUP1 REVERT JUMPDEST POP CALLDATALOAD PUSH2 0x326 JUMP JUMPDEST PUSH2 0xCF PUSH1 0x4 DUP1 CALLDATASIZE SUB PUSH1 0x20 DUP2 LT ISZERO PUSH2 0x133 JUMPI PUSH1 0x0 DUP1 REVERT JUMPDEST POP CALLDATALOAD PUSH2 0x338 JUMP JUMPDEST PUSH2 0x142 PUSH2 0x34C JUMP JUMPDEST PUSH1 0x40 DUP1 MLOAD PUSH1 0x1 PUSH1 0x1 PUSH1 0xA0 SHL SUB SWAP1 SWAP3 AND DUP3 MSTORE MLOAD SWAP1 DUP2 SWAP1 SUB PUSH1 0x20 ADD SWAP1 RETURN JUMPDEST PUSH2 0xCF PUSH1 0x4 DUP1 CALLDATASIZE SUB PUSH1 0x20 DUP2 LT ISZERO PUSH2 0x174 JUMPI PUSH1 0x0 DUP1 REVERT JUMPDEST POP CALLDATALOAD PUSH2 0x35B JUMP JUMPDEST PUSH2 0xB5 PUSH2 0x372 JUMP JUMPDEST PUSH2 0xB5 PUSH2 0x378 JUMP JUMPDEST PUSH2 0x1B1 PUSH1 0x4 DUP1 CALLDATASIZE SUB PUSH1 0x20 DUP2 LT ISZERO PUSH2 0x1A1 JUMPI PUSH1 0x0 DUP1 REVERT JUMPDEST POP CALLDATALOAD PUSH1 0x1 PUSH1 0x1 PUSH1 0xA0 SHL SUB AND PUSH2 0x38D JUMP JUMPDEST STOP JUMPDEST PUSH2 0xB5 PUSH2 0x3F8 JUMP JUMPDEST PUSH1 0x2 SLOAD JUMPDEST SWAP1 JUMP JUMPDEST PUSH1 0x0 DUP1 SLOAD PUSH1 0x1 PUSH1 0x1 PUSH1 0xA0 SHL SUB AND CALLER EQ PUSH2 0x222 JUMPI PUSH1 0x40 DUP1 MLOAD PUSH3 0x461BCD PUSH1 0xE5 SHL DUP2 MSTORE PUSH1 0x20 PUSH1 0x4 DUP3 ADD DUP2 SWAP1 MSTORE PUSH1 0x24 DUP3 ADD MSTORE PUSH32 0x4F776E61626C653A2063616C6C6572206973206E6F7420746865206F776E6572 PUSH1 0x44 DUP3 ADD MSTORE SWAP1 MLOAD SWAP1 DUP2 SWAP1 SUB PUSH1 0x64 ADD SWAP1 REVERT JUMPDEST PUSH2 0x22A PUSH2 0x3FE JUMP JUMPDEST SWAP1 POP SWAP1 JUMP JUMPDEST PUSH1 0x0 PUSH2 0x23A DUP3 PUSH2 0x35B JUMP JUMPDEST PUSH2 0x284 JUMPI PUSH1 0x40 DUP1 MLOAD PUSH3 0x461BCD PUSH1 0xE5 SHL DUP2 MSTORE PUSH1 0x20 PUSH1 0x4 DUP3 ADD MSTORE PUSH1 0x16 PUSH1 0x24 DUP3 ADD MSTORE PUSH22 0x1214195C9A5BD90E881C9BDD5B99081B9BDD08195B99 PUSH1 0x52 SHL PUSH1 0x44 DUP3 ADD MSTORE SWAP1 MLOAD SWAP1 DUP2 SWAP1 SUB PUSH1 0x64 ADD SWAP1 REVERT JUMPDEST PUSH1 0x1 DUP3 ADD PUSH1 0x0 SWAP1 DUP2 MSTORE PUSH1 0x3 PUSH1 0x20 SWAP1 DUP2 MSTORE PUSH1 0x40 DUP1 DUP4 KECCAK256 SLOAD DUP6 DUP5 MSTORE SWAP3 DUP2 SWAP1 KECCAK256 SLOAD DUP2 MLOAD PUSH4 0x14527A3D PUSH1 0xE3 SHL DUP2 MSTORE PUSH1 0x4 DUP2 ADD SWAP5 SWAP1 SWAP5 MSTORE PUSH1 0x24 DUP5 ADD MSTORE MLOAD PUSH20 0x0 SWAP3 PUSH4 0xA293D1E8 SWAP3 PUSH1 0x44 DUP1 DUP4 ADD SWAP4 SWAP2 SWAP3 DUP3 SWAP1 SUB ADD DUP2 DUP7 DUP1 EXTCODESIZE ISZERO DUP1 ISZERO PUSH2 0x2F4 JUMPI PUSH1 0x0 DUP1 REVERT JUMPDEST POP GAS DELEGATECALL ISZERO DUP1 ISZERO PUSH2 0x308 JUMPI RETURNDATASIZE PUSH1 0x0 DUP1 RETURNDATACOPY RETURNDATASIZE PUSH1 0x0 REVERT JUMPDEST POP POP POP POP PUSH1 0x40 MLOAD RETURNDATASIZE PUSH1 0x20 DUP2 LT ISZERO PUSH2 0x31E JUMPI PUSH1 0x0 DUP1 REVERT JUMPDEST POP MLOAD SWAP3 SWAP2 POP POP JUMP JUMPDEST PUSH1 0x3 PUSH1 0x20 MSTORE PUSH1 0x0 SWAP1 DUP2 MSTORE PUSH1 0x40 SWAP1 KECCAK256 SLOAD DUP2 JUMP JUMPDEST PUSH1 0x0 SWAP1 DUP2 MSTORE PUSH1 0x3 PUSH1 0x20 MSTORE PUSH1 0x40 SWAP1 KECCAK256 SLOAD ISZERO ISZERO SWAP1 JUMP JUMPDEST PUSH1 0x0 SLOAD PUSH1 0x1 PUSH1 0x1 PUSH1 0xA0 SHL SUB AND SWAP1 JUMP JUMPDEST PUSH1 0x1 ADD PUSH1 0x0 SWAP1 DUP2 MSTORE PUSH1 0x3 PUSH1 0x20 MSTORE PUSH1 0x40 SWAP1 KECCAK256 SLOAD ISZERO ISZERO SWAP1 JUMP JUMPDEST PUSH1 0x4 SLOAD SWAP1 JUMP JUMPDEST PUSH1 0x4 SLOAD PUSH1 0x0 SWAP1 DUP2 MSTORE PUSH1 0x3 PUSH1 0x20 MSTORE PUSH1 0x40 SWAP1 KECCAK256 SLOAD SWAP1 JUMP JUMPDEST PUSH1 0x0 SLOAD PUSH1 0x1 PUSH1 0x1 PUSH1 0xA0 SHL SUB AND CALLER EQ PUSH2 0x3EC JUMPI PUSH1 0x40 DUP1 MLOAD PUSH3 0x461BCD PUSH1 0xE5 SHL DUP2 MSTORE PUSH1 0x20 PUSH1 0x4 DUP3 ADD DUP2 SWAP1 MSTORE PUSH1 0x24 DUP3 ADD MSTORE PUSH32 0x4F776E61626C653A2063616C6C6572206973206E6F7420746865206F776E6572 PUSH1 0x44 DUP3 ADD MSTORE SWAP1 MLOAD SWAP1 DUP2 SWAP1 SUB PUSH1 0x64 ADD SWAP1 REVERT JUMPDEST PUSH2 0x3F5 DUP2 PUSH2 0x52D JUMP JUMPDEST POP JUMP JUMPDEST PUSH1 0x1 SLOAD SWAP1 JUMP JUMPDEST PUSH1 0x0 PUSH1 0x1 SLOAD NUMBER LT ISZERO PUSH2 0x457 JUMPI PUSH1 0x40 DUP1 MLOAD PUSH3 0x461BCD PUSH1 0xE5 SHL DUP2 MSTORE PUSH1 0x20 PUSH1 0x4 DUP3 ADD MSTORE PUSH1 0x18 PUSH1 0x24 DUP3 ADD MSTORE PUSH32 0x31737420706572696F64206E6F74207374617274207965740000000000000000 PUSH1 0x44 DUP3 ADD MSTORE SWAP1 MLOAD SWAP1 DUP2 SWAP1 SUB PUSH1 0x64 ADD SWAP1 REVERT JUMPDEST PUSH1 0x4 SLOAD ISZERO DUP1 PUSH2 0x4FD JUMPI POP PUSH1 0x2 SLOAD PUSH1 0x4 DUP1 SLOAD PUSH1 0x0 SWAP1 DUP2 MSTORE PUSH1 0x3 PUSH1 0x20 SWAP1 DUP2 MSTORE PUSH1 0x40 SWAP2 DUP3 SWAP1 KECCAK256 SLOAD DUP3 MLOAD PUSH4 0x14527A3D PUSH1 0xE3 SHL DUP2 MSTORE NUMBER SWAP5 DUP2 ADD SWAP5 SWAP1 SWAP5 MSTORE PUSH1 0x24 DUP5 ADD MSTORE SWAP1 MLOAD PUSH20 0x0 SWAP3 PUSH4 0xA293D1E8 SWAP3 PUSH1 0x44 DUP1 DUP4 ADD SWAP4 SWAP2 SWAP3 DUP3 SWAP1 SUB ADD DUP2 DUP7 DUP1 EXTCODESIZE ISZERO DUP1 ISZERO PUSH2 0x4CE JUMPI PUSH1 0x0 DUP1 REVERT JUMPDEST POP GAS DELEGATECALL ISZERO DUP1 ISZERO PUSH2 0x4E2 JUMPI RETURNDATASIZE PUSH1 0x0 DUP1 RETURNDATACOPY RETURNDATASIZE PUSH1 0x0 REVERT JUMPDEST POP POP POP POP PUSH1 0x40 MLOAD RETURNDATASIZE PUSH1 0x20 DUP2 LT ISZERO PUSH2 0x4F8 JUMPI PUSH1 0x0 DUP1 REVERT JUMPDEST POP MLOAD LT ISZERO JUMPDEST ISZERO PUSH2 0x527 JUMPI POP PUSH1 0x4 DUP1 SLOAD PUSH1 0x1 SWAP1 DUP2 ADD SWAP2 DUP3 SWAP1 SSTORE PUSH1 0x0 SWAP2 DUP3 MSTORE PUSH1 0x3 PUSH1 0x20 MSTORE PUSH1 0x40 SWAP1 SWAP2 KECCAK256 NUMBER SWAP1 SSTORE PUSH2 0x1BF JUMP JUMPDEST POP PUSH1 0x0 SWAP1 JUMP JUMPDEST PUSH1 0x1 PUSH1 0x1 PUSH1 0xA0 SHL SUB DUP2 AND PUSH2 0x572 JUMPI PUSH1 0x40 MLOAD PUSH3 0x461BCD PUSH1 0xE5 SHL DUP2 MSTORE PUSH1 0x4 ADD DUP1 DUP1 PUSH1 0x20 ADD DUP3 DUP2 SUB DUP3 MSTORE PUSH1 0x26 DUP2 MSTORE PUSH1 0x20 ADD DUP1 PUSH2 0x5CE PUSH1 0x26 SWAP2 CODECOPY PUSH1 0x40 ADD SWAP2 POP POP PUSH1 0x40 MLOAD DUP1 SWAP2 SUB SWAP1 REVERT JUMPDEST PUSH1 0x0 DUP1 SLOAD PUSH1 0x40 MLOAD PUSH1 0x1 PUSH1 0x1 PUSH1 0xA0 SHL SUB DUP1 DUP6 AND SWAP4 SWAP3 AND SWAP2 PUSH32 0x8BE0079C531659141344CD1FD0A4F28419497F9722A3DAAFE3B4186F6B6457E0 SWAP2 LOG3 PUSH1 0x0 DUP1 SLOAD PUSH1 0x1 PUSH1 0x1 PUSH1 0xA0 SHL SUB NOT AND PUSH1 0x1 PUSH1 0x1 PUSH1 0xA0 SHL SUB SWAP3 SWAP1 SWAP3 AND SWAP2 SWAP1 SWAP2 OR SWAP1 SSTORE JUMP INVALID 0x4f PUSH24 0x6E61626C653A206E6577206F776E65722069732074686520 PUSH27 0x65726F2061646472657373A265627A7A723058200C5CB5AE1FCF81 0x5e 0xb3 DUP9 0xfb 0xf7 0x22 KECCAK256 0xc ADDRESS 0xea PUSH19 0x32BBBB31A1952A3C127CA95450D64736F6C63 NUMBER STOP SDIV EXP STOP ORIGIN ",
  "sha1": "5f1bc0c3b14b94d38f5e077462ae3733cb7e79be",
  "source": "pragma solidity >=0.4.21 <0.6.0;\nimport \"../utils/SafeMath.sol\";\nimport \"../utils/Ownable.sol\";\n\ncontract HPeriod is Ownable{\n  using SafeMath for uint;\n\n  uint256 period_start_block;//the start block of the first round\n  uint256 period_block_num;//the length in block of a round\n\n  mapping (uint256 => uint256) public all_rounds_start_block;//the start block of all rounds\n  uint256 current_round;//the index of current round\n\n  constructor(uint256 _start_block, uint256 _period_block_num) public{\n    period_start_block = _start_block;\n    period_block_num = _period_block_num;\n\n    current_round = 0;\n  }\n\n  function _end_current_and_start_new_round() internal returns(bool){\n    require(block.number >= period_start_block, \"1st period not start yet\");\n    if(current_round == 0 || block.number.safeSub(all_rounds_start_block[current_round]) >= period_block_num){\n      current_round = current_round + 1;\n      all_rounds_start_block[current_round] = block.number;\n      return true;\n    }\n    return false;\n  }\n\n  function updatePeriodStatus() public onlyOwner returns(bool){\n    return _end_current_and_start_new_round();\n  }\n\n\n  //event HPeriodChanged(uint256 old, uint256 new_period);\n  //function _change_period(uint256 _period) internal{\n    //uint256 old = period_block_num;\n    //period_block_num = _period;\n    //emit HPeriodChanged(old, period_block_num);\n  //}\n\n  function getCurrentRoundStartBlock() public view returns(uint256){\n    return all_rounds_start_block[current_round];\n  }\n\n  function getParamPeriodStartBlock() public view returns(uint256){\n    return period_start_block;\n  }\n\n  function getParamPeriodBlockNum() public view returns(uint256){\n    return period_block_num;\n  }\n\n  function getCurrentRound() public view returns(uint256){\n    return current_round;\n  }\n\n  function getRoundLength(uint256 _round) public view returns(uint256){\n    require(isRoundEnd(_round), \"HPeriod: round not end\");\n    return all_rounds_start_block[_round + 1].safeSub(all_rounds_start_block[_round]);\n  }\n\n  function isRoundEnd(uint256 _round) public view returns(bool){\n    return all_rounds_start_block[_round + 1] > 0;\n  }\n\n  function isRoundStart(uint256 _round) public view returns(bool){\n    return all_rounds_start_block[_round] != 0;\n  }\n}\n\ncontract HPeriodFactory{\n  event NewHPeriod(address addr);\n\n  function createHPeriod(uint256 _start_block, uint256 _period_block_num) public returns(address){\n      HPeriod dis = new HPeriod(_start_block, _period_block_num);\n      dis.transferOwnership(msg.sender);\n      emit NewHPeriod(address(dis));\n      return address(dis);\n  }\n}",
  "sourcePath": "contracts/core/HPeriod.sol",
  "type": "contract"
}