{
  "abi": [
    {
      "constant": true,
      "inputs": [],
      "name": "name",
      "outputs": [
        {
          "name": "",
          "type": "string"
        }
      ],
      "payable": false,
      "stateMutability": "view",
      "type": "function"
    },
    {
      "constant": false,
      "inputs": [
        {
          "name": "_spender",
          "type": "address"
        },
        {
          "name": "_amount",
          "type": "uint256"
        }
      ],
      "name": "approve",
      "outputs": [
        {
          "name": "success",
          "type": "bool"
        }
      ],
      "payable": false,
      "stateMutability": "nonpayable",
      "type": "function"
    },
    {
      "constant": false,
      "inputs": [
        {
          "name": "_ratio_to",
          "type": "uint256"
        }
      ],
      "name": "set_ratio_to_target",
      "outputs": [],
      "payable": false,
      "stateMutability": "nonpayable",
      "type": "function"
    },
    {
      "constant": true,
      "inputs": [],
      "name": "creationBlock",
      "outputs": [
        {
          "name": "",
          "type": "uint256"
        }
      ],
      "payable": false,
      "stateMutability": "view",
      "type": "function"
    },
    {
      "constant": true,
      "inputs": [],
      "name": "totalSupply",
      "outputs": [
        {
          "name": "",
          "type": "uint256"
        }
      ],
      "payable": false,
      "stateMutability": "view",
      "type": "function"
    },
    {
      "constant": false,
      "inputs": [
        {
          "name": "_from",
          "type": "address"
        },
        {
          "name": "_to",
          "type": "address"
        },
        {
          "name": "_amount",
          "type": "uint256"
        }
      ],
      "name": "transferFrom",
      "outputs": [
        {
          "name": "success",
          "type": "bool"
        }
      ],
      "payable": false,
      "stateMutability": "nonpayable",
      "type": "function"
    },
    {
      "constant": true,
      "inputs": [],
      "name": "decimals",
      "outputs": [
        {
          "name": "",
          "type": "uint8"
        }
      ],
      "payable": false,
      "stateMutability": "view",
      "type": "function"
    },
    {
      "constant": false,
      "inputs": [
        {
          "name": "addr",
          "type": "address"
        },
        {
          "name": "amount",
          "type": "uint256"
        }
      ],
      "name": "mint",
      "outputs": [],
      "payable": false,
      "stateMutability": "nonpayable",
      "type": "function"
    },
    {
      "constant": false,
      "inputs": [
        {
          "name": "_target",
          "type": "address"
        }
      ],
      "name": "set_target",
      "outputs": [],
      "payable": false,
      "stateMutability": "nonpayable",
      "type": "function"
    },
    {
      "constant": true,
      "inputs": [
        {
          "name": "",
          "type": "bytes32"
        }
      ],
      "name": "extra",
      "outputs": [
        {
          "name": "",
          "type": "uint256"
        }
      ],
      "payable": false,
      "stateMutability": "view",
      "type": "function"
    },
    {
      "constant": true,
      "inputs": [
        {
          "name": "_owner",
          "type": "address"
        },
        {
          "name": "_blockNumber",
          "type": "uint256"
        }
      ],
      "name": "balanceOfAt",
      "outputs": [
        {
          "name": "",
          "type": "uint256"
        }
      ],
      "payable": false,
      "stateMutability": "view",
      "type": "function"
    },
    {
      "constant": true,
      "inputs": [],
      "name": "version",
      "outputs": [
        {
          "name": "",
          "type": "string"
        }
      ],
      "payable": false,
      "stateMutability": "view",
      "type": "function"
    },
    {
      "constant": true,
      "inputs": [
        {
          "name": "",
          "type": "uint256"
        }
      ],
      "name": "transferListeners",
      "outputs": [
        {
          "name": "",
          "type": "address"
        }
      ],
      "payable": false,
      "stateMutability": "view",
      "type": "function"
    },
    {
      "constant": false,
      "inputs": [
        {
          "name": "_name",
          "type": "string"
        },
        {
          "name": "_symbol",
          "type": "string"
        },
        {
          "name": "_transfersEnabled",
          "type": "bool"
        }
      ],
      "name": "reconstruct",
      "outputs": [],
      "payable": false,
      "stateMutability": "nonpayable",
      "type": "function"
    },
    {
      "constant": true,
      "inputs": [
        {
          "name": "_owner",
          "type": "address"
        }
      ],
      "name": "balanceOf",
      "outputs": [
        {
          "name": "balance",
          "type": "uint256"
        }
      ],
      "payable": false,
      "stateMutability": "view",
      "type": "function"
    },
    {
      "constant": false,
      "inputs": [
        {
          "name": "addr",
          "type": "address"
        },
        {
          "name": "amount",
          "type": "uint256"
        }
      ],
      "name": "burnFrom",
      "outputs": [],
      "payable": false,
      "stateMutability": "nonpayable",
      "type": "function"
    },
    {
      "constant": true,
      "inputs": [],
      "name": "parentToken",
      "outputs": [
        {
          "name": "",
          "type": "address"
        }
      ],
      "payable": false,
      "stateMutability": "view",
      "type": "function"
    },
    {
      "constant": true,
      "inputs": [],
      "name": "owner",
      "outputs": [
        {
          "name": "",
          "type": "address"
        }
      ],
      "payable": false,
      "stateMutability": "view",
      "type": "function"
    },
    {
      "constant": true,
      "inputs": [],
      "name": "symbol",
      "outputs": [
        {
          "name": "",
          "type": "string"
        }
      ],
      "payable": false,
      "stateMutability": "view",
      "type": "function"
    },
    {
      "constant": true,
      "inputs": [
        {
          "name": "_blockNumber",
          "type": "uint256"
        }
      ],
      "name": "totalSupplyAt",
      "outputs": [
        {
          "name": "",
          "type": "uint256"
        }
      ],
      "payable": false,
      "stateMutability": "view",
      "type": "function"
    },
    {
      "constant": false,
      "inputs": [
        {
          "name": "_addr",
          "type": "address"
        }
      ],
      "name": "removeTransferListener",
      "outputs": [],
      "payable": false,
      "stateMutability": "nonpayable",
      "type": "function"
    },
    {
      "constant": false,
      "inputs": [
        {
          "name": "_to",
          "type": "address"
        },
        {
          "name": "_amount",
          "type": "uint256"
        }
      ],
      "name": "transfer",
      "outputs": [
        {
          "name": "success",
          "type": "bool"
        }
      ],
      "payable": false,
      "stateMutability": "nonpayable",
      "type": "function"
    },
    {
      "constant": true,
      "inputs": [],
      "name": "transfersEnabled",
      "outputs": [
        {
          "name": "",
          "type": "bool"
        }
      ],
      "payable": false,
      "stateMutability": "view",
      "type": "function"
    },
    {
      "constant": true,
      "inputs": [],
      "name": "parentSnapShotBlock",
      "outputs": [
        {
          "name": "",
          "type": "uint256"
        }
      ],
      "payable": false,
      "stateMutability": "view",
      "type": "function"
    },
    {
      "constant": false,
      "inputs": [
        {
          "name": "_spender",
          "type": "address"
        },
        {
          "name": "_amount",
          "type": "uint256"
        },
        {
          "name": "_extraData",
          "type": "bytes"
        }
      ],
      "name": "approveAndCall",
      "outputs": [
        {
          "name": "success",
          "type": "bool"
        }
      ],
      "payable": false,
      "stateMutability": "nonpayable",
      "type": "function"
    },
    {
      "constant": true,
      "inputs": [],
      "name": "target",
      "outputs": [
        {
          "name": "",
          "type": "address"
        }
      ],
      "payable": false,
      "stateMutability": "view",
      "type": "function"
    },
    {
      "constant": false,
      "inputs": [
        {
          "name": "_addr",
          "type": "address"
        }
      ],
      "name": "addTransferListener",
      "outputs": [],
      "payable": false,
      "stateMutability": "nonpayable",
      "type": "function"
    },
    {
      "constant": false,
      "inputs": [
        {
          "name": "_target",
          "type": "bytes32"
        },
        {
          "name": "_value",
          "type": "uint256"
        }
      ],
      "name": "set_extra",
      "outputs": [],
      "payable": false,
      "stateMutability": "nonpayable",
      "type": "function"
    },
    {
      "constant": true,
      "inputs": [
        {
          "name": "_owner",
          "type": "address"
        },
        {
          "name": "_spender",
          "type": "address"
        }
      ],
      "name": "allowance",
      "outputs": [
        {
          "name": "remaining",
          "type": "uint256"
        }
      ],
      "payable": false,
      "stateMutability": "view",
      "type": "function"
    },
    {
      "constant": true,
      "inputs": [],
      "name": "ratio_to_target",
      "outputs": [
        {
          "name": "",
          "type": "uint256"
        }
      ],
      "payable": false,
      "stateMutability": "view",
      "type": "function"
    },
    {
      "constant": false,
      "inputs": [
        {
          "name": "newOwner",
          "type": "address"
        }
      ],
      "name": "transferOwnership",
      "outputs": [],
      "payable": false,
      "stateMutability": "nonpayable",
      "type": "function"
    },
    {
      "inputs": [
        {
          "name": "_name",
          "type": "string"
        },
        {
          "name": "_symbol",
          "type": "string"
        },
        {
          "name": "_transfersEnabled",
          "type": "bool"
        }
      ],
      "payable": false,
      "stateMutability": "nonpayable",
      "type": "constructor"
    },
    {
      "anonymous": false,
      "inputs": [
        {
          "indexed": false,
          "name": "ratio_to",
          "type": "uint256"
        }
      ],
      "name": "HTokenSetRatioToTarget",
      "type": "event"
    },
    {
      "anonymous": false,
      "inputs": [
        {
          "indexed": true,
          "name": "previousOwner",
          "type": "address"
        },
        {
          "indexed": true,
          "name": "newOwner",
          "type": "address"
        }
      ],
      "name": "OwnershipTransferred",
      "type": "event"
    },
    {
      "anonymous": false,
      "inputs": [
        {
          "indexed": true,
          "name": "_from",
          "type": "address"
        },
        {
          "indexed": true,
          "name": "_to",
          "type": "address"
        },
        {
          "indexed": false,
          "name": "_amount",
          "type": "uint256"
        }
      ],
      "name": "Transfer",
      "type": "event"
    },
    {
      "anonymous": false,
      "inputs": [
        {
          "indexed": true,
          "name": "_owner",
          "type": "address"
        },
        {
          "indexed": true,
          "name": "_spender",
          "type": "address"
        },
        {
          "indexed": false,
          "name": "_amount",
          "type": "uint256"
        }
      ],
      "name": "Approval",
      "type": "event"
    },
    {
      "anonymous": false,
      "inputs": [
        {
          "indexed": false,
          "name": "_addr",
          "type": "address"
        }
      ],
      "name": "NewTransferListener",
      "type": "event"
    },
    {
      "anonymous": false,
      "inputs": [
        {
          "indexed": false,
          "name": "_addr",
          "type": "address"
        }
      ],
      "name": "RemoveTransferListener",
      "type": "event"
    }
  ],
  "bytecode": "60c0604052600760808190527f4754545f302e310000000000000000000000000000000000000000000000000060a0908152620000409160039190620001e6565b503480156200004e57600080fd5b5060405162001d3638038062001d36833981810160405260608110156200007457600080fd5b8101908080516401000000008111156200008d57600080fd5b82016020810184811115620000a157600080fd5b8151640100000000811182820187101715620000bc57600080fd5b50509291906020018051640100000000811115620000d957600080fd5b82016020810184811115620000ed57600080fd5b81516401000000008111828201871017156200010857600080fd5b50506020918201518551919450925060009182918691601291879187916200013691879190870190620001e6565b506001805460ff191660ff851617905581516200015b906002906020850190620001e6565b50600580546001600160a01b0319166001600160a01b039790971696909617909555505050600655600b80544360075560ff191691151591909117610100600160a81b031916610100339081029190911790915560405181906000907f8be0079c531659141344cd1fd0a4f28419497f9722a3daafe3b4186f6b6457e0908290a3505050506200028b565b828054600181600116156101000203166002900490600052602060002090601f016020900481019282601f106200022957805160ff191683800117855562000259565b8280016001018555821562000259579182015b82811115620002595782518255916020019190600101906200023c565b50620002679291506200026b565b5090565b6200028891905b8082111562000267576000815560010162000272565b90565b611a9b806200029b6000396000f3fe608060405234801561001057600080fd5b50600436106101e55760003560e01c806379cc67901161010f578063c5bcc4f1116100a2578063dcf51a6411610071578063dcf51a6414610719578063dd62ed3e1461073c578063e7ff72c01461076a578063f2fde38b14610772576101e5565b8063c5bcc4f114610628578063cae9ca5114610630578063d4b83992146106eb578063d9a1b5c4146106f3576101e5565b8063981b24d0116100de578063981b24d0146105b15780639cfba85a146105ce578063a9059cbb146105f4578063bef97c8714610620576101e5565b806379cc67901461056d57806380a54001146105995780638da5cb5b146105a157806395d89b41146105a9576101e5565b806340c10f191161018757806354fd4d501161015657806354fd4d50146103d75780636aaa6a86146103df578063709f7f291461041857806370a0823114610547576101e5565b806340c10f191461033c578063427c9a951461036857806347c8b9801461038e5780634ee2cd7e146103ab576101e5565b806317634514116101c357806317634514146102c657806318160ddd146102e057806323b872dd146102e8578063313ce5671461031e576101e5565b806306fdde03146101ea578063095ea7b3146102675780630dbfe0d7146102a7575b600080fd5b6101f2610798565b6040805160208082528351818301528351919283929083019185019080838360005b8381101561022c578181015183820152602001610214565b50505050905090810190601f1680156102595780820380516001836020036101000a031916815260200191505b509250505060405180910390f35b6102936004803603604081101561027d57600080fd5b506001600160a01b038135169060200135610826565b604080519115158252519081900360200190f35b6102c4600480360360208110156102bd57600080fd5b50356108d7565b005b6102ce610964565b60408051918252519081900360200190f35b6102ce61096a565b610293600480360360608110156102fe57600080fd5b506001600160a01b0381358116916020810135909116906040013561097b565b6103266109ff565b6040805160ff9092168252519081900360200190f35b6102c46004803603604081101561035257600080fd5b506001600160a01b038135169060200135610a08565b6102c46004803603602081101561037e57600080fd5b50356001600160a01b0316610a69565b6102ce600480360360208110156103a457600080fd5b5035610add565b6102ce600480360360408110156103c157600080fd5b506001600160a01b038135169060200135610aef565b6101f2610c35565b6103fc600480360360208110156103f557600080fd5b5035610c90565b604080516001600160a01b039092168252519081900360200190f35b6102c46004803603606081101561042e57600080fd5b81019060208101813564010000000081111561044957600080fd5b82018360208201111561045b57600080fd5b8035906020019184600183028401116401000000008311171561047d57600080fd5b91908080601f01602080910402602001604051908101604052809392919081815260200183838082843760009201919091525092959493602081019350359150506401000000008111156104d057600080fd5b8201836020820111156104e257600080fd5b8035906020019184600183028401116401000000008311171561050457600080fd5b91908080601f0160208091040260200160405190810160405280939291908181526020018383808284376000920191909152509295505050503515159050610cb7565b6102ce6004803603602081101561055d57600080fd5b50356001600160a01b0316610d46565b6102c46004803603604081101561058357600080fd5b506001600160a01b038135169060200135610d5a565b6103fc610db6565b6103fc610dc5565b6101f2610dd9565b6102ce600480360360208110156105c757600080fd5b5035610e31565b6102c4600480360360208110156105e457600080fd5b50356001600160a01b0316610f1e565b6102936004803603604081101561060a57600080fd5b506001600160a01b038135169060200135610f7c565b610293610f99565b6102ce610fa2565b6102936004803603606081101561064657600080fd5b6001600160a01b038235169160208101359181019060608101604082013564010000000081111561067657600080fd5b82018360208201111561068857600080fd5b803590602001918460018302840111640100000000831117156106aa57600080fd5b91908080601f016020809104026020016040519081016040528093929190818152602001838380828437600092019190915250929550610fa8945050505050565b6103fc6110a8565b6102c46004803603602081101561070957600080fd5b50356001600160a01b03166110b7565b6102c46004803603604081101561072f57600080fd5b5080359060200135611112565b6102ce6004803603604081101561075257600080fd5b506001600160a01b0381358116916020013516611176565b6102ce6111a1565b6102c46004803603602081101561078857600080fd5b50356001600160a01b03166111a7565b6000805460408051602060026001851615610100026000190190941693909304601f8101849004840282018401909252818152929183018282801561081e5780601f106107f35761010080835404028352916020019161081e565b820191906000526020600020905b81548152906001019060200180831161080157829003601f168201915b505050505081565b600b5460009060ff1661083857600080fd5b81158061086657503360009081526009602090815260408083206001600160a01b0387168452909152902054155b61086f57600080fd5b3360008181526009602090815260408083206001600160a01b03881680855290835292819020869055805186815290519293927f8c5be1e5ebec7d5bd14f71427d1e84f3dd0314c0f7b2291e5b200ac8c7c3b925929181900390910190a35060015b92915050565b600b5461010090046001600160a01b03163314610929576040805162461bcd60e51b81526020600482018190526024820152600080516020611a47833981519152604482015290519081900360640190fd5b600d8190556040805182815290517fae5999ea49173ebd18daaa951f3a44827563d1eb67ce7262cd64ae8485f5a1fb9181900360200190a150565b60075481565b600061097543610e31565b90505b90565b600b5460009060ff1661098d57600080fd5b6001600160a01b03841660009081526009602090815260408083203384529091529020548211156109c0575060006109f8565b6001600160a01b03841660009081526009602090815260408083203384529091529020805483900390556109f5848484611202565b90505b9392505050565b60015460ff1681565b600b5461010090046001600160a01b03163314610a5a576040805162461bcd60e51b81526020600482018190526024820152600080516020611a47833981519152604482015290519081900360640190fd5b610a648282611330565b505050565b600b5461010090046001600160a01b03163314610abb576040805162461bcd60e51b81526020600482018190526024820152600080516020611a47833981519152604482015290519081900360640190fd5b600c80546001600160a01b0319166001600160a01b0392909216919091179055565b600e6020526000908152604090205481565b6001600160a01b0382166000908152600860205260408120541580610b4957506001600160a01b03831660009081526008602052604081208054849290610b3257fe5b6000918252602090912001546001600160801b0316115b15610c0c576005546001600160a01b031615610c04576005546006546001600160a01b0390911690634ee2cd7e908590610b849086906113f1565b6040518363ffffffff1660e01b815260040180836001600160a01b03166001600160a01b031681526020018281526020019250505060206040518083038186803b158015610bd157600080fd5b505afa158015610be5573d6000803e3d6000fd5b505050506040513d6020811015610bfb57600080fd5b505190506108d1565b5060006108d1565b6001600160a01b0383166000908152600860205260409020610c2e9083611407565b90506108d1565b6003805460408051602060026001851615610100026000190190941693909304601f8101849004840282018401909252818152929183018282801561081e5780601f106107f35761010080835404028352916020019161081e565b60048181548110610c9d57fe5b6000918252602090912001546001600160a01b0316905081565b600b5461010090046001600160a01b03163314610d09576040805162461bcd60e51b81526020600482018190526024820152600080516020611a47833981519152604482015290519081900360640190fd5b8251610d1c906000906020860190611968565b508151610d30906002906020850190611968565b50600b805460ff19169115159190911790555050565b6000610d528243610aef565b90505b919050565b600b5461010090046001600160a01b03163314610dac576040805162461bcd60e51b81526020600482018190526024820152600080516020611a47833981519152604482015290519081900360640190fd5b610a648282611537565b6005546001600160a01b031681565b600b5461010090046001600160a01b031690565b6002805460408051602060018416156101000260001901909316849004601f8101849004840282018401909252818152929183018282801561081e5780601f106107f35761010080835404028352916020019161081e565b600a546000901580610e64575081600a600081548110610e4d57fe5b6000918252602090912001546001600160801b0316115b15610f0c576005546001600160a01b031615610f04576005546006546001600160a01b039091169063981b24d090610e9d9085906113f1565b6040518263ffffffff1660e01b81526004018082815260200191505060206040518083038186803b158015610ed157600080fd5b505afa158015610ee5573d6000803e3d6000fd5b505050506040513d6020811015610efb57600080fd5b50519050610d55565b506000610d55565b610f17600a83611407565b9050610d55565b600b5461010090046001600160a01b03163314610f70576040805162461bcd60e51b81526020600482018190526024820152600080516020611a47833981519152604482015290519081900360640190fd5b610f79816115e9565b50565b600b5460009060ff16610f8e57600080fd5b6109f8338484611202565b600b5460ff1681565b60065481565b6000610fb48484610826565b610fbd57600080fd5b604051638f4ffcb160e01b815233600482018181526024830186905230604484018190526080606485019081528651608486015286516001600160a01b038a1695638f4ffcb195948a94938a939192909160a490910190602085019080838360005b8381101561103757818101518382015260200161101f565b50505050905090810190601f1680156110645780820380516001836020036101000a031916815260200191505b5095505050505050600060405180830381600087803b15801561108657600080fd5b505af115801561109a573d6000803e3d6000fd5b506001979650505050505050565b600c546001600160a01b031681565b600b5461010090046001600160a01b03163314611109576040805162461bcd60e51b81526020600482018190526024820152600080516020611a47833981519152604482015290519081900360640190fd5b610f79816116b4565b600b5461010090046001600160a01b03163314611164576040805162461bcd60e51b81526020600482018190526024820152600080516020611a47833981519152604482015290519081900360640190fd5b6000918252600e602052604090912055565b6001600160a01b03918216600090815260096020908152604080832093909416825291909152205490565b600d5481565b600b5461010090046001600160a01b031633146111f9576040805162461bcd60e51b81526020600482018190526024820152600080516020611a47833981519152604482015290519081900360640190fd5b610f7981611738565b600081611211575060016109f8565b436006541061121f57600080fd5b6001600160a01b0383161580159061124057506001600160a01b0383163014155b61124957600080fd5b60006112558543610aef565b9050828110156112695760009150506109f8565b6001600160a01b038516600090815260086020526040902061128d908483036117e4565b60006112998543610aef565b90508084820110156112aa57600080fd5b6001600160a01b03851660009081526008602052604090206112ce908286016117e4565b846001600160a01b0316866001600160a01b03167fddf252ad1be2c89b69c2b068fc378daa952ba7f163c4a11628f55a4df523b3ef866040518082815260200191505060405180910390a36113248686866118bd565b50600195945050505050565b60008061133b61096a565b905080838201101561134c57600080fd5b600061135785610d46565b905080848201101561136857600080fd5b611375600a8584016117e4565b6001600160a01b0385166000908152600860205260409020611399908286016117e4565b6040805185815290516001600160a01b038716916000917fddf252ad1be2c89b69c2b068fc378daa952ba7f163c4a11628f55a4df523b3ef9181900360200190a36113e6600086866118bd565b506001949350505050565b600081831061140057816109f8565b5090919050565b8154600090611418575060006108d1565b82548390600019810190811061142a57fe5b6000918252602090912001546001600160801b0316821061147a5782548390600019810190811061145757fe5b600091825260209091200154600160801b90046001600160801b031690506108d1565b8260008154811061148757fe5b6000918252602090912001546001600160801b03168210156114ab575060006108d1565b8254600090600019015b818111156115065760006002600183850101049050848682815481106114d757fe5b6000918252602090912001546001600160801b0316116114f957809250611500565b6001810391505b506114b5565b84828154811061151257fe5b600091825260209091200154600160801b90046001600160801b031695945050505050565b60008061154261096a565b90508281101561155157600080fd5b600061155c85610d46565b90508381101561156b57600080fd5b611578600a8584036117e4565b6001600160a01b038516600090815260086020526040902061159c908583036117e4565b6040805185815290516000916001600160a01b038816917fddf252ad1be2c89b69c2b068fc378daa952ba7f163c4a11628f55a4df523b3ef9181900360200190a36113e6856000866118bd565b6040805163edefe12d60e01b81526004818101526001600160a01b0383166024820152905173__AddressArray__________________________9163edefe12d916044808301926020929190829003018186803b15801561164957600080fd5b505af415801561165d573d6000803e3d6000fd5b505050506040513d602081101561167357600080fd5b5050604080516001600160a01b038316815290517fd6c3db22a16cf1fea7bafab76301eff159ad29dc37339df6f33eb122cf0ffe369181900360200190a150565b600480546001810182556000919091527f8a35acfbc15ff81a39ae7d344fd709f28e8600b4aa8c65c6b64bfe7fe36bd19b0180546001600160a01b0383166001600160a01b0319909116811790915560408051918252517fb39818ecfe00151406f56d9c97659598c71791d1dfd011e5778a4ce2294842f19181900360200190a150565b6001600160a01b03811661177d5760405162461bcd60e51b8152600401808060200182810382526026815260200180611a216026913960400191505060405180910390fd5b600b546040516001600160a01b0380841692610100900416907f8be0079c531659141344cd1fd0a4f28419497f9722a3daafe3b4186f6b6457e090600090a3600b80546001600160a01b0390921661010002610100600160a81b0319909216919091179055565b815415806118185750815443908390600019810190811061180157fe5b6000918252602090912001546001600160801b0316105b1561187f578154600090839061183182600183016119e6565b8154811061183b57fe5b600091825260209091200180546001600160801b03848116600160801b024382166fffffffffffffffffffffffffffffffff199093169290921716179055506118b9565b81546000908390600019810190811061189457fe5b600091825260209091200180546001600160801b03808516600160801b029116179055505b5050565b60005b600454811015611962576000600482815481106118d957fe5b600091825260208220015460408051634a39314960e01b81526001600160a01b03898116600483015288811660248301526044820188905291519190921693508392634a393149926064808201939182900301818387803b15801561193d57600080fd5b505af1158015611951573d6000803e3d6000fd5b5050600190930192506118c0915050565b50505050565b828054600181600116156101000203166002900490600052602060002090601f016020900481019282601f106119a957805160ff19168380011785556119d6565b828001600101855582156119d6579182015b828111156119d65782518255916020019190600101906119bb565b506119e2929150611a06565b5090565b815481835581811115610a6457600083815260209020610a649181019083015b61097891905b808211156119e25760008155600101611a0c56fe4f776e61626c653a206e6577206f776e657220697320746865207a65726f20616464726573734f776e61626c653a2063616c6c6572206973206e6f7420746865206f776e6572a265627a7a723058202c84bca9705884d83761a485e3162e8416e99676c6526085fb2574ddb4b7838e64736f6c634300050a0032",
  "bytecodeSha1": "3f17139f0b465c8c20a10df1e84827cfac729424",
  "compiler": {
    "evm_version": "petersburg",
    "optimizer": {
      "enabled": true,
      "runs": 200
    },
    "version": "0.5.10+commit.5a6ea5b1"
  },
  "contractName": "HToken",
  "deployedBytecode": "608060405234801561001057600080fd5b50600436106101e55760003560e01c806379cc67901161010f578063c5bcc4f1116100a2578063dcf51a6411610071578063dcf51a6414610719578063dd62ed3e1461073c578063e7ff72c01461076a578063f2fde38b14610772576101e5565b8063c5bcc4f114610628578063cae9ca5114610630578063d4b83992146106eb578063d9a1b5c4146106f3576101e5565b8063981b24d0116100de578063981b24d0146105b15780639cfba85a146105ce578063a9059cbb146105f4578063bef97c8714610620576101e5565b806379cc67901461056d57806380a54001146105995780638da5cb5b146105a157806395d89b41146105a9576101e5565b806340c10f191161018757806354fd4d501161015657806354fd4d50146103d75780636aaa6a86146103df578063709f7f291461041857806370a0823114610547576101e5565b806340c10f191461033c578063427c9a951461036857806347c8b9801461038e5780634ee2cd7e146103ab576101e5565b806317634514116101c357806317634514146102c657806318160ddd146102e057806323b872dd146102e8578063313ce5671461031e576101e5565b806306fdde03146101ea578063095ea7b3146102675780630dbfe0d7146102a7575b600080fd5b6101f2610798565b6040805160208082528351818301528351919283929083019185019080838360005b8381101561022c578181015183820152602001610214565b50505050905090810190601f1680156102595780820380516001836020036101000a031916815260200191505b509250505060405180910390f35b6102936004803603604081101561027d57600080fd5b506001600160a01b038135169060200135610826565b604080519115158252519081900360200190f35b6102c4600480360360208110156102bd57600080fd5b50356108d7565b005b6102ce610964565b60408051918252519081900360200190f35b6102ce61096a565b610293600480360360608110156102fe57600080fd5b506001600160a01b0381358116916020810135909116906040013561097b565b6103266109ff565b6040805160ff9092168252519081900360200190f35b6102c46004803603604081101561035257600080fd5b506001600160a01b038135169060200135610a08565b6102c46004803603602081101561037e57600080fd5b50356001600160a01b0316610a69565b6102ce600480360360208110156103a457600080fd5b5035610add565b6102ce600480360360408110156103c157600080fd5b506001600160a01b038135169060200135610aef565b6101f2610c35565b6103fc600480360360208110156103f557600080fd5b5035610c90565b604080516001600160a01b039092168252519081900360200190f35b6102c46004803603606081101561042e57600080fd5b81019060208101813564010000000081111561044957600080fd5b82018360208201111561045b57600080fd5b8035906020019184600183028401116401000000008311171561047d57600080fd5b91908080601f01602080910402602001604051908101604052809392919081815260200183838082843760009201919091525092959493602081019350359150506401000000008111156104d057600080fd5b8201836020820111156104e257600080fd5b8035906020019184600183028401116401000000008311171561050457600080fd5b91908080601f0160208091040260200160405190810160405280939291908181526020018383808284376000920191909152509295505050503515159050610cb7565b6102ce6004803603602081101561055d57600080fd5b50356001600160a01b0316610d46565b6102c46004803603604081101561058357600080fd5b506001600160a01b038135169060200135610d5a565b6103fc610db6565b6103fc610dc5565b6101f2610dd9565b6102ce600480360360208110156105c757600080fd5b5035610e31565b6102c4600480360360208110156105e457600080fd5b50356001600160a01b0316610f1e565b6102936004803603604081101561060a57600080fd5b506001600160a01b038135169060200135610f7c565b610293610f99565b6102ce610fa2565b6102936004803603606081101561064657600080fd5b6001600160a01b038235169160208101359181019060608101604082013564010000000081111561067657600080fd5b82018360208201111561068857600080fd5b803590602001918460018302840111640100000000831117156106aa57600080fd5b91908080601f016020809104026020016040519081016040528093929190818152602001838380828437600092019190915250929550610fa8945050505050565b6103fc6110a8565b6102c46004803603602081101561070957600080fd5b50356001600160a01b03166110b7565b6102c46004803603604081101561072f57600080fd5b5080359060200135611112565b6102ce6004803603604081101561075257600080fd5b506001600160a01b0381358116916020013516611176565b6102ce6111a1565b6102c46004803603602081101561078857600080fd5b50356001600160a01b03166111a7565b6000805460408051602060026001851615610100026000190190941693909304601f8101849004840282018401909252818152929183018282801561081e5780601f106107f35761010080835404028352916020019161081e565b820191906000526020600020905b81548152906001019060200180831161080157829003601f168201915b505050505081565b600b5460009060ff1661083857600080fd5b81158061086657503360009081526009602090815260408083206001600160a01b0387168452909152902054155b61086f57600080fd5b3360008181526009602090815260408083206001600160a01b03881680855290835292819020869055805186815290519293927f8c5be1e5ebec7d5bd14f71427d1e84f3dd0314c0f7b2291e5b200ac8c7c3b925929181900390910190a35060015b92915050565b600b5461010090046001600160a01b03163314610929576040805162461bcd60e51b81526020600482018190526024820152600080516020611a47833981519152604482015290519081900360640190fd5b600d8190556040805182815290517fae5999ea49173ebd18daaa951f3a44827563d1eb67ce7262cd64ae8485f5a1fb9181900360200190a150565b60075481565b600061097543610e31565b90505b90565b600b5460009060ff1661098d57600080fd5b6001600160a01b03841660009081526009602090815260408083203384529091529020548211156109c0575060006109f8565b6001600160a01b03841660009081526009602090815260408083203384529091529020805483900390556109f5848484611202565b90505b9392505050565b60015460ff1681565b600b5461010090046001600160a01b03163314610a5a576040805162461bcd60e51b81526020600482018190526024820152600080516020611a47833981519152604482015290519081900360640190fd5b610a648282611330565b505050565b600b5461010090046001600160a01b03163314610abb576040805162461bcd60e51b81526020600482018190526024820152600080516020611a47833981519152604482015290519081900360640190fd5b600c80546001600160a01b0319166001600160a01b0392909216919091179055565b600e6020526000908152604090205481565b6001600160a01b0382166000908152600860205260408120541580610b4957506001600160a01b03831660009081526008602052604081208054849290610b3257fe5b6000918252602090912001546001600160801b0316115b15610c0c576005546001600160a01b031615610c04576005546006546001600160a01b0390911690634ee2cd7e908590610b849086906113f1565b6040518363ffffffff1660e01b815260040180836001600160a01b03166001600160a01b031681526020018281526020019250505060206040518083038186803b158015610bd157600080fd5b505afa158015610be5573d6000803e3d6000fd5b505050506040513d6020811015610bfb57600080fd5b505190506108d1565b5060006108d1565b6001600160a01b0383166000908152600860205260409020610c2e9083611407565b90506108d1565b6003805460408051602060026001851615610100026000190190941693909304601f8101849004840282018401909252818152929183018282801561081e5780601f106107f35761010080835404028352916020019161081e565b60048181548110610c9d57fe5b6000918252602090912001546001600160a01b0316905081565b600b5461010090046001600160a01b03163314610d09576040805162461bcd60e51b81526020600482018190526024820152600080516020611a47833981519152604482015290519081900360640190fd5b8251610d1c906000906020860190611968565b508151610d30906002906020850190611968565b50600b805460ff19169115159190911790555050565b6000610d528243610aef565b90505b919050565b600b5461010090046001600160a01b03163314610dac576040805162461bcd60e51b81526020600482018190526024820152600080516020611a47833981519152604482015290519081900360640190fd5b610a648282611537565b6005546001600160a01b031681565b600b5461010090046001600160a01b031690565b6002805460408051602060018416156101000260001901909316849004601f8101849004840282018401909252818152929183018282801561081e5780601f106107f35761010080835404028352916020019161081e565b600a546000901580610e64575081600a600081548110610e4d57fe5b6000918252602090912001546001600160801b0316115b15610f0c576005546001600160a01b031615610f04576005546006546001600160a01b039091169063981b24d090610e9d9085906113f1565b6040518263ffffffff1660e01b81526004018082815260200191505060206040518083038186803b158015610ed157600080fd5b505afa158015610ee5573d6000803e3d6000fd5b505050506040513d6020811015610efb57600080fd5b50519050610d55565b506000610d55565b610f17600a83611407565b9050610d55565b600b5461010090046001600160a01b03163314610f70576040805162461bcd60e51b81526020600482018190526024820152600080516020611a47833981519152604482015290519081900360640190fd5b610f79816115e9565b50565b600b5460009060ff16610f8e57600080fd5b6109f8338484611202565b600b5460ff1681565b60065481565b6000610fb48484610826565b610fbd57600080fd5b604051638f4ffcb160e01b815233600482018181526024830186905230604484018190526080606485019081528651608486015286516001600160a01b038a1695638f4ffcb195948a94938a939192909160a490910190602085019080838360005b8381101561103757818101518382015260200161101f565b50505050905090810190601f1680156110645780820380516001836020036101000a031916815260200191505b5095505050505050600060405180830381600087803b15801561108657600080fd5b505af115801561109a573d6000803e3d6000fd5b506001979650505050505050565b600c546001600160a01b031681565b600b5461010090046001600160a01b03163314611109576040805162461bcd60e51b81526020600482018190526024820152600080516020611a47833981519152604482015290519081900360640190fd5b610f79816116b4565b600b5461010090046001600160a01b03163314611164576040805162461bcd60e51b81526020600482018190526024820152600080516020611a47833981519152604482015290519081900360640190fd5b6000918252600e602052604090912055565b6001600160a01b03918216600090815260096020908152604080832093909416825291909152205490565b600d5481565b600b5461010090046001600160a01b031633146111f9576040805162461bcd60e51b81526020600482018190526024820152600080516020611a47833981519152604482015290519081900360640190fd5b610f7981611738565b600081611211575060016109f8565b436006541061121f57600080fd5b6001600160a01b0383161580159061124057506001600160a01b0383163014155b61124957600080fd5b60006112558543610aef565b9050828110156112695760009150506109f8565b6001600160a01b038516600090815260086020526040902061128d908483036117e4565b60006112998543610aef565b90508084820110156112aa57600080fd5b6001600160a01b03851660009081526008602052604090206112ce908286016117e4565b846001600160a01b0316866001600160a01b03167fddf252ad1be2c89b69c2b068fc378daa952ba7f163c4a11628f55a4df523b3ef866040518082815260200191505060405180910390a36113248686866118bd565b50600195945050505050565b60008061133b61096a565b905080838201101561134c57600080fd5b600061135785610d46565b905080848201101561136857600080fd5b611375600a8584016117e4565b6001600160a01b0385166000908152600860205260409020611399908286016117e4565b6040805185815290516001600160a01b038716916000917fddf252ad1be2c89b69c2b068fc378daa952ba7f163c4a11628f55a4df523b3ef9181900360200190a36113e6600086866118bd565b506001949350505050565b600081831061140057816109f8565b5090919050565b8154600090611418575060006108d1565b82548390600019810190811061142a57fe5b6000918252602090912001546001600160801b0316821061147a5782548390600019810190811061145757fe5b600091825260209091200154600160801b90046001600160801b031690506108d1565b8260008154811061148757fe5b6000918252602090912001546001600160801b03168210156114ab575060006108d1565b8254600090600019015b818111156115065760006002600183850101049050848682815481106114d757fe5b6000918252602090912001546001600160801b0316116114f957809250611500565b6001810391505b506114b5565b84828154811061151257fe5b600091825260209091200154600160801b90046001600160801b031695945050505050565b60008061154261096a565b90508281101561155157600080fd5b600061155c85610d46565b90508381101561156b57600080fd5b611578600a8584036117e4565b6001600160a01b038516600090815260086020526040902061159c908583036117e4565b6040805185815290516000916001600160a01b038816917fddf252ad1be2c89b69c2b068fc378daa952ba7f163c4a11628f55a4df523b3ef9181900360200190a36113e6856000866118bd565b6040805163edefe12d60e01b81526004818101526001600160a01b0383166024820152905173__$95541467927e6d9e0f237d104c07db3aeb$__9163edefe12d916044808301926020929190829003018186803b15801561164957600080fd5b505af415801561165d573d6000803e3d6000fd5b505050506040513d602081101561167357600080fd5b5050604080516001600160a01b038316815290517fd6c3db22a16cf1fea7bafab76301eff159ad29dc37339df6f33eb122cf0ffe369181900360200190a150565b600480546001810182556000919091527f8a35acfbc15ff81a39ae7d344fd709f28e8600b4aa8c65c6b64bfe7fe36bd19b0180546001600160a01b0383166001600160a01b0319909116811790915560408051918252517fb39818ecfe00151406f56d9c97659598c71791d1dfd011e5778a4ce2294842f19181900360200190a150565b6001600160a01b03811661177d5760405162461bcd60e51b8152600401808060200182810382526026815260200180611a216026913960400191505060405180910390fd5b600b546040516001600160a01b0380841692610100900416907f8be0079c531659141344cd1fd0a4f28419497f9722a3daafe3b4186f6b6457e090600090a3600b80546001600160a01b0390921661010002610100600160a81b0319909216919091179055565b815415806118185750815443908390600019810190811061180157fe5b6000918252602090912001546001600160801b0316105b1561187f578154600090839061183182600183016119e6565b8154811061183b57fe5b600091825260209091200180546001600160801b03848116600160801b024382166fffffffffffffffffffffffffffffffff199093169290921716179055506118b9565b81546000908390600019810190811061189457fe5b600091825260209091200180546001600160801b03808516600160801b029116179055505b5050565b60005b600454811015611962576000600482815481106118d957fe5b600091825260208220015460408051634a39314960e01b81526001600160a01b03898116600483015288811660248301526044820188905291519190921693508392634a393149926064808201939182900301818387803b15801561193d57600080fd5b505af1158015611951573d6000803e3d6000fd5b5050600190930192506118c0915050565b50505050565b828054600181600116156101000203166002900490600052602060002090601f016020900481019282601f106119a957805160ff19168380011785556119d6565b828001600101855582156119d6579182015b828111156119d65782518255916020019190600101906119bb565b506119e2929150611a06565b5090565b815481835581811115610a6457600083815260209020610a649181019083015b61097891905b808211156119e25760008155600101611a0c56fe4f776e61626c653a206e6577206f776e657220697320746865207a65726f20616464726573734f776e61626c653a2063616c6c6572206973206e6f7420746865206f776e6572a265627a7a723058202c84bca9705884d83761a485e3162e8416e99676c6526085fb2574ddb4b7838e64736f6c634300050a0032",
  "language": "Solidity",
  "natspec": {
    "methods": {
      "allowance(address,address)": {
        "details": "This function makes it easy to read the `allowed[]` map",
        "params": {
          "_owner": "The address of the account that owns the token",
          "_spender": "The address of the account able to transfer the tokens"
        },
        "return": "Amount of remaining tokens of _owner that _spender is allowed  to spend"
      },
      "approve(address,uint256)": {
        "notice": "`msg.sender` approves `_spender` to spend `_amount` tokens on  its behalf. This is a modified version of the ERC20 approve function  to be a little bit safer",
        "params": {
          "_amount": "The amount of tokens to be approved for transfer",
          "_spender": "The address of the account able to transfer the tokens"
        },
        "return": "True if the approval was successful"
      },
      "approveAndCall(address,uint256,bytes)": {
        "notice": "`msg.sender` approves `_spender` to send `_amount` tokens on  its behalf, and then a function is triggered in the contract that is  being approved, `_spender`. This allows users to use their tokens to  interact with contracts in one function call instead of two",
        "params": {
          "_amount": "The amount of tokens to be approved for transfer",
          "_spender": "The address of the contract able to transfer the tokens"
        },
        "return": "True if the function call was successful"
      },
      "balanceOf(address)": {
        "params": {
          "_owner": "The address that's balance is being requested"
        },
        "return": "The balance of `_owner` at the current block"
      },
      "balanceOfAt(address,uint256)": {
        "details": "Queries the balance of `_owner` at a specific `_blockNumber`",
        "notice": "/////////////",
        "params": {
          "_blockNumber": "The block number when the balance is queried",
          "_owner": "The address from which the balance will be retrieved"
        },
        "return": "The balance at `_blockNumber`"
      },
      "owner()": {
        "details": "Returns the address of the current owner."
      },
      "totalSupply()": {
        "details": "This function makes it easy to get the total number of tokens",
        "return": "The total number of tokens"
      },
      "totalSupplyAt(uint256)": {
        "notice": "Total amount of tokens at a specific `_blockNumber`.",
        "params": {
          "_blockNumber": "The block number when the totalSupply is queried"
        },
        "return": "The total amount of tokens at `_blockNumber`"
      },
      "transfer(address,uint256)": {
        "notice": "////////////////Send `_amount` tokens to `_to` from `msg.sender`",
        "params": {
          "_amount": "The amount of tokens to be transferred",
          "_to": "The address of the recipient"
        },
        "return": "Whether the transfer was successful or not"
      },
      "transferFrom(address,address,uint256)": {
        "notice": "Send `_amount` tokens to `_to` from `_from` on the condition it  is approved by `_from`",
        "params": {
          "_amount": "The amount of tokens to be transferred",
          "_from": "The address holding the tokens being transferred",
          "_to": "The address of the recipient"
        },
        "return": "True if the transfer was successful"
      },
      "transferOwnership(address)": {
        "details": "Transfers ownership of the contract to a new account (`newOwner`). Can only be called by the current owner."
      }
    }
  },
  "opcodes": "PUSH1 0x80 PUSH1 0x40 MSTORE CALLVALUE DUP1 ISZERO PUSH2 0x10 JUMPI PUSH1 0x0 DUP1 REVERT JUMPDEST POP PUSH1 0x4 CALLDATASIZE LT PUSH2 0x1E5 JUMPI PUSH1 0x0 CALLDATALOAD PUSH1 0xE0 SHR DUP1 PUSH4 0x79CC6790 GT PUSH2 0x10F JUMPI DUP1 PUSH4 0xC5BCC4F1 GT PUSH2 0xA2 JUMPI DUP1 PUSH4 0xDCF51A64 GT PUSH2 0x71 JUMPI DUP1 PUSH4 0xDCF51A64 EQ PUSH2 0x719 JUMPI DUP1 PUSH4 0xDD62ED3E EQ PUSH2 0x73C JUMPI DUP1 PUSH4 0xE7FF72C0 EQ PUSH2 0x76A JUMPI DUP1 PUSH4 0xF2FDE38B EQ PUSH2 0x772 JUMPI PUSH2 0x1E5 JUMP JUMPDEST DUP1 PUSH4 0xC5BCC4F1 EQ PUSH2 0x628 JUMPI DUP1 PUSH4 0xCAE9CA51 EQ PUSH2 0x630 JUMPI DUP1 PUSH4 0xD4B83992 EQ PUSH2 0x6EB JUMPI DUP1 PUSH4 0xD9A1B5C4 EQ PUSH2 0x6F3 JUMPI PUSH2 0x1E5 JUMP JUMPDEST DUP1 PUSH4 0x981B24D0 GT PUSH2 0xDE JUMPI DUP1 PUSH4 0x981B24D0 EQ PUSH2 0x5B1 JUMPI DUP1 PUSH4 0x9CFBA85A EQ PUSH2 0x5CE JUMPI DUP1 PUSH4 0xA9059CBB EQ PUSH2 0x5F4 JUMPI DUP1 PUSH4 0xBEF97C87 EQ PUSH2 0x620 JUMPI PUSH2 0x1E5 JUMP JUMPDEST DUP1 PUSH4 0x79CC6790 EQ PUSH2 0x56D JUMPI DUP1 PUSH4 0x80A54001 EQ PUSH2 0x599 JUMPI DUP1 PUSH4 0x8DA5CB5B EQ PUSH2 0x5A1 JUMPI DUP1 PUSH4 0x95D89B41 EQ PUSH2 0x5A9 JUMPI PUSH2 0x1E5 JUMP JUMPDEST DUP1 PUSH4 0x40C10F19 GT PUSH2 0x187 JUMPI DUP1 PUSH4 0x54FD4D50 GT PUSH2 0x156 JUMPI DUP1 PUSH4 0x54FD4D50 EQ PUSH2 0x3D7 JUMPI DUP1 PUSH4 0x6AAA6A86 EQ PUSH2 0x3DF JUMPI DUP1 PUSH4 0x709F7F29 EQ PUSH2 0x418 JUMPI DUP1 PUSH4 0x70A08231 EQ PUSH2 0x547 JUMPI PUSH2 0x1E5 JUMP JUMPDEST DUP1 PUSH4 0x40C10F19 EQ PUSH2 0x33C JUMPI DUP1 PUSH4 0x427C9A95 EQ PUSH2 0x368 JUMPI DUP1 PUSH4 0x47C8B980 EQ PUSH2 0x38E JUMPI DUP1 PUSH4 0x4EE2CD7E EQ PUSH2 0x3AB JUMPI PUSH2 0x1E5 JUMP JUMPDEST DUP1 PUSH4 0x17634514 GT PUSH2 0x1C3 JUMPI DUP1 PUSH4 0x17634514 EQ PUSH2 0x2C6 JUMPI DUP1 PUSH4 0x18160DDD EQ PUSH2 0x2E0 JUMPI DUP1 PUSH4 0x23B872DD EQ PUSH2 0x2E8 JUMPI DUP1 PUSH4 0x313CE567 EQ PUSH2 0x31E JUMPI PUSH2 0x1E5 JUMP JUMPDEST DUP1 PUSH4 0x6FDDE03 EQ PUSH2 0x1EA JUMPI DUP1 PUSH4 0x95EA7B3 EQ PUSH2 0x267 JUMPI DUP1 PUSH4 0xDBFE0D7 EQ PUSH2 0x2A7 JUMPI JUMPDEST PUSH1 0x0 DUP1 REVERT JUMPDEST PUSH2 0x1F2 PUSH2 0x798 JUMP JUMPDEST PUSH1 0x40 DUP1 MLOAD PUSH1 0x20 DUP1 DUP3 MSTORE DUP4 MLOAD DUP2 DUP4 ADD MSTORE DUP4 MLOAD SWAP2 SWAP3 DUP4 SWAP3 SWAP1 DUP4 ADD SWAP2 DUP6 ADD SWAP1 DUP1 DUP4 DUP4 PUSH1 0x0 JUMPDEST DUP4 DUP2 LT ISZERO PUSH2 0x22C JUMPI DUP2 DUP2 ADD MLOAD DUP4 DUP3 ADD MSTORE PUSH1 0x20 ADD PUSH2 0x214 JUMP JUMPDEST POP POP POP POP SWAP1 POP SWAP1 DUP2 ADD SWAP1 PUSH1 0x1F AND DUP1 ISZERO PUSH2 0x259 JUMPI DUP1 DUP3 SUB DUP1 MLOAD PUSH1 0x1 DUP4 PUSH1 0x20 SUB PUSH2 0x100 EXP SUB NOT AND DUP2 MSTORE PUSH1 0x20 ADD SWAP2 POP JUMPDEST POP SWAP3 POP POP POP PUSH1 0x40 MLOAD DUP1 SWAP2 SUB SWAP1 RETURN JUMPDEST PUSH2 0x293 PUSH1 0x4 DUP1 CALLDATASIZE SUB PUSH1 0x40 DUP2 LT ISZERO PUSH2 0x27D JUMPI PUSH1 0x0 DUP1 REVERT JUMPDEST POP PUSH1 0x1 PUSH1 0x1 PUSH1 0xA0 SHL SUB DUP2 CALLDATALOAD AND SWAP1 PUSH1 0x20 ADD CALLDATALOAD PUSH2 0x826 JUMP JUMPDEST PUSH1 0x40 DUP1 MLOAD SWAP2 ISZERO ISZERO DUP3 MSTORE MLOAD SWAP1 DUP2 SWAP1 SUB PUSH1 0x20 ADD SWAP1 RETURN JUMPDEST PUSH2 0x2C4 PUSH1 0x4 DUP1 CALLDATASIZE SUB PUSH1 0x20 DUP2 LT ISZERO PUSH2 0x2BD JUMPI PUSH1 0x0 DUP1 REVERT JUMPDEST POP CALLDATALOAD PUSH2 0x8D7 JUMP JUMPDEST STOP JUMPDEST PUSH2 0x2CE PUSH2 0x964 JUMP JUMPDEST PUSH1 0x40 DUP1 MLOAD SWAP2 DUP3 MSTORE MLOAD SWAP1 DUP2 SWAP1 SUB PUSH1 0x20 ADD SWAP1 RETURN JUMPDEST PUSH2 0x2CE PUSH2 0x96A JUMP JUMPDEST PUSH2 0x293 PUSH1 0x4 DUP1 CALLDATASIZE SUB PUSH1 0x60 DUP2 LT ISZERO PUSH2 0x2FE JUMPI PUSH1 0x0 DUP1 REVERT JUMPDEST POP PUSH1 0x1 PUSH1 0x1 PUSH1 0xA0 SHL SUB DUP2 CALLDATALOAD DUP2 AND SWAP2 PUSH1 0x20 DUP2 ADD CALLDATALOAD SWAP1 SWAP2 AND SWAP1 PUSH1 0x40 ADD CALLDATALOAD PUSH2 0x97B JUMP JUMPDEST PUSH2 0x326 PUSH2 0x9FF JUMP JUMPDEST PUSH1 0x40 DUP1 MLOAD PUSH1 0xFF SWAP1 SWAP3 AND DUP3 MSTORE MLOAD SWAP1 DUP2 SWAP1 SUB PUSH1 0x20 ADD SWAP1 RETURN JUMPDEST PUSH2 0x2C4 PUSH1 0x4 DUP1 CALLDATASIZE SUB PUSH1 0x40 DUP2 LT ISZERO PUSH2 0x352 JUMPI PUSH1 0x0 DUP1 REVERT JUMPDEST POP PUSH1 0x1 PUSH1 0x1 PUSH1 0xA0 SHL SUB DUP2 CALLDATALOAD AND SWAP1 PUSH1 0x20 ADD CALLDATALOAD PUSH2 0xA08 JUMP JUMPDEST PUSH2 0x2C4 PUSH1 0x4 DUP1 CALLDATASIZE SUB PUSH1 0x20 DUP2 LT ISZERO PUSH2 0x37E JUMPI PUSH1 0x0 DUP1 REVERT JUMPDEST POP CALLDATALOAD PUSH1 0x1 PUSH1 0x1 PUSH1 0xA0 SHL SUB AND PUSH2 0xA69 JUMP JUMPDEST PUSH2 0x2CE PUSH1 0x4 DUP1 CALLDATASIZE SUB PUSH1 0x20 DUP2 LT ISZERO PUSH2 0x3A4 JUMPI PUSH1 0x0 DUP1 REVERT JUMPDEST POP CALLDATALOAD PUSH2 0xADD JUMP JUMPDEST PUSH2 0x2CE PUSH1 0x4 DUP1 CALLDATASIZE SUB PUSH1 0x40 DUP2 LT ISZERO PUSH2 0x3C1 JUMPI PUSH1 0x0 DUP1 REVERT JUMPDEST POP PUSH1 0x1 PUSH1 0x1 PUSH1 0xA0 SHL SUB DUP2 CALLDATALOAD AND SWAP1 PUSH1 0x20 ADD CALLDATALOAD PUSH2 0xAEF JUMP JUMPDEST PUSH2 0x1F2 PUSH2 0xC35 JUMP JUMPDEST PUSH2 0x3FC PUSH1 0x4 DUP1 CALLDATASIZE SUB PUSH1 0x20 DUP2 LT ISZERO PUSH2 0x3F5 JUMPI PUSH1 0x0 DUP1 REVERT JUMPDEST POP CALLDATALOAD PUSH2 0xC90 JUMP JUMPDEST PUSH1 0x40 DUP1 MLOAD PUSH1 0x1 PUSH1 0x1 PUSH1 0xA0 SHL SUB SWAP1 SWAP3 AND DUP3 MSTORE MLOAD SWAP1 DUP2 SWAP1 SUB PUSH1 0x20 ADD SWAP1 RETURN JUMPDEST PUSH2 0x2C4 PUSH1 0x4 DUP1 CALLDATASIZE SUB PUSH1 0x60 DUP2 LT ISZERO PUSH2 0x42E JUMPI PUSH1 0x0 DUP1 REVERT JUMPDEST DUP2 ADD SWAP1 PUSH1 0x20 DUP2 ADD DUP2 CALLDATALOAD PUSH5 0x100000000 DUP2 GT ISZERO PUSH2 0x449 JUMPI PUSH1 0x0 DUP1 REVERT JUMPDEST DUP3 ADD DUP4 PUSH1 0x20 DUP3 ADD GT ISZERO PUSH2 0x45B JUMPI PUSH1 0x0 DUP1 REVERT JUMPDEST DUP1 CALLDATALOAD SWAP1 PUSH1 0x20 ADD SWAP2 DUP5 PUSH1 0x1 DUP4 MUL DUP5 ADD GT PUSH5 0x100000000 DUP4 GT OR ISZERO PUSH2 0x47D JUMPI PUSH1 0x0 DUP1 REVERT JUMPDEST SWAP2 SWAP1 DUP1 DUP1 PUSH1 0x1F ADD PUSH1 0x20 DUP1 SWAP2 DIV MUL PUSH1 0x20 ADD PUSH1 0x40 MLOAD SWAP1 DUP2 ADD PUSH1 0x40 MSTORE DUP1 SWAP4 SWAP3 SWAP2 SWAP1 DUP2 DUP2 MSTORE PUSH1 0x20 ADD DUP4 DUP4 DUP1 DUP3 DUP5 CALLDATACOPY PUSH1 0x0 SWAP3 ADD SWAP2 SWAP1 SWAP2 MSTORE POP SWAP3 SWAP6 SWAP5 SWAP4 PUSH1 0x20 DUP2 ADD SWAP4 POP CALLDATALOAD SWAP2 POP POP PUSH5 0x100000000 DUP2 GT ISZERO PUSH2 0x4D0 JUMPI PUSH1 0x0 DUP1 REVERT JUMPDEST DUP3 ADD DUP4 PUSH1 0x20 DUP3 ADD GT ISZERO PUSH2 0x4E2 JUMPI PUSH1 0x0 DUP1 REVERT JUMPDEST DUP1 CALLDATALOAD SWAP1 PUSH1 0x20 ADD SWAP2 DUP5 PUSH1 0x1 DUP4 MUL DUP5 ADD GT PUSH5 0x100000000 DUP4 GT OR ISZERO PUSH2 0x504 JUMPI PUSH1 0x0 DUP1 REVERT JUMPDEST SWAP2 SWAP1 DUP1 DUP1 PUSH1 0x1F ADD PUSH1 0x20 DUP1 SWAP2 DIV MUL PUSH1 0x20 ADD PUSH1 0x40 MLOAD SWAP1 DUP2 ADD PUSH1 0x40 MSTORE DUP1 SWAP4 SWAP3 SWAP2 SWAP1 DUP2 DUP2 MSTORE PUSH1 0x20 ADD DUP4 DUP4 DUP1 DUP3 DUP5 CALLDATACOPY PUSH1 0x0 SWAP3 ADD SWAP2 SWAP1 SWAP2 MSTORE POP SWAP3 SWAP6 POP POP POP POP CALLDATALOAD ISZERO ISZERO SWAP1 POP PUSH2 0xCB7 JUMP JUMPDEST PUSH2 0x2CE PUSH1 0x4 DUP1 CALLDATASIZE SUB PUSH1 0x20 DUP2 LT ISZERO PUSH2 0x55D JUMPI PUSH1 0x0 DUP1 REVERT JUMPDEST POP CALLDATALOAD PUSH1 0x1 PUSH1 0x1 PUSH1 0xA0 SHL SUB AND PUSH2 0xD46 JUMP JUMPDEST PUSH2 0x2C4 PUSH1 0x4 DUP1 CALLDATASIZE SUB PUSH1 0x40 DUP2 LT ISZERO PUSH2 0x583 JUMPI PUSH1 0x0 DUP1 REVERT JUMPDEST POP PUSH1 0x1 PUSH1 0x1 PUSH1 0xA0 SHL SUB DUP2 CALLDATALOAD AND SWAP1 PUSH1 0x20 ADD CALLDATALOAD PUSH2 0xD5A JUMP JUMPDEST PUSH2 0x3FC PUSH2 0xDB6 JUMP JUMPDEST PUSH2 0x3FC PUSH2 0xDC5 JUMP JUMPDEST PUSH2 0x1F2 PUSH2 0xDD9 JUMP JUMPDEST PUSH2 0x2CE PUSH1 0x4 DUP1 CALLDATASIZE SUB PUSH1 0x20 DUP2 LT ISZERO PUSH2 0x5C7 JUMPI PUSH1 0x0 DUP1 REVERT JUMPDEST POP CALLDATALOAD PUSH2 0xE31 JUMP JUMPDEST PUSH2 0x2C4 PUSH1 0x4 DUP1 CALLDATASIZE SUB PUSH1 0x20 DUP2 LT ISZERO PUSH2 0x5E4 JUMPI PUSH1 0x0 DUP1 REVERT JUMPDEST POP CALLDATALOAD PUSH1 0x1 PUSH1 0x1 PUSH1 0xA0 SHL SUB AND PUSH2 0xF1E JUMP JUMPDEST PUSH2 0x293 PUSH1 0x4 DUP1 CALLDATASIZE SUB PUSH1 0x40 DUP2 LT ISZERO PUSH2 0x60A JUMPI PUSH1 0x0 DUP1 REVERT JUMPDEST POP PUSH1 0x1 PUSH1 0x1 PUSH1 0xA0 SHL SUB DUP2 CALLDATALOAD AND SWAP1 PUSH1 0x20 ADD CALLDATALOAD PUSH2 0xF7C JUMP JUMPDEST PUSH2 0x293 PUSH2 0xF99 JUMP JUMPDEST PUSH2 0x2CE PUSH2 0xFA2 JUMP JUMPDEST PUSH2 0x293 PUSH1 0x4 DUP1 CALLDATASIZE SUB PUSH1 0x60 DUP2 LT ISZERO PUSH2 0x646 JUMPI PUSH1 0x0 DUP1 REVERT JUMPDEST PUSH1 0x1 PUSH1 0x1 PUSH1 0xA0 SHL SUB DUP3 CALLDATALOAD AND SWAP2 PUSH1 0x20 DUP2 ADD CALLDATALOAD SWAP2 DUP2 ADD SWAP1 PUSH1 0x60 DUP2 ADD PUSH1 0x40 DUP3 ADD CALLDATALOAD PUSH5 0x100000000 DUP2 GT ISZERO PUSH2 0x676 JUMPI PUSH1 0x0 DUP1 REVERT JUMPDEST DUP3 ADD DUP4 PUSH1 0x20 DUP3 ADD GT ISZERO PUSH2 0x688 JUMPI PUSH1 0x0 DUP1 REVERT JUMPDEST DUP1 CALLDATALOAD SWAP1 PUSH1 0x20 ADD SWAP2 DUP5 PUSH1 0x1 DUP4 MUL DUP5 ADD GT PUSH5 0x100000000 DUP4 GT OR ISZERO PUSH2 0x6AA JUMPI PUSH1 0x0 DUP1 REVERT JUMPDEST SWAP2 SWAP1 DUP1 DUP1 PUSH1 0x1F ADD PUSH1 0x20 DUP1 SWAP2 DIV MUL PUSH1 0x20 ADD PUSH1 0x40 MLOAD SWAP1 DUP2 ADD PUSH1 0x40 MSTORE DUP1 SWAP4 SWAP3 SWAP2 SWAP1 DUP2 DUP2 MSTORE PUSH1 0x20 ADD DUP4 DUP4 DUP1 DUP3 DUP5 CALLDATACOPY PUSH1 0x0 SWAP3 ADD SWAP2 SWAP1 SWAP2 MSTORE POP SWAP3 SWAP6 POP PUSH2 0xFA8 SWAP5 POP POP POP POP POP JUMP JUMPDEST PUSH2 0x3FC PUSH2 0x10A8 JUMP JUMPDEST PUSH2 0x2C4 PUSH1 0x4 DUP1 CALLDATASIZE SUB PUSH1 0x20 DUP2 LT ISZERO PUSH2 0x709 JUMPI PUSH1 0x0 DUP1 REVERT JUMPDEST POP CALLDATALOAD PUSH1 0x1 PUSH1 0x1 PUSH1 0xA0 SHL SUB AND PUSH2 0x10B7 JUMP JUMPDEST PUSH2 0x2C4 PUSH1 0x4 DUP1 CALLDATASIZE SUB PUSH1 0x40 DUP2 LT ISZERO PUSH2 0x72F JUMPI PUSH1 0x0 DUP1 REVERT JUMPDEST POP DUP1 CALLDATALOAD SWAP1 PUSH1 0x20 ADD CALLDATALOAD PUSH2 0x1112 JUMP JUMPDEST PUSH2 0x2CE PUSH1 0x4 DUP1 CALLDATASIZE SUB PUSH1 0x40 DUP2 LT ISZERO PUSH2 0x752 JUMPI PUSH1 0x0 DUP1 REVERT JUMPDEST POP PUSH1 0x1 PUSH1 0x1 PUSH1 0xA0 SHL SUB DUP2 CALLDATALOAD DUP2 AND SWAP2 PUSH1 0x20 ADD CALLDATALOAD AND PUSH2 0x1176 JUMP JUMPDEST PUSH2 0x2CE PUSH2 0x11A1 JUMP JUMPDEST PUSH2 0x2C4 PUSH1 0x4 DUP1 CALLDATASIZE SUB PUSH1 0x20 DUP2 LT ISZERO PUSH2 0x788 JUMPI PUSH1 0x0 DUP1 REVERT JUMPDEST POP CALLDATALOAD PUSH1 0x1 PUSH1 0x1 PUSH1 0xA0 SHL SUB AND PUSH2 0x11A7 JUMP JUMPDEST PUSH1 0x0 DUP1 SLOAD PUSH1 0x40 DUP1 MLOAD PUSH1 0x20 PUSH1 0x2 PUSH1 0x1 DUP6 AND ISZERO PUSH2 0x100 MUL PUSH1 0x0 NOT ADD SWAP1 SWAP5 AND SWAP4 SWAP1 SWAP4 DIV PUSH1 0x1F DUP2 ADD DUP5 SWAP1 DIV DUP5 MUL DUP3 ADD DUP5 ADD SWAP1 SWAP3 MSTORE DUP2 DUP2 MSTORE SWAP3 SWAP2 DUP4 ADD DUP3 DUP3 DUP1 ISZERO PUSH2 0x81E JUMPI DUP1 PUSH1 0x1F LT PUSH2 0x7F3 JUMPI PUSH2 0x100 DUP1 DUP4 SLOAD DIV MUL DUP4 MSTORE SWAP2 PUSH1 0x20 ADD SWAP2 PUSH2 0x81E JUMP JUMPDEST DUP3 ADD SWAP2 SWAP1 PUSH1 0x0 MSTORE PUSH1 0x20 PUSH1 0x0 KECCAK256 SWAP1 JUMPDEST DUP2 SLOAD DUP2 MSTORE SWAP1 PUSH1 0x1 ADD SWAP1 PUSH1 0x20 ADD DUP1 DUP4 GT PUSH2 0x801 JUMPI DUP3 SWAP1 SUB PUSH1 0x1F AND DUP3 ADD SWAP2 JUMPDEST POP POP POP POP POP DUP2 JUMP JUMPDEST PUSH1 0xB SLOAD PUSH1 0x0 SWAP1 PUSH1 0xFF AND PUSH2 0x838 JUMPI PUSH1 0x0 DUP1 REVERT JUMPDEST DUP2 ISZERO DUP1 PUSH2 0x866 JUMPI POP CALLER PUSH1 0x0 SWAP1 DUP2 MSTORE PUSH1 0x9 PUSH1 0x20 SWAP1 DUP2 MSTORE PUSH1 0x40 DUP1 DUP4 KECCAK256 PUSH1 0x1 PUSH1 0x1 PUSH1 0xA0 SHL SUB DUP8 AND DUP5 MSTORE SWAP1 SWAP2 MSTORE SWAP1 KECCAK256 SLOAD ISZERO JUMPDEST PUSH2 0x86F JUMPI PUSH1 0x0 DUP1 REVERT JUMPDEST CALLER PUSH1 0x0 DUP2 DUP2 MSTORE PUSH1 0x9 PUSH1 0x20 SWAP1 DUP2 MSTORE PUSH1 0x40 DUP1 DUP4 KECCAK256 PUSH1 0x1 PUSH1 0x1 PUSH1 0xA0 SHL SUB DUP9 AND DUP1 DUP6 MSTORE SWAP1 DUP4 MSTORE SWAP3 DUP2 SWAP1 KECCAK256 DUP7 SWAP1 SSTORE DUP1 MLOAD DUP7 DUP2 MSTORE SWAP1 MLOAD SWAP3 SWAP4 SWAP3 PUSH32 0x8C5BE1E5EBEC7D5BD14F71427D1E84F3DD0314C0F7B2291E5B200AC8C7C3B925 SWAP3 SWAP2 DUP2 SWAP1 SUB SWAP1 SWAP2 ADD SWAP1 LOG3 POP PUSH1 0x1 JUMPDEST SWAP3 SWAP2 POP POP JUMP JUMPDEST PUSH1 0xB SLOAD PUSH2 0x100 SWAP1 DIV PUSH1 0x1 PUSH1 0x1 PUSH1 0xA0 SHL SUB AND CALLER EQ PUSH2 0x929 JUMPI PUSH1 0x40 DUP1 MLOAD PUSH3 0x461BCD PUSH1 0xE5 SHL DUP2 MSTORE PUSH1 0x20 PUSH1 0x4 DUP3 ADD DUP2 SWAP1 MSTORE PUSH1 0x24 DUP3 ADD MSTORE PUSH1 0x0 DUP1 MLOAD PUSH1 0x20 PUSH2 0x1A47 DUP4 CODECOPY DUP2 MLOAD SWAP2 MSTORE PUSH1 0x44 DUP3 ADD MSTORE SWAP1 MLOAD SWAP1 DUP2 SWAP1 SUB PUSH1 0x64 ADD SWAP1 REVERT JUMPDEST PUSH1 0xD DUP2 SWAP1 SSTORE PUSH1 0x40 DUP1 MLOAD DUP3 DUP2 MSTORE SWAP1 MLOAD PUSH32 0xAE5999EA49173EBD18DAAA951F3A44827563D1EB67CE7262CD64AE8485F5A1FB SWAP2 DUP2 SWAP1 SUB PUSH1 0x20 ADD SWAP1 LOG1 POP JUMP JUMPDEST PUSH1 0x7 SLOAD DUP2 JUMP JUMPDEST PUSH1 0x0 PUSH2 0x975 NUMBER PUSH2 0xE31 JUMP JUMPDEST SWAP1 POP JUMPDEST SWAP1 JUMP JUMPDEST PUSH1 0xB SLOAD PUSH1 0x0 SWAP1 PUSH1 0xFF AND PUSH2 0x98D JUMPI PUSH1 0x0 DUP1 REVERT JUMPDEST PUSH1 0x1 PUSH1 0x1 PUSH1 0xA0 SHL SUB DUP5 AND PUSH1 0x0 SWAP1 DUP2 MSTORE PUSH1 0x9 PUSH1 0x20 SWAP1 DUP2 MSTORE PUSH1 0x40 DUP1 DUP4 KECCAK256 CALLER DUP5 MSTORE SWAP1 SWAP2 MSTORE SWAP1 KECCAK256 SLOAD DUP3 GT ISZERO PUSH2 0x9C0 JUMPI POP PUSH1 0x0 PUSH2 0x9F8 JUMP JUMPDEST PUSH1 0x1 PUSH1 0x1 PUSH1 0xA0 SHL SUB DUP5 AND PUSH1 0x0 SWAP1 DUP2 MSTORE PUSH1 0x9 PUSH1 0x20 SWAP1 DUP2 MSTORE PUSH1 0x40 DUP1 DUP4 KECCAK256 CALLER DUP5 MSTORE SWAP1 SWAP2 MSTORE SWAP1 KECCAK256 DUP1 SLOAD DUP4 SWAP1 SUB SWAP1 SSTORE PUSH2 0x9F5 DUP5 DUP5 DUP5 PUSH2 0x1202 JUMP JUMPDEST SWAP1 POP JUMPDEST SWAP4 SWAP3 POP POP POP JUMP JUMPDEST PUSH1 0x1 SLOAD PUSH1 0xFF AND DUP2 JUMP JUMPDEST PUSH1 0xB SLOAD PUSH2 0x100 SWAP1 DIV PUSH1 0x1 PUSH1 0x1 PUSH1 0xA0 SHL SUB AND CALLER EQ PUSH2 0xA5A JUMPI PUSH1 0x40 DUP1 MLOAD PUSH3 0x461BCD PUSH1 0xE5 SHL DUP2 MSTORE PUSH1 0x20 PUSH1 0x4 DUP3 ADD DUP2 SWAP1 MSTORE PUSH1 0x24 DUP3 ADD MSTORE PUSH1 0x0 DUP1 MLOAD PUSH1 0x20 PUSH2 0x1A47 DUP4 CODECOPY DUP2 MLOAD SWAP2 MSTORE PUSH1 0x44 DUP3 ADD MSTORE SWAP1 MLOAD SWAP1 DUP2 SWAP1 SUB PUSH1 0x64 ADD SWAP1 REVERT JUMPDEST PUSH2 0xA64 DUP3 DUP3 PUSH2 0x1330 JUMP JUMPDEST POP POP POP JUMP JUMPDEST PUSH1 0xB SLOAD PUSH2 0x100 SWAP1 DIV PUSH1 0x1 PUSH1 0x1 PUSH1 0xA0 SHL SUB AND CALLER EQ PUSH2 0xABB JUMPI PUSH1 0x40 DUP1 MLOAD PUSH3 0x461BCD PUSH1 0xE5 SHL DUP2 MSTORE PUSH1 0x20 PUSH1 0x4 DUP3 ADD DUP2 SWAP1 MSTORE PUSH1 0x24 DUP3 ADD MSTORE PUSH1 0x0 DUP1 MLOAD PUSH1 0x20 PUSH2 0x1A47 DUP4 CODECOPY DUP2 MLOAD SWAP2 MSTORE PUSH1 0x44 DUP3 ADD MSTORE SWAP1 MLOAD SWAP1 DUP2 SWAP1 SUB PUSH1 0x64 ADD SWAP1 REVERT JUMPDEST PUSH1 0xC DUP1 SLOAD PUSH1 0x1 PUSH1 0x1 PUSH1 0xA0 SHL SUB NOT AND PUSH1 0x1 PUSH1 0x1 PUSH1 0xA0 SHL SUB SWAP3 SWAP1 SWAP3 AND SWAP2 SWAP1 SWAP2 OR SWAP1 SSTORE JUMP JUMPDEST PUSH1 0xE PUSH1 0x20 MSTORE PUSH1 0x0 SWAP1 DUP2 MSTORE PUSH1 0x40 SWAP1 KECCAK256 SLOAD DUP2 JUMP JUMPDEST PUSH1 0x1 PUSH1 0x1 PUSH1 0xA0 SHL SUB DUP3 AND PUSH1 0x0 SWAP1 DUP2 MSTORE PUSH1 0x8 PUSH1 0x20 MSTORE PUSH1 0x40 DUP2 KECCAK256 SLOAD ISZERO DUP1 PUSH2 0xB49 JUMPI POP PUSH1 0x1 PUSH1 0x1 PUSH1 0xA0 SHL SUB DUP4 AND PUSH1 0x0 SWAP1 DUP2 MSTORE PUSH1 0x8 PUSH1 0x20 MSTORE PUSH1 0x40 DUP2 KECCAK256 DUP1 SLOAD DUP5 SWAP3 SWAP1 PUSH2 0xB32 JUMPI INVALID JUMPDEST PUSH1 0x0 SWAP2 DUP3 MSTORE PUSH1 0x20 SWAP1 SWAP2 KECCAK256 ADD SLOAD PUSH1 0x1 PUSH1 0x1 PUSH1 0x80 SHL SUB AND GT JUMPDEST ISZERO PUSH2 0xC0C JUMPI PUSH1 0x5 SLOAD PUSH1 0x1 PUSH1 0x1 PUSH1 0xA0 SHL SUB AND ISZERO PUSH2 0xC04 JUMPI PUSH1 0x5 SLOAD PUSH1 0x6 SLOAD PUSH1 0x1 PUSH1 0x1 PUSH1 0xA0 SHL SUB SWAP1 SWAP2 AND SWAP1 PUSH4 0x4EE2CD7E SWAP1 DUP6 SWAP1 PUSH2 0xB84 SWAP1 DUP7 SWAP1 PUSH2 0x13F1 JUMP JUMPDEST PUSH1 0x40 MLOAD DUP4 PUSH4 0xFFFFFFFF AND PUSH1 0xE0 SHL DUP2 MSTORE PUSH1 0x4 ADD DUP1 DUP4 PUSH1 0x1 PUSH1 0x1 PUSH1 0xA0 SHL SUB AND PUSH1 0x1 PUSH1 0x1 PUSH1 0xA0 SHL SUB AND DUP2 MSTORE PUSH1 0x20 ADD DUP3 DUP2 MSTORE PUSH1 0x20 ADD SWAP3 POP POP POP PUSH1 0x20 PUSH1 0x40 MLOAD DUP1 DUP4 SUB DUP2 DUP7 DUP1 EXTCODESIZE ISZERO DUP1 ISZERO PUSH2 0xBD1 JUMPI PUSH1 0x0 DUP1 REVERT JUMPDEST POP GAS STATICCALL ISZERO DUP1 ISZERO PUSH2 0xBE5 JUMPI RETURNDATASIZE PUSH1 0x0 DUP1 RETURNDATACOPY RETURNDATASIZE PUSH1 0x0 REVERT JUMPDEST POP POP POP POP PUSH1 0x40 MLOAD RETURNDATASIZE PUSH1 0x20 DUP2 LT ISZERO PUSH2 0xBFB JUMPI PUSH1 0x0 DUP1 REVERT JUMPDEST POP MLOAD SWAP1 POP PUSH2 0x8D1 JUMP JUMPDEST POP PUSH1 0x0 PUSH2 0x8D1 JUMP JUMPDEST PUSH1 0x1 PUSH1 0x1 PUSH1 0xA0 SHL SUB DUP4 AND PUSH1 0x0 SWAP1 DUP2 MSTORE PUSH1 0x8 PUSH1 0x20 MSTORE PUSH1 0x40 SWAP1 KECCAK256 PUSH2 0xC2E SWAP1 DUP4 PUSH2 0x1407 JUMP JUMPDEST SWAP1 POP PUSH2 0x8D1 JUMP JUMPDEST PUSH1 0x3 DUP1 SLOAD PUSH1 0x40 DUP1 MLOAD PUSH1 0x20 PUSH1 0x2 PUSH1 0x1 DUP6 AND ISZERO PUSH2 0x100 MUL PUSH1 0x0 NOT ADD SWAP1 SWAP5 AND SWAP4 SWAP1 SWAP4 DIV PUSH1 0x1F DUP2 ADD DUP5 SWAP1 DIV DUP5 MUL DUP3 ADD DUP5 ADD SWAP1 SWAP3 MSTORE DUP2 DUP2 MSTORE SWAP3 SWAP2 DUP4 ADD DUP3 DUP3 DUP1 ISZERO PUSH2 0x81E JUMPI DUP1 PUSH1 0x1F LT PUSH2 0x7F3 JUMPI PUSH2 0x100 DUP1 DUP4 SLOAD DIV MUL DUP4 MSTORE SWAP2 PUSH1 0x20 ADD SWAP2 PUSH2 0x81E JUMP JUMPDEST PUSH1 0x4 DUP2 DUP2 SLOAD DUP2 LT PUSH2 0xC9D JUMPI INVALID JUMPDEST PUSH1 0x0 SWAP2 DUP3 MSTORE PUSH1 0x20 SWAP1 SWAP2 KECCAK256 ADD SLOAD PUSH1 0x1 PUSH1 0x1 PUSH1 0xA0 SHL SUB AND SWAP1 POP DUP2 JUMP JUMPDEST PUSH1 0xB SLOAD PUSH2 0x100 SWAP1 DIV PUSH1 0x1 PUSH1 0x1 PUSH1 0xA0 SHL SUB AND CALLER EQ PUSH2 0xD09 JUMPI PUSH1 0x40 DUP1 MLOAD PUSH3 0x461BCD PUSH1 0xE5 SHL DUP2 MSTORE PUSH1 0x20 PUSH1 0x4 DUP3 ADD DUP2 SWAP1 MSTORE PUSH1 0x24 DUP3 ADD MSTORE PUSH1 0x0 DUP1 MLOAD PUSH1 0x20 PUSH2 0x1A47 DUP4 CODECOPY DUP2 MLOAD SWAP2 MSTORE PUSH1 0x44 DUP3 ADD MSTORE SWAP1 MLOAD SWAP1 DUP2 SWAP1 SUB PUSH1 0x64 ADD SWAP1 REVERT JUMPDEST DUP3 MLOAD PUSH2 0xD1C SWAP1 PUSH1 0x0 SWAP1 PUSH1 0x20 DUP7 ADD SWAP1 PUSH2 0x1968 JUMP JUMPDEST POP DUP2 MLOAD PUSH2 0xD30 SWAP1 PUSH1 0x2 SWAP1 PUSH1 0x20 DUP6 ADD SWAP1 PUSH2 0x1968 JUMP JUMPDEST POP PUSH1 0xB DUP1 SLOAD PUSH1 0xFF NOT AND SWAP2 ISZERO ISZERO SWAP2 SWAP1 SWAP2 OR SWAP1 SSTORE POP POP JUMP JUMPDEST PUSH1 0x0 PUSH2 0xD52 DUP3 NUMBER PUSH2 0xAEF JUMP JUMPDEST SWAP1 POP JUMPDEST SWAP2 SWAP1 POP JUMP JUMPDEST PUSH1 0xB SLOAD PUSH2 0x100 SWAP1 DIV PUSH1 0x1 PUSH1 0x1 PUSH1 0xA0 SHL SUB AND CALLER EQ PUSH2 0xDAC JUMPI PUSH1 0x40 DUP1 MLOAD PUSH3 0x461BCD PUSH1 0xE5 SHL DUP2 MSTORE PUSH1 0x20 PUSH1 0x4 DUP3 ADD DUP2 SWAP1 MSTORE PUSH1 0x24 DUP3 ADD MSTORE PUSH1 0x0 DUP1 MLOAD PUSH1 0x20 PUSH2 0x1A47 DUP4 CODECOPY DUP2 MLOAD SWAP2 MSTORE PUSH1 0x44 DUP3 ADD MSTORE SWAP1 MLOAD SWAP1 DUP2 SWAP1 SUB PUSH1 0x64 ADD SWAP1 REVERT JUMPDEST PUSH2 0xA64 DUP3 DUP3 PUSH2 0x1537 JUMP JUMPDEST PUSH1 0x5 SLOAD PUSH1 0x1 PUSH1 0x1 PUSH1 0xA0 SHL SUB AND DUP2 JUMP JUMPDEST PUSH1 0xB SLOAD PUSH2 0x100 SWAP1 DIV PUSH1 0x1 PUSH1 0x1 PUSH1 0xA0 SHL SUB AND SWAP1 JUMP JUMPDEST PUSH1 0x2 DUP1 SLOAD PUSH1 0x40 DUP1 MLOAD PUSH1 0x20 PUSH1 0x1 DUP5 AND ISZERO PUSH2 0x100 MUL PUSH1 0x0 NOT ADD SWAP1 SWAP4 AND DUP5 SWAP1 DIV PUSH1 0x1F DUP2 ADD DUP5 SWAP1 DIV DUP5 MUL DUP3 ADD DUP5 ADD SWAP1 SWAP3 MSTORE DUP2 DUP2 MSTORE SWAP3 SWAP2 DUP4 ADD DUP3 DUP3 DUP1 ISZERO PUSH2 0x81E JUMPI DUP1 PUSH1 0x1F LT PUSH2 0x7F3 JUMPI PUSH2 0x100 DUP1 DUP4 SLOAD DIV MUL DUP4 MSTORE SWAP2 PUSH1 0x20 ADD SWAP2 PUSH2 0x81E JUMP JUMPDEST PUSH1 0xA SLOAD PUSH1 0x0 SWAP1 ISZERO DUP1 PUSH2 0xE64 JUMPI POP DUP2 PUSH1 0xA PUSH1 0x0 DUP2 SLOAD DUP2 LT PUSH2 0xE4D JUMPI INVALID JUMPDEST PUSH1 0x0 SWAP2 DUP3 MSTORE PUSH1 0x20 SWAP1 SWAP2 KECCAK256 ADD SLOAD PUSH1 0x1 PUSH1 0x1 PUSH1 0x80 SHL SUB AND GT JUMPDEST ISZERO PUSH2 0xF0C JUMPI PUSH1 0x5 SLOAD PUSH1 0x1 PUSH1 0x1 PUSH1 0xA0 SHL SUB AND ISZERO PUSH2 0xF04 JUMPI PUSH1 0x5 SLOAD PUSH1 0x6 SLOAD PUSH1 0x1 PUSH1 0x1 PUSH1 0xA0 SHL SUB SWAP1 SWAP2 AND SWAP1 PUSH4 0x981B24D0 SWAP1 PUSH2 0xE9D SWAP1 DUP6 SWAP1 PUSH2 0x13F1 JUMP JUMPDEST PUSH1 0x40 MLOAD DUP3 PUSH4 0xFFFFFFFF AND PUSH1 0xE0 SHL DUP2 MSTORE PUSH1 0x4 ADD DUP1 DUP3 DUP2 MSTORE PUSH1 0x20 ADD SWAP2 POP POP PUSH1 0x20 PUSH1 0x40 MLOAD DUP1 DUP4 SUB DUP2 DUP7 DUP1 EXTCODESIZE ISZERO DUP1 ISZERO PUSH2 0xED1 JUMPI PUSH1 0x0 DUP1 REVERT JUMPDEST POP GAS STATICCALL ISZERO DUP1 ISZERO PUSH2 0xEE5 JUMPI RETURNDATASIZE PUSH1 0x0 DUP1 RETURNDATACOPY RETURNDATASIZE PUSH1 0x0 REVERT JUMPDEST POP POP POP POP PUSH1 0x40 MLOAD RETURNDATASIZE PUSH1 0x20 DUP2 LT ISZERO PUSH2 0xEFB JUMPI PUSH1 0x0 DUP1 REVERT JUMPDEST POP MLOAD SWAP1 POP PUSH2 0xD55 JUMP JUMPDEST POP PUSH1 0x0 PUSH2 0xD55 JUMP JUMPDEST PUSH2 0xF17 PUSH1 0xA DUP4 PUSH2 0x1407 JUMP JUMPDEST SWAP1 POP PUSH2 0xD55 JUMP JUMPDEST PUSH1 0xB SLOAD PUSH2 0x100 SWAP1 DIV PUSH1 0x1 PUSH1 0x1 PUSH1 0xA0 SHL SUB AND CALLER EQ PUSH2 0xF70 JUMPI PUSH1 0x40 DUP1 MLOAD PUSH3 0x461BCD PUSH1 0xE5 SHL DUP2 MSTORE PUSH1 0x20 PUSH1 0x4 DUP3 ADD DUP2 SWAP1 MSTORE PUSH1 0x24 DUP3 ADD MSTORE PUSH1 0x0 DUP1 MLOAD PUSH1 0x20 PUSH2 0x1A47 DUP4 CODECOPY DUP2 MLOAD SWAP2 MSTORE PUSH1 0x44 DUP3 ADD MSTORE SWAP1 MLOAD SWAP1 DUP2 SWAP1 SUB PUSH1 0x64 ADD SWAP1 REVERT JUMPDEST PUSH2 0xF79 DUP2 PUSH2 0x15E9 JUMP JUMPDEST POP JUMP JUMPDEST PUSH1 0xB SLOAD PUSH1 0x0 SWAP1 PUSH1 0xFF AND PUSH2 0xF8E JUMPI PUSH1 0x0 DUP1 REVERT JUMPDEST PUSH2 0x9F8 CALLER DUP5 DUP5 PUSH2 0x1202 JUMP JUMPDEST PUSH1 0xB SLOAD PUSH1 0xFF AND DUP2 JUMP JUMPDEST PUSH1 0x6 SLOAD DUP2 JUMP JUMPDEST PUSH1 0x0 PUSH2 0xFB4 DUP5 DUP5 PUSH2 0x826 JUMP JUMPDEST PUSH2 0xFBD JUMPI PUSH1 0x0 DUP1 REVERT JUMPDEST PUSH1 0x40 MLOAD PUSH4 0x8F4FFCB1 PUSH1 0xE0 SHL DUP2 MSTORE CALLER PUSH1 0x4 DUP3 ADD DUP2 DUP2 MSTORE PUSH1 0x24 DUP4 ADD DUP7 SWAP1 MSTORE ADDRESS PUSH1 0x44 DUP5 ADD DUP2 SWAP1 MSTORE PUSH1 0x80 PUSH1 0x64 DUP6 ADD SWAP1 DUP2 MSTORE DUP7 MLOAD PUSH1 0x84 DUP7 ADD MSTORE DUP7 MLOAD PUSH1 0x1 PUSH1 0x1 PUSH1 0xA0 SHL SUB DUP11 AND SWAP6 PUSH4 0x8F4FFCB1 SWAP6 SWAP5 DUP11 SWAP5 SWAP4 DUP11 SWAP4 SWAP2 SWAP3 SWAP1 SWAP2 PUSH1 0xA4 SWAP1 SWAP2 ADD SWAP1 PUSH1 0x20 DUP6 ADD SWAP1 DUP1 DUP4 DUP4 PUSH1 0x0 JUMPDEST DUP4 DUP2 LT ISZERO PUSH2 0x1037 JUMPI DUP2 DUP2 ADD MLOAD DUP4 DUP3 ADD MSTORE PUSH1 0x20 ADD PUSH2 0x101F JUMP JUMPDEST POP POP POP POP SWAP1 POP SWAP1 DUP2 ADD SWAP1 PUSH1 0x1F AND DUP1 ISZERO PUSH2 0x1064 JUMPI DUP1 DUP3 SUB DUP1 MLOAD PUSH1 0x1 DUP4 PUSH1 0x20 SUB PUSH2 0x100 EXP SUB NOT AND DUP2 MSTORE PUSH1 0x20 ADD SWAP2 POP JUMPDEST POP SWAP6 POP POP POP POP POP POP PUSH1 0x0 PUSH1 0x40 MLOAD DUP1 DUP4 SUB DUP2 PUSH1 0x0 DUP8 DUP1 EXTCODESIZE ISZERO DUP1 ISZERO PUSH2 0x1086 JUMPI PUSH1 0x0 DUP1 REVERT JUMPDEST POP GAS CALL ISZERO DUP1 ISZERO PUSH2 0x109A JUMPI RETURNDATASIZE PUSH1 0x0 DUP1 RETURNDATACOPY RETURNDATASIZE PUSH1 0x0 REVERT JUMPDEST POP PUSH1 0x1 SWAP8 SWAP7 POP POP POP POP POP POP POP JUMP JUMPDEST PUSH1 0xC SLOAD PUSH1 0x1 PUSH1 0x1 PUSH1 0xA0 SHL SUB AND DUP2 JUMP JUMPDEST PUSH1 0xB SLOAD PUSH2 0x100 SWAP1 DIV PUSH1 0x1 PUSH1 0x1 PUSH1 0xA0 SHL SUB AND CALLER EQ PUSH2 0x1109 JUMPI PUSH1 0x40 DUP1 MLOAD PUSH3 0x461BCD PUSH1 0xE5 SHL DUP2 MSTORE PUSH1 0x20 PUSH1 0x4 DUP3 ADD DUP2 SWAP1 MSTORE PUSH1 0x24 DUP3 ADD MSTORE PUSH1 0x0 DUP1 MLOAD PUSH1 0x20 PUSH2 0x1A47 DUP4 CODECOPY DUP2 MLOAD SWAP2 MSTORE PUSH1 0x44 DUP3 ADD MSTORE SWAP1 MLOAD SWAP1 DUP2 SWAP1 SUB PUSH1 0x64 ADD SWAP1 REVERT JUMPDEST PUSH2 0xF79 DUP2 PUSH2 0x16B4 JUMP JUMPDEST PUSH1 0xB SLOAD PUSH2 0x100 SWAP1 DIV PUSH1 0x1 PUSH1 0x1 PUSH1 0xA0 SHL SUB AND CALLER EQ PUSH2 0x1164 JUMPI PUSH1 0x40 DUP1 MLOAD PUSH3 0x461BCD PUSH1 0xE5 SHL DUP2 MSTORE PUSH1 0x20 PUSH1 0x4 DUP3 ADD DUP2 SWAP1 MSTORE PUSH1 0x24 DUP3 ADD MSTORE PUSH1 0x0 DUP1 MLOAD PUSH1 0x20 PUSH2 0x1A47 DUP4 CODECOPY DUP2 MLOAD SWAP2 MSTORE PUSH1 0x44 DUP3 ADD MSTORE SWAP1 MLOAD SWAP1 DUP2 SWAP1 SUB PUSH1 0x64 ADD SWAP1 REVERT JUMPDEST PUSH1 0x0 SWAP2 DUP3 MSTORE PUSH1 0xE PUSH1 0x20 MSTORE PUSH1 0x40 SWAP1 SWAP2 KECCAK256 SSTORE JUMP JUMPDEST PUSH1 0x1 PUSH1 0x1 PUSH1 0xA0 SHL SUB SWAP2 DUP3 AND PUSH1 0x0 SWAP1 DUP2 MSTORE PUSH1 0x9 PUSH1 0x20 SWAP1 DUP2 MSTORE PUSH1 0x40 DUP1 DUP4 KECCAK256 SWAP4 SWAP1 SWAP5 AND DUP3 MSTORE SWAP2 SWAP1 SWAP2 MSTORE KECCAK256 SLOAD SWAP1 JUMP JUMPDEST PUSH1 0xD SLOAD DUP2 JUMP JUMPDEST PUSH1 0xB SLOAD PUSH2 0x100 SWAP1 DIV PUSH1 0x1 PUSH1 0x1 PUSH1 0xA0 SHL SUB AND CALLER EQ PUSH2 0x11F9 JUMPI PUSH1 0x40 DUP1 MLOAD PUSH3 0x461BCD PUSH1 0xE5 SHL DUP2 MSTORE PUSH1 0x20 PUSH1 0x4 DUP3 ADD DUP2 SWAP1 MSTORE PUSH1 0x24 DUP3 ADD MSTORE PUSH1 0x0 DUP1 MLOAD PUSH1 0x20 PUSH2 0x1A47 DUP4 CODECOPY DUP2 MLOAD SWAP2 MSTORE PUSH1 0x44 DUP3 ADD MSTORE SWAP1 MLOAD SWAP1 DUP2 SWAP1 SUB PUSH1 0x64 ADD SWAP1 REVERT JUMPDEST PUSH2 0xF79 DUP2 PUSH2 0x1738 JUMP JUMPDEST PUSH1 0x0 DUP2 PUSH2 0x1211 JUMPI POP PUSH1 0x1 PUSH2 0x9F8 JUMP JUMPDEST NUMBER PUSH1 0x6 SLOAD LT PUSH2 0x121F JUMPI PUSH1 0x0 DUP1 REVERT JUMPDEST PUSH1 0x1 PUSH1 0x1 PUSH1 0xA0 SHL SUB DUP4 AND ISZERO DUP1 ISZERO SWAP1 PUSH2 0x1240 JUMPI POP PUSH1 0x1 PUSH1 0x1 PUSH1 0xA0 SHL SUB DUP4 AND ADDRESS EQ ISZERO JUMPDEST PUSH2 0x1249 JUMPI PUSH1 0x0 DUP1 REVERT JUMPDEST PUSH1 0x0 PUSH2 0x1255 DUP6 NUMBER PUSH2 0xAEF JUMP JUMPDEST SWAP1 POP DUP3 DUP2 LT ISZERO PUSH2 0x1269 JUMPI PUSH1 0x0 SWAP2 POP POP PUSH2 0x9F8 JUMP JUMPDEST PUSH1 0x1 PUSH1 0x1 PUSH1 0xA0 SHL SUB DUP6 AND PUSH1 0x0 SWAP1 DUP2 MSTORE PUSH1 0x8 PUSH1 0x20 MSTORE PUSH1 0x40 SWAP1 KECCAK256 PUSH2 0x128D SWAP1 DUP5 DUP4 SUB PUSH2 0x17E4 JUMP JUMPDEST PUSH1 0x0 PUSH2 0x1299 DUP6 NUMBER PUSH2 0xAEF JUMP JUMPDEST SWAP1 POP DUP1 DUP5 DUP3 ADD LT ISZERO PUSH2 0x12AA JUMPI PUSH1 0x0 DUP1 REVERT JUMPDEST PUSH1 0x1 PUSH1 0x1 PUSH1 0xA0 SHL SUB DUP6 AND PUSH1 0x0 SWAP1 DUP2 MSTORE PUSH1 0x8 PUSH1 0x20 MSTORE PUSH1 0x40 SWAP1 KECCAK256 PUSH2 0x12CE SWAP1 DUP3 DUP7 ADD PUSH2 0x17E4 JUMP JUMPDEST DUP5 PUSH1 0x1 PUSH1 0x1 PUSH1 0xA0 SHL SUB AND DUP7 PUSH1 0x1 PUSH1 0x1 PUSH1 0xA0 SHL SUB AND PUSH32 0xDDF252AD1BE2C89B69C2B068FC378DAA952BA7F163C4A11628F55A4DF523B3EF DUP7 PUSH1 0x40 MLOAD DUP1 DUP3 DUP2 MSTORE PUSH1 0x20 ADD SWAP2 POP POP PUSH1 0x40 MLOAD DUP1 SWAP2 SUB SWAP1 LOG3 PUSH2 0x1324 DUP7 DUP7 DUP7 PUSH2 0x18BD JUMP JUMPDEST POP PUSH1 0x1 SWAP6 SWAP5 POP POP POP POP POP JUMP JUMPDEST PUSH1 0x0 DUP1 PUSH2 0x133B PUSH2 0x96A JUMP JUMPDEST SWAP1 POP DUP1 DUP4 DUP3 ADD LT ISZERO PUSH2 0x134C JUMPI PUSH1 0x0 DUP1 REVERT JUMPDEST PUSH1 0x0 PUSH2 0x1357 DUP6 PUSH2 0xD46 JUMP JUMPDEST SWAP1 POP DUP1 DUP5 DUP3 ADD LT ISZERO PUSH2 0x1368 JUMPI PUSH1 0x0 DUP1 REVERT JUMPDEST PUSH2 0x1375 PUSH1 0xA DUP6 DUP5 ADD PUSH2 0x17E4 JUMP JUMPDEST PUSH1 0x1 PUSH1 0x1 PUSH1 0xA0 SHL SUB DUP6 AND PUSH1 0x0 SWAP1 DUP2 MSTORE PUSH1 0x8 PUSH1 0x20 MSTORE PUSH1 0x40 SWAP1 KECCAK256 PUSH2 0x1399 SWAP1 DUP3 DUP7 ADD PUSH2 0x17E4 JUMP JUMPDEST PUSH1 0x40 DUP1 MLOAD DUP6 DUP2 MSTORE SWAP1 MLOAD PUSH1 0x1 PUSH1 0x1 PUSH1 0xA0 SHL SUB DUP8 AND SWAP2 PUSH1 0x0 SWAP2 PUSH32 0xDDF252AD1BE2C89B69C2B068FC378DAA952BA7F163C4A11628F55A4DF523B3EF SWAP2 DUP2 SWAP1 SUB PUSH1 0x20 ADD SWAP1 LOG3 PUSH2 0x13E6 PUSH1 0x0 DUP7 DUP7 PUSH2 0x18BD JUMP JUMPDEST POP PUSH1 0x1 SWAP5 SWAP4 POP POP POP POP JUMP JUMPDEST PUSH1 0x0 DUP2 DUP4 LT PUSH2 0x1400 JUMPI DUP2 PUSH2 0x9F8 JUMP JUMPDEST POP SWAP1 SWAP2 SWAP1 POP JUMP JUMPDEST DUP2 SLOAD PUSH1 0x0 SWAP1 PUSH2 0x1418 JUMPI POP PUSH1 0x0 PUSH2 0x8D1 JUMP JUMPDEST DUP3 SLOAD DUP4 SWAP1 PUSH1 0x0 NOT DUP2 ADD SWAP1 DUP2 LT PUSH2 0x142A JUMPI INVALID JUMPDEST PUSH1 0x0 SWAP2 DUP3 MSTORE PUSH1 0x20 SWAP1 SWAP2 KECCAK256 ADD SLOAD PUSH1 0x1 PUSH1 0x1 PUSH1 0x80 SHL SUB AND DUP3 LT PUSH2 0x147A JUMPI DUP3 SLOAD DUP4 SWAP1 PUSH1 0x0 NOT DUP2 ADD SWAP1 DUP2 LT PUSH2 0x1457 JUMPI INVALID JUMPDEST PUSH1 0x0 SWAP2 DUP3 MSTORE PUSH1 0x20 SWAP1 SWAP2 KECCAK256 ADD SLOAD PUSH1 0x1 PUSH1 0x80 SHL SWAP1 DIV PUSH1 0x1 PUSH1 0x1 PUSH1 0x80 SHL SUB AND SWAP1 POP PUSH2 0x8D1 JUMP JUMPDEST DUP3 PUSH1 0x0 DUP2 SLOAD DUP2 LT PUSH2 0x1487 JUMPI INVALID JUMPDEST PUSH1 0x0 SWAP2 DUP3 MSTORE PUSH1 0x20 SWAP1 SWAP2 KECCAK256 ADD SLOAD PUSH1 0x1 PUSH1 0x1 PUSH1 0x80 SHL SUB AND DUP3 LT ISZERO PUSH2 0x14AB JUMPI POP PUSH1 0x0 PUSH2 0x8D1 JUMP JUMPDEST DUP3 SLOAD PUSH1 0x0 SWAP1 PUSH1 0x0 NOT ADD JUMPDEST DUP2 DUP2 GT ISZERO PUSH2 0x1506 JUMPI PUSH1 0x0 PUSH1 0x2 PUSH1 0x1 DUP4 DUP6 ADD ADD DIV SWAP1 POP DUP5 DUP7 DUP3 DUP2 SLOAD DUP2 LT PUSH2 0x14D7 JUMPI INVALID JUMPDEST PUSH1 0x0 SWAP2 DUP3 MSTORE PUSH1 0x20 SWAP1 SWAP2 KECCAK256 ADD SLOAD PUSH1 0x1 PUSH1 0x1 PUSH1 0x80 SHL SUB AND GT PUSH2 0x14F9 JUMPI DUP1 SWAP3 POP PUSH2 0x1500 JUMP JUMPDEST PUSH1 0x1 DUP2 SUB SWAP2 POP JUMPDEST POP PUSH2 0x14B5 JUMP JUMPDEST DUP5 DUP3 DUP2 SLOAD DUP2 LT PUSH2 0x1512 JUMPI INVALID JUMPDEST PUSH1 0x0 SWAP2 DUP3 MSTORE PUSH1 0x20 SWAP1 SWAP2 KECCAK256 ADD SLOAD PUSH1 0x1 PUSH1 0x80 SHL SWAP1 DIV PUSH1 0x1 PUSH1 0x1 PUSH1 0x80 SHL SUB AND SWAP6 SWAP5 POP POP POP POP POP JUMP JUMPDEST PUSH1 0x0 DUP1 PUSH2 0x1542 PUSH2 0x96A JUMP JUMPDEST SWAP1 POP DUP3 DUP2 LT ISZERO PUSH2 0x1551 JUMPI PUSH1 0x0 DUP1 REVERT JUMPDEST PUSH1 0x0 PUSH2 0x155C DUP6 PUSH2 0xD46 JUMP JUMPDEST SWAP1 POP DUP4 DUP2 LT ISZERO PUSH2 0x156B JUMPI PUSH1 0x0 DUP1 REVERT JUMPDEST PUSH2 0x1578 PUSH1 0xA DUP6 DUP5 SUB PUSH2 0x17E4 JUMP JUMPDEST PUSH1 0x1 PUSH1 0x1 PUSH1 0xA0 SHL SUB DUP6 AND PUSH1 0x0 SWAP1 DUP2 MSTORE PUSH1 0x8 PUSH1 0x20 MSTORE PUSH1 0x40 SWAP1 KECCAK256 PUSH2 0x159C SWAP1 DUP6 DUP4 SUB PUSH2 0x17E4 JUMP JUMPDEST PUSH1 0x40 DUP1 MLOAD DUP6 DUP2 MSTORE SWAP1 MLOAD PUSH1 0x0 SWAP2 PUSH1 0x1 PUSH1 0x1 PUSH1 0xA0 SHL SUB DUP9 AND SWAP2 PUSH32 0xDDF252AD1BE2C89B69C2B068FC378DAA952BA7F163C4A11628F55A4DF523B3EF SWAP2 DUP2 SWAP1 SUB PUSH1 0x20 ADD SWAP1 LOG3 PUSH2 0x13E6 DUP6 PUSH1 0x0 DUP7 PUSH2 0x18BD JUMP JUMPDEST PUSH1 0x40 DUP1 MLOAD PUSH4 0xEDEFE12D PUSH1 0xE0 SHL DUP2 MSTORE PUSH1 0x4 DUP2 DUP2 ADD MSTORE PUSH1 0x1 PUSH1 0x1 PUSH1 0xA0 SHL SUB DUP4 AND PUSH1 0x24 DUP3 ADD MSTORE SWAP1 MLOAD PUSH20 0x0 SWAP2 PUSH4 0xEDEFE12D SWAP2 PUSH1 0x44 DUP1 DUP4 ADD SWAP3 PUSH1 0x20 SWAP3 SWAP2 SWAP1 DUP3 SWAP1 SUB ADD DUP2 DUP7 DUP1 EXTCODESIZE ISZERO DUP1 ISZERO PUSH2 0x1649 JUMPI PUSH1 0x0 DUP1 REVERT JUMPDEST POP GAS DELEGATECALL ISZERO DUP1 ISZERO PUSH2 0x165D JUMPI RETURNDATASIZE PUSH1 0x0 DUP1 RETURNDATACOPY RETURNDATASIZE PUSH1 0x0 REVERT JUMPDEST POP POP POP POP PUSH1 0x40 MLOAD RETURNDATASIZE PUSH1 0x20 DUP2 LT ISZERO PUSH2 0x1673 JUMPI PUSH1 0x0 DUP1 REVERT JUMPDEST POP POP PUSH1 0x40 DUP1 MLOAD PUSH1 0x1 PUSH1 0x1 PUSH1 0xA0 SHL SUB DUP4 AND DUP2 MSTORE SWAP1 MLOAD PUSH32 0xD6C3DB22A16CF1FEA7BAFAB76301EFF159AD29DC37339DF6F33EB122CF0FFE36 SWAP2 DUP2 SWAP1 SUB PUSH1 0x20 ADD SWAP1 LOG1 POP JUMP JUMPDEST PUSH1 0x4 DUP1 SLOAD PUSH1 0x1 DUP2 ADD DUP3 SSTORE PUSH1 0x0 SWAP2 SWAP1 SWAP2 MSTORE PUSH32 0x8A35ACFBC15FF81A39AE7D344FD709F28E8600B4AA8C65C6B64BFE7FE36BD19B ADD DUP1 SLOAD PUSH1 0x1 PUSH1 0x1 PUSH1 0xA0 SHL SUB DUP4 AND PUSH1 0x1 PUSH1 0x1 PUSH1 0xA0 SHL SUB NOT SWAP1 SWAP2 AND DUP2 OR SWAP1 SWAP2 SSTORE PUSH1 0x40 DUP1 MLOAD SWAP2 DUP3 MSTORE MLOAD PUSH32 0xB39818ECFE00151406F56D9C97659598C71791D1DFD011E5778A4CE2294842F1 SWAP2 DUP2 SWAP1 SUB PUSH1 0x20 ADD SWAP1 LOG1 POP JUMP JUMPDEST PUSH1 0x1 PUSH1 0x1 PUSH1 0xA0 SHL SUB DUP2 AND PUSH2 0x177D JUMPI PUSH1 0x40 MLOAD PUSH3 0x461BCD PUSH1 0xE5 SHL DUP2 MSTORE PUSH1 0x4 ADD DUP1 DUP1 PUSH1 0x20 ADD DUP3 DUP2 SUB DUP3 MSTORE PUSH1 0x26 DUP2 MSTORE PUSH1 0x20 ADD DUP1 PUSH2 0x1A21 PUSH1 0x26 SWAP2 CODECOPY PUSH1 0x40 ADD SWAP2 POP POP PUSH1 0x40 MLOAD DUP1 SWAP2 SUB SWAP1 REVERT JUMPDEST PUSH1 0xB SLOAD PUSH1 0x40 MLOAD PUSH1 0x1 PUSH1 0x1 PUSH1 0xA0 SHL SUB DUP1 DUP5 AND SWAP3 PUSH2 0x100 SWAP1 DIV AND SWAP1 PUSH32 0x8BE0079C531659141344CD1FD0A4F28419497F9722A3DAAFE3B4186F6B6457E0 SWAP1 PUSH1 0x0 SWAP1 LOG3 PUSH1 0xB DUP1 SLOAD PUSH1 0x1 PUSH1 0x1 PUSH1 0xA0 SHL SUB SWAP1 SWAP3 AND PUSH2 0x100 MUL PUSH2 0x100 PUSH1 0x1 PUSH1 0xA8 SHL SUB NOT SWAP1 SWAP3 AND SWAP2 SWAP1 SWAP2 OR SWAP1 SSTORE JUMP JUMPDEST DUP2 SLOAD ISZERO DUP1 PUSH2 0x1818 JUMPI POP DUP2 SLOAD NUMBER SWAP1 DUP4 SWAP1 PUSH1 0x0 NOT DUP2 ADD SWAP1 DUP2 LT PUSH2 0x1801 JUMPI INVALID JUMPDEST PUSH1 0x0 SWAP2 DUP3 MSTORE PUSH1 0x20 SWAP1 SWAP2 KECCAK256 ADD SLOAD PUSH1 0x1 PUSH1 0x1 PUSH1 0x80 SHL SUB AND LT JUMPDEST ISZERO PUSH2 0x187F JUMPI DUP2 SLOAD PUSH1 0x0 SWAP1 DUP4 SWAP1 PUSH2 0x1831 DUP3 PUSH1 0x1 DUP4 ADD PUSH2 0x19E6 JUMP JUMPDEST DUP2 SLOAD DUP2 LT PUSH2 0x183B JUMPI INVALID JUMPDEST PUSH1 0x0 SWAP2 DUP3 MSTORE PUSH1 0x20 SWAP1 SWAP2 KECCAK256 ADD DUP1 SLOAD PUSH1 0x1 PUSH1 0x1 PUSH1 0x80 SHL SUB DUP5 DUP2 AND PUSH1 0x1 PUSH1 0x80 SHL MUL NUMBER DUP3 AND PUSH16 0xFFFFFFFFFFFFFFFFFFFFFFFFFFFFFFFF NOT SWAP1 SWAP4 AND SWAP3 SWAP1 SWAP3 OR AND OR SWAP1 SSTORE POP PUSH2 0x18B9 JUMP JUMPDEST DUP2 SLOAD PUSH1 0x0 SWAP1 DUP4 SWAP1 PUSH1 0x0 NOT DUP2 ADD SWAP1 DUP2 LT PUSH2 0x1894 JUMPI INVALID JUMPDEST PUSH1 0x0 SWAP2 DUP3 MSTORE PUSH1 0x20 SWAP1 SWAP2 KECCAK256 ADD DUP1 SLOAD PUSH1 0x1 PUSH1 0x1 PUSH1 0x80 SHL SUB DUP1 DUP6 AND PUSH1 0x1 PUSH1 0x80 SHL MUL SWAP2 AND OR SWAP1 SSTORE POP JUMPDEST POP POP JUMP JUMPDEST PUSH1 0x0 JUMPDEST PUSH1 0x4 SLOAD DUP2 LT ISZERO PUSH2 0x1962 JUMPI PUSH1 0x0 PUSH1 0x4 DUP3 DUP2 SLOAD DUP2 LT PUSH2 0x18D9 JUMPI INVALID JUMPDEST PUSH1 0x0 SWAP2 DUP3 MSTORE PUSH1 0x20 DUP3 KECCAK256 ADD SLOAD PUSH1 0x40 DUP1 MLOAD PUSH4 0x4A393149 PUSH1 0xE0 SHL DUP2 MSTORE PUSH1 0x1 PUSH1 0x1 PUSH1 0xA0 SHL SUB DUP10 DUP2 AND PUSH1 0x4 DUP4 ADD MSTORE DUP9 DUP2 AND PUSH1 0x24 DUP4 ADD MSTORE PUSH1 0x44 DUP3 ADD DUP9 SWAP1 MSTORE SWAP2 MLOAD SWAP2 SWAP1 SWAP3 AND SWAP4 POP DUP4 SWAP3 PUSH4 0x4A393149 SWAP3 PUSH1 0x64 DUP1 DUP3 ADD SWAP4 SWAP2 DUP3 SWAP1 SUB ADD DUP2 DUP4 DUP8 DUP1 EXTCODESIZE ISZERO DUP1 ISZERO PUSH2 0x193D JUMPI PUSH1 0x0 DUP1 REVERT JUMPDEST POP GAS CALL ISZERO DUP1 ISZERO PUSH2 0x1951 JUMPI RETURNDATASIZE PUSH1 0x0 DUP1 RETURNDATACOPY RETURNDATASIZE PUSH1 0x0 REVERT JUMPDEST POP POP PUSH1 0x1 SWAP1 SWAP4 ADD SWAP3 POP PUSH2 0x18C0 SWAP2 POP POP JUMP JUMPDEST POP POP POP POP JUMP JUMPDEST DUP3 DUP1 SLOAD PUSH1 0x1 DUP2 PUSH1 0x1 AND ISZERO PUSH2 0x100 MUL SUB AND PUSH1 0x2 SWAP1 DIV SWAP1 PUSH1 0x0 MSTORE PUSH1 0x20 PUSH1 0x0 KECCAK256 SWAP1 PUSH1 0x1F ADD PUSH1 0x20 SWAP1 DIV DUP2 ADD SWAP3 DUP3 PUSH1 0x1F LT PUSH2 0x19A9 JUMPI DUP1 MLOAD PUSH1 0xFF NOT AND DUP4 DUP1 ADD OR DUP6 SSTORE PUSH2 0x19D6 JUMP JUMPDEST DUP3 DUP1 ADD PUSH1 0x1 ADD DUP6 SSTORE DUP3 ISZERO PUSH2 0x19D6 JUMPI SWAP2 DUP3 ADD JUMPDEST DUP3 DUP2 GT ISZERO PUSH2 0x19D6 JUMPI DUP3 MLOAD DUP3 SSTORE SWAP2 PUSH1 0x20 ADD SWAP2 SWAP1 PUSH1 0x1 ADD SWAP1 PUSH2 0x19BB JUMP JUMPDEST POP PUSH2 0x19E2 SWAP3 SWAP2 POP PUSH2 0x1A06 JUMP JUMPDEST POP SWAP1 JUMP JUMPDEST DUP2 SLOAD DUP2 DUP4 SSTORE DUP2 DUP2 GT ISZERO PUSH2 0xA64 JUMPI PUSH1 0x0 DUP4 DUP2 MSTORE PUSH1 0x20 SWAP1 KECCAK256 PUSH2 0xA64 SWAP2 DUP2 ADD SWAP1 DUP4 ADD JUMPDEST PUSH2 0x978 SWAP2 SWAP1 JUMPDEST DUP1 DUP3 GT ISZERO PUSH2 0x19E2 JUMPI PUSH1 0x0 DUP2 SSTORE PUSH1 0x1 ADD PUSH2 0x1A0C JUMP INVALID 0x4f PUSH24 0x6E61626C653A206E6577206F776E65722069732074686520 PUSH27 0x65726F20616464726573734F776E61626C653A2063616C6C657220 PUSH10 0x73206E6F742074686520 PUSH16 0x776E6572A265627A7A723058202C84BC 0xa9 PUSH17 0x5884D83761A485E3162E8416E99676C652 PUSH1 0x85 0xfb 0x25 PUSH21 0xDDB4B7838E64736F6C634300050A00320000000000 ",
  "sha1": "1e935371ed79fb84f2a5ad742cbb9164618b5883",
  "source": "pragma solidity >=0.4.21 <0.6.0;\nimport \"../utils/Ownable.sol\";\nimport \"../utils/SafeMath.sol\";\nimport \"../erc20/SafeERC20.sol\";\nimport \"../erc20/ERC20Impl.sol\";\nimport \"../TrustListTools.sol\";\n\ncontract HToken is ERC20Base, Ownable{\n  using SafeERC20 for IERC20;\n  using SafeMath for uint256;\n\n  address public target;\n  uint256 public ratio_to_target;\n  //uint256 public types; // 1 for in,2 for out, 3 for long term\n  mapping (bytes32 => uint256) public extra;//record extra information of the token, including the round, type and ratio\n\n  constructor(string memory _name, string memory _symbol, bool _transfersEnabled)\n  ERC20Base(ERC20Base(address(0x0)), 0, _name, 18, _symbol, _transfersEnabled) public{}\n\n  function reconstruct(string memory _name, string memory _symbol, bool _transfersEnabled) public onlyOwner{\n    name = _name;\n    symbol = _symbol;\n    transfersEnabled = _transfersEnabled;\n  }\n\n  function mint(address addr, uint256 amount) onlyOwner public{\n    _generateTokens(addr, amount);\n  }\n  function burnFrom(address addr, uint256 amount) onlyOwner public{\n    _destroyTokens(addr, amount);\n  }\n\n  function set_extra(bytes32 _target, uint256 _value) onlyOwner public{\n    extra[_target] = _value;\n  }\n\n  function set_target(address _target) onlyOwner public{\n    target = _target;\n  }\n\n  function addTransferListener(address _addr) public onlyOwner{\n    _addTransferListener(_addr);\n  }\n  function removeTransferListener(address _addr) public onlyOwner{\n    _removeTransferListener(_addr);\n  }\n\n  event HTokenSetRatioToTarget(uint256 ratio_to);\n  function set_ratio_to_target(uint256 _ratio_to) onlyOwner public{\n    ratio_to_target = _ratio_to;\n    emit HTokenSetRatioToTarget(_ratio_to);\n  }\n}\n\ncontract HTokenFactoryInterface{\n  function createHToken(string memory _name, string memory _symbol, bool _transfersEnabled) public returns(address);\n  function destroyHToken(address addr) public;\n}\n\ncontract HTokenFactory is HTokenFactoryInterface{\n  event NewHToken(address addr);\n  event DestroyHToken(address addr);\n  function createHToken(string memory _name, string memory _symbol, bool _transfersEnabled) public returns(address){\n    HToken pt = new HToken(_name, _symbol, _transfersEnabled);\n    pt.transferOwnership(msg.sender);\n    emit NewHToken(address(pt));\n    return address(pt);\n  }\n  function destroyHToken(address addr) public{\n    //TODO, we choose do nothing here\n    emit DestroyHToken(addr);\n  }\n}\n\n\n\n\n",
  "sourcePath": "contracts/core/HToken.sol",
  "type": "contract"
}