{
  "abi": [
    {
      "constant": false,
      "inputs": [],
      "name": "createHTokenAggregator",
      "outputs": [
        {
          "name": "",
          "type": "address"
        }
      ],
      "payable": false,
      "stateMutability": "nonpayable",
      "type": "function"
    },
    {
      "anonymous": false,
      "inputs": [
        {
          "indexed": false,
          "name": "addr",
          "type": "address"
        }
      ],
      "name": "NewHTokenAggregator",
      "type": "event"
    }
  ],
  "bytecode": "608060405234801561001057600080fd5b5061173f806100206000396000f3fe608060405234801561001057600080fd5b506004361061002b5760003560e01c80638e4a65a514610030575b600080fd5b610038610054565b604080516001600160a01b039092168252519081900360200190f35b60008060405161006390610125565b604051809103906000f08015801561007f573d6000803e3d6000fd5b506040805163f2fde38b60e01b815233600482015290519192506001600160a01b0383169163f2fde38b9160248082019260009290919082900301818387803b1580156100cb57600080fd5b505af11580156100df573d6000803e3d6000fd5b5050604080516001600160a01b038516815290517fe275af79dd5b518931513a3028edc07ac30d1bd200c8d85b588c2c97ef5a4cca9350908190036020019150a1905090565b6115d8806101338339019056fe60806040523480156200001157600080fd5b50600080546001600160a01b031916339081178255604051909182917f8be0079c531659141344cd1fd0a4f28419497f9722a3daafe3b4186f6b6457e0908290a35060408051808201909152600a81527f686f72697a6f6e5f696e0000000000000000000000000000000000000000000060208083019182526001600052600590529051620000c2917f1471eb6eb2c5e789fc3de43f8ce62938c7d1836ec861730447e2ada8fd81017b91620001a9565b5060408051808201909152600b81527f686f72697a6f6e5f6f75740000000000000000000000000000000000000000006020808301918252600260005260059052905162000132917f89832631fb3c3307a103ba2c84ab569c64d6182a18893dcd163f0f1c2090733a91620001a9565b5060408051808201909152600c81527f686f72697a6f6e5f6c6f6e67000000000000000000000000000000000000000060208083019182526003600052600590529051620001a2917fa9bc9a3a348c357ba16b37005d7e6b3236198c0e939f4af8c5f19b8deeb8ebc091620001a9565b506200024e565b828054600181600116156101000203166002900490600052602060002090601f016020900481019282601f10620001ec57805160ff19168380011785556200021c565b828001600101855582156200021c579182015b828111156200021c578251825591602001919060010190620001ff565b506200022a9291506200022e565b5090565b6200024b91905b808211156200022a576000815560010162000235565b90565b61137a806200025e6000396000f3fe608060405234801561001057600080fd5b50600436106100ea5760003560e01c8063bacd83611161008c578063d99e0f0a11610066578063d99e0f0a14610311578063e85aee2c14610357578063eb1cdfa014610374578063f2fde38b146103ba576100ea565b8063bacd836114610205578063cefbfa3614610247578063d16827c6146102d9576100ea565b806389eba421116100c857806389eba421146101845780638da5cb5b146101a1578063a21efbda146101c5578063b6d5aaf6146101cd576100ea565b80630d53f0e1146100ef5780632e2b1f3c1461012f57806373cb542f1461015e575b600080fd5b61012d600480360360a081101561010557600080fd5b506001600160a01b0381351690602081013590604081013590606081013590608001356103e0565b005b61014c6004803603602081101561014557600080fd5b50356105c9565b60408051918252519081900360200190f35b61012d6004803603602081101561017457600080fd5b50356001600160a01b03166105db565b61014c6004803603602081101561019a57600080fd5b503561069d565b6101a96106af565b604080516001600160a01b039092168252519081900360200190f35b6101a96106be565b61014c600480360360808110156101e357600080fd5b506001600160a01b0381351690602081013590604081013590606001356106cd565b61014c600480360360a081101561021b57600080fd5b506001600160a01b038135811691602081013591604082013591606081013591608090910135166107a1565b6102646004803603602081101561025d57600080fd5b503561088d565b6040805160208082528351818301528351919283929083019185019080838360005b8381101561029e578181015183820152602001610286565b50505050905090810190601f1680156102cb5780820380516001836020036101000a031916815260200191505b509250505060405180910390f35b61014c600480360360808110156102ef57600080fd5b506001600160a01b038135169060208101359060408101359060600135610928565b61012d600480360360c081101561032757600080fd5b506001600160a01b03813581169160208101359160408201359160608101359160808201359160a00135166109fc565b61014c6004803603602081101561036d57600080fd5b5035610df5565b61012d600480360360c081101561038a57600080fd5b506001600160a01b03813581169160208101359160408201359160608101359160808201359160a0013516610e07565b61012d600480360360208110156103d057600080fd5b50356001600160a01b0316611214565b60015433906001600160a01b0316610432576040805162461bcd60e51b815260206004820152601060248201526f074727573746c697374206973203078360841b604482015290519081900360640190fd5b60015460408051632153522560e11b81526001600160a01b038481166004830152915191909216916342a6a44a9160248083019260209291908290030181600087803b15801561048157600080fd5b505af1158015610495573d6000803e3d6000fd5b505050506040513d60208110156104ab57600080fd5b50516104f5576040805162461bcd60e51b81526020600482015260146024820152733737ba1030903a393ab9ba32b21034b9b9bab2b960611b604482015290519081900360640190fd5b60008686866005600088815260200190815260200160002060405160200180856001600160a01b03166001600160a01b031660601b8152601401848152602001838152602001828054600181600116156101000203166002900480156105925780601f10610570576101008083540402835291820191610592565b820191906000526020600020905b81548152906001019060200180831161057e575b505060408051601f198184030181529181528151602092830120600090815260049092529020979097555050505050505050505050565b60036020526000908152604090205481565b6000546001600160a01b0316331461063a576040805162461bcd60e51b815260206004820181905260248201527f4f776e61626c653a2063616c6c6572206973206e6f7420746865206f776e6572604482015290519081900360640190fd5b600180546001600160a01b038381166001600160a01b0319831681179093556040805191909216808252602082019390935281517fe19afe89fcee2a079df148700e97f00ef22536af2f5d98861ab7186c6c271070929181900390910190a15050565b60026020526000908152604090205481565b6000546001600160a01b031690565b6001546001600160a01b031681565b6000808585856005600087815260200190815260200160002060405160200180856001600160a01b03166001600160a01b031660601b81526014018481526020018381526020018280546001816001161561010002031660029004801561076b5780601f1061074957610100808354040283529182019161076b565b820191906000526020600020905b815481529060010190602001808311610757575b505060408051808303601f190181529181528151602092830120600090815260039092529020549b9a5050505050505050505050565b600080868686600560008881526020019081526020016000208660405160200180866001600160a01b03166001600160a01b031660601b8152601401858152602001848152602001838054600181600116156101000203166002900480156108405780601f1061081e576101008083540402835291820191610840565b820191906000526020600020905b81548152906001019060200180831161082c575b505060609290921b6001600160601b03191682525060408051808303600b19018152601490920181528151602092830120600090815260029092529020549b9a5050505050505050505050565b60056020908152600091825260409182902080548351601f6002600019610100600186161502019093169290920491820184900484028101840190945280845290918301828280156109205780601f106108f557610100808354040283529160200191610920565b820191906000526020600020905b81548152906001019060200180831161090357829003601f168201915b505050505081565b6000808585856005600087815260200190815260200160002060405160200180856001600160a01b03166001600160a01b031660601b8152601401848152602001838152602001828054600181600116156101000203166002900480156109c65780601f106109a45761010080835404028352918201916109c6565b820191906000526020600020905b8154815290600101906020018083116109b2575b505060408051808303601f190181529181528151602092830120600090815260049092529020549b9a5050505050505050505050565b60015433906001600160a01b0316610a4e576040805162461bcd60e51b815260206004820152601060248201526f074727573746c697374206973203078360841b604482015290519081900360640190fd5b60015460408051632153522560e11b81526001600160a01b038481166004830152915191909216916342a6a44a9160248083019260209291908290030181600087803b158015610a9d57600080fd5b505af1158015610ab1573d6000803e3d6000fd5b505050506040513d6020811015610ac757600080fd5b5051610b11576040805162461bcd60e51b81526020600482015260146024820152733737ba1030903a393ab9ba32b21034b9b9bab2b960611b604482015290519081900360640190fd5b6000878787600560008981526020019081526020016000208660405160200180866001600160a01b03166001600160a01b031660601b815260140185815260200184815260200183805460018160011615610100020316600290048015610baf5780601f10610b8d576101008083540402835291820191610baf565b820191906000526020600020905b815481529060010190602001808311610b9b575b5050826001600160a01b03166001600160a01b031660601b815260140195505050505050604051602081830303815290604052805190602001209050600260008281526020019081526020016000205473__SafeMath______________________________63e6cb90139091866040518363ffffffff1660e01b8152600401808381526020018281526020019250505060206040518083038186803b158015610c5757600080fd5b505af4158015610c6b573d6000803e3d6000fd5b505050506040513d6020811015610c8157600080fd5b5051600082815260026020818152604080842094909455888352600581529183902092516001600160601b031960608d901b16928101928352603481018b9052605481018a905283548c948c948c949193909260749091019184916000196101006001831615020116048015610d2e5780601f10610d0c576101008083540402835291820191610d2e565b820191906000526020600020905b815481529060010190602001808311610d1a575b505060408051601f1981840301815282825280516020918201206000818152600383528390205463e6cb901360e01b85526004850152602484018d9052915191985073__SafeMath______________________________975063e6cb901396506044808401965090945090925090829003018186803b158015610db057600080fd5b505af4158015610dc4573d6000803e3d6000fd5b505050506040513d6020811015610dda57600080fd5b50516000918252600360205260409091205550505050505050565b60046020526000908152604090205481565b60015433906001600160a01b0316610e59576040805162461bcd60e51b815260206004820152601060248201526f074727573746c697374206973203078360841b604482015290519081900360640190fd5b60015460408051632153522560e11b81526001600160a01b038481166004830152915191909216916342a6a44a9160248083019260209291908290030181600087803b158015610ea857600080fd5b505af1158015610ebc573d6000803e3d6000fd5b505050506040513d6020811015610ed257600080fd5b5051610f1c576040805162461bcd60e51b81526020600482015260146024820152733737ba1030903a393ab9ba32b21034b9b9bab2b960611b604482015290519081900360640190fd5b6000878787600560008981526020019081526020016000208660405160200180866001600160a01b03166001600160a01b031660601b815260140185815260200184815260200183805460018160011615610100020316600290048015610fba5780601f10610f98576101008083540402835291820191610fba565b820191906000526020600020905b815481529060010190602001808311610fa6575b5050826001600160a01b03166001600160a01b031660601b8152601401955050505050506040516020818303038152906040528051906020012090508360026000838152602001908152602001600020541015611053576040805162461bcd60e51b81526020600482015260126024820152716e6f7420656e6f7567682062616c616e636560701b604482015290519081900360640190fd5b6000818152600260209081526040918290205482516314527a3d60e31b8152600481019190915260248101879052915173__SafeMath______________________________9263a293d1e8926044808301939192829003018186803b1580156110bb57600080fd5b505af41580156110cf573d6000803e3d6000fd5b505050506040513d60208110156110e557600080fd5b5051600082815260026020818152604080842094909455888352600581529183902092516001600160601b031960608d901b16928101928352603481018b9052605481018a905283548c948c948c9491939092607490910191849160001961010060018316150201160480156111925780601f10611170576101008083540402835291820191611192565b820191906000526020600020905b81548152906001019060200180831161117e575b505060408051601f198184030181528282528051602091820120600081815260038352839020546314527a3d60e31b85526004850152602484018d9052915191985073__SafeMath______________________________975063a293d1e896506044808401965090945090925090829003018186803b158015610db057600080fd5b6000546001600160a01b03163314611273576040805162461bcd60e51b815260206004820181905260248201527f4f776e61626c653a2063616c6c6572206973206e6f7420746865206f776e6572604482015290519081900360640190fd5b61127c8161127f565b50565b6001600160a01b0381166112c45760405162461bcd60e51b81526004018080602001828103825260268152602001806113206026913960400191505060405180910390fd5b600080546040516001600160a01b03808516939216917f8be0079c531659141344cd1fd0a4f28419497f9722a3daafe3b4186f6b6457e091a3600080546001600160a01b0319166001600160a01b039290921691909117905556fe4f776e61626c653a206e6577206f776e657220697320746865207a65726f2061646472657373a265627a7a723058203ea559714281bf34140c193902b3237eebbea5f9f86448d7e846685133ddc45464736f6c634300050a0032a265627a7a72305820860c512167205740b87530d6ff4c2a9006619f4d0b3ef80e7d31a4feccb9721f64736f6c634300050a0032",
  "bytecodeSha1": "c7ae4c48db39828c9d2f4b9ea3d82e2f545c9885",
  "compiler": {
    "evm_version": "petersburg",
    "optimizer": {
      "enabled": true,
      "runs": 200
    },
    "version": "0.5.10+commit.5a6ea5b1"
  },
  "contractName": "HTokenAggregatorFactory",
  "deployedBytecode": "608060405234801561001057600080fd5b506004361061002b5760003560e01c80638e4a65a514610030575b600080fd5b610038610054565b604080516001600160a01b039092168252519081900360200190f35b60008060405161006390610125565b604051809103906000f08015801561007f573d6000803e3d6000fd5b506040805163f2fde38b60e01b815233600482015290519192506001600160a01b0383169163f2fde38b9160248082019260009290919082900301818387803b1580156100cb57600080fd5b505af11580156100df573d6000803e3d6000fd5b5050604080516001600160a01b038516815290517fe275af79dd5b518931513a3028edc07ac30d1bd200c8d85b588c2c97ef5a4cca9350908190036020019150a1905090565b6115d8806101338339019056fe60806040523480156200001157600080fd5b50600080546001600160a01b031916339081178255604051909182917f8be0079c531659141344cd1fd0a4f28419497f9722a3daafe3b4186f6b6457e0908290a35060408051808201909152600a81527f686f72697a6f6e5f696e0000000000000000000000000000000000000000000060208083019182526001600052600590529051620000c2917f1471eb6eb2c5e789fc3de43f8ce62938c7d1836ec861730447e2ada8fd81017b91620001a9565b5060408051808201909152600b81527f686f72697a6f6e5f6f75740000000000000000000000000000000000000000006020808301918252600260005260059052905162000132917f89832631fb3c3307a103ba2c84ab569c64d6182a18893dcd163f0f1c2090733a91620001a9565b5060408051808201909152600c81527f686f72697a6f6e5f6c6f6e67000000000000000000000000000000000000000060208083019182526003600052600590529051620001a2917fa9bc9a3a348c357ba16b37005d7e6b3236198c0e939f4af8c5f19b8deeb8ebc091620001a9565b506200024e565b828054600181600116156101000203166002900490600052602060002090601f016020900481019282601f10620001ec57805160ff19168380011785556200021c565b828001600101855582156200021c579182015b828111156200021c578251825591602001919060010190620001ff565b506200022a9291506200022e565b5090565b6200024b91905b808211156200022a576000815560010162000235565b90565b61137a806200025e6000396000f3fe608060405234801561001057600080fd5b50600436106100ea5760003560e01c8063bacd83611161008c578063d99e0f0a11610066578063d99e0f0a14610311578063e85aee2c14610357578063eb1cdfa014610374578063f2fde38b146103ba576100ea565b8063bacd836114610205578063cefbfa3614610247578063d16827c6146102d9576100ea565b806389eba421116100c857806389eba421146101845780638da5cb5b146101a1578063a21efbda146101c5578063b6d5aaf6146101cd576100ea565b80630d53f0e1146100ef5780632e2b1f3c1461012f57806373cb542f1461015e575b600080fd5b61012d600480360360a081101561010557600080fd5b506001600160a01b0381351690602081013590604081013590606081013590608001356103e0565b005b61014c6004803603602081101561014557600080fd5b50356105c9565b60408051918252519081900360200190f35b61012d6004803603602081101561017457600080fd5b50356001600160a01b03166105db565b61014c6004803603602081101561019a57600080fd5b503561069d565b6101a96106af565b604080516001600160a01b039092168252519081900360200190f35b6101a96106be565b61014c600480360360808110156101e357600080fd5b506001600160a01b0381351690602081013590604081013590606001356106cd565b61014c600480360360a081101561021b57600080fd5b506001600160a01b038135811691602081013591604082013591606081013591608090910135166107a1565b6102646004803603602081101561025d57600080fd5b503561088d565b6040805160208082528351818301528351919283929083019185019080838360005b8381101561029e578181015183820152602001610286565b50505050905090810190601f1680156102cb5780820380516001836020036101000a031916815260200191505b509250505060405180910390f35b61014c600480360360808110156102ef57600080fd5b506001600160a01b038135169060208101359060408101359060600135610928565b61012d600480360360c081101561032757600080fd5b506001600160a01b03813581169160208101359160408201359160608101359160808201359160a00135166109fc565b61014c6004803603602081101561036d57600080fd5b5035610df5565b61012d600480360360c081101561038a57600080fd5b506001600160a01b03813581169160208101359160408201359160608101359160808201359160a0013516610e07565b61012d600480360360208110156103d057600080fd5b50356001600160a01b0316611214565b60015433906001600160a01b0316610432576040805162461bcd60e51b815260206004820152601060248201526f074727573746c697374206973203078360841b604482015290519081900360640190fd5b60015460408051632153522560e11b81526001600160a01b038481166004830152915191909216916342a6a44a9160248083019260209291908290030181600087803b15801561048157600080fd5b505af1158015610495573d6000803e3d6000fd5b505050506040513d60208110156104ab57600080fd5b50516104f5576040805162461bcd60e51b81526020600482015260146024820152733737ba1030903a393ab9ba32b21034b9b9bab2b960611b604482015290519081900360640190fd5b60008686866005600088815260200190815260200160002060405160200180856001600160a01b03166001600160a01b031660601b8152601401848152602001838152602001828054600181600116156101000203166002900480156105925780601f10610570576101008083540402835291820191610592565b820191906000526020600020905b81548152906001019060200180831161057e575b505060408051601f198184030181529181528151602092830120600090815260049092529020979097555050505050505050505050565b60036020526000908152604090205481565b6000546001600160a01b0316331461063a576040805162461bcd60e51b815260206004820181905260248201527f4f776e61626c653a2063616c6c6572206973206e6f7420746865206f776e6572604482015290519081900360640190fd5b600180546001600160a01b038381166001600160a01b0319831681179093556040805191909216808252602082019390935281517fe19afe89fcee2a079df148700e97f00ef22536af2f5d98861ab7186c6c271070929181900390910190a15050565b60026020526000908152604090205481565b6000546001600160a01b031690565b6001546001600160a01b031681565b6000808585856005600087815260200190815260200160002060405160200180856001600160a01b03166001600160a01b031660601b81526014018481526020018381526020018280546001816001161561010002031660029004801561076b5780601f1061074957610100808354040283529182019161076b565b820191906000526020600020905b815481529060010190602001808311610757575b505060408051808303601f190181529181528151602092830120600090815260039092529020549b9a5050505050505050505050565b600080868686600560008881526020019081526020016000208660405160200180866001600160a01b03166001600160a01b031660601b8152601401858152602001848152602001838054600181600116156101000203166002900480156108405780601f1061081e576101008083540402835291820191610840565b820191906000526020600020905b81548152906001019060200180831161082c575b505060609290921b6001600160601b03191682525060408051808303600b19018152601490920181528151602092830120600090815260029092529020549b9a5050505050505050505050565b60056020908152600091825260409182902080548351601f6002600019610100600186161502019093169290920491820184900484028101840190945280845290918301828280156109205780601f106108f557610100808354040283529160200191610920565b820191906000526020600020905b81548152906001019060200180831161090357829003601f168201915b505050505081565b6000808585856005600087815260200190815260200160002060405160200180856001600160a01b03166001600160a01b031660601b8152601401848152602001838152602001828054600181600116156101000203166002900480156109c65780601f106109a45761010080835404028352918201916109c6565b820191906000526020600020905b8154815290600101906020018083116109b2575b505060408051808303601f190181529181528151602092830120600090815260049092529020549b9a5050505050505050505050565b60015433906001600160a01b0316610a4e576040805162461bcd60e51b815260206004820152601060248201526f074727573746c697374206973203078360841b604482015290519081900360640190fd5b60015460408051632153522560e11b81526001600160a01b038481166004830152915191909216916342a6a44a9160248083019260209291908290030181600087803b158015610a9d57600080fd5b505af1158015610ab1573d6000803e3d6000fd5b505050506040513d6020811015610ac757600080fd5b5051610b11576040805162461bcd60e51b81526020600482015260146024820152733737ba1030903a393ab9ba32b21034b9b9bab2b960611b604482015290519081900360640190fd5b6000878787600560008981526020019081526020016000208660405160200180866001600160a01b03166001600160a01b031660601b815260140185815260200184815260200183805460018160011615610100020316600290048015610baf5780601f10610b8d576101008083540402835291820191610baf565b820191906000526020600020905b815481529060010190602001808311610b9b575b5050826001600160a01b03166001600160a01b031660601b815260140195505050505050604051602081830303815290604052805190602001209050600260008281526020019081526020016000205473__$453ca7436f2e4c673c26da82379bd674f3$__63e6cb90139091866040518363ffffffff1660e01b8152600401808381526020018281526020019250505060206040518083038186803b158015610c5757600080fd5b505af4158015610c6b573d6000803e3d6000fd5b505050506040513d6020811015610c8157600080fd5b5051600082815260026020818152604080842094909455888352600581529183902092516001600160601b031960608d901b16928101928352603481018b9052605481018a905283548c948c948c949193909260749091019184916000196101006001831615020116048015610d2e5780601f10610d0c576101008083540402835291820191610d2e565b820191906000526020600020905b815481529060010190602001808311610d1a575b505060408051601f1981840301815282825280516020918201206000818152600383528390205463e6cb901360e01b85526004850152602484018d9052915191985073__$453ca7436f2e4c673c26da82379bd674f3$__975063e6cb901396506044808401965090945090925090829003018186803b158015610db057600080fd5b505af4158015610dc4573d6000803e3d6000fd5b505050506040513d6020811015610dda57600080fd5b50516000918252600360205260409091205550505050505050565b60046020526000908152604090205481565b60015433906001600160a01b0316610e59576040805162461bcd60e51b815260206004820152601060248201526f074727573746c697374206973203078360841b604482015290519081900360640190fd5b60015460408051632153522560e11b81526001600160a01b038481166004830152915191909216916342a6a44a9160248083019260209291908290030181600087803b158015610ea857600080fd5b505af1158015610ebc573d6000803e3d6000fd5b505050506040513d6020811015610ed257600080fd5b5051610f1c576040805162461bcd60e51b81526020600482015260146024820152733737ba1030903a393ab9ba32b21034b9b9bab2b960611b604482015290519081900360640190fd5b6000878787600560008981526020019081526020016000208660405160200180866001600160a01b03166001600160a01b031660601b815260140185815260200184815260200183805460018160011615610100020316600290048015610fba5780601f10610f98576101008083540402835291820191610fba565b820191906000526020600020905b815481529060010190602001808311610fa6575b5050826001600160a01b03166001600160a01b031660601b8152601401955050505050506040516020818303038152906040528051906020012090508360026000838152602001908152602001600020541015611053576040805162461bcd60e51b81526020600482015260126024820152716e6f7420656e6f7567682062616c616e636560701b604482015290519081900360640190fd5b6000818152600260209081526040918290205482516314527a3d60e31b8152600481019190915260248101879052915173__$453ca7436f2e4c673c26da82379bd674f3$__9263a293d1e8926044808301939192829003018186803b1580156110bb57600080fd5b505af41580156110cf573d6000803e3d6000fd5b505050506040513d60208110156110e557600080fd5b5051600082815260026020818152604080842094909455888352600581529183902092516001600160601b031960608d901b16928101928352603481018b9052605481018a905283548c948c948c9491939092607490910191849160001961010060018316150201160480156111925780601f10611170576101008083540402835291820191611192565b820191906000526020600020905b81548152906001019060200180831161117e575b505060408051601f198184030181528282528051602091820120600081815260038352839020546314527a3d60e31b85526004850152602484018d9052915191985073__$453ca7436f2e4c673c26da82379bd674f3$__975063a293d1e896506044808401965090945090925090829003018186803b158015610db057600080fd5b6000546001600160a01b03163314611273576040805162461bcd60e51b815260206004820181905260248201527f4f776e61626c653a2063616c6c6572206973206e6f7420746865206f776e6572604482015290519081900360640190fd5b61127c8161127f565b50565b6001600160a01b0381166112c45760405162461bcd60e51b81526004018080602001828103825260268152602001806113206026913960400191505060405180910390fd5b600080546040516001600160a01b03808516939216917f8be0079c531659141344cd1fd0a4f28419497f9722a3daafe3b4186f6b6457e091a3600080546001600160a01b0319166001600160a01b039290921691909117905556fe4f776e61626c653a206e6577206f776e657220697320746865207a65726f2061646472657373a265627a7a723058203ea559714281bf34140c193902b3237eebbea5f9f86448d7e846685133ddc45464736f6c634300050a0032a265627a7a72305820860c512167205740b87530d6ff4c2a9006619f4d0b3ef80e7d31a4feccb9721f64736f6c634300050a0032",
  "language": "Solidity",
  "natspec": {
    "methods": {}
  },
  "opcodes": "PUSH1 0x80 PUSH1 0x40 MSTORE CALLVALUE DUP1 ISZERO PUSH2 0x10 JUMPI PUSH1 0x0 DUP1 REVERT JUMPDEST POP PUSH1 0x4 CALLDATASIZE LT PUSH2 0x2B JUMPI PUSH1 0x0 CALLDATALOAD PUSH1 0xE0 SHR DUP1 PUSH4 0x8E4A65A5 EQ PUSH2 0x30 JUMPI JUMPDEST PUSH1 0x0 DUP1 REVERT JUMPDEST PUSH2 0x38 PUSH2 0x54 JUMP JUMPDEST PUSH1 0x40 DUP1 MLOAD PUSH1 0x1 PUSH1 0x1 PUSH1 0xA0 SHL SUB SWAP1 SWAP3 AND DUP3 MSTORE MLOAD SWAP1 DUP2 SWAP1 SUB PUSH1 0x20 ADD SWAP1 RETURN JUMPDEST PUSH1 0x0 DUP1 PUSH1 0x40 MLOAD PUSH2 0x63 SWAP1 PUSH2 0x125 JUMP JUMPDEST PUSH1 0x40 MLOAD DUP1 SWAP2 SUB SWAP1 PUSH1 0x0 CREATE DUP1 ISZERO DUP1 ISZERO PUSH2 0x7F JUMPI RETURNDATASIZE PUSH1 0x0 DUP1 RETURNDATACOPY RETURNDATASIZE PUSH1 0x0 REVERT JUMPDEST POP PUSH1 0x40 DUP1 MLOAD PUSH4 0xF2FDE38B PUSH1 0xE0 SHL DUP2 MSTORE CALLER PUSH1 0x4 DUP3 ADD MSTORE SWAP1 MLOAD SWAP2 SWAP3 POP PUSH1 0x1 PUSH1 0x1 PUSH1 0xA0 SHL SUB DUP4 AND SWAP2 PUSH4 0xF2FDE38B SWAP2 PUSH1 0x24 DUP1 DUP3 ADD SWAP3 PUSH1 0x0 SWAP3 SWAP1 SWAP2 SWAP1 DUP3 SWAP1 SUB ADD DUP2 DUP4 DUP8 DUP1 EXTCODESIZE ISZERO DUP1 ISZERO PUSH2 0xCB JUMPI PUSH1 0x0 DUP1 REVERT JUMPDEST POP GAS CALL ISZERO DUP1 ISZERO PUSH2 0xDF JUMPI RETURNDATASIZE PUSH1 0x0 DUP1 RETURNDATACOPY RETURNDATASIZE PUSH1 0x0 REVERT JUMPDEST POP POP PUSH1 0x40 DUP1 MLOAD PUSH1 0x1 PUSH1 0x1 PUSH1 0xA0 SHL SUB DUP6 AND DUP2 MSTORE SWAP1 MLOAD PUSH32 0xE275AF79DD5B518931513A3028EDC07AC30D1BD200C8D85B588C2C97EF5A4CCA SWAP4 POP SWAP1 DUP2 SWAP1 SUB PUSH1 0x20 ADD SWAP2 POP LOG1 SWAP1 POP SWAP1 JUMP JUMPDEST PUSH2 0x15D8 DUP1 PUSH2 0x133 DUP4 CODECOPY ADD SWAP1 JUMP INVALID PUSH1 0x80 PUSH1 0x40 MSTORE CALLVALUE DUP1 ISZERO PUSH3 0x11 JUMPI PUSH1 0x0 DUP1 REVERT JUMPDEST POP PUSH1 0x0 DUP1 SLOAD PUSH1 0x1 PUSH1 0x1 PUSH1 0xA0 SHL SUB NOT AND CALLER SWAP1 DUP2 OR DUP3 SSTORE PUSH1 0x40 MLOAD SWAP1 SWAP2 DUP3 SWAP2 PUSH32 0x8BE0079C531659141344CD1FD0A4F28419497F9722A3DAAFE3B4186F6B6457E0 SWAP1 DUP3 SWAP1 LOG3 POP PUSH1 0x40 DUP1 MLOAD DUP1 DUP3 ADD SWAP1 SWAP2 MSTORE PUSH1 0xA DUP2 MSTORE PUSH32 0x686F72697A6F6E5F696E00000000000000000000000000000000000000000000 PUSH1 0x20 DUP1 DUP4 ADD SWAP2 DUP3 MSTORE PUSH1 0x1 PUSH1 0x0 MSTORE PUSH1 0x5 SWAP1 MSTORE SWAP1 MLOAD PUSH3 0xC2 SWAP2 PUSH32 0x1471EB6EB2C5E789FC3DE43F8CE62938C7D1836EC861730447E2ADA8FD81017B SWAP2 PUSH3 0x1A9 JUMP JUMPDEST POP PUSH1 0x40 DUP1 MLOAD DUP1 DUP3 ADD SWAP1 SWAP2 MSTORE PUSH1 0xB DUP2 MSTORE PUSH32 0x686F72697A6F6E5F6F7574000000000000000000000000000000000000000000 PUSH1 0x20 DUP1 DUP4 ADD SWAP2 DUP3 MSTORE PUSH1 0x2 PUSH1 0x0 MSTORE PUSH1 0x5 SWAP1 MSTORE SWAP1 MLOAD PUSH3 0x132 SWAP2 PUSH32 0x89832631FB3C3307A103BA2C84AB569C64D6182A18893DCD163F0F1C2090733A SWAP2 PUSH3 0x1A9 JUMP JUMPDEST POP PUSH1 0x40 DUP1 MLOAD DUP1 DUP3 ADD SWAP1 SWAP2 MSTORE PUSH1 0xC DUP2 MSTORE PUSH32 0x686F72697A6F6E5F6C6F6E670000000000000000000000000000000000000000 PUSH1 0x20 DUP1 DUP4 ADD SWAP2 DUP3 MSTORE PUSH1 0x3 PUSH1 0x0 MSTORE PUSH1 0x5 SWAP1 MSTORE SWAP1 MLOAD PUSH3 0x1A2 SWAP2 PUSH32 0xA9BC9A3A348C357BA16B37005D7E6B3236198C0E939F4AF8C5F19B8DEEB8EBC0 SWAP2 PUSH3 0x1A9 JUMP JUMPDEST POP PUSH3 0x24E JUMP JUMPDEST DUP3 DUP1 SLOAD PUSH1 0x1 DUP2 PUSH1 0x1 AND ISZERO PUSH2 0x100 MUL SUB AND PUSH1 0x2 SWAP1 DIV SWAP1 PUSH1 0x0 MSTORE PUSH1 0x20 PUSH1 0x0 KECCAK256 SWAP1 PUSH1 0x1F ADD PUSH1 0x20 SWAP1 DIV DUP2 ADD SWAP3 DUP3 PUSH1 0x1F LT PUSH3 0x1EC JUMPI DUP1 MLOAD PUSH1 0xFF NOT AND DUP4 DUP1 ADD OR DUP6 SSTORE PUSH3 0x21C JUMP JUMPDEST DUP3 DUP1 ADD PUSH1 0x1 ADD DUP6 SSTORE DUP3 ISZERO PUSH3 0x21C JUMPI SWAP2 DUP3 ADD JUMPDEST DUP3 DUP2 GT ISZERO PUSH3 0x21C JUMPI DUP3 MLOAD DUP3 SSTORE SWAP2 PUSH1 0x20 ADD SWAP2 SWAP1 PUSH1 0x1 ADD SWAP1 PUSH3 0x1FF JUMP JUMPDEST POP PUSH3 0x22A SWAP3 SWAP2 POP PUSH3 0x22E JUMP JUMPDEST POP SWAP1 JUMP JUMPDEST PUSH3 0x24B SWAP2 SWAP1 JUMPDEST DUP1 DUP3 GT ISZERO PUSH3 0x22A JUMPI PUSH1 0x0 DUP2 SSTORE PUSH1 0x1 ADD PUSH3 0x235 JUMP JUMPDEST SWAP1 JUMP JUMPDEST PUSH2 0x137A DUP1 PUSH3 0x25E PUSH1 0x0 CODECOPY PUSH1 0x0 RETURN INVALID PUSH1 0x80 PUSH1 0x40 MSTORE CALLVALUE DUP1 ISZERO PUSH2 0x10 JUMPI PUSH1 0x0 DUP1 REVERT JUMPDEST POP PUSH1 0x4 CALLDATASIZE LT PUSH2 0xEA JUMPI PUSH1 0x0 CALLDATALOAD PUSH1 0xE0 SHR DUP1 PUSH4 0xBACD8361 GT PUSH2 0x8C JUMPI DUP1 PUSH4 0xD99E0F0A GT PUSH2 0x66 JUMPI DUP1 PUSH4 0xD99E0F0A EQ PUSH2 0x311 JUMPI DUP1 PUSH4 0xE85AEE2C EQ PUSH2 0x357 JUMPI DUP1 PUSH4 0xEB1CDFA0 EQ PUSH2 0x374 JUMPI DUP1 PUSH4 0xF2FDE38B EQ PUSH2 0x3BA JUMPI PUSH2 0xEA JUMP JUMPDEST DUP1 PUSH4 0xBACD8361 EQ PUSH2 0x205 JUMPI DUP1 PUSH4 0xCEFBFA36 EQ PUSH2 0x247 JUMPI DUP1 PUSH4 0xD16827C6 EQ PUSH2 0x2D9 JUMPI PUSH2 0xEA JUMP JUMPDEST DUP1 PUSH4 0x89EBA421 GT PUSH2 0xC8 JUMPI DUP1 PUSH4 0x89EBA421 EQ PUSH2 0x184 JUMPI DUP1 PUSH4 0x8DA5CB5B EQ PUSH2 0x1A1 JUMPI DUP1 PUSH4 0xA21EFBDA EQ PUSH2 0x1C5 JUMPI DUP1 PUSH4 0xB6D5AAF6 EQ PUSH2 0x1CD JUMPI PUSH2 0xEA JUMP JUMPDEST DUP1 PUSH4 0xD53F0E1 EQ PUSH2 0xEF JUMPI DUP1 PUSH4 0x2E2B1F3C EQ PUSH2 0x12F JUMPI DUP1 PUSH4 0x73CB542F EQ PUSH2 0x15E JUMPI JUMPDEST PUSH1 0x0 DUP1 REVERT JUMPDEST PUSH2 0x12D PUSH1 0x4 DUP1 CALLDATASIZE SUB PUSH1 0xA0 DUP2 LT ISZERO PUSH2 0x105 JUMPI PUSH1 0x0 DUP1 REVERT JUMPDEST POP PUSH1 0x1 PUSH1 0x1 PUSH1 0xA0 SHL SUB DUP2 CALLDATALOAD AND SWAP1 PUSH1 0x20 DUP2 ADD CALLDATALOAD SWAP1 PUSH1 0x40 DUP2 ADD CALLDATALOAD SWAP1 PUSH1 0x60 DUP2 ADD CALLDATALOAD SWAP1 PUSH1 0x80 ADD CALLDATALOAD PUSH2 0x3E0 JUMP JUMPDEST STOP JUMPDEST PUSH2 0x14C PUSH1 0x4 DUP1 CALLDATASIZE SUB PUSH1 0x20 DUP2 LT ISZERO PUSH2 0x145 JUMPI PUSH1 0x0 DUP1 REVERT JUMPDEST POP CALLDATALOAD PUSH2 0x5C9 JUMP JUMPDEST PUSH1 0x40 DUP1 MLOAD SWAP2 DUP3 MSTORE MLOAD SWAP1 DUP2 SWAP1 SUB PUSH1 0x20 ADD SWAP1 RETURN JUMPDEST PUSH2 0x12D PUSH1 0x4 DUP1 CALLDATASIZE SUB PUSH1 0x20 DUP2 LT ISZERO PUSH2 0x174 JUMPI PUSH1 0x0 DUP1 REVERT JUMPDEST POP CALLDATALOAD PUSH1 0x1 PUSH1 0x1 PUSH1 0xA0 SHL SUB AND PUSH2 0x5DB JUMP JUMPDEST PUSH2 0x14C PUSH1 0x4 DUP1 CALLDATASIZE SUB PUSH1 0x20 DUP2 LT ISZERO PUSH2 0x19A JUMPI PUSH1 0x0 DUP1 REVERT JUMPDEST POP CALLDATALOAD PUSH2 0x69D JUMP JUMPDEST PUSH2 0x1A9 PUSH2 0x6AF JUMP JUMPDEST PUSH1 0x40 DUP1 MLOAD PUSH1 0x1 PUSH1 0x1 PUSH1 0xA0 SHL SUB SWAP1 SWAP3 AND DUP3 MSTORE MLOAD SWAP1 DUP2 SWAP1 SUB PUSH1 0x20 ADD SWAP1 RETURN JUMPDEST PUSH2 0x1A9 PUSH2 0x6BE JUMP JUMPDEST PUSH2 0x14C PUSH1 0x4 DUP1 CALLDATASIZE SUB PUSH1 0x80 DUP2 LT ISZERO PUSH2 0x1E3 JUMPI PUSH1 0x0 DUP1 REVERT JUMPDEST POP PUSH1 0x1 PUSH1 0x1 PUSH1 0xA0 SHL SUB DUP2 CALLDATALOAD AND SWAP1 PUSH1 0x20 DUP2 ADD CALLDATALOAD SWAP1 PUSH1 0x40 DUP2 ADD CALLDATALOAD SWAP1 PUSH1 0x60 ADD CALLDATALOAD PUSH2 0x6CD JUMP JUMPDEST PUSH2 0x14C PUSH1 0x4 DUP1 CALLDATASIZE SUB PUSH1 0xA0 DUP2 LT ISZERO PUSH2 0x21B JUMPI PUSH1 0x0 DUP1 REVERT JUMPDEST POP PUSH1 0x1 PUSH1 0x1 PUSH1 0xA0 SHL SUB DUP2 CALLDATALOAD DUP2 AND SWAP2 PUSH1 0x20 DUP2 ADD CALLDATALOAD SWAP2 PUSH1 0x40 DUP3 ADD CALLDATALOAD SWAP2 PUSH1 0x60 DUP2 ADD CALLDATALOAD SWAP2 PUSH1 0x80 SWAP1 SWAP2 ADD CALLDATALOAD AND PUSH2 0x7A1 JUMP JUMPDEST PUSH2 0x264 PUSH1 0x4 DUP1 CALLDATASIZE SUB PUSH1 0x20 DUP2 LT ISZERO PUSH2 0x25D JUMPI PUSH1 0x0 DUP1 REVERT JUMPDEST POP CALLDATALOAD PUSH2 0x88D JUMP JUMPDEST PUSH1 0x40 DUP1 MLOAD PUSH1 0x20 DUP1 DUP3 MSTORE DUP4 MLOAD DUP2 DUP4 ADD MSTORE DUP4 MLOAD SWAP2 SWAP3 DUP4 SWAP3 SWAP1 DUP4 ADD SWAP2 DUP6 ADD SWAP1 DUP1 DUP4 DUP4 PUSH1 0x0 JUMPDEST DUP4 DUP2 LT ISZERO PUSH2 0x29E JUMPI DUP2 DUP2 ADD MLOAD DUP4 DUP3 ADD MSTORE PUSH1 0x20 ADD PUSH2 0x286 JUMP JUMPDEST POP POP POP POP SWAP1 POP SWAP1 DUP2 ADD SWAP1 PUSH1 0x1F AND DUP1 ISZERO PUSH2 0x2CB JUMPI DUP1 DUP3 SUB DUP1 MLOAD PUSH1 0x1 DUP4 PUSH1 0x20 SUB PUSH2 0x100 EXP SUB NOT AND DUP2 MSTORE PUSH1 0x20 ADD SWAP2 POP JUMPDEST POP SWAP3 POP POP POP PUSH1 0x40 MLOAD DUP1 SWAP2 SUB SWAP1 RETURN JUMPDEST PUSH2 0x14C PUSH1 0x4 DUP1 CALLDATASIZE SUB PUSH1 0x80 DUP2 LT ISZERO PUSH2 0x2EF JUMPI PUSH1 0x0 DUP1 REVERT JUMPDEST POP PUSH1 0x1 PUSH1 0x1 PUSH1 0xA0 SHL SUB DUP2 CALLDATALOAD AND SWAP1 PUSH1 0x20 DUP2 ADD CALLDATALOAD SWAP1 PUSH1 0x40 DUP2 ADD CALLDATALOAD SWAP1 PUSH1 0x60 ADD CALLDATALOAD PUSH2 0x928 JUMP JUMPDEST PUSH2 0x12D PUSH1 0x4 DUP1 CALLDATASIZE SUB PUSH1 0xC0 DUP2 LT ISZERO PUSH2 0x327 JUMPI PUSH1 0x0 DUP1 REVERT JUMPDEST POP PUSH1 0x1 PUSH1 0x1 PUSH1 0xA0 SHL SUB DUP2 CALLDATALOAD DUP2 AND SWAP2 PUSH1 0x20 DUP2 ADD CALLDATALOAD SWAP2 PUSH1 0x40 DUP3 ADD CALLDATALOAD SWAP2 PUSH1 0x60 DUP2 ADD CALLDATALOAD SWAP2 PUSH1 0x80 DUP3 ADD CALLDATALOAD SWAP2 PUSH1 0xA0 ADD CALLDATALOAD AND PUSH2 0x9FC JUMP JUMPDEST PUSH2 0x14C PUSH1 0x4 DUP1 CALLDATASIZE SUB PUSH1 0x20 DUP2 LT ISZERO PUSH2 0x36D JUMPI PUSH1 0x0 DUP1 REVERT JUMPDEST POP CALLDATALOAD PUSH2 0xDF5 JUMP JUMPDEST PUSH2 0x12D PUSH1 0x4 DUP1 CALLDATASIZE SUB PUSH1 0xC0 DUP2 LT ISZERO PUSH2 0x38A JUMPI PUSH1 0x0 DUP1 REVERT JUMPDEST POP PUSH1 0x1 PUSH1 0x1 PUSH1 0xA0 SHL SUB DUP2 CALLDATALOAD DUP2 AND SWAP2 PUSH1 0x20 DUP2 ADD CALLDATALOAD SWAP2 PUSH1 0x40 DUP3 ADD CALLDATALOAD SWAP2 PUSH1 0x60 DUP2 ADD CALLDATALOAD SWAP2 PUSH1 0x80 DUP3 ADD CALLDATALOAD SWAP2 PUSH1 0xA0 ADD CALLDATALOAD AND PUSH2 0xE07 JUMP JUMPDEST PUSH2 0x12D PUSH1 0x4 DUP1 CALLDATASIZE SUB PUSH1 0x20 DUP2 LT ISZERO PUSH2 0x3D0 JUMPI PUSH1 0x0 DUP1 REVERT JUMPDEST POP CALLDATALOAD PUSH1 0x1 PUSH1 0x1 PUSH1 0xA0 SHL SUB AND PUSH2 0x1214 JUMP JUMPDEST PUSH1 0x1 SLOAD CALLER SWAP1 PUSH1 0x1 PUSH1 0x1 PUSH1 0xA0 SHL SUB AND PUSH2 0x432 JUMPI PUSH1 0x40 DUP1 MLOAD PUSH3 0x461BCD PUSH1 0xE5 SHL DUP2 MSTORE PUSH1 0x20 PUSH1 0x4 DUP3 ADD MSTORE PUSH1 0x10 PUSH1 0x24 DUP3 ADD MSTORE PUSH16 0x74727573746C6973742069732030783 PUSH1 0x84 SHL PUSH1 0x44 DUP3 ADD MSTORE SWAP1 MLOAD SWAP1 DUP2 SWAP1 SUB PUSH1 0x64 ADD SWAP1 REVERT JUMPDEST PUSH1 0x1 SLOAD PUSH1 0x40 DUP1 MLOAD PUSH4 0x21535225 PUSH1 0xE1 SHL DUP2 MSTORE PUSH1 0x1 PUSH1 0x1 PUSH1 0xA0 SHL SUB DUP5 DUP2 AND PUSH1 0x4 DUP4 ADD MSTORE SWAP2 MLOAD SWAP2 SWAP1 SWAP3 AND SWAP2 PUSH4 0x42A6A44A SWAP2 PUSH1 0x24 DUP1 DUP4 ADD SWAP3 PUSH1 0x20 SWAP3 SWAP2 SWAP1 DUP3 SWAP1 SUB ADD DUP2 PUSH1 0x0 DUP8 DUP1 EXTCODESIZE ISZERO DUP1 ISZERO PUSH2 0x481 JUMPI PUSH1 0x0 DUP1 REVERT JUMPDEST POP GAS CALL ISZERO DUP1 ISZERO PUSH2 0x495 JUMPI RETURNDATASIZE PUSH1 0x0 DUP1 RETURNDATACOPY RETURNDATASIZE PUSH1 0x0 REVERT JUMPDEST POP POP POP POP PUSH1 0x40 MLOAD RETURNDATASIZE PUSH1 0x20 DUP2 LT ISZERO PUSH2 0x4AB JUMPI PUSH1 0x0 DUP1 REVERT JUMPDEST POP MLOAD PUSH2 0x4F5 JUMPI PUSH1 0x40 DUP1 MLOAD PUSH3 0x461BCD PUSH1 0xE5 SHL DUP2 MSTORE PUSH1 0x20 PUSH1 0x4 DUP3 ADD MSTORE PUSH1 0x14 PUSH1 0x24 DUP3 ADD MSTORE PUSH20 0x3737BA1030903A393AB9BA32B21034B9B9BAB2B9 PUSH1 0x61 SHL PUSH1 0x44 DUP3 ADD MSTORE SWAP1 MLOAD SWAP1 DUP2 SWAP1 SUB PUSH1 0x64 ADD SWAP1 REVERT JUMPDEST PUSH1 0x0 DUP7 DUP7 DUP7 PUSH1 0x5 PUSH1 0x0 DUP9 DUP2 MSTORE PUSH1 0x20 ADD SWAP1 DUP2 MSTORE PUSH1 0x20 ADD PUSH1 0x0 KECCAK256 PUSH1 0x40 MLOAD PUSH1 0x20 ADD DUP1 DUP6 PUSH1 0x1 PUSH1 0x1 PUSH1 0xA0 SHL SUB AND PUSH1 0x1 PUSH1 0x1 PUSH1 0xA0 SHL SUB AND PUSH1 0x60 SHL DUP2 MSTORE PUSH1 0x14 ADD DUP5 DUP2 MSTORE PUSH1 0x20 ADD DUP4 DUP2 MSTORE PUSH1 0x20 ADD DUP3 DUP1 SLOAD PUSH1 0x1 DUP2 PUSH1 0x1 AND ISZERO PUSH2 0x100 MUL SUB AND PUSH1 0x2 SWAP1 DIV DUP1 ISZERO PUSH2 0x592 JUMPI DUP1 PUSH1 0x1F LT PUSH2 0x570 JUMPI PUSH2 0x100 DUP1 DUP4 SLOAD DIV MUL DUP4 MSTORE SWAP2 DUP3 ADD SWAP2 PUSH2 0x592 JUMP JUMPDEST DUP3 ADD SWAP2 SWAP1 PUSH1 0x0 MSTORE PUSH1 0x20 PUSH1 0x0 KECCAK256 SWAP1 JUMPDEST DUP2 SLOAD DUP2 MSTORE SWAP1 PUSH1 0x1 ADD SWAP1 PUSH1 0x20 ADD DUP1 DUP4 GT PUSH2 0x57E JUMPI JUMPDEST POP POP PUSH1 0x40 DUP1 MLOAD PUSH1 0x1F NOT DUP2 DUP5 SUB ADD DUP2 MSTORE SWAP2 DUP2 MSTORE DUP2 MLOAD PUSH1 0x20 SWAP3 DUP4 ADD KECCAK256 PUSH1 0x0 SWAP1 DUP2 MSTORE PUSH1 0x4 SWAP1 SWAP3 MSTORE SWAP1 KECCAK256 SWAP8 SWAP1 SWAP8 SSTORE POP POP POP POP POP POP POP POP POP POP POP JUMP JUMPDEST PUSH1 0x3 PUSH1 0x20 MSTORE PUSH1 0x0 SWAP1 DUP2 MSTORE PUSH1 0x40 SWAP1 KECCAK256 SLOAD DUP2 JUMP JUMPDEST PUSH1 0x0 SLOAD PUSH1 0x1 PUSH1 0x1 PUSH1 0xA0 SHL SUB AND CALLER EQ PUSH2 0x63A JUMPI PUSH1 0x40 DUP1 MLOAD PUSH3 0x461BCD PUSH1 0xE5 SHL DUP2 MSTORE PUSH1 0x20 PUSH1 0x4 DUP3 ADD DUP2 SWAP1 MSTORE PUSH1 0x24 DUP3 ADD MSTORE PUSH32 0x4F776E61626C653A2063616C6C6572206973206E6F7420746865206F776E6572 PUSH1 0x44 DUP3 ADD MSTORE SWAP1 MLOAD SWAP1 DUP2 SWAP1 SUB PUSH1 0x64 ADD SWAP1 REVERT JUMPDEST PUSH1 0x1 DUP1 SLOAD PUSH1 0x1 PUSH1 0x1 PUSH1 0xA0 SHL SUB DUP4 DUP2 AND PUSH1 0x1 PUSH1 0x1 PUSH1 0xA0 SHL SUB NOT DUP4 AND DUP2 OR SWAP1 SWAP4 SSTORE PUSH1 0x40 DUP1 MLOAD SWAP2 SWAP1 SWAP3 AND DUP1 DUP3 MSTORE PUSH1 0x20 DUP3 ADD SWAP4 SWAP1 SWAP4 MSTORE DUP2 MLOAD PUSH32 0xE19AFE89FCEE2A079DF148700E97F00EF22536AF2F5D98861AB7186C6C271070 SWAP3 SWAP2 DUP2 SWAP1 SUB SWAP1 SWAP2 ADD SWAP1 LOG1 POP POP JUMP JUMPDEST PUSH1 0x2 PUSH1 0x20 MSTORE PUSH1 0x0 SWAP1 DUP2 MSTORE PUSH1 0x40 SWAP1 KECCAK256 SLOAD DUP2 JUMP JUMPDEST PUSH1 0x0 SLOAD PUSH1 0x1 PUSH1 0x1 PUSH1 0xA0 SHL SUB AND SWAP1 JUMP JUMPDEST PUSH1 0x1 SLOAD PUSH1 0x1 PUSH1 0x1 PUSH1 0xA0 SHL SUB AND DUP2 JUMP JUMPDEST PUSH1 0x0 DUP1 DUP6 DUP6 DUP6 PUSH1 0x5 PUSH1 0x0 DUP8 DUP2 MSTORE PUSH1 0x20 ADD SWAP1 DUP2 MSTORE PUSH1 0x20 ADD PUSH1 0x0 KECCAK256 PUSH1 0x40 MLOAD PUSH1 0x20 ADD DUP1 DUP6 PUSH1 0x1 PUSH1 0x1 PUSH1 0xA0 SHL SUB AND PUSH1 0x1 PUSH1 0x1 PUSH1 0xA0 SHL SUB AND PUSH1 0x60 SHL DUP2 MSTORE PUSH1 0x14 ADD DUP5 DUP2 MSTORE PUSH1 0x20 ADD DUP4 DUP2 MSTORE PUSH1 0x20 ADD DUP3 DUP1 SLOAD PUSH1 0x1 DUP2 PUSH1 0x1 AND ISZERO PUSH2 0x100 MUL SUB AND PUSH1 0x2 SWAP1 DIV DUP1 ISZERO PUSH2 0x76B JUMPI DUP1 PUSH1 0x1F LT PUSH2 0x749 JUMPI PUSH2 0x100 DUP1 DUP4 SLOAD DIV MUL DUP4 MSTORE SWAP2 DUP3 ADD SWAP2 PUSH2 0x76B JUMP JUMPDEST DUP3 ADD SWAP2 SWAP1 PUSH1 0x0 MSTORE PUSH1 0x20 PUSH1 0x0 KECCAK256 SWAP1 JUMPDEST DUP2 SLOAD DUP2 MSTORE SWAP1 PUSH1 0x1 ADD SWAP1 PUSH1 0x20 ADD DUP1 DUP4 GT PUSH2 0x757 JUMPI JUMPDEST POP POP PUSH1 0x40 DUP1 MLOAD DUP1 DUP4 SUB PUSH1 0x1F NOT ADD DUP2 MSTORE SWAP2 DUP2 MSTORE DUP2 MLOAD PUSH1 0x20 SWAP3 DUP4 ADD KECCAK256 PUSH1 0x0 SWAP1 DUP2 MSTORE PUSH1 0x3 SWAP1 SWAP3 MSTORE SWAP1 KECCAK256 SLOAD SWAP12 SWAP11 POP POP POP POP POP POP POP POP POP POP POP JUMP JUMPDEST PUSH1 0x0 DUP1 DUP7 DUP7 DUP7 PUSH1 0x5 PUSH1 0x0 DUP9 DUP2 MSTORE PUSH1 0x20 ADD SWAP1 DUP2 MSTORE PUSH1 0x20 ADD PUSH1 0x0 KECCAK256 DUP7 PUSH1 0x40 MLOAD PUSH1 0x20 ADD DUP1 DUP7 PUSH1 0x1 PUSH1 0x1 PUSH1 0xA0 SHL SUB AND PUSH1 0x1 PUSH1 0x1 PUSH1 0xA0 SHL SUB AND PUSH1 0x60 SHL DUP2 MSTORE PUSH1 0x14 ADD DUP6 DUP2 MSTORE PUSH1 0x20 ADD DUP5 DUP2 MSTORE PUSH1 0x20 ADD DUP4 DUP1 SLOAD PUSH1 0x1 DUP2 PUSH1 0x1 AND ISZERO PUSH2 0x100 MUL SUB AND PUSH1 0x2 SWAP1 DIV DUP1 ISZERO PUSH2 0x840 JUMPI DUP1 PUSH1 0x1F LT PUSH2 0x81E JUMPI PUSH2 0x100 DUP1 DUP4 SLOAD DIV MUL DUP4 MSTORE SWAP2 DUP3 ADD SWAP2 PUSH2 0x840 JUMP JUMPDEST DUP3 ADD SWAP2 SWAP1 PUSH1 0x0 MSTORE PUSH1 0x20 PUSH1 0x0 KECCAK256 SWAP1 JUMPDEST DUP2 SLOAD DUP2 MSTORE SWAP1 PUSH1 0x1 ADD SWAP1 PUSH1 0x20 ADD DUP1 DUP4 GT PUSH2 0x82C JUMPI JUMPDEST POP POP PUSH1 0x60 SWAP3 SWAP1 SWAP3 SHL PUSH1 0x1 PUSH1 0x1 PUSH1 0x60 SHL SUB NOT AND DUP3 MSTORE POP PUSH1 0x40 DUP1 MLOAD DUP1 DUP4 SUB PUSH1 0xB NOT ADD DUP2 MSTORE PUSH1 0x14 SWAP1 SWAP3 ADD DUP2 MSTORE DUP2 MLOAD PUSH1 0x20 SWAP3 DUP4 ADD KECCAK256 PUSH1 0x0 SWAP1 DUP2 MSTORE PUSH1 0x2 SWAP1 SWAP3 MSTORE SWAP1 KECCAK256 SLOAD SWAP12 SWAP11 POP POP POP POP POP POP POP POP POP POP POP JUMP JUMPDEST PUSH1 0x5 PUSH1 0x20 SWAP1 DUP2 MSTORE PUSH1 0x0 SWAP2 DUP3 MSTORE PUSH1 0x40 SWAP2 DUP3 SWAP1 KECCAK256 DUP1 SLOAD DUP4 MLOAD PUSH1 0x1F PUSH1 0x2 PUSH1 0x0 NOT PUSH2 0x100 PUSH1 0x1 DUP7 AND ISZERO MUL ADD SWAP1 SWAP4 AND SWAP3 SWAP1 SWAP3 DIV SWAP2 DUP3 ADD DUP5 SWAP1 DIV DUP5 MUL DUP2 ADD DUP5 ADD SWAP1 SWAP5 MSTORE DUP1 DUP5 MSTORE SWAP1 SWAP2 DUP4 ADD DUP3 DUP3 DUP1 ISZERO PUSH2 0x920 JUMPI DUP1 PUSH1 0x1F LT PUSH2 0x8F5 JUMPI PUSH2 0x100 DUP1 DUP4 SLOAD DIV MUL DUP4 MSTORE SWAP2 PUSH1 0x20 ADD SWAP2 PUSH2 0x920 JUMP JUMPDEST DUP3 ADD SWAP2 SWAP1 PUSH1 0x0 MSTORE PUSH1 0x20 PUSH1 0x0 KECCAK256 SWAP1 JUMPDEST DUP2 SLOAD DUP2 MSTORE SWAP1 PUSH1 0x1 ADD SWAP1 PUSH1 0x20 ADD DUP1 DUP4 GT PUSH2 0x903 JUMPI DUP3 SWAP1 SUB PUSH1 0x1F AND DUP3 ADD SWAP2 JUMPDEST POP POP POP POP POP DUP2 JUMP JUMPDEST PUSH1 0x0 DUP1 DUP6 DUP6 DUP6 PUSH1 0x5 PUSH1 0x0 DUP8 DUP2 MSTORE PUSH1 0x20 ADD SWAP1 DUP2 MSTORE PUSH1 0x20 ADD PUSH1 0x0 KECCAK256 PUSH1 0x40 MLOAD PUSH1 0x20 ADD DUP1 DUP6 PUSH1 0x1 PUSH1 0x1 PUSH1 0xA0 SHL SUB AND PUSH1 0x1 PUSH1 0x1 PUSH1 0xA0 SHL SUB AND PUSH1 0x60 SHL DUP2 MSTORE PUSH1 0x14 ADD DUP5 DUP2 MSTORE PUSH1 0x20 ADD DUP4 DUP2 MSTORE PUSH1 0x20 ADD DUP3 DUP1 SLOAD PUSH1 0x1 DUP2 PUSH1 0x1 AND ISZERO PUSH2 0x100 MUL SUB AND PUSH1 0x2 SWAP1 DIV DUP1 ISZERO PUSH2 0x9C6 JUMPI DUP1 PUSH1 0x1F LT PUSH2 0x9A4 JUMPI PUSH2 0x100 DUP1 DUP4 SLOAD DIV MUL DUP4 MSTORE SWAP2 DUP3 ADD SWAP2 PUSH2 0x9C6 JUMP JUMPDEST DUP3 ADD SWAP2 SWAP1 PUSH1 0x0 MSTORE PUSH1 0x20 PUSH1 0x0 KECCAK256 SWAP1 JUMPDEST DUP2 SLOAD DUP2 MSTORE SWAP1 PUSH1 0x1 ADD SWAP1 PUSH1 0x20 ADD DUP1 DUP4 GT PUSH2 0x9B2 JUMPI JUMPDEST POP POP PUSH1 0x40 DUP1 MLOAD DUP1 DUP4 SUB PUSH1 0x1F NOT ADD DUP2 MSTORE SWAP2 DUP2 MSTORE DUP2 MLOAD PUSH1 0x20 SWAP3 DUP4 ADD KECCAK256 PUSH1 0x0 SWAP1 DUP2 MSTORE PUSH1 0x4 SWAP1 SWAP3 MSTORE SWAP1 KECCAK256 SLOAD SWAP12 SWAP11 POP POP POP POP POP POP POP POP POP POP POP JUMP JUMPDEST PUSH1 0x1 SLOAD CALLER SWAP1 PUSH1 0x1 PUSH1 0x1 PUSH1 0xA0 SHL SUB AND PUSH2 0xA4E JUMPI PUSH1 0x40 DUP1 MLOAD PUSH3 0x461BCD PUSH1 0xE5 SHL DUP2 MSTORE PUSH1 0x20 PUSH1 0x4 DUP3 ADD MSTORE PUSH1 0x10 PUSH1 0x24 DUP3 ADD MSTORE PUSH16 0x74727573746C6973742069732030783 PUSH1 0x84 SHL PUSH1 0x44 DUP3 ADD MSTORE SWAP1 MLOAD SWAP1 DUP2 SWAP1 SUB PUSH1 0x64 ADD SWAP1 REVERT JUMPDEST PUSH1 0x1 SLOAD PUSH1 0x40 DUP1 MLOAD PUSH4 0x21535225 PUSH1 0xE1 SHL DUP2 MSTORE PUSH1 0x1 PUSH1 0x1 PUSH1 0xA0 SHL SUB DUP5 DUP2 AND PUSH1 0x4 DUP4 ADD MSTORE SWAP2 MLOAD SWAP2 SWAP1 SWAP3 AND SWAP2 PUSH4 0x42A6A44A SWAP2 PUSH1 0x24 DUP1 DUP4 ADD SWAP3 PUSH1 0x20 SWAP3 SWAP2 SWAP1 DUP3 SWAP1 SUB ADD DUP2 PUSH1 0x0 DUP8 DUP1 EXTCODESIZE ISZERO DUP1 ISZERO PUSH2 0xA9D JUMPI PUSH1 0x0 DUP1 REVERT JUMPDEST POP GAS CALL ISZERO DUP1 ISZERO PUSH2 0xAB1 JUMPI RETURNDATASIZE PUSH1 0x0 DUP1 RETURNDATACOPY RETURNDATASIZE PUSH1 0x0 REVERT JUMPDEST POP POP POP POP PUSH1 0x40 MLOAD RETURNDATASIZE PUSH1 0x20 DUP2 LT ISZERO PUSH2 0xAC7 JUMPI PUSH1 0x0 DUP1 REVERT JUMPDEST POP MLOAD PUSH2 0xB11 JUMPI PUSH1 0x40 DUP1 MLOAD PUSH3 0x461BCD PUSH1 0xE5 SHL DUP2 MSTORE PUSH1 0x20 PUSH1 0x4 DUP3 ADD MSTORE PUSH1 0x14 PUSH1 0x24 DUP3 ADD MSTORE PUSH20 0x3737BA1030903A393AB9BA32B21034B9B9BAB2B9 PUSH1 0x61 SHL PUSH1 0x44 DUP3 ADD MSTORE SWAP1 MLOAD SWAP1 DUP2 SWAP1 SUB PUSH1 0x64 ADD SWAP1 REVERT JUMPDEST PUSH1 0x0 DUP8 DUP8 DUP8 PUSH1 0x5 PUSH1 0x0 DUP10 DUP2 MSTORE PUSH1 0x20 ADD SWAP1 DUP2 MSTORE PUSH1 0x20 ADD PUSH1 0x0 KECCAK256 DUP7 PUSH1 0x40 MLOAD PUSH1 0x20 ADD DUP1 DUP7 PUSH1 0x1 PUSH1 0x1 PUSH1 0xA0 SHL SUB AND PUSH1 0x1 PUSH1 0x1 PUSH1 0xA0 SHL SUB AND PUSH1 0x60 SHL DUP2 MSTORE PUSH1 0x14 ADD DUP6 DUP2 MSTORE PUSH1 0x20 ADD DUP5 DUP2 MSTORE PUSH1 0x20 ADD DUP4 DUP1 SLOAD PUSH1 0x1 DUP2 PUSH1 0x1 AND ISZERO PUSH2 0x100 MUL SUB AND PUSH1 0x2 SWAP1 DIV DUP1 ISZERO PUSH2 0xBAF JUMPI DUP1 PUSH1 0x1F LT PUSH2 0xB8D JUMPI PUSH2 0x100 DUP1 DUP4 SLOAD DIV MUL DUP4 MSTORE SWAP2 DUP3 ADD SWAP2 PUSH2 0xBAF JUMP JUMPDEST DUP3 ADD SWAP2 SWAP1 PUSH1 0x0 MSTORE PUSH1 0x20 PUSH1 0x0 KECCAK256 SWAP1 JUMPDEST DUP2 SLOAD DUP2 MSTORE SWAP1 PUSH1 0x1 ADD SWAP1 PUSH1 0x20 ADD DUP1 DUP4 GT PUSH2 0xB9B JUMPI JUMPDEST POP POP DUP3 PUSH1 0x1 PUSH1 0x1 PUSH1 0xA0 SHL SUB AND PUSH1 0x1 PUSH1 0x1 PUSH1 0xA0 SHL SUB AND PUSH1 0x60 SHL DUP2 MSTORE PUSH1 0x14 ADD SWAP6 POP POP POP POP POP POP PUSH1 0x40 MLOAD PUSH1 0x20 DUP2 DUP4 SUB SUB DUP2 MSTORE SWAP1 PUSH1 0x40 MSTORE DUP1 MLOAD SWAP1 PUSH1 0x20 ADD KECCAK256 SWAP1 POP PUSH1 0x2 PUSH1 0x0 DUP3 DUP2 MSTORE PUSH1 0x20 ADD SWAP1 DUP2 MSTORE PUSH1 0x20 ADD PUSH1 0x0 KECCAK256 SLOAD PUSH20 0x0 PUSH4 0xE6CB9013 SWAP1 SWAP2 DUP7 PUSH1 0x40 MLOAD DUP4 PUSH4 0xFFFFFFFF AND PUSH1 0xE0 SHL DUP2 MSTORE PUSH1 0x4 ADD DUP1 DUP4 DUP2 MSTORE PUSH1 0x20 ADD DUP3 DUP2 MSTORE PUSH1 0x20 ADD SWAP3 POP POP POP PUSH1 0x20 PUSH1 0x40 MLOAD DUP1 DUP4 SUB DUP2 DUP7 DUP1 EXTCODESIZE ISZERO DUP1 ISZERO PUSH2 0xC57 JUMPI PUSH1 0x0 DUP1 REVERT JUMPDEST POP GAS DELEGATECALL ISZERO DUP1 ISZERO PUSH2 0xC6B JUMPI RETURNDATASIZE PUSH1 0x0 DUP1 RETURNDATACOPY RETURNDATASIZE PUSH1 0x0 REVERT JUMPDEST POP POP POP POP PUSH1 0x40 MLOAD RETURNDATASIZE PUSH1 0x20 DUP2 LT ISZERO PUSH2 0xC81 JUMPI PUSH1 0x0 DUP1 REVERT JUMPDEST POP MLOAD PUSH1 0x0 DUP3 DUP2 MSTORE PUSH1 0x2 PUSH1 0x20 DUP2 DUP2 MSTORE PUSH1 0x40 DUP1 DUP5 KECCAK256 SWAP5 SWAP1 SWAP5 SSTORE DUP9 DUP4 MSTORE PUSH1 0x5 DUP2 MSTORE SWAP2 DUP4 SWAP1 KECCAK256 SWAP3 MLOAD PUSH1 0x1 PUSH1 0x1 PUSH1 0x60 SHL SUB NOT PUSH1 0x60 DUP14 SWAP1 SHL AND SWAP3 DUP2 ADD SWAP3 DUP4 MSTORE PUSH1 0x34 DUP2 ADD DUP12 SWAP1 MSTORE PUSH1 0x54 DUP2 ADD DUP11 SWAP1 MSTORE DUP4 SLOAD DUP13 SWAP5 DUP13 SWAP5 DUP13 SWAP5 SWAP2 SWAP4 SWAP1 SWAP3 PUSH1 0x74 SWAP1 SWAP2 ADD SWAP2 DUP5 SWAP2 PUSH1 0x0 NOT PUSH2 0x100 PUSH1 0x1 DUP4 AND ISZERO MUL ADD AND DIV DUP1 ISZERO PUSH2 0xD2E JUMPI DUP1 PUSH1 0x1F LT PUSH2 0xD0C JUMPI PUSH2 0x100 DUP1 DUP4 SLOAD DIV MUL DUP4 MSTORE SWAP2 DUP3 ADD SWAP2 PUSH2 0xD2E JUMP JUMPDEST DUP3 ADD SWAP2 SWAP1 PUSH1 0x0 MSTORE PUSH1 0x20 PUSH1 0x0 KECCAK256 SWAP1 JUMPDEST DUP2 SLOAD DUP2 MSTORE SWAP1 PUSH1 0x1 ADD SWAP1 PUSH1 0x20 ADD DUP1 DUP4 GT PUSH2 0xD1A JUMPI JUMPDEST POP POP PUSH1 0x40 DUP1 MLOAD PUSH1 0x1F NOT DUP2 DUP5 SUB ADD DUP2 MSTORE DUP3 DUP3 MSTORE DUP1 MLOAD PUSH1 0x20 SWAP2 DUP3 ADD KECCAK256 PUSH1 0x0 DUP2 DUP2 MSTORE PUSH1 0x3 DUP4 MSTORE DUP4 SWAP1 KECCAK256 SLOAD PUSH4 0xE6CB9013 PUSH1 0xE0 SHL DUP6 MSTORE PUSH1 0x4 DUP6 ADD MSTORE PUSH1 0x24 DUP5 ADD DUP14 SWAP1 MSTORE SWAP2 MLOAD SWAP2 SWAP9 POP PUSH20 0x0 SWAP8 POP PUSH4 0xE6CB9013 SWAP7 POP PUSH1 0x44 DUP1 DUP5 ADD SWAP7 POP SWAP1 SWAP5 POP SWAP1 SWAP3 POP SWAP1 DUP3 SWAP1 SUB ADD DUP2 DUP7 DUP1 EXTCODESIZE ISZERO DUP1 ISZERO PUSH2 0xDB0 JUMPI PUSH1 0x0 DUP1 REVERT JUMPDEST POP GAS DELEGATECALL ISZERO DUP1 ISZERO PUSH2 0xDC4 JUMPI RETURNDATASIZE PUSH1 0x0 DUP1 RETURNDATACOPY RETURNDATASIZE PUSH1 0x0 REVERT JUMPDEST POP POP POP POP PUSH1 0x40 MLOAD RETURNDATASIZE PUSH1 0x20 DUP2 LT ISZERO PUSH2 0xDDA JUMPI PUSH1 0x0 DUP1 REVERT JUMPDEST POP MLOAD PUSH1 0x0 SWAP2 DUP3 MSTORE PUSH1 0x3 PUSH1 0x20 MSTORE PUSH1 0x40 SWAP1 SWAP2 KECCAK256 SSTORE POP POP POP POP POP POP POP JUMP JUMPDEST PUSH1 0x4 PUSH1 0x20 MSTORE PUSH1 0x0 SWAP1 DUP2 MSTORE PUSH1 0x40 SWAP1 KECCAK256 SLOAD DUP2 JUMP JUMPDEST PUSH1 0x1 SLOAD CALLER SWAP1 PUSH1 0x1 PUSH1 0x1 PUSH1 0xA0 SHL SUB AND PUSH2 0xE59 JUMPI PUSH1 0x40 DUP1 MLOAD PUSH3 0x461BCD PUSH1 0xE5 SHL DUP2 MSTORE PUSH1 0x20 PUSH1 0x4 DUP3 ADD MSTORE PUSH1 0x10 PUSH1 0x24 DUP3 ADD MSTORE PUSH16 0x74727573746C6973742069732030783 PUSH1 0x84 SHL PUSH1 0x44 DUP3 ADD MSTORE SWAP1 MLOAD SWAP1 DUP2 SWAP1 SUB PUSH1 0x64 ADD SWAP1 REVERT JUMPDEST PUSH1 0x1 SLOAD PUSH1 0x40 DUP1 MLOAD PUSH4 0x21535225 PUSH1 0xE1 SHL DUP2 MSTORE PUSH1 0x1 PUSH1 0x1 PUSH1 0xA0 SHL SUB DUP5 DUP2 AND PUSH1 0x4 DUP4 ADD MSTORE SWAP2 MLOAD SWAP2 SWAP1 SWAP3 AND SWAP2 PUSH4 0x42A6A44A SWAP2 PUSH1 0x24 DUP1 DUP4 ADD SWAP3 PUSH1 0x20 SWAP3 SWAP2 SWAP1 DUP3 SWAP1 SUB ADD DUP2 PUSH1 0x0 DUP8 DUP1 EXTCODESIZE ISZERO DUP1 ISZERO PUSH2 0xEA8 JUMPI PUSH1 0x0 DUP1 REVERT JUMPDEST POP GAS CALL ISZERO DUP1 ISZERO PUSH2 0xEBC JUMPI RETURNDATASIZE PUSH1 0x0 DUP1 RETURNDATACOPY RETURNDATASIZE PUSH1 0x0 REVERT JUMPDEST POP POP POP POP PUSH1 0x40 MLOAD RETURNDATASIZE PUSH1 0x20 DUP2 LT ISZERO PUSH2 0xED2 JUMPI PUSH1 0x0 DUP1 REVERT JUMPDEST POP MLOAD PUSH2 0xF1C JUMPI PUSH1 0x40 DUP1 MLOAD PUSH3 0x461BCD PUSH1 0xE5 SHL DUP2 MSTORE PUSH1 0x20 PUSH1 0x4 DUP3 ADD MSTORE PUSH1 0x14 PUSH1 0x24 DUP3 ADD MSTORE PUSH20 0x3737BA1030903A393AB9BA32B21034B9B9BAB2B9 PUSH1 0x61 SHL PUSH1 0x44 DUP3 ADD MSTORE SWAP1 MLOAD SWAP1 DUP2 SWAP1 SUB PUSH1 0x64 ADD SWAP1 REVERT JUMPDEST PUSH1 0x0 DUP8 DUP8 DUP8 PUSH1 0x5 PUSH1 0x0 DUP10 DUP2 MSTORE PUSH1 0x20 ADD SWAP1 DUP2 MSTORE PUSH1 0x20 ADD PUSH1 0x0 KECCAK256 DUP7 PUSH1 0x40 MLOAD PUSH1 0x20 ADD DUP1 DUP7 PUSH1 0x1 PUSH1 0x1 PUSH1 0xA0 SHL SUB AND PUSH1 0x1 PUSH1 0x1 PUSH1 0xA0 SHL SUB AND PUSH1 0x60 SHL DUP2 MSTORE PUSH1 0x14 ADD DUP6 DUP2 MSTORE PUSH1 0x20 ADD DUP5 DUP2 MSTORE PUSH1 0x20 ADD DUP4 DUP1 SLOAD PUSH1 0x1 DUP2 PUSH1 0x1 AND ISZERO PUSH2 0x100 MUL SUB AND PUSH1 0x2 SWAP1 DIV DUP1 ISZERO PUSH2 0xFBA JUMPI DUP1 PUSH1 0x1F LT PUSH2 0xF98 JUMPI PUSH2 0x100 DUP1 DUP4 SLOAD DIV MUL DUP4 MSTORE SWAP2 DUP3 ADD SWAP2 PUSH2 0xFBA JUMP JUMPDEST DUP3 ADD SWAP2 SWAP1 PUSH1 0x0 MSTORE PUSH1 0x20 PUSH1 0x0 KECCAK256 SWAP1 JUMPDEST DUP2 SLOAD DUP2 MSTORE SWAP1 PUSH1 0x1 ADD SWAP1 PUSH1 0x20 ADD DUP1 DUP4 GT PUSH2 0xFA6 JUMPI JUMPDEST POP POP DUP3 PUSH1 0x1 PUSH1 0x1 PUSH1 0xA0 SHL SUB AND PUSH1 0x1 PUSH1 0x1 PUSH1 0xA0 SHL SUB AND PUSH1 0x60 SHL DUP2 MSTORE PUSH1 0x14 ADD SWAP6 POP POP POP POP POP POP PUSH1 0x40 MLOAD PUSH1 0x20 DUP2 DUP4 SUB SUB DUP2 MSTORE SWAP1 PUSH1 0x40 MSTORE DUP1 MLOAD SWAP1 PUSH1 0x20 ADD KECCAK256 SWAP1 POP DUP4 PUSH1 0x2 PUSH1 0x0 DUP4 DUP2 MSTORE PUSH1 0x20 ADD SWAP1 DUP2 MSTORE PUSH1 0x20 ADD PUSH1 0x0 KECCAK256 SLOAD LT ISZERO PUSH2 0x1053 JUMPI PUSH1 0x40 DUP1 MLOAD PUSH3 0x461BCD PUSH1 0xE5 SHL DUP2 MSTORE PUSH1 0x20 PUSH1 0x4 DUP3 ADD MSTORE PUSH1 0x12 PUSH1 0x24 DUP3 ADD MSTORE PUSH18 0x6E6F7420656E6F7567682062616C616E6365 PUSH1 0x70 SHL PUSH1 0x44 DUP3 ADD MSTORE SWAP1 MLOAD SWAP1 DUP2 SWAP1 SUB PUSH1 0x64 ADD SWAP1 REVERT JUMPDEST PUSH1 0x0 DUP2 DUP2 MSTORE PUSH1 0x2 PUSH1 0x20 SWAP1 DUP2 MSTORE PUSH1 0x40 SWAP2 DUP3 SWAP1 KECCAK256 SLOAD DUP3 MLOAD PUSH4 0x14527A3D PUSH1 0xE3 SHL DUP2 MSTORE PUSH1 0x4 DUP2 ADD SWAP2 SWAP1 SWAP2 MSTORE PUSH1 0x24 DUP2 ADD DUP8 SWAP1 MSTORE SWAP2 MLOAD PUSH20 0x0 SWAP3 PUSH4 0xA293D1E8 SWAP3 PUSH1 0x44 DUP1 DUP4 ADD SWAP4 SWAP2 SWAP3 DUP3 SWAP1 SUB ADD DUP2 DUP7 DUP1 EXTCODESIZE ISZERO DUP1 ISZERO PUSH2 0x10BB JUMPI PUSH1 0x0 DUP1 REVERT JUMPDEST POP GAS DELEGATECALL ISZERO DUP1 ISZERO PUSH2 0x10CF JUMPI RETURNDATASIZE PUSH1 0x0 DUP1 RETURNDATACOPY RETURNDATASIZE PUSH1 0x0 REVERT JUMPDEST POP POP POP POP PUSH1 0x40 MLOAD RETURNDATASIZE PUSH1 0x20 DUP2 LT ISZERO PUSH2 0x10E5 JUMPI PUSH1 0x0 DUP1 REVERT JUMPDEST POP MLOAD PUSH1 0x0 DUP3 DUP2 MSTORE PUSH1 0x2 PUSH1 0x20 DUP2 DUP2 MSTORE PUSH1 0x40 DUP1 DUP5 KECCAK256 SWAP5 SWAP1 SWAP5 SSTORE DUP9 DUP4 MSTORE PUSH1 0x5 DUP2 MSTORE SWAP2 DUP4 SWAP1 KECCAK256 SWAP3 MLOAD PUSH1 0x1 PUSH1 0x1 PUSH1 0x60 SHL SUB NOT PUSH1 0x60 DUP14 SWAP1 SHL AND SWAP3 DUP2 ADD SWAP3 DUP4 MSTORE PUSH1 0x34 DUP2 ADD DUP12 SWAP1 MSTORE PUSH1 0x54 DUP2 ADD DUP11 SWAP1 MSTORE DUP4 SLOAD DUP13 SWAP5 DUP13 SWAP5 DUP13 SWAP5 SWAP2 SWAP4 SWAP1 SWAP3 PUSH1 0x74 SWAP1 SWAP2 ADD SWAP2 DUP5 SWAP2 PUSH1 0x0 NOT PUSH2 0x100 PUSH1 0x1 DUP4 AND ISZERO MUL ADD AND DIV DUP1 ISZERO PUSH2 0x1192 JUMPI DUP1 PUSH1 0x1F LT PUSH2 0x1170 JUMPI PUSH2 0x100 DUP1 DUP4 SLOAD DIV MUL DUP4 MSTORE SWAP2 DUP3 ADD SWAP2 PUSH2 0x1192 JUMP JUMPDEST DUP3 ADD SWAP2 SWAP1 PUSH1 0x0 MSTORE PUSH1 0x20 PUSH1 0x0 KECCAK256 SWAP1 JUMPDEST DUP2 SLOAD DUP2 MSTORE SWAP1 PUSH1 0x1 ADD SWAP1 PUSH1 0x20 ADD DUP1 DUP4 GT PUSH2 0x117E JUMPI JUMPDEST POP POP PUSH1 0x40 DUP1 MLOAD PUSH1 0x1F NOT DUP2 DUP5 SUB ADD DUP2 MSTORE DUP3 DUP3 MSTORE DUP1 MLOAD PUSH1 0x20 SWAP2 DUP3 ADD KECCAK256 PUSH1 0x0 DUP2 DUP2 MSTORE PUSH1 0x3 DUP4 MSTORE DUP4 SWAP1 KECCAK256 SLOAD PUSH4 0x14527A3D PUSH1 0xE3 SHL DUP6 MSTORE PUSH1 0x4 DUP6 ADD MSTORE PUSH1 0x24 DUP5 ADD DUP14 SWAP1 MSTORE SWAP2 MLOAD SWAP2 SWAP9 POP PUSH20 0x0 SWAP8 POP PUSH4 0xA293D1E8 SWAP7 POP PUSH1 0x44 DUP1 DUP5 ADD SWAP7 POP SWAP1 SWAP5 POP SWAP1 SWAP3 POP SWAP1 DUP3 SWAP1 SUB ADD DUP2 DUP7 DUP1 EXTCODESIZE ISZERO DUP1 ISZERO PUSH2 0xDB0 JUMPI PUSH1 0x0 DUP1 REVERT JUMPDEST PUSH1 0x0 SLOAD PUSH1 0x1 PUSH1 0x1 PUSH1 0xA0 SHL SUB AND CALLER EQ PUSH2 0x1273 JUMPI PUSH1 0x40 DUP1 MLOAD PUSH3 0x461BCD PUSH1 0xE5 SHL DUP2 MSTORE PUSH1 0x20 PUSH1 0x4 DUP3 ADD DUP2 SWAP1 MSTORE PUSH1 0x24 DUP3 ADD MSTORE PUSH32 0x4F776E61626C653A2063616C6C6572206973206E6F7420746865206F776E6572 PUSH1 0x44 DUP3 ADD MSTORE SWAP1 MLOAD SWAP1 DUP2 SWAP1 SUB PUSH1 0x64 ADD SWAP1 REVERT JUMPDEST PUSH2 0x127C DUP2 PUSH2 0x127F JUMP JUMPDEST POP JUMP JUMPDEST PUSH1 0x1 PUSH1 0x1 PUSH1 0xA0 SHL SUB DUP2 AND PUSH2 0x12C4 JUMPI PUSH1 0x40 MLOAD PUSH3 0x461BCD PUSH1 0xE5 SHL DUP2 MSTORE PUSH1 0x4 ADD DUP1 DUP1 PUSH1 0x20 ADD DUP3 DUP2 SUB DUP3 MSTORE PUSH1 0x26 DUP2 MSTORE PUSH1 0x20 ADD DUP1 PUSH2 0x1320 PUSH1 0x26 SWAP2 CODECOPY PUSH1 0x40 ADD SWAP2 POP POP PUSH1 0x40 MLOAD DUP1 SWAP2 SUB SWAP1 REVERT JUMPDEST PUSH1 0x0 DUP1 SLOAD PUSH1 0x40 MLOAD PUSH1 0x1 PUSH1 0x1 PUSH1 0xA0 SHL SUB DUP1 DUP6 AND SWAP4 SWAP3 AND SWAP2 PUSH32 0x8BE0079C531659141344CD1FD0A4F28419497F9722A3DAAFE3B4186F6B6457E0 SWAP2 LOG3 PUSH1 0x0 DUP1 SLOAD PUSH1 0x1 PUSH1 0x1 PUSH1 0xA0 SHL SUB NOT AND PUSH1 0x1 PUSH1 0x1 PUSH1 0xA0 SHL SUB SWAP3 SWAP1 SWAP3 AND SWAP2 SWAP1 SWAP2 OR SWAP1 SSTORE JUMP INVALID 0x4f PUSH24 0x6E61626C653A206E6577206F776E65722069732074686520 PUSH27 0x65726F2061646472657373A265627A7A723058203EA559714281BF CALLVALUE EQ 0xc NOT CODECOPY MUL 0xb3 0x23 PUSH31 0xEBBEA5F9F86448D7E846685133DDC45464736F6C634300050A0032A265627A PUSH27 0x72305820860C512167205740B87530D6FF4C2A9006619F4D0B3EF8 0xe PUSH30 0x31A4FECCB9721F64736F6C634300050A0032000000000000000000000000 ",
  "sha1": "5b995ee8c9264f316151befeae6f790a1b6450c4",
  "source": "pragma solidity >=0.4.21 <0.6.0;\nimport \"../TrustListTools.sol\";\nimport \"../utils/SafeMath.sol\";\n\ncontract HTokenAggregator is TrustListTools{\n    using SafeMath for uint256;\n    mapping (bytes32 => uint256) public balance;\n    mapping (bytes32 => uint256) public total_supply;\n    mapping (bytes32 => uint256) public ratio_to_target;\n\n    mapping (uint256 => string) public types;\n    constructor() public{\n        types[1] = \"horizon_in\";\n        types[2] = \"horizon_out\";\n        types[3] = \"horizon_long\";\n    }\n    function mint(address gk, uint256 round, uint256 ratio, uint256 _type, uint256 amount, address recv) public is_trusted(msg.sender){\n        bytes32 hash_ = keccak256(abi.encodePacked(gk, round, ratio, types[_type], recv));\n        balance[hash_] = balance[hash_].safeAdd(amount);\n        hash_ =  keccak256(abi.encodePacked(gk, round, ratio, types[_type]));\n        total_supply[hash_] = total_supply[hash_].safeAdd(amount);\n    }\n    function burn(address gk, uint256 round, uint256 ratio, uint256 _type, uint256 amount, address recv) public is_trusted(msg.sender){\n        bytes32 hash_ = keccak256(abi.encodePacked(gk, round, ratio, types[_type], recv));\n        require(balance[hash_] >= amount, \"not enough balance\");\n        balance[hash_] = balance[hash_].safeSub(amount);       \n        hash_ =  keccak256(abi.encodePacked(gk, round, ratio, types[_type]));\n        total_supply[hash_] = total_supply[hash_].safeSub(amount);\n    }\n    function balanceOf(address gk, uint256 round, uint256 ratio, uint256 _type, address recv) public view returns(uint256){\n        bytes32 hash_ = keccak256(abi.encodePacked(gk, round, ratio, types[_type], recv));\n        return balance[hash_];\n    }\n    function totalSupply(address gk, uint256 round, uint256 ratio, uint256 _type) public view returns(uint256){\n        bytes32 hash_ = keccak256(abi.encodePacked(gk, round, ratio, types[_type]));\n        return total_supply[hash_];\n    }\n    function getRatioTo(address gk, uint256 round, uint256 ratio, uint256 _type) public view returns(uint256){\n        bytes32 hash_ = keccak256(abi.encodePacked(gk, round, ratio, types[_type]));\n        return ratio_to_target[hash_];\n    }\n    function setRatioTo(address gk, uint256 round, uint256 ratio, uint256 _type, uint256 ratio_to) public is_trusted(msg.sender){\n        bytes32 hash_ = keccak256(abi.encodePacked(gk, round, ratio, types[_type]));\n        ratio_to_target[hash_] = ratio_to;\n    }\n}\n\ncontract HTokenAggregatorFactory{\n  event NewHTokenAggregator(address addr);\n\n  function createHTokenAggregator() public returns(address){\n      HTokenAggregator dis = new HTokenAggregator();\n      dis.transferOwnership(msg.sender);\n      emit NewHTokenAggregator(address(dis));\n      return address(dis);\n  }\n}\n",
  "sourcePath": "contracts/core/HTokenAggregator.sol",
  "type": "contract"
}