{
  "abi": [
    {
      "constant": true,
      "inputs": [],
      "name": "name",
      "outputs": [
        {
          "name": "",
          "type": "string"
        }
      ],
      "payable": false,
      "stateMutability": "view",
      "type": "function"
    },
    {
      "constant": true,
      "inputs": [],
      "name": "getDecimal",
      "outputs": [
        {
          "name": "",
          "type": "uint256"
        }
      ],
      "payable": false,
      "stateMutability": "pure",
      "type": "function"
    },
    {
      "constant": true,
      "inputs": [],
      "name": "getyCRVPrice",
      "outputs": [
        {
          "name": "",
          "type": "uint256"
        }
      ],
      "payable": false,
      "stateMutability": "view",
      "type": "function"
    },
    {
      "constant": true,
      "inputs": [],
      "name": "ycrv_address",
      "outputs": [
        {
          "name": "",
          "type": "address"
        }
      ],
      "payable": false,
      "stateMutability": "view",
      "type": "function"
    },
    {
      "constant": true,
      "inputs": [],
      "name": "getPriceDecimal",
      "outputs": [
        {
          "name": "",
          "type": "uint256"
        }
      ],
      "payable": false,
      "stateMutability": "pure",
      "type": "function"
    },
    {
      "constant": true,
      "inputs": [],
      "name": "getyyCRVPrice",
      "outputs": [
        {
          "name": "",
          "type": "uint256"
        }
      ],
      "payable": false,
      "stateMutability": "view",
      "type": "function"
    },
    {
      "constant": true,
      "inputs": [],
      "name": "getVirtualPrice",
      "outputs": [
        {
          "name": "",
          "type": "uint256"
        }
      ],
      "payable": false,
      "stateMutability": "view",
      "type": "function"
    },
    {
      "constant": true,
      "inputs": [],
      "name": "yycrv_address",
      "outputs": [
        {
          "name": "",
          "type": "address"
        }
      ],
      "payable": false,
      "stateMutability": "view",
      "type": "function"
    },
    {
      "constant": true,
      "inputs": [],
      "name": "target_token",
      "outputs": [
        {
          "name": "",
          "type": "address"
        }
      ],
      "payable": false,
      "stateMutability": "view",
      "type": "function"
    },
    {
      "inputs": [],
      "payable": false,
      "stateMutability": "nonpayable",
      "type": "constructor"
    }
  ],
  "bytecode": "608060405234801561001057600080fd5b506040805180820190915260118082527f79555344207969656c642073747265616d0000000000000000000000000000006020909201918252610055916000916100a3565b50600180546001600160a01b0319908116735dbcf33d8c2e976c6b560249878e6f1491bca25c17909155600280549091167345f783cce6b7ff23b2ab2d70e416cdb7d6055f5117905561013e565b828054600181600116156101000203166002900490600052602060002090601f016020900481019282601f106100e457805160ff1916838001178555610111565b82800160010185558215610111579182015b828111156101115782518255916020019190600101906100f6565b5061011d929150610121565b5090565b61013b91905b8082111561011d5760008155600101610127565b90565b6103648061014d6000396000f3fe608060405234801561001057600080fd5b50600436106100935760003560e01c8063979a5dee11610066578063979a5dee14610115578063d65acc2a1461015b578063e25aa5fa14610163578063e7cd720a1461016b578063f51f74961461017357610093565b806306fdde031461009857806334ce10c41461011557806349d29f581461012f5780637c5d1a3514610137575b600080fd5b6100a061017b565b6040805160208082528351818301528351919283929083019185019080838360005b838110156100da5781810151838201526020016100c2565b50505050905090810190601f1680156101075780820380516001836020036101000a031916815260200191505b509250505060405180910390f35b61011d610209565b60408051918252519081900360200190f35b61011d610215565b61013f61028b565b604080516001600160a01b039092168252519081900360200190f35b61011d61029a565b61011d6102df565b61013f610308565b61013f610317565b6000805460408051602060026001851615610100026000190190941693909304601f810184900484028201840190925281815292918301828280156102015780601f106101d657610100808354040283529160200191610201565b820191906000526020600020905b8154815290600101906020018083116101e457829003601f168201915b505050505081565b670de0b6b3a764000090565b60025460408051630176f71760e71b815290516000926001600160a01b03169163bb7b8b80916004808301926020929190829003018186803b15801561025a57600080fd5b505afa15801561026e573d6000803e3d6000fd5b505050506040513d602081101561028457600080fd5b5051905090565b6002546001600160a01b031681565b60015460408051631df1ee3f60e21b815290516000926001600160a01b0316916377c7b8fc916004808301926020929190829003018186803b15801561025a57600080fd5b6000670de0b6b3a76400006102f2610215565b6102fa61029a565b028161030257fe5b04905090565b6001546001600160a01b031681565b735dbcf33d8c2e976c6b560249878e6f1491bca25c9056fea265627a7a72305820b1890cfe86192c849db9c05e2f769db03e8b54a21c9da6f97bb82c53f75793cb64736f6c634300050a0032",
  "bytecodeSha1": "3f5022cd779f3c7f28a1019cd4ec2a7c487dd2dc",
  "compiler": {
    "evm_version": "petersburg",
    "optimizer": {
      "enabled": true,
      "runs": 200
    },
    "version": "0.5.10+commit.5a6ea5b1"
  },
  "contractName": "yUSDStream",
  "language": "Solidity",
  "natspec": {
    "methods": {}
  },
  "opcodes": "PUSH1 0x80 PUSH1 0x40 MSTORE CALLVALUE DUP1 ISZERO PUSH2 0x10 JUMPI PUSH1 0x0 DUP1 REVERT JUMPDEST POP PUSH1 0x4 CALLDATASIZE LT PUSH2 0x93 JUMPI PUSH1 0x0 CALLDATALOAD PUSH1 0xE0 SHR DUP1 PUSH4 0x979A5DEE GT PUSH2 0x66 JUMPI DUP1 PUSH4 0x979A5DEE EQ PUSH2 0x115 JUMPI DUP1 PUSH4 0xD65ACC2A EQ PUSH2 0x15B JUMPI DUP1 PUSH4 0xE25AA5FA EQ PUSH2 0x163 JUMPI DUP1 PUSH4 0xE7CD720A EQ PUSH2 0x16B JUMPI DUP1 PUSH4 0xF51F7496 EQ PUSH2 0x173 JUMPI PUSH2 0x93 JUMP JUMPDEST DUP1 PUSH4 0x6FDDE03 EQ PUSH2 0x98 JUMPI DUP1 PUSH4 0x34CE10C4 EQ PUSH2 0x115 JUMPI DUP1 PUSH4 0x49D29F58 EQ PUSH2 0x12F JUMPI DUP1 PUSH4 0x7C5D1A35 EQ PUSH2 0x137 JUMPI JUMPDEST PUSH1 0x0 DUP1 REVERT JUMPDEST PUSH2 0xA0 PUSH2 0x17B JUMP JUMPDEST PUSH1 0x40 DUP1 MLOAD PUSH1 0x20 DUP1 DUP3 MSTORE DUP4 MLOAD DUP2 DUP4 ADD MSTORE DUP4 MLOAD SWAP2 SWAP3 DUP4 SWAP3 SWAP1 DUP4 ADD SWAP2 DUP6 ADD SWAP1 DUP1 DUP4 DUP4 PUSH1 0x0 JUMPDEST DUP4 DUP2 LT ISZERO PUSH2 0xDA JUMPI DUP2 DUP2 ADD MLOAD DUP4 DUP3 ADD MSTORE PUSH1 0x20 ADD PUSH2 0xC2 JUMP JUMPDEST POP POP POP POP SWAP1 POP SWAP1 DUP2 ADD SWAP1 PUSH1 0x1F AND DUP1 ISZERO PUSH2 0x107 JUMPI DUP1 DUP3 SUB DUP1 MLOAD PUSH1 0x1 DUP4 PUSH1 0x20 SUB PUSH2 0x100 EXP SUB NOT AND DUP2 MSTORE PUSH1 0x20 ADD SWAP2 POP JUMPDEST POP SWAP3 POP POP POP PUSH1 0x40 MLOAD DUP1 SWAP2 SUB SWAP1 RETURN JUMPDEST PUSH2 0x11D PUSH2 0x209 JUMP JUMPDEST PUSH1 0x40 DUP1 MLOAD SWAP2 DUP3 MSTORE MLOAD SWAP1 DUP2 SWAP1 SUB PUSH1 0x20 ADD SWAP1 RETURN JUMPDEST PUSH2 0x11D PUSH2 0x215 JUMP JUMPDEST PUSH2 0x13F PUSH2 0x28B JUMP JUMPDEST PUSH1 0x40 DUP1 MLOAD PUSH1 0x1 PUSH1 0x1 PUSH1 0xA0 SHL SUB SWAP1 SWAP3 AND DUP3 MSTORE MLOAD SWAP1 DUP2 SWAP1 SUB PUSH1 0x20 ADD SWAP1 RETURN JUMPDEST PUSH2 0x11D PUSH2 0x29A JUMP JUMPDEST PUSH2 0x11D PUSH2 0x2DF JUMP JUMPDEST PUSH2 0x13F PUSH2 0x308 JUMP JUMPDEST PUSH2 0x13F PUSH2 0x317 JUMP JUMPDEST PUSH1 0x0 DUP1 SLOAD PUSH1 0x40 DUP1 MLOAD PUSH1 0x20 PUSH1 0x2 PUSH1 0x1 DUP6 AND ISZERO PUSH2 0x100 MUL PUSH1 0x0 NOT ADD SWAP1 SWAP5 AND SWAP4 SWAP1 SWAP4 DIV PUSH1 0x1F DUP2 ADD DUP5 SWAP1 DIV DUP5 MUL DUP3 ADD DUP5 ADD SWAP1 SWAP3 MSTORE DUP2 DUP2 MSTORE SWAP3 SWAP2 DUP4 ADD DUP3 DUP3 DUP1 ISZERO PUSH2 0x201 JUMPI DUP1 PUSH1 0x1F LT PUSH2 0x1D6 JUMPI PUSH2 0x100 DUP1 DUP4 SLOAD DIV MUL DUP4 MSTORE SWAP2 PUSH1 0x20 ADD SWAP2 PUSH2 0x201 JUMP JUMPDEST DUP3 ADD SWAP2 SWAP1 PUSH1 0x0 MSTORE PUSH1 0x20 PUSH1 0x0 KECCAK256 SWAP1 JUMPDEST DUP2 SLOAD DUP2 MSTORE SWAP1 PUSH1 0x1 ADD SWAP1 PUSH1 0x20 ADD DUP1 DUP4 GT PUSH2 0x1E4 JUMPI DUP3 SWAP1 SUB PUSH1 0x1F AND DUP3 ADD SWAP2 JUMPDEST POP POP POP POP POP DUP2 JUMP JUMPDEST PUSH8 0xDE0B6B3A7640000 SWAP1 JUMP JUMPDEST PUSH1 0x2 SLOAD PUSH1 0x40 DUP1 MLOAD PUSH4 0x176F717 PUSH1 0xE7 SHL DUP2 MSTORE SWAP1 MLOAD PUSH1 0x0 SWAP3 PUSH1 0x1 PUSH1 0x1 PUSH1 0xA0 SHL SUB AND SWAP2 PUSH4 0xBB7B8B80 SWAP2 PUSH1 0x4 DUP1 DUP4 ADD SWAP3 PUSH1 0x20 SWAP3 SWAP2 SWAP1 DUP3 SWAP1 SUB ADD DUP2 DUP7 DUP1 EXTCODESIZE ISZERO DUP1 ISZERO PUSH2 0x25A JUMPI PUSH1 0x0 DUP1 REVERT JUMPDEST POP GAS STATICCALL ISZERO DUP1 ISZERO PUSH2 0x26E JUMPI RETURNDATASIZE PUSH1 0x0 DUP1 RETURNDATACOPY RETURNDATASIZE PUSH1 0x0 REVERT JUMPDEST POP POP POP POP PUSH1 0x40 MLOAD RETURNDATASIZE PUSH1 0x20 DUP2 LT ISZERO PUSH2 0x284 JUMPI PUSH1 0x0 DUP1 REVERT JUMPDEST POP MLOAD SWAP1 POP SWAP1 JUMP JUMPDEST PUSH1 0x2 SLOAD PUSH1 0x1 PUSH1 0x1 PUSH1 0xA0 SHL SUB AND DUP2 JUMP JUMPDEST PUSH1 0x1 SLOAD PUSH1 0x40 DUP1 MLOAD PUSH4 0x1DF1EE3F PUSH1 0xE2 SHL DUP2 MSTORE SWAP1 MLOAD PUSH1 0x0 SWAP3 PUSH1 0x1 PUSH1 0x1 PUSH1 0xA0 SHL SUB AND SWAP2 PUSH4 0x77C7B8FC SWAP2 PUSH1 0x4 DUP1 DUP4 ADD SWAP3 PUSH1 0x20 SWAP3 SWAP2 SWAP1 DUP3 SWAP1 SUB ADD DUP2 DUP7 DUP1 EXTCODESIZE ISZERO DUP1 ISZERO PUSH2 0x25A JUMPI PUSH1 0x0 DUP1 REVERT JUMPDEST PUSH1 0x0 PUSH8 0xDE0B6B3A7640000 PUSH2 0x2F2 PUSH2 0x215 JUMP JUMPDEST PUSH2 0x2FA PUSH2 0x29A JUMP JUMPDEST MUL DUP2 PUSH2 0x302 JUMPI INVALID JUMPDEST DIV SWAP1 POP SWAP1 JUMP JUMPDEST PUSH1 0x1 SLOAD PUSH1 0x1 PUSH1 0x1 PUSH1 0xA0 SHL SUB AND DUP2 JUMP JUMPDEST PUSH20 0x5DBCF33D8C2E976C6B560249878E6F1491BCA25C SWAP1 JUMP INVALID LOG2 PUSH6 0x627A7A723058 KECCAK256 0xb1 DUP10 0xc INVALID DUP7 NOT 0x2c DUP5 SWAP14 0xb9 0xc0 0x5e 0x2f PUSH23 0x9DB03E8B54A21C9DA6F97BB82C53F75793CB64736F6C63 NUMBER STOP SDIV EXP STOP ORIGIN ",
  "sha1": "15a5efed8d3b9bc8d49cfbaf9f883f9f13eacb1d",
  "source": "pragma solidity >=0.4.21 <0.6.0;\n\nimport \"./IYieldStream.sol\";\n\ncontract yyCRVInterface{\n  function getPricePerFullShare() public view returns(uint256);\n}\n\ncontract yCRVInterface{\n  function get_virtual_price() public view returns (uint256);\n}\n\ncontract yUSDStream is IYieldStream{\n  yyCRVInterface public yycrv_address;\n  yCRVInterface public ycrv_address;\n\n  constructor() public{\n    name = \"yUSD yield stream\";\n    yycrv_address = yyCRVInterface(address(0x5dbcF33D8c2E976c6b560249878e6F1491Bca25c));\n    ycrv_address = yCRVInterface(address(0x45F783CCE6B7FF23B2ab2D70e416cdb7D6055f51));\n  }\n\n  function getyyCRVPrice() public view returns(uint256){\n    return yycrv_address.getPricePerFullShare();\n  }\n  function getyCRVPrice() public view returns(uint256){\n    return ycrv_address.get_virtual_price();\n  }\n\n  function target_token() public view returns(address){\n    return address(0x5dbcF33D8c2E976c6b560249878e6F1491Bca25c);\n  }\n\n  function getVirtualPrice() public view returns(uint256){\n    return getyyCRVPrice() * getyCRVPrice() / 1e18;\n  }\n  function getDecimal() public pure returns(uint256){\n    return 1e18;\n  }\n\n  function getPriceDecimal() public pure returns(uint256){\n    return 1e18;\n  }\n}\n",
  "sourcePath": "contracts/ystream/yUSDStream.sol",
  "type": "contract"
}